{
  "contractName": "ChildPotatoFarm",
  "abi": [
    {
      "inputs": [
        {
          "internalType": "address",
          "name": "potato_",
          "type": "address"
        }
      ],
      "stateMutability": "nonpayable",
      "type": "constructor"
    },
    {
      "inputs": [
        {
          "internalType": "address",
          "name": "",
          "type": "address"
        }
      ],
      "name": "plantedAmount",
      "outputs": [
        {
          "internalType": "uint256",
          "name": "",
          "type": "uint256"
        }
      ],
      "stateMutability": "view",
      "type": "function"
    },
    {
      "inputs": [
        {
          "internalType": "address",
          "name": "user",
          "type": "address"
        },
        {
          "internalType": "uint256",
          "name": "amount",
          "type": "uint256"
        }
      ],
      "name": "plantFor",
      "outputs": [],
      "stateMutability": "nonpayable",
      "type": "function"
    }
  ],
  "bytecode": "0x608060405234801561001057600080fd5b506040516101e93803806101e98339818101604052602081101561003357600080fd5b5051600080546001600160a01b039092166001600160a01b0319909216919091179055610184806100656000396000f3fe608060405234801561001057600080fd5b50600436106100365760003560e01c8063303fd25e1461003b5780634720537a14610069575b600080fd5b6100676004803603604081101561005157600080fd5b506001600160a01b0381351690602001356100a1565b005b61008f6004803603602081101561007f57600080fd5b50356001600160a01b031661013c565b60408051918252519081900360200190f35b6001600160a01b038083166000908152600160209081526040808320805486019055825481516323b872dd60e01b81523360048201523060248201526044810187905291519416936323b872dd93606480840194938390030190829087803b15801561010c57600080fd5b505af1158015610120573d6000803e3d6000fd5b505050506040513d602081101561013657600080fd5b50505050565b6001602052600090815260409020548156fea26469706673582212207bce680c140a2860f4b6076ba5b6296dd606d59d7a7aba472f635ba5fa3ae28864736f6c63430006060033",
  "immutableReferences": {},
  "source": "pragma solidity 0.6.6;\n\nimport \"@openzeppelin/contracts/token/ERC20/IERC20.sol\";\n\n// This is where potatoes are planted to earn harvest\ncontract ChildPotatoFarm {\n  IERC20 potato;\n  mapping(address => uint) public plantedAmount;\n\n  constructor(address potato_) public {\n    potato = IERC20(potato_);\n  }\n\n  function plantFor(address user, uint amount) external {\n    plantedAmount[user] += amount;\n    potato.transferFrom(msg.sender, address(this), amount);\n  }\n}\n",
  "sourcePath": "/Users/abhimanyushekhawat/projects/matic-contracts/contracts/test/PotatoMigration/ChildPotatoFarm.sol",
  "compiler": {
    "name": "solc",
    "version": "0.6.6+commit.6c089d02.Emscripten.clang"
  },
  "schemaVersion": "3.3.4",
  "updatedAt": "2021-03-01T19:59:54.841Z",
  "devdoc": {
    "methods": {}
  },
  "userdoc": {
    "methods": {}
  }
}