{
  "contractName": "ChildERC721",
  "abi": [
    {
      "inputs": [
        {
          "internalType": "string",
          "name": "name_",
          "type": "string"
        },
        {
          "internalType": "string",
          "name": "symbol_",
          "type": "string"
        },
        {
          "internalType": "address",
          "name": "childChainManager",
          "type": "address"
        }
      ],
      "stateMutability": "nonpayable",
      "type": "constructor"
    },
    {
      "anonymous": false,
      "inputs": [
        {
          "indexed": true,
          "internalType": "address",
          "name": "owner",
          "type": "address"
        },
        {
          "indexed": true,
          "internalType": "address",
          "name": "approved",
          "type": "address"
        },
        {
          "indexed": true,
          "internalType": "uint256",
          "name": "tokenId",
          "type": "uint256"
        }
      ],
      "name": "Approval",
      "type": "event"
    },
    {
      "anonymous": false,
      "inputs": [
        {
          "indexed": true,
          "internalType": "address",
          "name": "owner",
          "type": "address"
        },
        {
          "indexed": true,
          "internalType": "address",
          "name": "operator",
          "type": "address"
        },
        {
          "indexed": false,
          "internalType": "bool",
          "name": "approved",
          "type": "bool"
        }
      ],
      "name": "ApprovalForAll",
      "type": "event"
    },
    {
      "anonymous": false,
      "inputs": [
        {
          "indexed": false,
          "internalType": "address",
          "name": "userAddress",
          "type": "address"
        },
        {
          "indexed": false,
          "internalType": "address payable",
          "name": "relayerAddress",
          "type": "address"
        },
        {
          "indexed": false,
          "internalType": "bytes",
          "name": "functionSignature",
          "type": "bytes"
        }
      ],
      "name": "MetaTransactionExecuted",
      "type": "event"
    },
    {
      "anonymous": false,
      "inputs": [
        {
          "indexed": true,
          "internalType": "bytes32",
          "name": "role",
          "type": "bytes32"
        },
        {
          "indexed": true,
          "internalType": "bytes32",
          "name": "previousAdminRole",
          "type": "bytes32"
        },
        {
          "indexed": true,
          "internalType": "bytes32",
          "name": "newAdminRole",
          "type": "bytes32"
        }
      ],
      "name": "RoleAdminChanged",
      "type": "event"
    },
    {
      "anonymous": false,
      "inputs": [
        {
          "indexed": true,
          "internalType": "bytes32",
          "name": "role",
          "type": "bytes32"
        },
        {
          "indexed": true,
          "internalType": "address",
          "name": "account",
          "type": "address"
        },
        {
          "indexed": true,
          "internalType": "address",
          "name": "sender",
          "type": "address"
        }
      ],
      "name": "RoleGranted",
      "type": "event"
    },
    {
      "anonymous": false,
      "inputs": [
        {
          "indexed": true,
          "internalType": "bytes32",
          "name": "role",
          "type": "bytes32"
        },
        {
          "indexed": true,
          "internalType": "address",
          "name": "account",
          "type": "address"
        },
        {
          "indexed": true,
          "internalType": "address",
          "name": "sender",
          "type": "address"
        }
      ],
      "name": "RoleRevoked",
      "type": "event"
    },
    {
      "anonymous": false,
      "inputs": [
        {
          "indexed": true,
          "internalType": "address",
          "name": "from",
          "type": "address"
        },
        {
          "indexed": true,
          "internalType": "address",
          "name": "to",
          "type": "address"
        },
        {
          "indexed": true,
          "internalType": "uint256",
          "name": "tokenId",
          "type": "uint256"
        }
      ],
      "name": "Transfer",
      "type": "event"
    },
    {
      "anonymous": false,
      "inputs": [
        {
          "indexed": true,
          "internalType": "address",
          "name": "user",
          "type": "address"
        },
        {
          "indexed": false,
          "internalType": "uint256[]",
          "name": "tokenIds",
          "type": "uint256[]"
        }
      ],
      "name": "WithdrawnBatch",
      "type": "event"
    },
    {
      "inputs": [],
      "name": "BATCH_LIMIT",
      "outputs": [
        {
          "internalType": "uint256",
          "name": "",
          "type": "uint256"
        }
      ],
      "stateMutability": "view",
      "type": "function"
    },
    {
      "inputs": [],
      "name": "DEFAULT_ADMIN_ROLE",
      "outputs": [
        {
          "internalType": "bytes32",
          "name": "",
          "type": "bytes32"
        }
      ],
      "stateMutability": "view",
      "type": "function"
    },
    {
      "inputs": [],
      "name": "DEPOSITOR_ROLE",
      "outputs": [
        {
          "internalType": "bytes32",
          "name": "",
          "type": "bytes32"
        }
      ],
      "stateMutability": "view",
      "type": "function"
    },
    {
      "inputs": [],
      "name": "ERC712_VERSION",
      "outputs": [
        {
          "internalType": "string",
          "name": "",
          "type": "string"
        }
      ],
      "stateMutability": "view",
      "type": "function"
    },
    {
      "inputs": [
        {
          "internalType": "address",
          "name": "to",
          "type": "address"
        },
        {
          "internalType": "uint256",
          "name": "tokenId",
          "type": "uint256"
        }
      ],
      "name": "approve",
      "outputs": [],
      "stateMutability": "nonpayable",
      "type": "function"
    },
    {
      "inputs": [
        {
          "internalType": "address",
          "name": "owner",
          "type": "address"
        }
      ],
      "name": "balanceOf",
      "outputs": [
        {
          "internalType": "uint256",
          "name": "",
          "type": "uint256"
        }
      ],
      "stateMutability": "view",
      "type": "function"
    },
    {
      "inputs": [],
      "name": "baseURI",
      "outputs": [
        {
          "internalType": "string",
          "name": "",
          "type": "string"
        }
      ],
      "stateMutability": "view",
      "type": "function"
    },
    {
      "inputs": [
        {
          "internalType": "address",
          "name": "userAddress",
          "type": "address"
        },
        {
          "internalType": "bytes",
          "name": "functionSignature",
          "type": "bytes"
        },
        {
          "internalType": "bytes32",
          "name": "sigR",
          "type": "bytes32"
        },
        {
          "internalType": "bytes32",
          "name": "sigS",
          "type": "bytes32"
        },
        {
          "internalType": "uint8",
          "name": "sigV",
          "type": "uint8"
        }
      ],
      "name": "executeMetaTransaction",
      "outputs": [
        {
          "internalType": "bytes",
          "name": "",
          "type": "bytes"
        }
      ],
      "stateMutability": "payable",
      "type": "function"
    },
    {
      "inputs": [
        {
          "internalType": "uint256",
          "name": "tokenId",
          "type": "uint256"
        }
      ],
      "name": "getApproved",
      "outputs": [
        {
          "internalType": "address",
          "name": "",
          "type": "address"
        }
      ],
      "stateMutability": "view",
      "type": "function"
    },
    {
      "inputs": [],
      "name": "getChainId",
      "outputs": [
        {
          "internalType": "uint256",
          "name": "",
          "type": "uint256"
        }
      ],
      "stateMutability": "pure",
      "type": "function"
    },
    {
      "inputs": [],
      "name": "getDomainSeperator",
      "outputs": [
        {
          "internalType": "bytes32",
          "name": "",
          "type": "bytes32"
        }
      ],
      "stateMutability": "view",
      "type": "function"
    },
    {
      "inputs": [
        {
          "internalType": "address",
          "name": "user",
          "type": "address"
        }
      ],
      "name": "getNonce",
      "outputs": [
        {
          "internalType": "uint256",
          "name": "nonce",
          "type": "uint256"
        }
      ],
      "stateMutability": "view",
      "type": "function"
    },
    {
      "inputs": [
        {
          "internalType": "bytes32",
          "name": "role",
          "type": "bytes32"
        }
      ],
      "name": "getRoleAdmin",
      "outputs": [
        {
          "internalType": "bytes32",
          "name": "",
          "type": "bytes32"
        }
      ],
      "stateMutability": "view",
      "type": "function"
    },
    {
      "inputs": [
        {
          "internalType": "bytes32",
          "name": "role",
          "type": "bytes32"
        },
        {
          "internalType": "uint256",
          "name": "index",
          "type": "uint256"
        }
      ],
      "name": "getRoleMember",
      "outputs": [
        {
          "internalType": "address",
          "name": "",
          "type": "address"
        }
      ],
      "stateMutability": "view",
      "type": "function"
    },
    {
      "inputs": [
        {
          "internalType": "bytes32",
          "name": "role",
          "type": "bytes32"
        }
      ],
      "name": "getRoleMemberCount",
      "outputs": [
        {
          "internalType": "uint256",
          "name": "",
          "type": "uint256"
        }
      ],
      "stateMutability": "view",
      "type": "function"
    },
    {
      "inputs": [
        {
          "internalType": "bytes32",
          "name": "role",
          "type": "bytes32"
        },
        {
          "internalType": "address",
          "name": "account",
          "type": "address"
        }
      ],
      "name": "grantRole",
      "outputs": [],
      "stateMutability": "nonpayable",
      "type": "function"
    },
    {
      "inputs": [
        {
          "internalType": "bytes32",
          "name": "role",
          "type": "bytes32"
        },
        {
          "internalType": "address",
          "name": "account",
          "type": "address"
        }
      ],
      "name": "hasRole",
      "outputs": [
        {
          "internalType": "bool",
          "name": "",
          "type": "bool"
        }
      ],
      "stateMutability": "view",
      "type": "function"
    },
    {
      "inputs": [
        {
          "internalType": "address",
          "name": "owner",
          "type": "address"
        },
        {
          "internalType": "address",
          "name": "operator",
          "type": "address"
        }
      ],
      "name": "isApprovedForAll",
      "outputs": [
        {
          "internalType": "bool",
          "name": "",
          "type": "bool"
        }
      ],
      "stateMutability": "view",
      "type": "function"
    },
    {
      "inputs": [],
      "name": "name",
      "outputs": [
        {
          "internalType": "string",
          "name": "",
          "type": "string"
        }
      ],
      "stateMutability": "view",
      "type": "function"
    },
    {
      "inputs": [
        {
          "internalType": "uint256",
          "name": "tokenId",
          "type": "uint256"
        }
      ],
      "name": "ownerOf",
      "outputs": [
        {
          "internalType": "address",
          "name": "",
          "type": "address"
        }
      ],
      "stateMutability": "view",
      "type": "function"
    },
    {
      "inputs": [
        {
          "internalType": "bytes32",
          "name": "role",
          "type": "bytes32"
        },
        {
          "internalType": "address",
          "name": "account",
          "type": "address"
        }
      ],
      "name": "renounceRole",
      "outputs": [],
      "stateMutability": "nonpayable",
      "type": "function"
    },
    {
      "inputs": [
        {
          "internalType": "bytes32",
          "name": "role",
          "type": "bytes32"
        },
        {
          "internalType": "address",
          "name": "account",
          "type": "address"
        }
      ],
      "name": "revokeRole",
      "outputs": [],
      "stateMutability": "nonpayable",
      "type": "function"
    },
    {
      "inputs": [
        {
          "internalType": "address",
          "name": "from",
          "type": "address"
        },
        {
          "internalType": "address",
          "name": "to",
          "type": "address"
        },
        {
          "internalType": "uint256",
          "name": "tokenId",
          "type": "uint256"
        }
      ],
      "name": "safeTransferFrom",
      "outputs": [],
      "stateMutability": "nonpayable",
      "type": "function"
    },
    {
      "inputs": [
        {
          "internalType": "address",
          "name": "from",
          "type": "address"
        },
        {
          "internalType": "address",
          "name": "to",
          "type": "address"
        },
        {
          "internalType": "uint256",
          "name": "tokenId",
          "type": "uint256"
        },
        {
          "internalType": "bytes",
          "name": "_data",
          "type": "bytes"
        }
      ],
      "name": "safeTransferFrom",
      "outputs": [],
      "stateMutability": "nonpayable",
      "type": "function"
    },
    {
      "inputs": [
        {
          "internalType": "address",
          "name": "operator",
          "type": "address"
        },
        {
          "internalType": "bool",
          "name": "approved",
          "type": "bool"
        }
      ],
      "name": "setApprovalForAll",
      "outputs": [],
      "stateMutability": "nonpayable",
      "type": "function"
    },
    {
      "inputs": [
        {
          "internalType": "bytes4",
          "name": "interfaceId",
          "type": "bytes4"
        }
      ],
      "name": "supportsInterface",
      "outputs": [
        {
          "internalType": "bool",
          "name": "",
          "type": "bool"
        }
      ],
      "stateMutability": "view",
      "type": "function"
    },
    {
      "inputs": [],
      "name": "symbol",
      "outputs": [
        {
          "internalType": "string",
          "name": "",
          "type": "string"
        }
      ],
      "stateMutability": "view",
      "type": "function"
    },
    {
      "inputs": [
        {
          "internalType": "uint256",
          "name": "index",
          "type": "uint256"
        }
      ],
      "name": "tokenByIndex",
      "outputs": [
        {
          "internalType": "uint256",
          "name": "",
          "type": "uint256"
        }
      ],
      "stateMutability": "view",
      "type": "function"
    },
    {
      "inputs": [
        {
          "internalType": "address",
          "name": "owner",
          "type": "address"
        },
        {
          "internalType": "uint256",
          "name": "index",
          "type": "uint256"
        }
      ],
      "name": "tokenOfOwnerByIndex",
      "outputs": [
        {
          "internalType": "uint256",
          "name": "",
          "type": "uint256"
        }
      ],
      "stateMutability": "view",
      "type": "function"
    },
    {
      "inputs": [
        {
          "internalType": "uint256",
          "name": "tokenId",
          "type": "uint256"
        }
      ],
      "name": "tokenURI",
      "outputs": [
        {
          "internalType": "string",
          "name": "",
          "type": "string"
        }
      ],
      "stateMutability": "view",
      "type": "function"
    },
    {
      "inputs": [],
      "name": "totalSupply",
      "outputs": [
        {
          "internalType": "uint256",
          "name": "",
          "type": "uint256"
        }
      ],
      "stateMutability": "view",
      "type": "function"
    },
    {
      "inputs": [
        {
          "internalType": "address",
          "name": "from",
          "type": "address"
        },
        {
          "internalType": "address",
          "name": "to",
          "type": "address"
        },
        {
          "internalType": "uint256",
          "name": "tokenId",
          "type": "uint256"
        }
      ],
      "name": "transferFrom",
      "outputs": [],
      "stateMutability": "nonpayable",
      "type": "function"
    },
    {
      "inputs": [
        {
          "internalType": "address",
          "name": "user",
          "type": "address"
        },
        {
          "internalType": "bytes",
          "name": "depositData",
          "type": "bytes"
        }
      ],
      "name": "deposit",
      "outputs": [],
      "stateMutability": "nonpayable",
      "type": "function"
    },
    {
      "inputs": [
        {
          "internalType": "uint256",
          "name": "tokenId",
          "type": "uint256"
        }
      ],
      "name": "withdraw",
      "outputs": [],
      "stateMutability": "nonpayable",
      "type": "function"
    },
    {
      "inputs": [
        {
          "internalType": "uint256[]",
          "name": "tokenIds",
          "type": "uint256[]"
        }
      ],
      "name": "withdrawBatch",
      "outputs": [],
      "stateMutability": "nonpayable",
      "type": "function"
    }
  ],
  "bytecode": "0x6080604052600c805460ff191690553480156200001b57600080fd5b506040516200393d3803806200393d833981810160405260608110156200004157600080fd5b81019080805160405193929190846401000000008211156200006257600080fd5b9083019060208201858111156200007857600080fd5b82516401000000008111828201881017156200009357600080fd5b82525081516020918201929091019080838360005b83811015620000c2578181015183820152602001620000a8565b50505050905090810190601f168015620000f05780820380516001836020036101000a031916815260200191505b50604052602001805160405193929190846401000000008211156200011457600080fd5b9083019060208201858111156200012a57600080fd5b82516401000000008111828201881017156200014557600080fd5b82525081516020918201929091019080838360005b83811015620001745781810151838201526020016200015a565b50505050905090810190601f168015620001a25780820380516001836020036101000a031916815260200191505b5060405260200151915083905082620001cb6301ffc9a760e01b6001600160e01b03620002fd16565b8151620001e090600690602085019062000710565b508051620001f690600790602084019062000710565b50620002126380ac58cd60e01b6001600160e01b03620002fd16565b6200022d635b5e139f60e01b6001600160e01b03620002fd16565b6200024863780e9d6360e01b6001600160e01b03620002fd16565b505060408051808201909152600b81526a4368696c6445524337323160a81b602082015262000280906001600160e01b036200038216565b620002a86000620002996001600160e01b036200042816565b6001600160e01b036200044516565b604080516d4445504f5349544f525f524f4c4560901b8152905190819003600e019020620002e090826001600160e01b036200044516565b620002f4836001600160e01b036200045a16565b505050620007b2565b6001600160e01b031980821614156200035d576040805162461bcd60e51b815260206004820152601c60248201527f4552433136353a20696e76616c696420696e7465726661636520696400000000604482015290519081900360640190fd5b6001600160e01b0319166000908152602081905260409020805460ff19166001179055565b806040516020018082805190602001908083835b60208310620003b75780518252601f19909201916020918201910162000396565b51815160209384036101000a60001901801990921691161790527f3a20494e53554646494349454e545f5045524d495353494f4e530000000000009190930190815260408051808303600519018152601a90920190528051620004249550600b9450920191905062000710565b5050565b60006200043f620004c860201b620024481760201c565b90505b90565b6200042482826001600160e01b036200052716565b600c5460ff1615620004a4576040805162461bcd60e51b815260206004820152600e60248201526d185b1c9958591e481a5b9a5d195960921b604482015290519081900360640190fd5b620004b8816001600160e01b03620005ab16565b50600c805460ff19166001179055565b600033301415620005225760606000368080601f0160208091040260200160405190810160405280939291908181526020018383808284376000920191909152505050503601516001600160a01b03169150620004429050565b503390565b6000828152600a602090815260409091206200054e918390620025bb62000673821b17901c565b156200042457620005676001600160e01b036200042816565b6001600160a01b0316816001600160a01b0316837f2f8788117e7eff1d82e926ec794901d17c78024a50270940304540a733656f0d60405160405180910390a45050565b6040518060800160405280604f8152602001620038ee604f913980516020918201208251838301206040805180820190915260018152603160f81b930192909252907fc89efdaa54c0f20c7adf612882df0950f5a951637e0307cdcb4c672f298b8bc630620006226001600160e01b036200069c16565b604080516020808201979097528082019590955260608501939093526001600160a01b03909116608084015260a0808401919091528151808403909101815260c090920190528051910120600d5550565b600062000693836001600160a01b0384166001600160e01b03620006a016565b90505b92915050565b4690565b6000620006b783836001600160e01b03620006f816565b620006ef5750815460018181018455600084815260208082209093018490558454848252828601909352604090209190915562000696565b50600062000696565b60009081526001919091016020526040902054151590565b828054600181600116156101000203166002900490600052602060002090601f016020900481019282601f106200075357805160ff191683800117855562000783565b8280016001018555821562000783579182015b828111156200078357825182559160200191906001019062000766565b506200079192915062000795565b5090565b6200044291905b808211156200079157600081556001016200079c565b61312c80620007c26000396000f3fe6080604052600436106102045760003560e01c80634f6ccce711610118578063a217fddf116100a0578063c87b56dd1161006f578063c87b56dd1461091c578063ca15c87314610946578063cf2c52cb14610970578063d547741f146109fb578063e985e9c514610a3457610204565b8063a217fddf146107e6578063a22cb465146107fb578063a3b0b5a314610836578063b88d4fde1461084b57610204565b80639010d07c116100e75780639010d07c146106d857806391d14854146107085780639559c0bd1461074157806395d89b41146107565780639c8d41561461076b57610204565b80634f6ccce71461063c5780636352211e146106665780636c0360eb1461069057806370a08231146106a557610204565b806323b872dd1161019b5780632f2ff15d1161016a5780632f2ff15d146105395780632f745c59146105725780633408e470146105ab57806336568abe146105c057806342842e0e146105f957610204565b806323b872dd1461046f578063248a9ca3146104b25780632d0335ab146104dc5780632e1a7d4d1461050f57610204565b80630c53c51c116101d75780630c53c51c1461035c5780630f7e59701461041e57806318160ddd1461043357806320379ee51461045a57610204565b806301ffc9a71461020957806306fdde0314610251578063081812fc146102db578063095ea7b314610321575b600080fd5b34801561021557600080fd5b5061023d6004803603602081101561022c57600080fd5b50356001600160e01b031916610a6f565b604080519115158252519081900360200190f35b34801561025d57600080fd5b50610266610a92565b6040805160208082528351818301528351919283929083019185019080838360005b838110156102a0578181015183820152602001610288565b50505050905090810190601f1680156102cd5780820380516001836020036101000a031916815260200191505b509250505060405180910390f35b3480156102e757600080fd5b50610305600480360360208110156102fe57600080fd5b5035610b29565b604080516001600160a01b039092168252519081900360200190f35b34801561032d57600080fd5b5061035a6004803603604081101561034457600080fd5b506001600160a01b038135169060200135610b8b565b005b610266600480360360a081101561037257600080fd5b6001600160a01b038235169190810190604081016020820135600160201b81111561039c57600080fd5b8201836020820111156103ae57600080fd5b803590602001918460018302840111600160201b831117156103cf57600080fd5b91908080601f016020809104026020016040519081016040528093929190818152602001838380828437600092019190915250929550508235935050506020810135906040013560ff16610c66565b34801561042a57600080fd5b50610266610f69565b34801561043f57600080fd5b50610448610f86565b60408051918252519081900360200190f35b34801561046657600080fd5b50610448610f97565b34801561047b57600080fd5b5061035a6004803603606081101561049257600080fd5b506001600160a01b03813581169160208101359091169060400135610f9d565b3480156104be57600080fd5b50610448600480360360208110156104d557600080fd5b5035610ff4565b3480156104e857600080fd5b50610448600480360360208110156104ff57600080fd5b50356001600160a01b0316611009565b34801561051b57600080fd5b5061035a6004803603602081101561053257600080fd5b5035611024565b34801561054557600080fd5b5061035a6004803603604081101561055c57600080fd5b50803590602001356001600160a01b03166110a5565b34801561057e57600080fd5b506104486004803603604081101561059557600080fd5b506001600160a01b038135169060200135611111565b3480156105b757600080fd5b50610448611142565b3480156105cc57600080fd5b5061035a600480360360408110156105e357600080fd5b50803590602001356001600160a01b0316611146565b34801561060557600080fd5b5061035a6004803603606081101561061c57600080fd5b506001600160a01b038135811691602081013590911690604001356111a7565b34801561064857600080fd5b506104486004803603602081101561065f57600080fd5b50356111c2565b34801561067257600080fd5b506103056004803603602081101561068957600080fd5b50356111de565b34801561069c57600080fd5b5061026661120c565b3480156106b157600080fd5b50610448600480360360208110156106c857600080fd5b50356001600160a01b031661126d565b3480156106e457600080fd5b50610305600480360360408110156106fb57600080fd5b50803590602001356112d5565b34801561071457600080fd5b5061023d6004803603604081101561072b57600080fd5b50803590602001356001600160a01b03166112f3565b34801561074d57600080fd5b50610448611311565b34801561076257600080fd5b50610266611316565b34801561077757600080fd5b5061035a6004803603602081101561078e57600080fd5b810190602081018135600160201b8111156107a857600080fd5b8201836020820111156107ba57600080fd5b803590602001918460208302840111600160201b831117156107db57600080fd5b509092509050611377565b3480156107f257600080fd5b50610448611555565b34801561080757600080fd5b5061035a6004803603604081101561081e57600080fd5b506001600160a01b038135169060200135151561155a565b34801561084257600080fd5b5061044861165f565b34801561085757600080fd5b5061035a6004803603608081101561086e57600080fd5b6001600160a01b03823581169260208101359091169160408201359190810190608081016060820135600160201b8111156108a857600080fd5b8201836020820111156108ba57600080fd5b803590602001918460018302840111600160201b831117156108db57600080fd5b91908080601f016020809104026020016040519081016040528093929190818152602001838380828437600092019190915250929550611685945050505050565b34801561092857600080fd5b506102666004803603602081101561093f57600080fd5b50356116e3565b34801561095257600080fd5b506104486004803603602081101561096957600080fd5b503561198a565b34801561097c57600080fd5b5061035a6004803603604081101561099357600080fd5b6001600160a01b038235169190810190604081016020820135600160201b8111156109bd57600080fd5b8201836020820111156109cf57600080fd5b803590602001918460018302840111600160201b831117156109f057600080fd5b5090925090506119a1565b348015610a0757600080fd5b5061035a60048036036040811015610a1e57600080fd5b50803590602001356001600160a01b0316611b74565b348015610a4057600080fd5b5061023d60048036036040811015610a5757600080fd5b506001600160a01b0381358116916020013516611bcd565b6001600160e01b0319811660009081526020819052604090205460ff165b919050565b60068054604080516020601f6002600019610100600188161502019095169490940493840181900481028201810190925282815260609390929091830182828015610b1e5780601f10610af357610100808354040283529160200191610b1e565b820191906000526020600020905b815481529060010190602001808311610b0157829003601f168201915b505050505090505b90565b6000610b3482611bfb565b610b6f5760405162461bcd60e51b815260040180806020018281038252602c815260200180612fd1602c913960400191505060405180910390fd5b506000908152600460205260409020546001600160a01b031690565b6000610b96826111de565b9050806001600160a01b0316836001600160a01b03161415610be95760405162461bcd60e51b81526004018080602001828103825260218152602001806130766021913960400191505060405180910390fd5b806001600160a01b0316610bfb611c0e565b6001600160a01b03161480610c1c5750610c1c81610c17611c0e565b611bcd565b610c575760405162461bcd60e51b8152600401808060200182810382526038815260200180612f246038913960400191505060405180910390fd5b610c618383611c18565b505050565b6060610c70612d14565b50604080516060810182526001600160a01b0388166000818152600e602090815290849020548352820152908101869052610cae8782878787611c86565b610ce95760405162461bcd60e51b81526004018080602001828103825260218152602001806130266021913960400191505060405180910390fd5b6001600160a01b0387166000908152600e6020526040902054610d1390600163ffffffff611d6316565b6001600160a01b0388166000818152600e602090815260408083209490945583519283523383820181905260609484018581528b51958501959095528a517f5845892132946850460bff5a0083f71031bc5bf9aadcd40f1de79423eac9b10b958d9592948d94919260808501928601918190849084905b83811015610da2578181015183820152602001610d8a565b50505050905090810190601f168015610dcf5780820380516001836020036101000a031916815260200191505b5094505050505060405180910390a160006060306001600160a01b0316888a6040516020018083805190602001908083835b60208310610e205780518252601f199092019160209182019101610e01565b6001836020036101000a038019825116818451168082178552505050505050905001826001600160a01b03166001600160a01b031660601b8152601401925050506040516020818303038152906040526040518082805190602001908083835b60208310610e9f5780518252601f199092019160209182019101610e80565b6001836020036101000a0380198251168184511680821785525050505050509050019150506000604051808303816000865af19150503d8060008114610f01576040519150601f19603f3d011682016040523d82523d6000602084013e610f06565b606091505b509150915081610f5d576040805162461bcd60e51b815260206004820152601c60248201527f46756e6374696f6e2063616c6c206e6f74207375636365737366756c00000000604482015290519081900360640190fd5b98975050505050505050565b604051806040016040528060018152602001603160f81b81525081565b6000610f926002611dbd565b905090565b600d5490565b610fae610fa8611c0e565b82611dc8565b610fe95760405162461bcd60e51b81526004018080602001828103825260318152602001806130976031913960400191505060405180910390fd5b610c61838383611e6c565b6000908152600a602052604090206002015490565b6001600160a01b03166000908152600e602052604090205490565b61102d816111de565b6001600160a01b031661103e611c0e565b6001600160a01b031614611099576040805162461bcd60e51b815260206004820181905260248201527f4368696c644552433732313a20494e56414c49445f544f4b454e5f4f574e4552604482015290519081900360640190fd5b6110a281611fca565b50565b6000828152600a60205260409020600201546110c8906110c3611c0e565b6112f3565b6111035760405162461bcd60e51b815260040180806020018281038252602f815260200180612dba602f913960400191505060405180910390fd5b61110d82826120a3565b5050565b6001600160a01b0382166000908152600160205260408120611139908363ffffffff61211216565b90505b92915050565b4690565b61114e611c0e565b6001600160a01b0316816001600160a01b03161461119d5760405162461bcd60e51b815260040180806020018281038252602f8152602001806130c8602f913960400191505060405180910390fd5b61110d828261211e565b610c6183838360405180602001604052806000815250611685565b6000806111d660028463ffffffff61218d16565b509392505050565b600061113c82604051806060016040528060298152602001612f86602991396002919063ffffffff6121a916565b60098054604080516020601f6002600019610100600188161502019095169490940493840181900481028201810190925282815260609390929091830182828015610b1e5780601f10610af357610100808354040283529160200191610b1e565b60006001600160a01b0382166112b45760405162461bcd60e51b815260040180806020018281038252602a815260200180612f5c602a913960400191505060405180910390fd5b6001600160a01b038216600090815260016020526040902061113c90611dbd565b6000828152600a60205260408120611139908363ffffffff61211216565b6000828152600a60205260408120611139908363ffffffff6121c016565b601481565b60078054604080516020601f6002600019610100600188161502019095169490940493840181900481028201810190925282815260609390929091830182828015610b1e5780601f10610af357610100808354040283529160200191610b1e565b8060148111156113ce576040805162461bcd60e51b815260206004820181905260248201527f4368696c644552433732313a20455843454544535f42415443485f4c494d4954604482015290519081900360640190fd5b60005b818110156114db5760008484838181106113e757fe5b9050602002013590506113f9816111de565b6001600160a01b031661140a611c0e565b6001600160a01b031614816040516020018080612ede60219139602101828152602001915050604051602081830303815290604052906114c85760405162461bcd60e51b81526004018080602001828103825283818151815260200191508051906020019080838360005b8381101561148d578181015183820152602001611475565b50505050905090810190601f1680156114ba5780820380516001836020036101000a031916815260200191505b509250505060405180910390fd5b506114d281611fca565b506001016113d1565b506114e4611c0e565b6001600160a01b03167ff871896b17e9cb7a64941c62c188a4f5c621b86800e3d15452ece01ce56073df848460405180806020018281038252848482818152602001925060200280828437600083820152604051601f909101601f19169092018290039550909350505050a2505050565b600081565b611562611c0e565b6001600160a01b0316826001600160a01b031614156115c8576040805162461bcd60e51b815260206004820152601960248201527f4552433732313a20617070726f766520746f2063616c6c657200000000000000604482015290519081900360640190fd5b80600560006115d5611c0e565b6001600160a01b03908116825260208083019390935260409182016000908120918716808252919093529120805460ff191692151592909217909155611619611c0e565b60408051841515815290516001600160a01b0392909216917f17307eab39ab6107e8899845ad3d59bd9653f200f220920489ca2b5937696c319181900360200190a35050565b604080516d4445504f5349544f525f524f4c4560901b8152905190819003600e01902081565b611696611690611c0e565b83611dc8565b6116d15760405162461bcd60e51b81526004018080602001828103825260318152602001806130976031913960400191505060405180910390fd5b6116dd848484846121d5565b50505050565b60606116ee82611bfb565b6117295760405162461bcd60e51b815260040180806020018281038252602f815260200180613047602f913960400191505060405180910390fd5b60008281526008602090815260409182902080548351601f60026000196101006001861615020190931692909204918201849004840281018401909452808452606093928301828280156117be5780601f10611793576101008083540402835291602001916117be565b820191906000526020600020905b8154815290600101906020018083116117a157829003601f168201915b5050600954939450505050600260001961010060018416150201909116046117e7579050610a8d565b8051156118b857600981604051602001808380546001816001161561010002031660029004801561184f5780601f1061182d57610100808354040283529182019161184f565b820191906000526020600020905b81548152906001019060200180831161183b575b5050825160208401908083835b6020831061187b5780518252601f19909201916020918201910161185c565b6001836020036101000a03801982511681845116808217855250505050505090500192505050604051602081830303815290604052915050610a8d565b60096118c384612227565b60405160200180838054600181600116156101000203166002900480156119215780601f106118ff576101008083540402835291820191611921565b820191906000526020600020905b81548152906001019060200180831161190d575b5050825160208401908083835b6020831061194d5780518252601f19909201916020918201910161192e565b6001836020036101000a03801982511681845116808217855250505050505090500192505050604051602081830303815290604052915050919050565b6000818152600a6020526040812061113c90611dbd565b604080516d4445504f5349544f525f524f4c4560901b8152905190819003600e0190206119d0816110c3611c0e565b600b90611a705760405162461bcd60e51b8152602060048201908152825460026000196101006001841615020190911604602483018190529091829160449091019084908015611a615780601f10611a3657610100808354040283529160200191611a61565b820191906000526020600020905b815481529060010190602001808311611a4457829003601f168201915b50509250505060405180910390fd5b506020821415611aa057600083836020811015611a8c57600080fd5b50359050611a9a8582612302565b506116dd565b606083836020811015611ab257600080fd5b810190602081018135600160201b811115611acc57600080fd5b820183602082011115611ade57600080fd5b803590602001918460208302840111600160201b83111715611aff57600080fd5b91908080602002602001604051908101604052809392919081815260200183836020028082843760009201829052508451949850939650929450505050505b81811015611b6b57611b6387848381518110611b5657fe5b6020026020010151612302565b600101611b3e565b50505050505050565b6000828152600a6020526040902060020154611b92906110c3611c0e565b61119d5760405162461bcd60e51b8152600401808060200182810382526030815260200180612eae6030913960400191505060405180910390fd5b6001600160a01b03918216600090815260056020908152604080832093909416825291909152205460ff1690565b600061113c60028363ffffffff61243c16565b6000610f92612448565b600081815260046020526040902080546001600160a01b0319166001600160a01b0384169081179091558190611c4d826111de565b6001600160a01b03167f8c5be1e5ebec7d5bd14f71427d1e84f3dd0314c0f7b2291e5b200ac8c7c3b92560405160405180910390a45050565b60006001600160a01b038616611ccd5760405162461bcd60e51b8152600401808060200182810382526025815260200180612eff6025913960400191505060405180910390fd5b6001611ce0611cdb876124a5565b612531565b83868660405160008152602001604052604051808581526020018460ff1660ff1681526020018381526020018281526020019450505050506020604051602081039080840390855afa158015611d3a573d6000803e3d6000fd5b505050602060405103516001600160a01b0316866001600160a01b031614905095945050505050565b600082820183811015611139576040805162461bcd60e51b815260206004820152601b60248201527f536166654d6174683a206164646974696f6e206f766572666c6f770000000000604482015290519081900360640190fd5b600061113c8261257d565b6000611dd382611bfb565b611e0e5760405162461bcd60e51b815260040180806020018281038252602c815260200180612e82602c913960400191505060405180910390fd5b6000611e19836111de565b9050806001600160a01b0316846001600160a01b03161480611e545750836001600160a01b0316611e4984610b29565b6001600160a01b0316145b80611e645750611e648185611bcd565b949350505050565b826001600160a01b0316611e7f826111de565b6001600160a01b031614611ec45760405162461bcd60e51b8152600401808060200182810382526029815260200180612ffd6029913960400191505060405180910390fd5b6001600160a01b038216611f095760405162461bcd60e51b8152600401808060200182810382526024815260200180612e5e6024913960400191505060405180910390fd5b611f14838383610c61565b611f1f600082611c18565b6001600160a01b0383166000908152600160205260409020611f47908263ffffffff61258116565b506001600160a01b0382166000908152600160205260409020611f70908263ffffffff61258d16565b50611f836002828463ffffffff61259916565b5080826001600160a01b0316846001600160a01b03167fddf252ad1be2c89b69c2b068fc378daa952ba7f163c4a11628f55a4df523b3ef60405160405180910390a4505050565b6000611fd5826111de565b9050611fe381600084610c61565b611fee600083611c18565b600082815260086020526040902054600260001961010060018416150201909116041561202c57600082815260086020526040812061202c91612d3e565b6001600160a01b0381166000908152600160205260409020612054908363ffffffff61258116565b5061206660028363ffffffff6125af16565b5060405182906000906001600160a01b038416907fddf252ad1be2c89b69c2b068fc378daa952ba7f163c4a11628f55a4df523b3ef908390a45050565b6000828152600a602052604090206120c1908263ffffffff6125bb16565b1561110d576120ce611c0e565b6001600160a01b0316816001600160a01b0316837f2f8788117e7eff1d82e926ec794901d17c78024a50270940304540a733656f0d60405160405180910390a45050565b600061113983836125d0565b6000828152600a6020526040902061213c908263ffffffff61263416565b1561110d57612149611c0e565b6001600160a01b0316816001600160a01b0316837ff6391f5c32d9c69d2a47ea670b442974b53935d1edc7fd64eb21e047a839171b60405160405180910390a45050565b600080808061219c8686612649565b9097909650945050505050565b60006121b68484846126c4565b90505b9392505050565b6000611139836001600160a01b038416612751565b6121e0848484611e6c565b6121ec84848484612769565b6116dd5760405162461bcd60e51b8152600401808060200182810382526032815260200180612de96032913960400191505060405180910390fd5b60608161224c57506040805180820190915260018152600360fc1b6020820152610a8d565b8160005b811561226457600101600a82049150612250565b60608167ffffffffffffffff8111801561227d57600080fd5b506040519080825280601f01601f1916602001820160405280156122a8576020820181803683370190505b50859350905060001982015b83156122f957600a840660300160f81b828280600190039350815181106122d757fe5b60200101906001600160f81b031916908160001a905350600a840493506122b4565b50949350505050565b6001600160a01b03821661235d576040805162461bcd60e51b815260206004820181905260248201527f4552433732313a206d696e7420746f20746865207a65726f2061646472657373604482015290519081900360640190fd5b61236681611bfb565b156123b8576040805162461bcd60e51b815260206004820152601c60248201527f4552433732313a20746f6b656e20616c7265616479206d696e74656400000000604482015290519081900360640190fd5b6123c460008383610c61565b6001600160a01b03821660009081526001602052604090206123ec908263ffffffff61258d16565b506123ff6002828463ffffffff61259916565b5060405181906001600160a01b038416906000907fddf252ad1be2c89b69c2b068fc378daa952ba7f163c4a11628f55a4df523b3ef908290a45050565b60006111398383612751565b6000333014156124a05760606000368080601f0160208091040260200160405190810160405280939291908181526020018383808284376000920191909152505050503601516001600160a01b03169150610b269050565b503390565b6000604051806080016040528060438152602001612e1b60439139805190602001208260000151836020015184604001518051906020012060405160200180858152602001848152602001836001600160a01b03166001600160a01b03168152602001828152602001945050505050604051602081830303815290604052805190602001209050919050565b600061253b610f97565b82604051602001808061190160f01b81525060020183815260200182815260200192505050604051602081830303815290604052805190602001209050919050565b5490565b600061113983836128e9565b600061113983836129af565b60006121b684846001600160a01b0385166129f9565b60006111398383612a90565b6000611139836001600160a01b0384166129af565b815460009082106126125760405162461bcd60e51b8152600401808060200182810382526022815260200180612d986022913960400191505060405180910390fd5b82600001828154811061262157fe5b9060005260206000200154905092915050565b6000611139836001600160a01b0384166128e9565b81546000908190831061268d5760405162461bcd60e51b8152600401808060200182810382526022815260200180612faf6022913960400191505060405180910390fd5b600084600001848154811061269e57fe5b906000526020600020906002020190508060000154816001015492509250509250929050565b600082815260018401602052604081205482816127225760405162461bcd60e51b815260206004820181815283516024840152835190928392604490910191908501908083836000831561148d578181015183820152602001611475565b5084600001600182038154811061273557fe5b9060005260206000209060020201600101549150509392505050565b60009081526001919091016020526040902054151590565b600061277d846001600160a01b0316612b64565b61278957506001611e64565b60606128af630a85bd0160e11b61279e611c0e565b88878760405160240180856001600160a01b03166001600160a01b03168152602001846001600160a01b03166001600160a01b0316815260200183815260200180602001828103825283818151815260200191508051906020019080838360005b838110156128175781810151838201526020016127ff565b50505050905090810190601f1680156128445780820380516001836020036101000a031916815260200191505b5095505050505050604051602081830303815290604052906001600160e01b0319166020820180516001600160e01b038381831617835250505050604051806060016040528060328152602001612de9603291396001600160a01b038816919063ffffffff612b9d16565b905060008180602001905160208110156128c857600080fd5b50516001600160e01b031916630a85bd0160e11b1492505050949350505050565b600081815260018301602052604081205480156129a5578354600019808301919081019060009087908390811061291c57fe5b906000526020600020015490508087600001848154811061293957fe5b60009182526020808320909101929092558281526001898101909252604090209084019055865487908061296957fe5b6001900381819060005260206000200160009055905586600101600087815260200190815260200160002060009055600194505050505061113c565b600091505061113c565b60006129bb8383612751565b6129f15750815460018181018455600084815260208082209093018490558454848252828601909352604090209190915561113c565b50600061113c565b600082815260018401602052604081205480612a5e5750506040805180820182528381526020808201848152865460018181018955600089815284812095516002909302909501918255915190820155865486845281880190925292909120556121b9565b82856000016001830381548110612a7157fe5b90600052602060002090600202016001018190555060009150506121b9565b600081815260018301602052604081205480156129a55783546000198083019190810190600090879083908110612ac357fe5b9060005260206000209060020201905080876000018481548110612ae357fe5b600091825260208083208454600290930201918255600193840154918401919091558354825289830190526040902090840190558654879080612b2257fe5b600082815260208082206002600019909401938402018281556001908101839055929093558881528982019092526040822091909155945061113c9350505050565b6000813f7fc5d2460186f7233c927e7db2dcc703c0e500b653ca82273b7bfad8045d85a470818114801590611e64575050151592915050565b60606121b684846000856060612bb285612b64565b612c03576040805162461bcd60e51b815260206004820152601d60248201527f416464726573733a2063616c6c20746f206e6f6e2d636f6e7472616374000000604482015290519081900360640190fd5b60006060866001600160a01b031685876040518082805190602001908083835b60208310612c425780518252601f199092019160209182019101612c23565b6001836020036101000a03801982511681845116808217855250505050505090500191505060006040518083038185875af1925050503d8060008114612ca4576040519150601f19603f3d011682016040523d82523d6000602084013e612ca9565b606091505b50915091508115612cbd579150611e649050565b805115612ccd5780518082602001fd5b60405162461bcd60e51b815260206004820181815286516024840152865187939192839260440191908501908083836000831561148d578181015183820152602001611475565b60405180606001604052806000815260200160006001600160a01b03168152602001606081525090565b50805460018160011615610100020316600290046000825580601f10612d6457506110a2565b60009182526020918290206110a292610b2692601f01048101905b80821115612d935760008155600101612d7f565b509056fe456e756d657261626c655365743a20696e646578206f7574206f6620626f756e6473416363657373436f6e74726f6c3a2073656e646572206d75737420626520616e2061646d696e20746f206772616e744552433732313a207472616e7366657220746f206e6f6e20455243373231526563656976657220696d706c656d656e7465724d6574615472616e73616374696f6e2875696e74323536206e6f6e63652c616464726573732066726f6d2c62797465732066756e6374696f6e5369676e6174757265294552433732313a207472616e7366657220746f20746865207a65726f20616464726573734552433732313a206f70657261746f7220717565727920666f72206e6f6e6578697374656e7420746f6b656e416363657373436f6e74726f6c3a2073656e646572206d75737420626520616e2061646d696e20746f207265766f6b654368696c644552433732313a20494e56414c49445f544f4b454e5f4f574e4552204e61746976654d6574615472616e73616374696f6e3a20494e56414c49445f5349474e45524552433732313a20617070726f76652063616c6c6572206973206e6f74206f776e6572206e6f7220617070726f76656420666f7220616c6c4552433732313a2062616c616e636520717565727920666f7220746865207a65726f20616464726573734552433732313a206f776e657220717565727920666f72206e6f6e6578697374656e7420746f6b656e456e756d657261626c654d61703a20696e646578206f7574206f6620626f756e64734552433732313a20617070726f76656420717565727920666f72206e6f6e6578697374656e7420746f6b656e4552433732313a207472616e73666572206f6620746f6b656e2074686174206973206e6f74206f776e5369676e657220616e64207369676e617475726520646f206e6f74206d617463684552433732314d657461646174613a2055524920717565727920666f72206e6f6e6578697374656e7420746f6b656e4552433732313a20617070726f76616c20746f2063757272656e74206f776e65724552433732313a207472616e736665722063616c6c6572206973206e6f74206f776e6572206e6f7220617070726f766564416363657373436f6e74726f6c3a2063616e206f6e6c792072656e6f756e636520726f6c657320666f722073656c66a2646970667358221220f68959e7b536bffc4481e4bfdc76bc6f3231d87275c489754897e568fe8c603c64736f6c63430006060033454950373132446f6d61696e28737472696e67206e616d652c737472696e672076657273696f6e2c6164647265737320766572696679696e67436f6e74726163742c627974657333322073616c7429",
  "immutableReferences": {},
  "source": "pragma solidity 0.6.6;\n\nimport {ERC721} from \"@openzeppelin/contracts/token/ERC721/ERC721.sol\";\nimport {AccessControlMixin} from \"../../common/AccessControlMixin.sol\";\nimport {IChildToken} from \"./IChildToken.sol\";\nimport {NativeMetaTransaction} from \"../../common/NativeMetaTransaction.sol\";\nimport {ContextMixin} from \"../../common/ContextMixin.sol\";\n\ncontract ChildERC721 is\n    ERC721,\n    IChildToken,\n    AccessControlMixin,\n    NativeMetaTransaction,\n    ContextMixin\n{\n    bytes32 public constant DEPOSITOR_ROLE = keccak256(\"DEPOSITOR_ROLE\");\n\n    // limit batching of tokens due to gas limit restrictions\n    uint256 public constant BATCH_LIMIT = 20;\n\n    event WithdrawnBatch(\n        address indexed user,\n        uint256[] tokenIds\n    );\n\n    constructor(\n        string memory name_,\n        string memory symbol_,\n        address childChainManager\n    ) public ERC721(name_, symbol_) {\n        _setupContractId(\"ChildERC721\");\n        _setupRole(DEFAULT_ADMIN_ROLE, _msgSender());\n        _setupRole(DEPOSITOR_ROLE, childChainManager);\n        _initializeEIP712(name_);\n    }\n\n    // This is to support Native meta transactions\n    // never use msg.sender directly, use _msgSender() instead\n    function _msgSender()\n        internal\n        override\n        view\n        returns (address payable sender)\n    {\n        return ContextMixin.msgSender();\n    }\n\n    /**\n     * @notice called when token is deposited on root chain\n     * @dev Should be callable only by ChildChainManager\n     * Should handle deposit by minting the required tokenId for user\n     * Make sure minting is done only by this function\n     * @param user user address for whom deposit is being done\n     * @param depositData abi encoded tokenId\n     */\n    function deposit(address user, bytes calldata depositData)\n        external\n        override\n        only(DEPOSITOR_ROLE)\n    {\n        // deposit single\n        if (depositData.length == 32) {\n            uint256 tokenId = abi.decode(depositData, (uint256));\n            _mint(user, tokenId);\n\n        // deposit batch\n        } else {\n            uint256[] memory tokenIds = abi.decode(depositData, (uint256[]));\n            uint256 length = tokenIds.length;\n            for (uint256 i; i < length; i++) {\n                _mint(user, tokenIds[i]);\n            }\n        }\n    }\n\n    /**\n     * @notice called when user wants to withdraw token back to root chain\n     * @dev Should burn user's token. This transaction will be verified when exiting on root chain\n     * @param tokenId tokenId to withdraw\n     */\n    function withdraw(uint256 tokenId) external {\n        require(_msgSender() == ownerOf(tokenId), \"ChildERC721: INVALID_TOKEN_OWNER\");\n        _burn(tokenId);\n    }\n\n    /**\n     * @notice called when user wants to withdraw multiple tokens back to root chain\n     * @dev Should burn user's tokens. This transaction will be verified when exiting on root chain\n     * @param tokenIds tokenId list to withdraw\n     */\n    function withdrawBatch(uint256[] calldata tokenIds) external {\n        uint256 length = tokenIds.length;\n        require(length <= BATCH_LIMIT, \"ChildERC721: EXCEEDS_BATCH_LIMIT\");\n        for (uint256 i; i < length; i++) {\n            uint256 tokenId = tokenIds[i];\n            require(_msgSender() == ownerOf(tokenId), string(abi.encodePacked(\"ChildERC721: INVALID_TOKEN_OWNER \", tokenId)));\n            _burn(tokenId);\n        }\n        emit WithdrawnBatch(_msgSender(), tokenIds);\n    }\n}\n",
  "sourcePath": "/Users/abhimanyushekhawat/projects/matic-contracts/contracts/child/ChildToken/ChildERC721.sol",
  "compiler": {
    "name": "solc",
    "version": "0.6.6+commit.6c089d02.Emscripten.clang"
  },
  "schemaVersion": "3.3.4",
  "updatedAt": "2021-03-01T19:59:54.758Z",
  "devdoc": {
    "methods": {
      "approve(address,uint256)": {
        "details": "See {IERC721-approve}."
      },
      "balanceOf(address)": {
        "details": "See {IERC721-balanceOf}."
      },
      "baseURI()": {
        "details": "Returns the base URI set via {_setBaseURI}. This will be automatically added as a prefix in {tokenURI} to each token's URI, or to the token ID if no specific URI is set for that token ID."
      },
      "deposit(address,bytes)": {
        "details": "Should be callable only by ChildChainManager Should handle deposit by minting the required tokenId for user Make sure minting is done only by this function",
        "params": {
          "depositData": "abi encoded tokenId",
          "user": "user address for whom deposit is being done"
        }
      },
      "getApproved(uint256)": {
        "details": "See {IERC721-getApproved}."
      },
      "getRoleAdmin(bytes32)": {
        "details": "Returns the admin role that controls `role`. See {grantRole} and {revokeRole}.     * To change a role's admin, use {_setRoleAdmin}."
      },
      "getRoleMember(bytes32,uint256)": {
        "details": "Returns one of the accounts that have `role`. `index` must be a value between 0 and {getRoleMemberCount}, non-inclusive.     * Role bearers are not sorted in any particular way, and their ordering may change at any point.     * WARNING: When using {getRoleMember} and {getRoleMemberCount}, make sure you perform all queries on the same block. See the following https://forum.openzeppelin.com/t/iterating-over-elements-on-enumerableset-in-openzeppelin-contracts/2296[forum post] for more information."
      },
      "getRoleMemberCount(bytes32)": {
        "details": "Returns the number of accounts that have `role`. Can be used together with {getRoleMember} to enumerate all bearers of a role."
      },
      "grantRole(bytes32,address)": {
        "details": "Grants `role` to `account`.     * If `account` had not been already granted `role`, emits a {RoleGranted} event.     * Requirements:     * - the caller must have ``role``'s admin role."
      },
      "hasRole(bytes32,address)": {
        "details": "Returns `true` if `account` has been granted `role`."
      },
      "isApprovedForAll(address,address)": {
        "details": "See {IERC721-isApprovedForAll}."
      },
      "name()": {
        "details": "See {IERC721Metadata-name}."
      },
      "ownerOf(uint256)": {
        "details": "See {IERC721-ownerOf}."
      },
      "renounceRole(bytes32,address)": {
        "details": "Revokes `role` from the calling account.     * Roles are often managed via {grantRole} and {revokeRole}: this function's purpose is to provide a mechanism for accounts to lose their privileges if they are compromised (such as when a trusted device is misplaced).     * If the calling account had been granted `role`, emits a {RoleRevoked} event.     * Requirements:     * - the caller must be `account`."
      },
      "revokeRole(bytes32,address)": {
        "details": "Revokes `role` from `account`.     * If `account` had been granted `role`, emits a {RoleRevoked} event.     * Requirements:     * - the caller must have ``role``'s admin role."
      },
      "safeTransferFrom(address,address,uint256)": {
        "details": "See {IERC721-safeTransferFrom}."
      },
      "safeTransferFrom(address,address,uint256,bytes)": {
        "details": "See {IERC721-safeTransferFrom}."
      },
      "setApprovalForAll(address,bool)": {
        "details": "See {IERC721-setApprovalForAll}."
      },
      "supportsInterface(bytes4)": {
        "details": "See {IERC165-supportsInterface}.     * Time complexity O(1), guaranteed to always use less than 30 000 gas."
      },
      "symbol()": {
        "details": "See {IERC721Metadata-symbol}."
      },
      "tokenByIndex(uint256)": {
        "details": "See {IERC721Enumerable-tokenByIndex}."
      },
      "tokenOfOwnerByIndex(address,uint256)": {
        "details": "See {IERC721Enumerable-tokenOfOwnerByIndex}."
      },
      "tokenURI(uint256)": {
        "details": "See {IERC721Metadata-tokenURI}."
      },
      "totalSupply()": {
        "details": "See {IERC721Enumerable-totalSupply}."
      },
      "transferFrom(address,address,uint256)": {
        "details": "See {IERC721-transferFrom}."
      },
      "withdraw(uint256)": {
        "details": "Should burn user's token. This transaction will be verified when exiting on root chain",
        "params": {
          "tokenId": "tokenId to withdraw"
        }
      },
      "withdrawBatch(uint256[])": {
        "details": "Should burn user's tokens. This transaction will be verified when exiting on root chain",
        "params": {
          "tokenIds": "tokenId list to withdraw"
        }
      }
    }
  },
  "userdoc": {
    "methods": {
      "deposit(address,bytes)": {
        "notice": "called when token is deposited on root chain"
      },
      "withdraw(uint256)": {
        "notice": "called when user wants to withdraw token back to root chain"
      },
      "withdrawBatch(uint256[])": {
        "notice": "called when user wants to withdraw multiple tokens back to root chain"
      }
    }
  }
}