{
  "contractName": "ChildMintableERC721",
  "abi": [
    {
      "inputs": [
        {
          "internalType": "string",
          "name": "name_",
          "type": "string"
        },
        {
          "internalType": "string",
          "name": "symbol_",
          "type": "string"
        },
        {
          "internalType": "address",
          "name": "childChainManager",
          "type": "address"
        }
      ],
      "stateMutability": "nonpayable",
      "type": "constructor"
    },
    {
      "anonymous": false,
      "inputs": [
        {
          "indexed": true,
          "internalType": "address",
          "name": "owner",
          "type": "address"
        },
        {
          "indexed": true,
          "internalType": "address",
          "name": "approved",
          "type": "address"
        },
        {
          "indexed": true,
          "internalType": "uint256",
          "name": "tokenId",
          "type": "uint256"
        }
      ],
      "name": "Approval",
      "type": "event"
    },
    {
      "anonymous": false,
      "inputs": [
        {
          "indexed": true,
          "internalType": "address",
          "name": "owner",
          "type": "address"
        },
        {
          "indexed": true,
          "internalType": "address",
          "name": "operator",
          "type": "address"
        },
        {
          "indexed": false,
          "internalType": "bool",
          "name": "approved",
          "type": "bool"
        }
      ],
      "name": "ApprovalForAll",
      "type": "event"
    },
    {
      "anonymous": false,
      "inputs": [
        {
          "indexed": false,
          "internalType": "address",
          "name": "userAddress",
          "type": "address"
        },
        {
          "indexed": false,
          "internalType": "address payable",
          "name": "relayerAddress",
          "type": "address"
        },
        {
          "indexed": false,
          "internalType": "bytes",
          "name": "functionSignature",
          "type": "bytes"
        }
      ],
      "name": "MetaTransactionExecuted",
      "type": "event"
    },
    {
      "anonymous": false,
      "inputs": [
        {
          "indexed": true,
          "internalType": "bytes32",
          "name": "role",
          "type": "bytes32"
        },
        {
          "indexed": true,
          "internalType": "bytes32",
          "name": "previousAdminRole",
          "type": "bytes32"
        },
        {
          "indexed": true,
          "internalType": "bytes32",
          "name": "newAdminRole",
          "type": "bytes32"
        }
      ],
      "name": "RoleAdminChanged",
      "type": "event"
    },
    {
      "anonymous": false,
      "inputs": [
        {
          "indexed": true,
          "internalType": "bytes32",
          "name": "role",
          "type": "bytes32"
        },
        {
          "indexed": true,
          "internalType": "address",
          "name": "account",
          "type": "address"
        },
        {
          "indexed": true,
          "internalType": "address",
          "name": "sender",
          "type": "address"
        }
      ],
      "name": "RoleGranted",
      "type": "event"
    },
    {
      "anonymous": false,
      "inputs": [
        {
          "indexed": true,
          "internalType": "bytes32",
          "name": "role",
          "type": "bytes32"
        },
        {
          "indexed": true,
          "internalType": "address",
          "name": "account",
          "type": "address"
        },
        {
          "indexed": true,
          "internalType": "address",
          "name": "sender",
          "type": "address"
        }
      ],
      "name": "RoleRevoked",
      "type": "event"
    },
    {
      "anonymous": false,
      "inputs": [
        {
          "indexed": true,
          "internalType": "address",
          "name": "from",
          "type": "address"
        },
        {
          "indexed": true,
          "internalType": "address",
          "name": "to",
          "type": "address"
        },
        {
          "indexed": true,
          "internalType": "uint256",
          "name": "tokenId",
          "type": "uint256"
        }
      ],
      "name": "Transfer",
      "type": "event"
    },
    {
      "anonymous": false,
      "inputs": [
        {
          "indexed": true,
          "internalType": "address",
          "name": "from",
          "type": "address"
        },
        {
          "indexed": true,
          "internalType": "address",
          "name": "to",
          "type": "address"
        },
        {
          "indexed": true,
          "internalType": "uint256",
          "name": "tokenId",
          "type": "uint256"
        },
        {
          "indexed": false,
          "internalType": "bytes",
          "name": "metaData",
          "type": "bytes"
        }
      ],
      "name": "TransferWithMetadata",
      "type": "event"
    },
    {
      "inputs": [],
      "name": "DEFAULT_ADMIN_ROLE",
      "outputs": [
        {
          "internalType": "bytes32",
          "name": "",
          "type": "bytes32"
        }
      ],
      "stateMutability": "view",
      "type": "function"
    },
    {
      "inputs": [],
      "name": "DEPOSITOR_ROLE",
      "outputs": [
        {
          "internalType": "bytes32",
          "name": "",
          "type": "bytes32"
        }
      ],
      "stateMutability": "view",
      "type": "function"
    },
    {
      "inputs": [],
      "name": "ERC712_VERSION",
      "outputs": [
        {
          "internalType": "string",
          "name": "",
          "type": "string"
        }
      ],
      "stateMutability": "view",
      "type": "function"
    },
    {
      "inputs": [
        {
          "internalType": "address",
          "name": "to",
          "type": "address"
        },
        {
          "internalType": "uint256",
          "name": "tokenId",
          "type": "uint256"
        }
      ],
      "name": "approve",
      "outputs": [],
      "stateMutability": "nonpayable",
      "type": "function"
    },
    {
      "inputs": [
        {
          "internalType": "address",
          "name": "owner",
          "type": "address"
        }
      ],
      "name": "balanceOf",
      "outputs": [
        {
          "internalType": "uint256",
          "name": "",
          "type": "uint256"
        }
      ],
      "stateMutability": "view",
      "type": "function"
    },
    {
      "inputs": [],
      "name": "baseURI",
      "outputs": [
        {
          "internalType": "string",
          "name": "",
          "type": "string"
        }
      ],
      "stateMutability": "view",
      "type": "function"
    },
    {
      "inputs": [
        {
          "internalType": "address",
          "name": "userAddress",
          "type": "address"
        },
        {
          "internalType": "bytes",
          "name": "functionSignature",
          "type": "bytes"
        },
        {
          "internalType": "bytes32",
          "name": "sigR",
          "type": "bytes32"
        },
        {
          "internalType": "bytes32",
          "name": "sigS",
          "type": "bytes32"
        },
        {
          "internalType": "uint8",
          "name": "sigV",
          "type": "uint8"
        }
      ],
      "name": "executeMetaTransaction",
      "outputs": [
        {
          "internalType": "bytes",
          "name": "",
          "type": "bytes"
        }
      ],
      "stateMutability": "payable",
      "type": "function"
    },
    {
      "inputs": [
        {
          "internalType": "uint256",
          "name": "tokenId",
          "type": "uint256"
        }
      ],
      "name": "getApproved",
      "outputs": [
        {
          "internalType": "address",
          "name": "",
          "type": "address"
        }
      ],
      "stateMutability": "view",
      "type": "function"
    },
    {
      "inputs": [],
      "name": "getChainId",
      "outputs": [
        {
          "internalType": "uint256",
          "name": "",
          "type": "uint256"
        }
      ],
      "stateMutability": "pure",
      "type": "function"
    },
    {
      "inputs": [],
      "name": "getDomainSeperator",
      "outputs": [
        {
          "internalType": "bytes32",
          "name": "",
          "type": "bytes32"
        }
      ],
      "stateMutability": "view",
      "type": "function"
    },
    {
      "inputs": [
        {
          "internalType": "address",
          "name": "user",
          "type": "address"
        }
      ],
      "name": "getNonce",
      "outputs": [
        {
          "internalType": "uint256",
          "name": "nonce",
          "type": "uint256"
        }
      ],
      "stateMutability": "view",
      "type": "function"
    },
    {
      "inputs": [
        {
          "internalType": "bytes32",
          "name": "role",
          "type": "bytes32"
        }
      ],
      "name": "getRoleAdmin",
      "outputs": [
        {
          "internalType": "bytes32",
          "name": "",
          "type": "bytes32"
        }
      ],
      "stateMutability": "view",
      "type": "function"
    },
    {
      "inputs": [
        {
          "internalType": "bytes32",
          "name": "role",
          "type": "bytes32"
        },
        {
          "internalType": "uint256",
          "name": "index",
          "type": "uint256"
        }
      ],
      "name": "getRoleMember",
      "outputs": [
        {
          "internalType": "address",
          "name": "",
          "type": "address"
        }
      ],
      "stateMutability": "view",
      "type": "function"
    },
    {
      "inputs": [
        {
          "internalType": "bytes32",
          "name": "role",
          "type": "bytes32"
        }
      ],
      "name": "getRoleMemberCount",
      "outputs": [
        {
          "internalType": "uint256",
          "name": "",
          "type": "uint256"
        }
      ],
      "stateMutability": "view",
      "type": "function"
    },
    {
      "inputs": [
        {
          "internalType": "bytes32",
          "name": "role",
          "type": "bytes32"
        },
        {
          "internalType": "address",
          "name": "account",
          "type": "address"
        }
      ],
      "name": "grantRole",
      "outputs": [],
      "stateMutability": "nonpayable",
      "type": "function"
    },
    {
      "inputs": [
        {
          "internalType": "bytes32",
          "name": "role",
          "type": "bytes32"
        },
        {
          "internalType": "address",
          "name": "account",
          "type": "address"
        }
      ],
      "name": "hasRole",
      "outputs": [
        {
          "internalType": "bool",
          "name": "",
          "type": "bool"
        }
      ],
      "stateMutability": "view",
      "type": "function"
    },
    {
      "inputs": [
        {
          "internalType": "address",
          "name": "owner",
          "type": "address"
        },
        {
          "internalType": "address",
          "name": "operator",
          "type": "address"
        }
      ],
      "name": "isApprovedForAll",
      "outputs": [
        {
          "internalType": "bool",
          "name": "",
          "type": "bool"
        }
      ],
      "stateMutability": "view",
      "type": "function"
    },
    {
      "inputs": [],
      "name": "name",
      "outputs": [
        {
          "internalType": "string",
          "name": "",
          "type": "string"
        }
      ],
      "stateMutability": "view",
      "type": "function"
    },
    {
      "inputs": [
        {
          "internalType": "uint256",
          "name": "tokenId",
          "type": "uint256"
        }
      ],
      "name": "ownerOf",
      "outputs": [
        {
          "internalType": "address",
          "name": "",
          "type": "address"
        }
      ],
      "stateMutability": "view",
      "type": "function"
    },
    {
      "inputs": [
        {
          "internalType": "bytes32",
          "name": "role",
          "type": "bytes32"
        },
        {
          "internalType": "address",
          "name": "account",
          "type": "address"
        }
      ],
      "name": "renounceRole",
      "outputs": [],
      "stateMutability": "nonpayable",
      "type": "function"
    },
    {
      "inputs": [
        {
          "internalType": "bytes32",
          "name": "role",
          "type": "bytes32"
        },
        {
          "internalType": "address",
          "name": "account",
          "type": "address"
        }
      ],
      "name": "revokeRole",
      "outputs": [],
      "stateMutability": "nonpayable",
      "type": "function"
    },
    {
      "inputs": [
        {
          "internalType": "address",
          "name": "from",
          "type": "address"
        },
        {
          "internalType": "address",
          "name": "to",
          "type": "address"
        },
        {
          "internalType": "uint256",
          "name": "tokenId",
          "type": "uint256"
        }
      ],
      "name": "safeTransferFrom",
      "outputs": [],
      "stateMutability": "nonpayable",
      "type": "function"
    },
    {
      "inputs": [
        {
          "internalType": "address",
          "name": "from",
          "type": "address"
        },
        {
          "internalType": "address",
          "name": "to",
          "type": "address"
        },
        {
          "internalType": "uint256",
          "name": "tokenId",
          "type": "uint256"
        },
        {
          "internalType": "bytes",
          "name": "_data",
          "type": "bytes"
        }
      ],
      "name": "safeTransferFrom",
      "outputs": [],
      "stateMutability": "nonpayable",
      "type": "function"
    },
    {
      "inputs": [
        {
          "internalType": "address",
          "name": "operator",
          "type": "address"
        },
        {
          "internalType": "bool",
          "name": "approved",
          "type": "bool"
        }
      ],
      "name": "setApprovalForAll",
      "outputs": [],
      "stateMutability": "nonpayable",
      "type": "function"
    },
    {
      "inputs": [
        {
          "internalType": "bytes4",
          "name": "interfaceId",
          "type": "bytes4"
        }
      ],
      "name": "supportsInterface",
      "outputs": [
        {
          "internalType": "bool",
          "name": "",
          "type": "bool"
        }
      ],
      "stateMutability": "view",
      "type": "function"
    },
    {
      "inputs": [],
      "name": "symbol",
      "outputs": [
        {
          "internalType": "string",
          "name": "",
          "type": "string"
        }
      ],
      "stateMutability": "view",
      "type": "function"
    },
    {
      "inputs": [
        {
          "internalType": "uint256",
          "name": "index",
          "type": "uint256"
        }
      ],
      "name": "tokenByIndex",
      "outputs": [
        {
          "internalType": "uint256",
          "name": "",
          "type": "uint256"
        }
      ],
      "stateMutability": "view",
      "type": "function"
    },
    {
      "inputs": [
        {
          "internalType": "address",
          "name": "owner",
          "type": "address"
        },
        {
          "internalType": "uint256",
          "name": "index",
          "type": "uint256"
        }
      ],
      "name": "tokenOfOwnerByIndex",
      "outputs": [
        {
          "internalType": "uint256",
          "name": "",
          "type": "uint256"
        }
      ],
      "stateMutability": "view",
      "type": "function"
    },
    {
      "inputs": [
        {
          "internalType": "uint256",
          "name": "tokenId",
          "type": "uint256"
        }
      ],
      "name": "tokenURI",
      "outputs": [
        {
          "internalType": "string",
          "name": "",
          "type": "string"
        }
      ],
      "stateMutability": "view",
      "type": "function"
    },
    {
      "inputs": [],
      "name": "totalSupply",
      "outputs": [
        {
          "internalType": "uint256",
          "name": "",
          "type": "uint256"
        }
      ],
      "stateMutability": "view",
      "type": "function"
    },
    {
      "inputs": [
        {
          "internalType": "address",
          "name": "from",
          "type": "address"
        },
        {
          "internalType": "address",
          "name": "to",
          "type": "address"
        },
        {
          "internalType": "uint256",
          "name": "tokenId",
          "type": "uint256"
        }
      ],
      "name": "transferFrom",
      "outputs": [],
      "stateMutability": "nonpayable",
      "type": "function"
    },
    {
      "inputs": [
        {
          "internalType": "uint256",
          "name": "",
          "type": "uint256"
        }
      ],
      "name": "withdrawnTokens",
      "outputs": [
        {
          "internalType": "bool",
          "name": "",
          "type": "bool"
        }
      ],
      "stateMutability": "view",
      "type": "function"
    },
    {
      "inputs": [
        {
          "internalType": "address",
          "name": "user",
          "type": "address"
        },
        {
          "internalType": "bytes",
          "name": "depositData",
          "type": "bytes"
        }
      ],
      "name": "deposit",
      "outputs": [],
      "stateMutability": "nonpayable",
      "type": "function"
    },
    {
      "inputs": [
        {
          "internalType": "uint256",
          "name": "tokenId",
          "type": "uint256"
        }
      ],
      "name": "withdraw",
      "outputs": [],
      "stateMutability": "nonpayable",
      "type": "function"
    },
    {
      "inputs": [
        {
          "internalType": "uint256",
          "name": "tokenId",
          "type": "uint256"
        }
      ],
      "name": "withdrawWithMetadata",
      "outputs": [],
      "stateMutability": "nonpayable",
      "type": "function"
    },
    {
      "inputs": [
        {
          "internalType": "uint256",
          "name": "tokenId",
          "type": "uint256"
        }
      ],
      "name": "encodeTokenMetadata",
      "outputs": [
        {
          "internalType": "bytes",
          "name": "",
          "type": "bytes"
        }
      ],
      "stateMutability": "view",
      "type": "function"
    },
    {
      "inputs": [
        {
          "internalType": "address",
          "name": "user",
          "type": "address"
        },
        {
          "internalType": "uint256",
          "name": "tokenId",
          "type": "uint256"
        }
      ],
      "name": "mint",
      "outputs": [],
      "stateMutability": "nonpayable",
      "type": "function"
    }
  ],
  "bytecode": "0x6080604052600c805460ff191690553480156200001b57600080fd5b5060405162003b2438038062003b24833981810160405260608110156200004157600080fd5b81019080805160405193929190846401000000008211156200006257600080fd5b9083019060208201858111156200007857600080fd5b82516401000000008111828201881017156200009357600080fd5b82525081516020918201929091019080838360005b83811015620000c2578181015183820152602001620000a8565b50505050905090810190601f168015620000f05780820380516001836020036101000a031916815260200191505b50604052602001805160405193929190846401000000008211156200011457600080fd5b9083019060208201858111156200012a57600080fd5b82516401000000008111828201881017156200014557600080fd5b82525081516020918201929091019080838360005b83811015620001745781810151838201526020016200015a565b50505050905090810190601f168015620001a25780820380516001836020036101000a031916815260200191505b5060405260200151915083905082620001cb6301ffc9a760e01b6001600160e01b036200030f16565b8151620001e090600690602085019062000722565b508051620001f690600790602084019062000722565b50620002126380ac58cd60e01b6001600160e01b036200030f16565b6200022d635b5e139f60e01b6001600160e01b036200030f16565b6200024863780e9d6360e01b6001600160e01b036200030f16565b505060408051808201909152601381527f4368696c644d696e7461626c6545524337323100000000000000000000000000602082015262000292906001600160e01b036200039416565b620002ba6000620002ab6001600160e01b036200043a16565b6001600160e01b036200045716565b604080516d4445504f5349544f525f524f4c4560901b8152905190819003600e019020620002f290826001600160e01b036200045716565b62000306836001600160e01b036200046c16565b505050620007c4565b6001600160e01b031980821614156200036f576040805162461bcd60e51b815260206004820152601c60248201527f4552433136353a20696e76616c696420696e7465726661636520696400000000604482015290519081900360640190fd5b6001600160e01b0319166000908152602081905260409020805460ff19166001179055565b806040516020018082805190602001908083835b60208310620003c95780518252601f199092019160209182019101620003a8565b51815160209384036101000a60001901801990921691161790527f3a20494e53554646494349454e545f5045524d495353494f4e530000000000009190930190815260408051808303600519018152601a90920190528051620004369550600b9450920191905062000722565b5050565b600062000451620004da60201b620025aa1760201c565b90505b90565b6200043682826001600160e01b036200053916565b600c5460ff1615620004b6576040805162461bcd60e51b815260206004820152600e60248201526d185b1c9958591e481a5b9a5d195960921b604482015290519081900360640190fd5b620004ca816001600160e01b03620005bd16565b50600c805460ff19166001179055565b600033301415620005345760606000368080601f0160208091040260200160405190810160405280939291908181526020018383808284376000920191909152505050503601516001600160a01b03169150620004549050565b503390565b6000828152600a60209081526040909120620005609183906200271d62000685821b17901c565b156200043657620005796001600160e01b036200043a16565b6001600160a01b0316816001600160a01b0316837f2f8788117e7eff1d82e926ec794901d17c78024a50270940304540a733656f0d60405160405180910390a45050565b6040518060800160405280604f815260200162003ad5604f913980516020918201208251838301206040805180820190915260018152603160f81b930192909252907fc89efdaa54c0f20c7adf612882df0950f5a951637e0307cdcb4c672f298b8bc630620006346001600160e01b03620006ae16565b604080516020808201979097528082019590955260608501939093526001600160a01b03909116608084015260a0808401919091528151808403909101815260c090920190528051910120600d5550565b6000620006a5836001600160a01b0384166001600160e01b03620006b216565b90505b92915050565b4690565b6000620006c983836001600160e01b036200070a16565b6200070157508154600181810184556000848152602080822090930184905584548482528286019093526040902091909155620006a8565b506000620006a8565b60009081526001919091016020526040902054151590565b828054600181600116156101000203166002900490600052602060002090601f016020900481019282601f106200076557805160ff191683800117855562000795565b8280016001018555821562000795579182015b828111156200079557825182559160200191906001019062000778565b50620007a3929150620007a7565b5090565b6200045491905b80821115620007a35760008155600101620007ae565b61330180620007d46000396000f3fe60806040526004361061021a5760003560e01c806340c10f1911610123578063a217fddf116100ab578063c87b56dd1161006f578063c87b56dd14610959578063ca15c87314610983578063cf2c52cb146109ad578063d547741f14610a38578063e985e9c514610a715761021a565b8063a217fddf146107f9578063a22cb4651461080e578063a3b0b5a314610849578063a5e584dc1461085e578063b88d4fde146108885761021a565b80636c0360eb116100f25780636c0360eb1461073357806370a08231146107485780639010d07c1461077b57806391d14854146107ab57806395d89b41146107e45761021a565b806340c10f191461066357806342842e0e1461069c5780634f6ccce7146106df5780636352211e146107095761021a565b806320379ee5116101a65780632e1a7d4d116101755780632e1a7d4d146105795780632f2ff15d146105a35780632f745c59146105dc5780633408e4701461061557806336568abe1461062a5761021a565b806320379ee5146104c457806323b872dd146104d9578063248a9ca31461051c5780632d0335ab146105465761021a565b8063095ea7b3116101ed578063095ea7b3146103615780630c53c51c1461039c5780630f7e59701461045e5780631653c39a1461047357806318160ddd1461049d5761021a565b806301ffc9a71461021f57806306fdde031461026757806307a974fc146102f1578063081812fc1461031b575b600080fd5b34801561022b57600080fd5b506102536004803603602081101561024257600080fd5b50356001600160e01b031916610aac565b604080519115158252519081900360200190f35b34801561027357600080fd5b5061027c610acf565b6040805160208082528351818301528351919283929083019185019080838360005b838110156102b657818101518382015260200161029e565b50505050905090810190601f1680156102e35780820380516001836020036101000a031916815260200191505b509250505060405180910390f35b3480156102fd57600080fd5b506102536004803603602081101561031457600080fd5b5035610b66565b34801561032757600080fd5b506103456004803603602081101561033e57600080fd5b5035610b7b565b604080516001600160a01b039092168252519081900360200190f35b34801561036d57600080fd5b5061039a6004803603604081101561038457600080fd5b506001600160a01b038135169060200135610bdd565b005b61027c600480360360a08110156103b257600080fd5b6001600160a01b038235169190810190604081016020820135600160201b8111156103dc57600080fd5b8201836020820111156103ee57600080fd5b803590602001918460018302840111600160201b8311171561040f57600080fd5b91908080601f016020809104026020016040519081016040528093929190818152602001838380828437600092019190915250929550508235935050506020810135906040013560ff16610cb8565b34801561046a57600080fd5b5061027c610fbb565b34801561047f57600080fd5b5061027c6004803603602081101561049657600080fd5b5035610fd8565b3480156104a957600080fd5b506104b261106a565b60408051918252519081900360200190f35b3480156104d057600080fd5b506104b261107b565b3480156104e557600080fd5b5061039a600480360360608110156104fc57600080fd5b506001600160a01b03813581169160208101359091169060400135611081565b34801561052857600080fd5b506104b26004803603602081101561053f57600080fd5b50356110d8565b34801561055257600080fd5b506104b26004803603602081101561056957600080fd5b50356001600160a01b03166110ed565b34801561058557600080fd5b5061039a6004803603602081101561059c57600080fd5b5035611108565b3480156105af57600080fd5b5061039a600480360360408110156105c657600080fd5b50803590602001356001600160a01b031661118c565b3480156105e857600080fd5b506104b2600480360360408110156105ff57600080fd5b506001600160a01b0381351690602001356111f8565b34801561062157600080fd5b506104b2611229565b34801561063657600080fd5b5061039a6004803603604081101561064d57600080fd5b50803590602001356001600160a01b031661122d565b34801561066f57600080fd5b5061039a6004803603604081101561068657600080fd5b506001600160a01b03813516906020013561128e565b3480156106a857600080fd5b5061039a600480360360608110156106bf57600080fd5b506001600160a01b03813581169160208101359091169060400135611395565b3480156106eb57600080fd5b506104b26004803603602081101561070257600080fd5b50356113b0565b34801561071557600080fd5b506103456004803603602081101561072c57600080fd5b50356113cc565b34801561073f57600080fd5b5061027c6113fa565b34801561075457600080fd5b506104b26004803603602081101561076b57600080fd5b50356001600160a01b031661145b565b34801561078757600080fd5b506103456004803603604081101561079e57600080fd5b50803590602001356114c3565b3480156107b757600080fd5b50610253600480360360408110156107ce57600080fd5b50803590602001356001600160a01b03166114e1565b3480156107f057600080fd5b5061027c6114ff565b34801561080557600080fd5b506104b2611560565b34801561081a57600080fd5b5061039a6004803603604081101561083157600080fd5b506001600160a01b0381351690602001351515611565565b34801561085557600080fd5b506104b261166a565b34801561086a57600080fd5b5061039a6004803603602081101561088157600080fd5b5035611690565b34801561089457600080fd5b5061039a600480360360808110156108ab57600080fd5b6001600160a01b03823581169260208101359091169160408201359190810190608081016060820135600160201b8111156108e557600080fd5b8201836020820111156108f757600080fd5b803590602001918460018302840111600160201b8311171561091857600080fd5b91908080601f0160208091040260200160405190810160405280939291908181526020018383808284376000920191909152509295506118e7945050505050565b34801561096557600080fd5b5061027c6004803603602081101561097c57600080fd5b5035611945565b34801561098f57600080fd5b506104b2600480360360208110156109a657600080fd5b5035611bec565b3480156109b957600080fd5b5061039a600480360360408110156109d057600080fd5b6001600160a01b038235169190810190604081016020820135600160201b8111156109fa57600080fd5b820183602082011115610a0c57600080fd5b803590602001918460018302840111600160201b83111715610a2d57600080fd5b509092509050611c03565b348015610a4457600080fd5b5061039a60048036036040811015610a5b57600080fd5b50803590602001356001600160a01b0316611cd6565b348015610a7d57600080fd5b5061025360048036036040811015610a9457600080fd5b506001600160a01b0381358116916020013516611d2f565b6001600160e01b0319811660009081526020819052604090205460ff165b919050565b60068054604080516020601f6002600019610100600188161502019095169490940493840181900481028201810190925282815260609390929091830182828015610b5b5780601f10610b3057610100808354040283529160200191610b5b565b820191906000526020600020905b815481529060010190602001808311610b3e57829003601f168201915b505050505090505b90565b600f6020526000908152604090205460ff1681565b6000610b8682611d5d565b610bc15760405162461bcd60e51b815260040180806020018281038252602c8152602001806131a6602c913960400191505060405180910390fd5b506000908152600460205260409020546001600160a01b031690565b6000610be8826113cc565b9050806001600160a01b0316836001600160a01b03161415610c3b5760405162461bcd60e51b815260040180806020018281038252602181526020018061324b6021913960400191505060405180910390fd5b806001600160a01b0316610c4d611d70565b6001600160a01b03161480610c6e5750610c6e81610c69611d70565b611d2f565b610ca95760405162461bcd60e51b81526004018080602001828103825260388152602001806130d16038913960400191505060405180910390fd5b610cb38383611d7a565b505050565b6060610cc2612eb3565b50604080516060810182526001600160a01b0388166000818152600e602090815290849020548352820152908101869052610d008782878787611de8565b610d3b5760405162461bcd60e51b81526004018080602001828103825260218152602001806131fb6021913960400191505060405180910390fd5b6001600160a01b0387166000908152600e6020526040902054610d6590600163ffffffff611ec516565b6001600160a01b0388166000818152600e602090815260408083209490945583519283523383820181905260609484018581528b51958501959095528a517f5845892132946850460bff5a0083f71031bc5bf9aadcd40f1de79423eac9b10b958d9592948d94919260808501928601918190849084905b83811015610df4578181015183820152602001610ddc565b50505050905090810190601f168015610e215780820380516001836020036101000a031916815260200191505b5094505050505060405180910390a160006060306001600160a01b0316888a6040516020018083805190602001908083835b60208310610e725780518252601f199092019160209182019101610e53565b6001836020036101000a038019825116818451168082178552505050505050905001826001600160a01b03166001600160a01b031660601b8152601401925050506040516020818303038152906040526040518082805190602001908083835b60208310610ef15780518252601f199092019160209182019101610ed2565b6001836020036101000a0380198251168184511680821785525050505050509050019150506000604051808303816000865af19150503d8060008114610f53576040519150601f19603f3d011682016040523d82523d6000602084013e610f58565b606091505b509150915081610faf576040805162461bcd60e51b815260206004820152601c60248201527f46756e6374696f6e2063616c6c206e6f74207375636365737366756c00000000604482015290519081900360640190fd5b98975050505050505050565b604051806040016040528060018152602001603160f81b81525081565b6060610fe382611945565b6040516020018080602001828103825283818151815260200191508051906020019080838360005b8381101561102357818101518382015260200161100b565b50505050905090810190601f1680156110505780820380516001836020036101000a031916815260200191505b5060408051601f1981840301815291905295945050505050565b60006110766002611f1f565b905090565b600d5490565b61109261108c611d70565b82611f2a565b6110cd5760405162461bcd60e51b815260040180806020018281038252603181526020018061326c6031913960400191505060405180910390fd5b610cb3838383611fce565b6000908152600a602052604090206002015490565b6001600160a01b03166000908152600e602052604090205490565b611111816113cc565b6001600160a01b0316611122611d70565b6001600160a01b0316146111675760405162461bcd60e51b81526004018080602001828103825260288152602001806131096028913960400191505060405180910390fd5b6000818152600f60205260409020805460ff191660011790556111898161212c565b50565b6000828152600a60205260409020600201546111af906111aa611d70565b6114e1565b6111ea5760405162461bcd60e51b815260040180806020018281038252602f815260200180612f59602f913960400191505060405180910390fd5b6111f48282612205565b5050565b6001600160a01b0382166000908152600160205260408120611220908363ffffffff61227416565b90505b92915050565b4690565b611235611d70565b6001600160a01b0316816001600160a01b0316146112845760405162461bcd60e51b815260040180806020018281038252602f81526020018061329d602f913960400191505060405180910390fd5b6111f48282612280565b600061129c816111aa611d70565b600b9061133c5760405162461bcd60e51b815260206004820190815282546002600019610100600184161502019091160460248301819052909182916044909101908490801561132d5780601f106113025761010080835404028352916020019161132d565b820191906000526020600020905b81548152906001019060200180831161131057829003601f168201915b50509250505060405180910390fd5b506000828152600f602052604090205460ff161561138b5760405162461bcd60e51b815260040180806020018281038252602f815260200180612fba602f913960400191505060405180910390fd5b610cb383836122ef565b610cb3838383604051806020016040528060008152506118e7565b6000806113c460028463ffffffff61242916565b509392505050565b60006112238260405180606001604052806029815260200161315b602991396002919063ffffffff61244516565b60098054604080516020601f6002600019610100600188161502019095169490940493840181900481028201810190925282815260609390929091830182828015610b5b5780601f10610b3057610100808354040283529160200191610b5b565b60006001600160a01b0382166114a25760405162461bcd60e51b815260040180806020018281038252602a815260200180613131602a913960400191505060405180910390fd5b6001600160a01b038216600090815260016020526040902061122390611f1f565b6000828152600a60205260408120611220908363ffffffff61227416565b6000828152600a60205260408120611220908363ffffffff61245c16565b60078054604080516020601f6002600019610100600188161502019095169490940493840181900481028201810190925282815260609390929091830182828015610b5b5780601f10610b3057610100808354040283529160200191610b5b565b600081565b61156d611d70565b6001600160a01b0316826001600160a01b031614156115d3576040805162461bcd60e51b815260206004820152601960248201527f4552433732313a20617070726f766520746f2063616c6c657200000000000000604482015290519081900360640190fd5b80600560006115e0611d70565b6001600160a01b03908116825260208083019390935260409182016000908120918716808252919093529120805460ff191692151592909217909155611624611d70565b60408051841515815290516001600160a01b0392909216917f17307eab39ab6107e8899845ad3d59bd9653f200f220920489ca2b5937696c319181900360200190a35050565b604080516d4445504f5349544f525f524f4c4560901b8152905190819003600e01902081565b611699816113cc565b6001600160a01b03166116aa611d70565b6001600160a01b0316146116ef5760405162461bcd60e51b81526004018080602001828103825260288152602001806131096028913960400191505060405180910390fd5b6000818152600f60205260408120805460ff191660011790558190611713826113cc565b6001600160a01b03167ff94915c6d1fd521cee85359239227480c7e8776d7caf1fc3bacad5c269b66a14306001600160a01b0316631653c39a866040518263ffffffff1660e01b81526004018082815260200191505060006040518083038186803b15801561178157600080fd5b505afa158015611795573d6000803e3d6000fd5b505050506040513d6000823e601f3d908101601f1916820160405260208110156117be57600080fd5b8101908080516040519392919084600160201b8211156117dd57600080fd5b9083019060208201858111156117f257600080fd5b8251600160201b81118282018810171561180b57600080fd5b82525081516020918201929091019080838360005b83811015611838578181015183820152602001611820565b50505050905090810190601f1680156118655780820380516001836020036101000a031916815260200191505b50604081815260208083528651818401528651929550859450908401925085019080838360005b838110156118a457818101518382015260200161188c565b50505050905090810190601f1680156118d15780820380516001836020036101000a031916815260200191505b509250505060405180910390a46111898161212c565b6118f86118f2611d70565b83611f2a565b6119335760405162461bcd60e51b815260040180806020018281038252603181526020018061326c6031913960400191505060405180910390fd5b61193f84848484612471565b50505050565b606061195082611d5d565b61198b5760405162461bcd60e51b815260040180806020018281038252602f81526020018061321c602f913960400191505060405180910390fd5b60008281526008602090815260409182902080548351601f6002600019610100600186161502019093169290920491820184900484028101840190945280845260609392830182828015611a205780601f106119f557610100808354040283529160200191611a20565b820191906000526020600020905b815481529060010190602001808311611a0357829003601f168201915b505060095493945050505060026000196101006001841615020190911604611a49579050610aca565b805115611b1a576009816040516020018083805460018160011615610100020316600290048015611ab15780601f10611a8f576101008083540402835291820191611ab1565b820191906000526020600020905b815481529060010190602001808311611a9d575b5050825160208401908083835b60208310611add5780518252601f199092019160209182019101611abe565b6001836020036101000a03801982511681845116808217855250505050505090500192505050604051602081830303815290604052915050610aca565b6009611b25846124c3565b6040516020018083805460018160011615610100020316600290048015611b835780601f10611b61576101008083540402835291820191611b83565b820191906000526020600020905b815481529060010190602001808311611b6f575b5050825160208401908083835b60208310611baf5780518252601f199092019160209182019101611b90565b6001836020036101000a03801982511681845116808217855250505050505090500192505050604051602081830303815290604052915050919050565b6000818152600a6020526040812061122390611f1f565b604080516d4445504f5349544f525f524f4c4560901b8152905190819003600e019020611c32816111aa611d70565b600b90611c985760405162461bcd60e51b815260206004820190815282546002600019610100600184161502019091160460248301819052909182916044909101908490801561132d5780601f106113025761010080835404028352916020019161132d565b50600083836020811015611cab57600080fd5b50356000818152600f60205260409020805460ff191690559050611ccf85826122ef565b5050505050565b6000828152600a6020526040902060020154611cf4906111aa611d70565b6112845760405162461bcd60e51b815260040180806020018281038252603081526020018061307c6030913960400191505060405180910390fd5b6001600160a01b03918216600090815260056020908152604080832093909416825291909152205460ff1690565b600061122360028363ffffffff61259e16565b60006110766125aa565b600081815260046020526040902080546001600160a01b0319166001600160a01b0384169081179091558190611daf826113cc565b6001600160a01b03167f8c5be1e5ebec7d5bd14f71427d1e84f3dd0314c0f7b2291e5b200ac8c7c3b92560405160405180910390a45050565b60006001600160a01b038616611e2f5760405162461bcd60e51b81526004018080602001828103825260258152602001806130ac6025913960400191505060405180910390fd5b6001611e42611e3d87612607565b612693565b83868660405160008152602001604052604051808581526020018460ff1660ff1681526020018381526020018281526020019450505050506020604051602081039080840390855afa158015611e9c573d6000803e3d6000fd5b505050602060405103516001600160a01b0316866001600160a01b031614905095945050505050565b600082820183811015611220576040805162461bcd60e51b815260206004820152601b60248201527f536166654d6174683a206164646974696f6e206f766572666c6f770000000000604482015290519081900360640190fd5b6000611223826126df565b6000611f3582611d5d565b611f705760405162461bcd60e51b815260040180806020018281038252602c815260200180613050602c913960400191505060405180910390fd5b6000611f7b836113cc565b9050806001600160a01b0316846001600160a01b03161480611fb65750836001600160a01b0316611fab84610b7b565b6001600160a01b0316145b80611fc65750611fc68185611d2f565b949350505050565b826001600160a01b0316611fe1826113cc565b6001600160a01b0316146120265760405162461bcd60e51b81526004018080602001828103825260298152602001806131d26029913960400191505060405180910390fd5b6001600160a01b03821661206b5760405162461bcd60e51b815260040180806020018281038252602481526020018061302c6024913960400191505060405180910390fd5b612076838383610cb3565b612081600082611d7a565b6001600160a01b03831660009081526001602052604090206120a9908263ffffffff6126e316565b506001600160a01b03821660009081526001602052604090206120d2908263ffffffff6126ef16565b506120e56002828463ffffffff6126fb16565b5080826001600160a01b0316846001600160a01b03167fddf252ad1be2c89b69c2b068fc378daa952ba7f163c4a11628f55a4df523b3ef60405160405180910390a4505050565b6000612137826113cc565b905061214581600084610cb3565b612150600083611d7a565b600082815260086020526040902054600260001961010060018416150201909116041561218e57600082815260086020526040812061218e91612edd565b6001600160a01b03811660009081526001602052604090206121b6908363ffffffff6126e316565b506121c860028363ffffffff61271116565b5060405182906000906001600160a01b038416907fddf252ad1be2c89b69c2b068fc378daa952ba7f163c4a11628f55a4df523b3ef908390a45050565b6000828152600a60205260409020612223908263ffffffff61271d16565b156111f457612230611d70565b6001600160a01b0316816001600160a01b0316837f2f8788117e7eff1d82e926ec794901d17c78024a50270940304540a733656f0d60405160405180910390a45050565b60006112208383612732565b6000828152600a6020526040902061229e908263ffffffff61279616565b156111f4576122ab611d70565b6001600160a01b0316816001600160a01b0316837ff6391f5c32d9c69d2a47ea670b442974b53935d1edc7fd64eb21e047a839171b60405160405180910390a45050565b6001600160a01b03821661234a576040805162461bcd60e51b815260206004820181905260248201527f4552433732313a206d696e7420746f20746865207a65726f2061646472657373604482015290519081900360640190fd5b61235381611d5d565b156123a5576040805162461bcd60e51b815260206004820152601c60248201527f4552433732313a20746f6b656e20616c7265616479206d696e74656400000000604482015290519081900360640190fd5b6123b160008383610cb3565b6001600160a01b03821660009081526001602052604090206123d9908263ffffffff6126ef16565b506123ec6002828463ffffffff6126fb16565b5060405181906001600160a01b038416906000907fddf252ad1be2c89b69c2b068fc378daa952ba7f163c4a11628f55a4df523b3ef908290a45050565b600080808061243886866127ab565b9097909650945050505050565b6000612452848484612826565b90505b9392505050565b6000611220836001600160a01b0384166128f0565b61247c848484611fce565b61248884848484612908565b61193f5760405162461bcd60e51b8152600401808060200182810382526032815260200180612f886032913960400191505060405180910390fd5b6060816124e857506040805180820190915260018152600360fc1b6020820152610aca565b8160005b811561250057600101600a820491506124ec565b60608167ffffffffffffffff8111801561251957600080fd5b506040519080825280601f01601f191660200182016040528015612544576020820181803683370190505b50859350905060001982015b831561259557600a840660300160f81b8282806001900393508151811061257357fe5b60200101906001600160f81b031916908160001a905350600a84049350612550565b50949350505050565b600061122083836128f0565b6000333014156126025760606000368080601f0160208091040260200160405190810160405280939291908181526020018383808284376000920191909152505050503601516001600160a01b03169150610b639050565b503390565b6000604051806080016040528060438152602001612fe960439139805190602001208260000151836020015184604001518051906020012060405160200180858152602001848152602001836001600160a01b03166001600160a01b03168152602001828152602001945050505050604051602081830303815290604052805190602001209050919050565b600061269d61107b565b82604051602001808061190160f01b81525060020183815260200182815260200192505050604051602081830303815290604052805190602001209050919050565b5490565b60006112208383612a88565b60006112208383612b4e565b600061245284846001600160a01b038516612b98565b60006112208383612c2f565b6000611220836001600160a01b038416612b4e565b815460009082106127745760405162461bcd60e51b8152600401808060200182810382526022815260200180612f376022913960400191505060405180910390fd5b82600001828154811061278357fe5b9060005260206000200154905092915050565b6000611220836001600160a01b038416612a88565b8154600090819083106127ef5760405162461bcd60e51b81526004018080602001828103825260228152602001806131846022913960400191505060405180910390fd5b600084600001848154811061280057fe5b906000526020600020906002020190508060000154816001015492509250509250929050565b600082815260018401602052604081205482816128c15760405162461bcd60e51b81526004018080602001828103825283818151815260200191508051906020019080838360005b8381101561288657818101518382015260200161286e565b50505050905090810190601f1680156128b35780820380516001836020036101000a031916815260200191505b509250505060405180910390fd5b508460000160018203815481106128d457fe5b9060005260206000209060020201600101549150509392505050565b60009081526001919091016020526040902054151590565b600061291c846001600160a01b0316612d03565b61292857506001611fc6565b6060612a4e630a85bd0160e11b61293d611d70565b88878760405160240180856001600160a01b03166001600160a01b03168152602001846001600160a01b03166001600160a01b0316815260200183815260200180602001828103825283818151815260200191508051906020019080838360005b838110156129b657818101518382015260200161299e565b50505050905090810190601f1680156129e35780820380516001836020036101000a031916815260200191505b5095505050505050604051602081830303815290604052906001600160e01b0319166020820180516001600160e01b038381831617835250505050604051806060016040528060328152602001612f88603291396001600160a01b038816919063ffffffff612d3c16565b90506000818060200190516020811015612a6757600080fd5b50516001600160e01b031916630a85bd0160e11b1492505050949350505050565b60008181526001830160205260408120548015612b445783546000198083019190810190600090879083908110612abb57fe5b9060005260206000200154905080876000018481548110612ad857fe5b600091825260208083209091019290925582815260018981019092526040902090840190558654879080612b0857fe5b60019003818190600052602060002001600090559055866001016000878152602001908152602001600020600090556001945050505050611223565b6000915050611223565b6000612b5a83836128f0565b612b9057508154600181810184556000848152602080822090930184905584548482528286019093526040902091909155611223565b506000611223565b600082815260018401602052604081205480612bfd575050604080518082018252838152602080820184815286546001818101895560008981528481209551600290930290950191825591519082015586548684528188019092529290912055612455565b82856000016001830381548110612c1057fe5b9060005260206000209060020201600101819055506000915050612455565b60008181526001830160205260408120548015612b445783546000198083019190810190600090879083908110612c6257fe5b9060005260206000209060020201905080876000018481548110612c8257fe5b600091825260208083208454600290930201918255600193840154918401919091558354825289830190526040902090840190558654879080612cc157fe5b60008281526020808220600260001990940193840201828155600190810183905592909355888152898201909252604082209190915594506112239350505050565b6000813f7fc5d2460186f7233c927e7db2dcc703c0e500b653ca82273b7bfad8045d85a470818114801590611fc6575050151592915050565b606061245284846000856060612d5185612d03565b612da2576040805162461bcd60e51b815260206004820152601d60248201527f416464726573733a2063616c6c20746f206e6f6e2d636f6e7472616374000000604482015290519081900360640190fd5b60006060866001600160a01b031685876040518082805190602001908083835b60208310612de15780518252601f199092019160209182019101612dc2565b6001836020036101000a03801982511681845116808217855250505050505090500191505060006040518083038185875af1925050503d8060008114612e43576040519150601f19603f3d011682016040523d82523d6000602084013e612e48565b606091505b50915091508115612e5c579150611fc69050565b805115612e6c5780518082602001fd5b60405162461bcd60e51b815260206004820181815286516024840152865187939192839260440191908501908083836000831561288657818101518382015260200161286e565b60405180606001604052806000815260200160006001600160a01b03168152602001606081525090565b50805460018160011615610100020316600290046000825580601f10612f035750611189565b600091825260209182902061118992610b6392601f01048101905b80821115612f325760008155600101612f1e565b509056fe456e756d657261626c655365743a20696e646578206f7574206f6620626f756e6473416363657373436f6e74726f6c3a2073656e646572206d75737420626520616e2061646d696e20746f206772616e744552433732313a207472616e7366657220746f206e6f6e20455243373231526563656976657220696d706c656d656e7465724368696c644d696e7461626c654552433732313a20544f4b454e5f4558495354535f4f4e5f524f4f545f434841494e4d6574615472616e73616374696f6e2875696e74323536206e6f6e63652c616464726573732066726f6d2c62797465732066756e6374696f6e5369676e6174757265294552433732313a207472616e7366657220746f20746865207a65726f20616464726573734552433732313a206f70657261746f7220717565727920666f72206e6f6e6578697374656e7420746f6b656e416363657373436f6e74726f6c3a2073656e646572206d75737420626520616e2061646d696e20746f207265766f6b654e61746976654d6574615472616e73616374696f6e3a20494e56414c49445f5349474e45524552433732313a20617070726f76652063616c6c6572206973206e6f74206f776e6572206e6f7220617070726f76656420666f7220616c6c4368696c644d696e7461626c654552433732313a20494e56414c49445f544f4b454e5f4f574e45524552433732313a2062616c616e636520717565727920666f7220746865207a65726f20616464726573734552433732313a206f776e657220717565727920666f72206e6f6e6578697374656e7420746f6b656e456e756d657261626c654d61703a20696e646578206f7574206f6620626f756e64734552433732313a20617070726f76656420717565727920666f72206e6f6e6578697374656e7420746f6b656e4552433732313a207472616e73666572206f6620746f6b656e2074686174206973206e6f74206f776e5369676e657220616e64207369676e617475726520646f206e6f74206d617463684552433732314d657461646174613a2055524920717565727920666f72206e6f6e6578697374656e7420746f6b656e4552433732313a20617070726f76616c20746f2063757272656e74206f776e65724552433732313a207472616e736665722063616c6c6572206973206e6f74206f776e6572206e6f7220617070726f766564416363657373436f6e74726f6c3a2063616e206f6e6c792072656e6f756e636520726f6c657320666f722073656c66a2646970667358221220eec463b2661f88974f394bf196063c0df5263916d11dc227b3334bffa735b83e64736f6c63430006060033454950373132446f6d61696e28737472696e67206e616d652c737472696e672076657273696f6e2c6164647265737320766572696679696e67436f6e74726163742c627974657333322073616c7429",
  "immutableReferences": {},
  "source": "pragma solidity 0.6.6;\n\nimport {ERC721} from \"@openzeppelin/contracts/token/ERC721/ERC721.sol\";\nimport {AccessControlMixin} from \"../../common/AccessControlMixin.sol\";\nimport {IChildToken} from \"./IChildToken.sol\";\nimport {NativeMetaTransaction} from \"../../common/NativeMetaTransaction.sol\";\nimport {ContextMixin} from \"../../common/ContextMixin.sol\";\n\n\ncontract ChildMintableERC721 is\n    ERC721,\n    IChildToken,\n    AccessControlMixin,\n    NativeMetaTransaction,\n    ContextMixin\n{\n    bytes32 public constant DEPOSITOR_ROLE = keccak256(\"DEPOSITOR_ROLE\");\n    mapping (uint256 => bool) public withdrawnTokens;\n\n    event TransferWithMetadata(address indexed from, address indexed to, uint256 indexed tokenId, bytes metaData);\n\n    constructor(\n        string memory name_,\n        string memory symbol_,\n        address childChainManager\n    ) public ERC721(name_, symbol_) {\n        _setupContractId(\"ChildMintableERC721\");\n        _setupRole(DEFAULT_ADMIN_ROLE, _msgSender());\n        _setupRole(DEPOSITOR_ROLE, childChainManager);\n        _initializeEIP712(name_);\n    }\n\n    // This is to support Native meta transactions\n    // never use msg.sender directly, use _msgSender() instead\n    function _msgSender()\n        internal\n        override\n        view\n        returns (address payable sender)\n    {\n        return ContextMixin.msgSender();\n    }\n\n    /**\n     * @notice called when token is deposited on root chain\n     * @dev Should be callable only by ChildChainManager\n     * Should handle deposit by minting the required tokenId for user\n     * Should set `withdrawnTokens` mapping to `false` for the tokenId being deposited\n     * Minting can also be done by other functions\n     * @param user user address for whom deposit is being done\n     * @param depositData abi encoded tokenId\n     */\n    function deposit(address user, bytes calldata depositData)\n        external\n        override\n        only(DEPOSITOR_ROLE)\n    {\n        uint256 tokenId = abi.decode(depositData, (uint256));\n        withdrawnTokens[tokenId] = false;\n        _mint(user, tokenId);\n    }\n\n    /**\n     * @notice called when user wants to withdraw token back to root chain\n     * @dev Should handle withraw by burning user's token.\n     * Should set `withdrawnTokens` mapping to `true` for the tokenId being withdrawn\n     * This transaction will be verified when exiting on root chain\n     * @param tokenId tokenId to withdraw\n     */\n    function withdraw(uint256 tokenId) external {\n        require(_msgSender() == ownerOf(tokenId), \"ChildMintableERC721: INVALID_TOKEN_OWNER\");\n        withdrawnTokens[tokenId] = true;\n        _burn(tokenId);\n    }\n\n    /**\n     * @notice called when user wants to withdraw token back to root chain with token URI\n     * @dev Should handle withraw by burning user's token.\n     * Should set `withdrawnTokens` mapping to `true` for the tokenId being withdrawn\n     * This transaction will be verified when exiting on root chain\n     *\n     * Before calling this function, you may want calling `encodeTokenMetadata`\n     * and get metadata to be transferred from L2 to L1 during exit\n     *\n     * @param tokenId tokenId to withdraw\n     */\n    function withdrawWithMetadata(uint256 tokenId) external {\n\n        require(_msgSender() == ownerOf(tokenId), \"ChildMintableERC721: INVALID_TOKEN_OWNER\");\n        withdrawnTokens[tokenId] = true;\n\n        // Encoding metadata associated with tokenId & emitting event\n        emit TransferWithMetadata(ownerOf(tokenId), address(0), tokenId, this.encodeTokenMetadata(tokenId));\n\n        _burn(tokenId);\n\n    }\n\n    /**\n     * @notice This method is supposed to be called by client when withdrawing token with metadata\n     * and pass return value of this function as second paramter of `withdrawWithMetadata` method\n     *\n     * It can be overridden by clients to encode data in a different form, which needs to\n     * be decoded back by them correctly during exiting\n     *\n     * @param tokenId Token for which URI to be fetched\n     */\n    function encodeTokenMetadata(uint256 tokenId) external view virtual returns (bytes memory) {\n\n        // You're always free to change this default implementation\n        // and pack more data in byte array which can be decoded back\n        // in L1\n        return abi.encode(tokenURI(tokenId));\n\n    }\n\n    /**\n     * @notice Example function to handle minting tokens on matic chain\n     * @dev Minting can be done as per requirement,\n     * This implementation allows only admin to mint tokens but it can be changed as per requirement\n     * Should verify if token is withdrawn by checking `withdrawnTokens` mapping\n     * @param user user for whom tokens are being minted\n     * @param tokenId tokenId to mint\n     */\n    function mint(address user, uint256 tokenId) public only(DEFAULT_ADMIN_ROLE) {\n        require(!withdrawnTokens[tokenId], \"ChildMintableERC721: TOKEN_EXISTS_ON_ROOT_CHAIN\");\n        _mint(user, tokenId);\n    }\n}\n",
  "sourcePath": "/Users/abhimanyushekhawat/projects/matic-contracts/contracts/child/ChildToken/ChildMintableERC721.sol",
  "compiler": {
    "name": "solc",
    "version": "0.6.6+commit.6c089d02.Emscripten.clang"
  },
  "schemaVersion": "3.3.4",
  "updatedAt": "2021-03-01T19:59:54.764Z",
  "devdoc": {
    "methods": {
      "approve(address,uint256)": {
        "details": "See {IERC721-approve}."
      },
      "balanceOf(address)": {
        "details": "See {IERC721-balanceOf}."
      },
      "baseURI()": {
        "details": "Returns the base URI set via {_setBaseURI}. This will be automatically added as a prefix in {tokenURI} to each token's URI, or to the token ID if no specific URI is set for that token ID."
      },
      "deposit(address,bytes)": {
        "details": "Should be callable only by ChildChainManager Should handle deposit by minting the required tokenId for user Should set `withdrawnTokens` mapping to `false` for the tokenId being deposited Minting can also be done by other functions",
        "params": {
          "depositData": "abi encoded tokenId",
          "user": "user address for whom deposit is being done"
        }
      },
      "encodeTokenMetadata(uint256)": {
        "params": {
          "tokenId": "Token for which URI to be fetched"
        }
      },
      "getApproved(uint256)": {
        "details": "See {IERC721-getApproved}."
      },
      "getRoleAdmin(bytes32)": {
        "details": "Returns the admin role that controls `role`. See {grantRole} and {revokeRole}.     * To change a role's admin, use {_setRoleAdmin}."
      },
      "getRoleMember(bytes32,uint256)": {
        "details": "Returns one of the accounts that have `role`. `index` must be a value between 0 and {getRoleMemberCount}, non-inclusive.     * Role bearers are not sorted in any particular way, and their ordering may change at any point.     * WARNING: When using {getRoleMember} and {getRoleMemberCount}, make sure you perform all queries on the same block. See the following https://forum.openzeppelin.com/t/iterating-over-elements-on-enumerableset-in-openzeppelin-contracts/2296[forum post] for more information."
      },
      "getRoleMemberCount(bytes32)": {
        "details": "Returns the number of accounts that have `role`. Can be used together with {getRoleMember} to enumerate all bearers of a role."
      },
      "grantRole(bytes32,address)": {
        "details": "Grants `role` to `account`.     * If `account` had not been already granted `role`, emits a {RoleGranted} event.     * Requirements:     * - the caller must have ``role``'s admin role."
      },
      "hasRole(bytes32,address)": {
        "details": "Returns `true` if `account` has been granted `role`."
      },
      "isApprovedForAll(address,address)": {
        "details": "See {IERC721-isApprovedForAll}."
      },
      "mint(address,uint256)": {
        "details": "Minting can be done as per requirement, This implementation allows only admin to mint tokens but it can be changed as per requirement Should verify if token is withdrawn by checking `withdrawnTokens` mapping",
        "params": {
          "tokenId": "tokenId to mint",
          "user": "user for whom tokens are being minted"
        }
      },
      "name()": {
        "details": "See {IERC721Metadata-name}."
      },
      "ownerOf(uint256)": {
        "details": "See {IERC721-ownerOf}."
      },
      "renounceRole(bytes32,address)": {
        "details": "Revokes `role` from the calling account.     * Roles are often managed via {grantRole} and {revokeRole}: this function's purpose is to provide a mechanism for accounts to lose their privileges if they are compromised (such as when a trusted device is misplaced).     * If the calling account had been granted `role`, emits a {RoleRevoked} event.     * Requirements:     * - the caller must be `account`."
      },
      "revokeRole(bytes32,address)": {
        "details": "Revokes `role` from `account`.     * If `account` had been granted `role`, emits a {RoleRevoked} event.     * Requirements:     * - the caller must have ``role``'s admin role."
      },
      "safeTransferFrom(address,address,uint256)": {
        "details": "See {IERC721-safeTransferFrom}."
      },
      "safeTransferFrom(address,address,uint256,bytes)": {
        "details": "See {IERC721-safeTransferFrom}."
      },
      "setApprovalForAll(address,bool)": {
        "details": "See {IERC721-setApprovalForAll}."
      },
      "supportsInterface(bytes4)": {
        "details": "See {IERC165-supportsInterface}.     * Time complexity O(1), guaranteed to always use less than 30 000 gas."
      },
      "symbol()": {
        "details": "See {IERC721Metadata-symbol}."
      },
      "tokenByIndex(uint256)": {
        "details": "See {IERC721Enumerable-tokenByIndex}."
      },
      "tokenOfOwnerByIndex(address,uint256)": {
        "details": "See {IERC721Enumerable-tokenOfOwnerByIndex}."
      },
      "tokenURI(uint256)": {
        "details": "See {IERC721Metadata-tokenURI}."
      },
      "totalSupply()": {
        "details": "See {IERC721Enumerable-totalSupply}."
      },
      "transferFrom(address,address,uint256)": {
        "details": "See {IERC721-transferFrom}."
      },
      "withdraw(uint256)": {
        "details": "Should handle withraw by burning user's token. Should set `withdrawnTokens` mapping to `true` for the tokenId being withdrawn This transaction will be verified when exiting on root chain",
        "params": {
          "tokenId": "tokenId to withdraw"
        }
      },
      "withdrawWithMetadata(uint256)": {
        "details": "Should handle withraw by burning user's token. Should set `withdrawnTokens` mapping to `true` for the tokenId being withdrawn This transaction will be verified when exiting on root chain     * Before calling this function, you may want calling `encodeTokenMetadata` and get metadata to be transferred from L2 to L1 during exit",
        "params": {
          "tokenId": "tokenId to withdraw"
        }
      }
    }
  },
  "userdoc": {
    "methods": {
      "deposit(address,bytes)": {
        "notice": "called when token is deposited on root chain"
      },
      "encodeTokenMetadata(uint256)": {
        "notice": "This method is supposed to be called by client when withdrawing token with metadata and pass return value of this function as second paramter of `withdrawWithMetadata` method     * It can be overridden by clients to encode data in a different form, which needs to be decoded back by them correctly during exiting"
      },
      "mint(address,uint256)": {
        "notice": "Example function to handle minting tokens on matic chain"
      },
      "withdraw(uint256)": {
        "notice": "called when user wants to withdraw token back to root chain"
      },
      "withdrawWithMetadata(uint256)": {
        "notice": "called when user wants to withdraw token back to root chain with token URI"
      }
    }
  }
}