{
  "contractName": "DummyERC1155",
  "abi": [
    {
      "inputs": [
        {
          "internalType": "string",
          "name": "uri_",
          "type": "string"
        }
      ],
      "stateMutability": "nonpayable",
      "type": "constructor"
    },
    {
      "anonymous": false,
      "inputs": [
        {
          "indexed": true,
          "internalType": "address",
          "name": "account",
          "type": "address"
        },
        {
          "indexed": true,
          "internalType": "address",
          "name": "operator",
          "type": "address"
        },
        {
          "indexed": false,
          "internalType": "bool",
          "name": "approved",
          "type": "bool"
        }
      ],
      "name": "ApprovalForAll",
      "type": "event"
    },
    {
      "anonymous": false,
      "inputs": [
        {
          "indexed": false,
          "internalType": "address",
          "name": "userAddress",
          "type": "address"
        },
        {
          "indexed": false,
          "internalType": "address payable",
          "name": "relayerAddress",
          "type": "address"
        },
        {
          "indexed": false,
          "internalType": "bytes",
          "name": "functionSignature",
          "type": "bytes"
        }
      ],
      "name": "MetaTransactionExecuted",
      "type": "event"
    },
    {
      "anonymous": false,
      "inputs": [
        {
          "indexed": true,
          "internalType": "address",
          "name": "operator",
          "type": "address"
        },
        {
          "indexed": true,
          "internalType": "address",
          "name": "from",
          "type": "address"
        },
        {
          "indexed": true,
          "internalType": "address",
          "name": "to",
          "type": "address"
        },
        {
          "indexed": false,
          "internalType": "uint256[]",
          "name": "ids",
          "type": "uint256[]"
        },
        {
          "indexed": false,
          "internalType": "uint256[]",
          "name": "values",
          "type": "uint256[]"
        }
      ],
      "name": "TransferBatch",
      "type": "event"
    },
    {
      "anonymous": false,
      "inputs": [
        {
          "indexed": true,
          "internalType": "address",
          "name": "operator",
          "type": "address"
        },
        {
          "indexed": true,
          "internalType": "address",
          "name": "from",
          "type": "address"
        },
        {
          "indexed": true,
          "internalType": "address",
          "name": "to",
          "type": "address"
        },
        {
          "indexed": false,
          "internalType": "uint256",
          "name": "id",
          "type": "uint256"
        },
        {
          "indexed": false,
          "internalType": "uint256",
          "name": "value",
          "type": "uint256"
        }
      ],
      "name": "TransferSingle",
      "type": "event"
    },
    {
      "anonymous": false,
      "inputs": [
        {
          "indexed": false,
          "internalType": "string",
          "name": "value",
          "type": "string"
        },
        {
          "indexed": true,
          "internalType": "uint256",
          "name": "id",
          "type": "uint256"
        }
      ],
      "name": "URI",
      "type": "event"
    },
    {
      "inputs": [],
      "name": "ERC712_VERSION",
      "outputs": [
        {
          "internalType": "string",
          "name": "",
          "type": "string"
        }
      ],
      "stateMutability": "view",
      "type": "function"
    },
    {
      "inputs": [
        {
          "internalType": "address",
          "name": "account",
          "type": "address"
        },
        {
          "internalType": "uint256",
          "name": "id",
          "type": "uint256"
        }
      ],
      "name": "balanceOf",
      "outputs": [
        {
          "internalType": "uint256",
          "name": "",
          "type": "uint256"
        }
      ],
      "stateMutability": "view",
      "type": "function"
    },
    {
      "inputs": [
        {
          "internalType": "address[]",
          "name": "accounts",
          "type": "address[]"
        },
        {
          "internalType": "uint256[]",
          "name": "ids",
          "type": "uint256[]"
        }
      ],
      "name": "balanceOfBatch",
      "outputs": [
        {
          "internalType": "uint256[]",
          "name": "",
          "type": "uint256[]"
        }
      ],
      "stateMutability": "view",
      "type": "function"
    },
    {
      "inputs": [
        {
          "internalType": "address",
          "name": "userAddress",
          "type": "address"
        },
        {
          "internalType": "bytes",
          "name": "functionSignature",
          "type": "bytes"
        },
        {
          "internalType": "bytes32",
          "name": "sigR",
          "type": "bytes32"
        },
        {
          "internalType": "bytes32",
          "name": "sigS",
          "type": "bytes32"
        },
        {
          "internalType": "uint8",
          "name": "sigV",
          "type": "uint8"
        }
      ],
      "name": "executeMetaTransaction",
      "outputs": [
        {
          "internalType": "bytes",
          "name": "",
          "type": "bytes"
        }
      ],
      "stateMutability": "payable",
      "type": "function"
    },
    {
      "inputs": [],
      "name": "getChainId",
      "outputs": [
        {
          "internalType": "uint256",
          "name": "",
          "type": "uint256"
        }
      ],
      "stateMutability": "pure",
      "type": "function"
    },
    {
      "inputs": [],
      "name": "getDomainSeperator",
      "outputs": [
        {
          "internalType": "bytes32",
          "name": "",
          "type": "bytes32"
        }
      ],
      "stateMutability": "view",
      "type": "function"
    },
    {
      "inputs": [
        {
          "internalType": "address",
          "name": "user",
          "type": "address"
        }
      ],
      "name": "getNonce",
      "outputs": [
        {
          "internalType": "uint256",
          "name": "nonce",
          "type": "uint256"
        }
      ],
      "stateMutability": "view",
      "type": "function"
    },
    {
      "inputs": [
        {
          "internalType": "address",
          "name": "account",
          "type": "address"
        },
        {
          "internalType": "address",
          "name": "operator",
          "type": "address"
        }
      ],
      "name": "isApprovedForAll",
      "outputs": [
        {
          "internalType": "bool",
          "name": "",
          "type": "bool"
        }
      ],
      "stateMutability": "view",
      "type": "function"
    },
    {
      "inputs": [
        {
          "internalType": "address",
          "name": "from",
          "type": "address"
        },
        {
          "internalType": "address",
          "name": "to",
          "type": "address"
        },
        {
          "internalType": "uint256[]",
          "name": "ids",
          "type": "uint256[]"
        },
        {
          "internalType": "uint256[]",
          "name": "amounts",
          "type": "uint256[]"
        },
        {
          "internalType": "bytes",
          "name": "data",
          "type": "bytes"
        }
      ],
      "name": "safeBatchTransferFrom",
      "outputs": [],
      "stateMutability": "nonpayable",
      "type": "function"
    },
    {
      "inputs": [
        {
          "internalType": "address",
          "name": "from",
          "type": "address"
        },
        {
          "internalType": "address",
          "name": "to",
          "type": "address"
        },
        {
          "internalType": "uint256",
          "name": "id",
          "type": "uint256"
        },
        {
          "internalType": "uint256",
          "name": "amount",
          "type": "uint256"
        },
        {
          "internalType": "bytes",
          "name": "data",
          "type": "bytes"
        }
      ],
      "name": "safeTransferFrom",
      "outputs": [],
      "stateMutability": "nonpayable",
      "type": "function"
    },
    {
      "inputs": [
        {
          "internalType": "address",
          "name": "operator",
          "type": "address"
        },
        {
          "internalType": "bool",
          "name": "approved",
          "type": "bool"
        }
      ],
      "name": "setApprovalForAll",
      "outputs": [],
      "stateMutability": "nonpayable",
      "type": "function"
    },
    {
      "inputs": [
        {
          "internalType": "bytes4",
          "name": "interfaceId",
          "type": "bytes4"
        }
      ],
      "name": "supportsInterface",
      "outputs": [
        {
          "internalType": "bool",
          "name": "",
          "type": "bool"
        }
      ],
      "stateMutability": "view",
      "type": "function"
    },
    {
      "inputs": [
        {
          "internalType": "uint256",
          "name": "",
          "type": "uint256"
        }
      ],
      "name": "uri",
      "outputs": [
        {
          "internalType": "string",
          "name": "",
          "type": "string"
        }
      ],
      "stateMutability": "view",
      "type": "function"
    },
    {
      "inputs": [
        {
          "internalType": "address",
          "name": "account",
          "type": "address"
        },
        {
          "internalType": "uint256",
          "name": "id",
          "type": "uint256"
        },
        {
          "internalType": "uint256",
          "name": "amount",
          "type": "uint256"
        }
      ],
      "name": "mint",
      "outputs": [],
      "stateMutability": "nonpayable",
      "type": "function"
    }
  ],
  "bytecode": "0x60806040526004805460ff191690553480156200001b57600080fd5b50604051620024cb380380620024cb833981810160405260208110156200004157600080fd5b81019080805160405193929190846401000000008211156200006257600080fd5b9083019060208201858111156200007857600080fd5b82516401000000008111828201881017156200009357600080fd5b82525081516020918201929091019080838360005b83811015620000c2578181015183820152602001620000a8565b50505050905090810190601f168015620000f05780820380516001836020036101000a031916815260200191505b50604052508291506200011590506301ffc9a760e01b6001600160e01b036200017b16565b62000129816001600160e01b036200020016565b62000144636cdb3d1360e11b6001600160e01b036200017b16565b6200015f6303a24d0760e21b6001600160e01b036200017b16565b5062000174816001600160e01b036200021916565b50620003f6565b6001600160e01b03198082161415620001db576040805162461bcd60e51b815260206004820152601c60248201527f4552433136353a20696e76616c696420696e7465726661636520696400000000604482015290519081900360640190fd5b6001600160e01b0319166000908152602081905260409020805460ff19166001179055565b80516200021590600390602084019062000354565b5050565b60045460ff161562000263576040805162461bcd60e51b815260206004820152600e60248201526d185b1c9958591e481a5b9a5d195960921b604482015290519081900360640190fd5b62000277816001600160e01b036200028716565b506004805460ff19166001179055565b6040518060800160405280604f81526020016200247c604f913980516020918201208251838301206040805180820190915260018152603160f81b930192909252907fc89efdaa54c0f20c7adf612882df0950f5a951637e0307cdcb4c672f298b8bc630620002fe6001600160e01b036200034f16565b604080516020808201979097528082019590955260608501939093526001600160a01b03909116608084015260a0808401919091528151808403909101815260c09092019052805191012060055550565b465b90565b828054600181600116156101000203166002900490600052602060002090601f016020900481019282601f106200039757805160ff1916838001178555620003c7565b82800160010185558215620003c7579182015b82811115620003c7578251825591602001919060010190620003aa565b50620003d5929150620003d9565b5090565b6200035191905b80821115620003d55760008155600101620003e0565b61207680620004066000396000f3fe6080604052600436106100dc5760003560e01c80632d0335ab1161007f5780634e1273f4116100595780634e1273f414610556578063a22cb465146106d6578063e985e9c514610711578063f242432a1461074c576100dc565b80632d0335ab146103405780632eb2c2d6146103735780633408e47014610541576100dc565b80630e89341c116100bb5780630e89341c146102ab5780630f7e5970146102d5578063156e29f6146102ea57806320379ee51461032b576100dc565b8062fdd58e146100e157806301ffc9a71461012c5780630c53c51c14610174575b600080fd5b3480156100ed57600080fd5b5061011a6004803603604081101561010457600080fd5b506001600160a01b038135169060200135610822565b60408051918252519081900360200190f35b34801561013857600080fd5b506101606004803603602081101561014f57600080fd5b50356001600160e01b031916610891565b604080519115158252519081900360200190f35b610236600480360360a081101561018a57600080fd5b6001600160a01b038235169190810190604081016020820135600160201b8111156101b457600080fd5b8201836020820111156101c657600080fd5b803590602001918460018302840111600160201b831117156101e757600080fd5b91908080601f016020809104026020016040519081016040528093929190818152602001838380828437600092019190915250929550508235935050506020810135906040013560ff166108b0565b6040805160208082528351818301528351919283929083019185019080838360005b83811015610270578181015183820152602001610258565b50505050905090810190601f16801561029d5780820380516001836020036101000a031916815260200191505b509250505060405180910390f35b3480156102b757600080fd5b50610236600480360360208110156102ce57600080fd5b5035610bb3565b3480156102e157600080fd5b50610236610c4b565b3480156102f657600080fd5b506103296004803603606081101561030d57600080fd5b506001600160a01b038135169060208101359060400135610c68565b005b34801561033757600080fd5b5061011a610c88565b34801561034c57600080fd5b5061011a6004803603602081101561036357600080fd5b50356001600160a01b0316610c8e565b34801561037f57600080fd5b50610329600480360360a081101561039657600080fd5b6001600160a01b038235811692602081013590911691810190606081016040820135600160201b8111156103c957600080fd5b8201836020820111156103db57600080fd5b803590602001918460208302840111600160201b831117156103fc57600080fd5b9190808060200260200160405190810160405280939291908181526020018383602002808284376000920191909152509295949360208101935035915050600160201b81111561044b57600080fd5b82018360208201111561045d57600080fd5b803590602001918460208302840111600160201b8311171561047e57600080fd5b9190808060200260200160405190810160405280939291908181526020018383602002808284376000920191909152509295949360208101935035915050600160201b8111156104cd57600080fd5b8201836020820111156104df57600080fd5b803590602001918460018302840111600160201b8311171561050057600080fd5b91908080601f016020809104026020016040519081016040528093929190818152602001838380828437600092019190915250929550610ca9945050505050565b34801561054d57600080fd5b5061011a610fa7565b34801561056257600080fd5b506106866004803603604081101561057957600080fd5b810190602081018135600160201b81111561059357600080fd5b8201836020820111156105a557600080fd5b803590602001918460208302840111600160201b831117156105c657600080fd5b9190808060200260200160405190810160405280939291908181526020018383602002808284376000920191909152509295949360208101935035915050600160201b81111561061557600080fd5b82018360208201111561062757600080fd5b803590602001918460208302840111600160201b8311171561064857600080fd5b919080806020026020016040519081016040528093929190818152602001838360200280828437600092019190915250929550610fab945050505050565b60408051602080825283518183015283519192839290830191858101910280838360005b838110156106c25781810151838201526020016106aa565b505050509050019250505060405180910390f35b3480156106e257600080fd5b50610329600480360360408110156106f957600080fd5b506001600160a01b0381351690602001351515611129565b34801561071d57600080fd5b506101606004803603604081101561073457600080fd5b506001600160a01b0381358116916020013516611218565b34801561075857600080fd5b50610329600480360360a081101561076f57600080fd5b6001600160a01b03823581169260208101359091169160408201359160608101359181019060a081016080820135600160201b8111156107ae57600080fd5b8201836020820111156107c057600080fd5b803590602001918460018302840111600160201b831117156107e157600080fd5b91908080601f016020809104026020016040519081016040528093929190818152602001838380828437600092019190915250929550611246945050505050565b60006001600160a01b0383166108695760405162461bcd60e51b815260040180806020018281038252602b815260200180611e17602b913960400191505060405180910390fd5b5060009081526001602090815260408083206001600160a01b03949094168352929052205490565b6001600160e01b03191660009081526020819052604090205460ff1690565b60606108ba611d90565b50604080516060810182526001600160a01b038816600081815260066020908152908490205483528201529081018690526108f88782878787611417565b6109335760405162461bcd60e51b8152600401808060200182810382526021815260200180611f856021913960400191505060405180910390fd5b6001600160a01b03871660009081526006602052604090205461095d90600163ffffffff6114f416565b6001600160a01b03881660008181526006602090815260408083209490945583519283523383820181905260609484018581528b51958501959095528a517f5845892132946850460bff5a0083f71031bc5bf9aadcd40f1de79423eac9b10b958d9592948d94919260808501928601918190849084905b838110156109ec5781810151838201526020016109d4565b50505050905090810190601f168015610a195780820380516001836020036101000a031916815260200191505b5094505050505060405180910390a160006060306001600160a01b0316888a6040516020018083805190602001908083835b60208310610a6a5780518252601f199092019160209182019101610a4b565b6001836020036101000a038019825116818451168082178552505050505050905001826001600160a01b03166001600160a01b031660601b8152601401925050506040516020818303038152906040526040518082805190602001908083835b60208310610ae95780518252601f199092019160209182019101610aca565b6001836020036101000a0380198251168184511680821785525050505050509050019150506000604051808303816000865af19150503d8060008114610b4b576040519150601f19603f3d011682016040523d82523d6000602084013e610b50565b606091505b509150915081610ba7576040805162461bcd60e51b815260206004820152601c60248201527f46756e6374696f6e2063616c6c206e6f74207375636365737366756c00000000604482015290519081900360640190fd5b98975050505050505050565b60038054604080516020601f6002600019610100600188161502019095169490940493840181900481028201810190925282815260609390929091830182828015610c3f5780601f10610c1457610100808354040283529160200191610c3f565b820191906000526020600020905b815481529060010190602001808311610c2257829003601f168201915b50505050509050919050565b604051806040016040528060018152602001603160f81b81525081565b610c8383838360405180602001604052806000815250611555565b505050565b60055490565b6001600160a01b031660009081526006602052604090205490565b8151835114610ce95760405162461bcd60e51b8152600401808060200182810382526028815260200180611ff86028913960400191505060405180910390fd5b6001600160a01b038416610d2e5760405162461bcd60e51b8152600401808060200182810382526025815260200180611f046025913960400191505060405180910390fd5b610d36611663565b6001600160a01b0316856001600160a01b03161480610d615750610d6185610d5c611663565b611218565b610d9c5760405162461bcd60e51b8152600401808060200182810382526032815260200180611f296032913960400191505060405180910390fd5b6000610da6611663565b9050610db6818787878787610f9f565b60005b8451811015610eb7576000858281518110610dd057fe5b602002602001015190506000858381518110610de857fe5b60200260200101519050610e55816040518060600160405280602a8152602001611f5b602a91396001600086815260200190815260200160002060008d6001600160a01b03166001600160a01b03168152602001908152602001600020546116729092919063ffffffff16565b60008381526001602090815260408083206001600160a01b038e811685529252808320939093558a1681522054610e8c90826114f4565b60009283526001602081815260408086206001600160a01b038d168752909152909320555001610db9565b50846001600160a01b0316866001600160a01b0316826001600160a01b03167f4a39dc06d4c0dbc64b70af90fd698a233a518aa5d07e595d983b8c0526c8f7fb8787604051808060200180602001838103835285818151815260200191508051906020019060200280838360005b83811015610f3d578181015183820152602001610f25565b50505050905001838103825284818151815260200191508051906020019060200280838360005b83811015610f7c578181015183820152602001610f64565b5050505090500194505050505060405180910390a4610f9f818787878787611709565b505050505050565b4690565b60608151835114610fed5760405162461bcd60e51b8152600401808060200182810382526029815260200180611fcf6029913960400191505060405180910390fd5b6060835167ffffffffffffffff8111801561100757600080fd5b50604051908082528060200260200182016040528015611031578160200160208202803683370190505b50905060005b84518110156111215760006001600160a01b031685828151811061105757fe5b60200260200101516001600160a01b031614156110a55760405162461bcd60e51b8152600401808060200182810382526031815260200180611e426031913960400191505060405180910390fd5b600160008583815181106110b557fe5b6020026020010151815260200190815260200160002060008683815181106110d957fe5b60200260200101516001600160a01b03166001600160a01b031681526020019081526020016000205482828151811061110e57fe5b6020908102919091010152600101611037565b509392505050565b816001600160a01b031661113b611663565b6001600160a01b031614156111815760405162461bcd60e51b8152600401808060200182810382526029815260200180611fa66029913960400191505060405180910390fd5b806002600061118e611663565b6001600160a01b03908116825260208083019390935260409182016000908120918716808252919093529120805460ff1916921515929092179091556111d2611663565b60408051841515815290516001600160a01b0392909216917f17307eab39ab6107e8899845ad3d59bd9653f200f220920489ca2b5937696c319181900360200190a35050565b6001600160a01b03918216600090815260026020908152604080832093909416825291909152205460ff1690565b6001600160a01b03841661128b5760405162461bcd60e51b8152600401808060200182810382526025815260200180611f046025913960400191505060405180910390fd5b611293611663565b6001600160a01b0316856001600160a01b031614806112b957506112b985610d5c611663565b6112f45760405162461bcd60e51b8152600401808060200182810382526029815260200180611eb66029913960400191505060405180910390fd5b60006112fe611663565b905061131e81878761130f88611a47565b61131888611a47565b87610f9f565b61136b836040518060600160405280602a8152602001611f5b602a913960008781526001602090815260408083206001600160a01b038d168452909152902054919063ffffffff61167216565b60008581526001602090815260408083206001600160a01b038b811685529252808320939093558716815220546113a290846114f4565b60008581526001602090815260408083206001600160a01b03808b168086529184529382902094909455805188815291820187905280518a8416938616927fc3d58168c5ae7397731d063d5bbf3d657854427343f4c083240f7aacaa2d0f6292908290030190a4610f9f818787878787611a8b565b60006001600160a01b03861661145e5760405162461bcd60e51b8152600401808060200182810382526025815260200180611edf6025913960400191505060405180910390fd5b600161147161146c87611c1e565b611caa565b83868660405160008152602001604052604051808581526020018460ff1660ff1681526020018381526020018281526020019450505050506020604051602081039080840390855afa1580156114cb573d6000803e3d6000fd5b505050602060405103516001600160a01b0316866001600160a01b031614905095945050505050565b60008282018381101561154e576040805162461bcd60e51b815260206004820152601b60248201527f536166654d6174683a206164646974696f6e206f766572666c6f770000000000604482015290519081900360640190fd5b9392505050565b6001600160a01b03841661159a5760405162461bcd60e51b81526004018080602001828103825260218152602001806120206021913960400191505060405180910390fd5b60006115a4611663565b90506115b68160008761130f88611a47565b60008481526001602090815260408083206001600160a01b03891684529091529020546115e9908463ffffffff6114f416565b60008581526001602090815260408083206001600160a01b03808b16808652918452828520959095558151898152928301889052815190948616927fc3d58168c5ae7397731d063d5bbf3d657854427343f4c083240f7aacaa2d0f6292908290030190a461165c81600087878787611a8b565b5050505050565b600061166d611cf6565b905090565b600081848411156117015760405162461bcd60e51b81526004018080602001828103825283818151815260200191508051906020019080838360005b838110156116c65781810151838201526020016116ae565b50505050905090810190601f1680156116f35780820380516001836020036101000a031916815260200191505b509250505060405180910390fd5b505050900390565b61171b846001600160a01b0316611d54565b15610f9f57836001600160a01b031663bc197c8187878686866040518663ffffffff1660e01b815260040180866001600160a01b03166001600160a01b03168152602001856001600160a01b03166001600160a01b03168152602001806020018060200180602001848103845287818151815260200191508051906020019060200280838360005b838110156117bb5781810151838201526020016117a3565b50505050905001848103835286818151815260200191508051906020019060200280838360005b838110156117fa5781810151838201526020016117e2565b50505050905001848103825285818151815260200191508051906020019080838360005b8381101561183657818101518382015260200161181e565b50505050905090810190601f1680156118635780820380516001836020036101000a031916815260200191505b5098505050505050505050602060405180830381600087803b15801561188857600080fd5b505af19250505080156118ad57506040513d60208110156118a857600080fd5b505160015b6119ef576040516000815260443d10156118c957506000611966565b60046000803e60005160e01c6308c379a081146118ea576000915050611966565b60043d036004833e81513d602482011167ffffffffffffffff8211171561191657600092505050611966565b808301805167ffffffffffffffff811115611938576000945050505050611966565b8060208301013d860181111561195657600095505050505050611966565b601f01601f191660405250925050505b8061197157506119b8565b60405162461bcd60e51b81526020600482018181528351602484015283518493919283926044019190850190808383600083156116c65781810151838201526020016116ae565b60405162461bcd60e51b8152600401808060200182810382526034815260200180611dbb6034913960400191505060405180910390fd5b6001600160e01b0319811663bc197c8160e01b14611a3e5760405162461bcd60e51b8152600401808060200182810382526028815260200180611def6028913960400191505060405180910390fd5b50505050505050565b604080516001808252818301909252606091829190602080830190803683370190505090508281600081518110611a7a57fe5b602090810291909101015292915050565b611a9d846001600160a01b0316611d54565b15610f9f57836001600160a01b031663f23a6e6187878686866040518663ffffffff1660e01b815260040180866001600160a01b03166001600160a01b03168152602001856001600160a01b03166001600160a01b0316815260200184815260200183815260200180602001828103825283818151815260200191508051906020019080838360005b83811015611b3e578181015183820152602001611b26565b50505050905090810190601f168015611b6b5780820380516001836020036101000a031916815260200191505b509650505050505050602060405180830381600087803b158015611b8e57600080fd5b505af1925050508015611bb357506040513d6020811015611bae57600080fd5b505160015b611bcf576040516000815260443d10156118c957506000611966565b6001600160e01b0319811663f23a6e6160e01b14611a3e5760405162461bcd60e51b8152600401808060200182810382526028815260200180611def6028913960400191505060405180910390fd5b6000604051806080016040528060438152602001611e7360439139805190602001208260000151836020015184604001518051906020012060405160200180858152602001848152602001836001600160a01b03166001600160a01b03168152602001828152602001945050505050604051602081830303815290604052805190602001209050919050565b6000611cb4610c88565b82604051602001808061190160f01b81525060020183815260200182815260200192505050604051602081830303815290604052805190602001209050919050565b600033301415611d4e5760606000368080601f0160208091040260200160405190810160405280939291908181526020018383808284376000920191909152505050503601516001600160a01b03169150611d519050565b50335b90565b6000813f7fc5d2460186f7233c927e7db2dcc703c0e500b653ca82273b7bfad8045d85a470818114801590611d8857508115155b949350505050565b60405180606001604052806000815260200160006001600160a01b0316815260200160608152509056fe455243313135353a207472616e7366657220746f206e6f6e2045524331313535526563656976657220696d706c656d656e746572455243313135353a204552433131353552656365697665722072656a656374656420746f6b656e73455243313135353a2062616c616e636520717565727920666f7220746865207a65726f2061646472657373455243313135353a2062617463682062616c616e636520717565727920666f7220746865207a65726f20616464726573734d6574615472616e73616374696f6e2875696e74323536206e6f6e63652c616464726573732066726f6d2c62797465732066756e6374696f6e5369676e617475726529455243313135353a2063616c6c6572206973206e6f74206f776e6572206e6f7220617070726f7665644e61746976654d6574615472616e73616374696f6e3a20494e56414c49445f5349474e4552455243313135353a207472616e7366657220746f20746865207a65726f2061646472657373455243313135353a207472616e736665722063616c6c6572206973206e6f74206f776e6572206e6f7220617070726f766564455243313135353a20696e73756666696369656e742062616c616e636520666f72207472616e736665725369676e657220616e64207369676e617475726520646f206e6f74206d61746368455243313135353a2073657474696e6720617070726f76616c2073746174757320666f722073656c66455243313135353a206163636f756e747320616e6420696473206c656e677468206d69736d61746368455243313135353a2069647320616e6420616d6f756e7473206c656e677468206d69736d61746368455243313135353a206d696e7420746f20746865207a65726f2061646472657373a264697066735822122071ae7a0a8d39568d6f06e654cc61feacb5f5d60a6777f5386818d32be5ac707864736f6c63430006060033454950373132446f6d61696e28737472696e67206e616d652c737472696e672076657273696f6e2c6164647265737320766572696679696e67436f6e74726163742c627974657333322073616c7429",
  "immutableReferences": {},
  "source": "pragma solidity 0.6.6;\n\nimport {ERC1155} from \"@openzeppelin/contracts/token/ERC1155/ERC1155.sol\";\nimport {NativeMetaTransaction} from \"../../common/NativeMetaTransaction.sol\";\nimport {ContextMixin} from \"../../common/ContextMixin.sol\";\n\ncontract DummyERC1155 is\n    ERC1155,\n    NativeMetaTransaction,\n    ContextMixin\n{\n    constructor(string memory uri_)\n        public\n        ERC1155(uri_)\n    {\n        _initializeEIP712(uri_);\n    }\n\n    function mint(address account, uint256 id, uint256 amount) public {\n        _mint(account, id, amount, bytes(\"\"));\n    }\n\n    function _msgSender()\n        internal\n        override\n        view\n        returns (address payable sender)\n    {\n        return ContextMixin.msgSender();\n    }\n}\n",
  "sourcePath": "/Users/abhimanyushekhawat/projects/matic-contracts/contracts/root/RootToken/DummyERC1155.sol",
  "compiler": {
    "name": "solc",
    "version": "0.6.6+commit.6c089d02.Emscripten.clang"
  },
  "schemaVersion": "3.3.4",
  "updatedAt": "2021-03-01T19:59:54.804Z",
  "devdoc": {
    "methods": {
      "balanceOf(address,uint256)": {
        "details": "See {IERC1155-balanceOf}.     * Requirements:     * - `account` cannot be the zero address."
      },
      "balanceOfBatch(address[],uint256[])": {
        "details": "See {IERC1155-balanceOfBatch}.     * Requirements:     * - `accounts` and `ids` must have the same length."
      },
      "isApprovedForAll(address,address)": {
        "details": "See {IERC1155-isApprovedForAll}."
      },
      "safeBatchTransferFrom(address,address,uint256[],uint256[],bytes)": {
        "details": "See {IERC1155-safeBatchTransferFrom}."
      },
      "safeTransferFrom(address,address,uint256,uint256,bytes)": {
        "details": "See {IERC1155-safeTransferFrom}."
      },
      "setApprovalForAll(address,bool)": {
        "details": "See {IERC1155-setApprovalForAll}."
      },
      "supportsInterface(bytes4)": {
        "details": "See {IERC165-supportsInterface}.     * Time complexity O(1), guaranteed to always use less than 30 000 gas."
      },
      "uri(uint256)": {
        "details": "See {IERC1155MetadataURI-uri}.     * This implementation returns the same URI for *all* token types. It relies on the token type ID substituion mechanism https://eips.ethereum.org/EIPS/eip-1155#metadata[defined in the EIP].     * Clients calling this function must replace the `\\{id\\}` substring with the actual token type ID."
      }
    }
  },
  "userdoc": {
    "methods": {}
  }
}