{
  "contractName": "MerklePatriciaTest",
  "abi": [
    {
      "inputs": [
        {
          "internalType": "uint256",
          "name": "receiptRoot",
          "type": "uint256"
        },
        {
          "internalType": "bytes",
          "name": "receipt",
          "type": "bytes"
        },
        {
          "internalType": "bytes",
          "name": "receiptProof",
          "type": "bytes"
        },
        {
          "internalType": "bytes",
          "name": "branchMask",
          "type": "bytes"
        }
      ],
      "name": "verify",
      "outputs": [
        {
          "internalType": "bool",
          "name": "",
          "type": "bool"
        }
      ],
      "stateMutability": "pure",
      "type": "function"
    }
  ],
  "bytecode": "0x608060405234801561001057600080fd5b50610e1e806100206000396000f3fe608060405234801561001057600080fd5b506004361061002b5760003560e01c8063d1f13e2814610030575b600080fd5b61014b6004803603608081101561004657600080fd5b8135919081019060408101602082013564010000000081111561006857600080fd5b82018360208201111561007a57600080fd5b8035906020019184600183028401116401000000008311171561009c57600080fd5b9193909290916020810190356401000000008111156100ba57600080fd5b8201836020820111156100cc57600080fd5b803590602001918460018302840111640100000000831117156100ee57600080fd5b91939092909160208101903564010000000081111561010c57600080fd5b82018360208201111561011e57600080fd5b8035906020019184600183028401116401000000008311171561014057600080fd5b50909250905061015f565b604080519115158252519081900360200190f35b600061020a87878080601f01602080910402602001604051908101604052809392919081815260200183838082843760009201919091525050604080516020601f8901819004810282018101909252878152925087915086908190840183828082843760009201919091525050604080516020601f8c018190048102820181019092528a815292508a91508990819084018382808284376000920191909152508e9250610216915050565b98975050505050505050565b6000610220610d00565b61022984610477565b90506060610236826104f3565b9050606080856000826102488b610675565b905080516000141561026457600097505050505050505061046f565b60005b865181101561046657815183111561028a5760009850505050505050505061046f565b6102a687828151811061029957fe5b60200260200101516107e9565b9550858051906020012084146102c75760009850505050505050505061046f565b6102e38782815181106102d657fe5b60200260200101516104f3565b94508451601114156103ad57815183141561034c578c8051906020012061031d8660108151811061031057fe5b6020026020010151610857565b80519060200120141561033b5760019850505050505050505061046f565b60009850505050505050505061046f565b600082848151811061035a57fe5b016020015160f81c9050601081111561037f576000995050505050505050505061046f565b61039e868260ff168151811061039157fe5b602002602001015161092b565b9450506001929092019161045e565b84516002141561033b5760006103d36103cc8760008151811061031057fe5b84866109ca565b905082518185011415610429578d805190602001206103f88760018151811061031057fe5b805190602001201415610417576001995050505050505050505061046f565b6000995050505050505050505061046f565b80610440576000995050505050505050505061046f565b80840193506104558660018151811061039157fe5b945061045e9050565b600101610267565b50505050505050505b949350505050565b61047f610d00565b60008251116104d5576040805162461bcd60e51b815260206004820152601f60248201527f524c505265616465723a20494e56414c49445f42595445535f4c454e47544800604482015290519081900360640190fd5b5060408051808201909152815181526020828101908201525b919050565b60606104fe82610aa9565b61054f576040805162461bcd60e51b815260206004820152601860248201527f524c505265616465723a204954454d5f4e4f545f4c4953540000000000000000604482015290519081900360640190fd5b600061055a83610ad5565b905060608167ffffffffffffffff8111801561057557600080fd5b506040519080825280602002602001820160405280156105af57816020015b61059c610d00565b8152602001906001900390816105945790505b50905060006105c18560200151610b61565b855190915081146106035760405162461bcd60e51b8152600401808060200182810382526027815260200180610d946027913960400191505060405180910390fd5b60006106128660200151610bf5565b60208701510190506000805b858110156106695761062f83610b61565b915060405180604001604052808381526020018481525085828151811061065257fe5b60209081029190910101529181019160010161061e565b50929695505050505050565b604080516020810190915260008152815160609190156107e35760008061069d600086610c58565b60f81c905060018114806106b457508060ff166003145b1561074357600185516002020367ffffffffffffffff811180156106d757600080fd5b506040519080825280601f01601f191660200182016040528015610702576020820181803683370190505b5092506000610712600187610c58565b9050808460008151811061072257fe5b60200101906001600160f81b031916908160001a9053506001925050610794565b600285516002020367ffffffffffffffff8111801561076157600080fd5b506040519080825280601f01601f19166020018201604052801561078c576020820181803683370190505b509250600091505b60ff82165b83518110156107df576107b48360ff16820360020187610c58565b8482815181106107c057fe5b60200101906001600160f81b031916908160001a905350600101610799565b5050505b92915050565b606080826000015167ffffffffffffffff8111801561080757600080fd5b506040519080825280601f01601f191660200182016040528015610832576020820181803683370190505b50905060008160200190506108508460200151828660000151610cb5565b5092915050565b606060006108688360200151610b61565b835190915081146108aa5760405162461bcd60e51b8152600401808060200182810382526028815260200180610d406028913960400191505060405180910390fd5b60006108b98460200151610bf5565b845190915081900360608167ffffffffffffffff811180156108da57600080fd5b506040519080825280601f01601f191660200182016040528015610905576020820181803683370190505b5090506000816020019050610921848860200151018285610cb5565b5095945050505050565b60008061093b8360200151610b61565b8351909150811461097d5760405162461bcd60e51b815260040180806020018281038252602e815260200180610dbb602e913960400191505060405180910390fd5b82516021146109bd5760405162461bcd60e51b8152600401808060200182810382526025815260200180610d1b6025913960400191505060405180910390fd5b5050602001516001015190565b60008060606109d886610675565b90506060815167ffffffffffffffff811180156109f457600080fd5b506040519080825280601f01601f191660200182016040528015610a1f576020820181803683370190505b509050845b82518601811015610a79576000878281518110610a3d57fe5b602001015160f81c60f81b9050808388840381518110610a5957fe5b60200101906001600160f81b031916908160001a90535050600101610a24565b50808051906020012082805190602001201415610a995781519250610a9e565b600092505b509095945050505050565b6020810151805160009190821a9060c0821015610acb576000925050506104ee565b5060019392505050565b600080600090506000610aeb8460200151610bf5565b602085015185519181019250015b80821015610b5857610b0a82610b61565b8201915080821115610b4d5760405162461bcd60e51b815260040180806020018281038252602c815260200180610d68602c913960400191505060405180910390fd5b600190920191610af9565b50909392505050565b80516000908190811a6080811015610b7c5760019150610850565b60b8811015610b9157607e1981019150610850565b60c0811015610bbe5760b78103600185019450806020036101000a85510460018201810193505050610850565b60f8811015610bd35760be1981019150610850565b60019390930151602084900360f7016101000a900490920160f5190192915050565b8051600090811a6080811015610c0f5760009150506104ee565b60b8811080610c2a575060c08110801590610c2a575060f881105b15610c395760019150506104ee565b60c0811015610c4d5760b5190190506104ee565b60f5190190506104ee565b60006002830615610c89576010826002850481518110610c7457fe5b016020015160f81c81610c8357fe5b06610cab565b6010826002850481518110610c9a57fe5b016020015160f81c81610ca957fe5b045b60f81b9392505050565b80610cbf57610cfb565b5b60208110610cdf578251825260209283019290910190601f1901610cc0565b8251825160208390036101000a60001901801990921691161782525b505050565b60405180604001604052806000815260200160008152509056fe524c505265616465723a20494e56414c49445f55494e545f5354524943545f4c454e475448524c505265616465723a2042595445535f4445434f4445445f4c454e4754485f4d49534d41544348524c505265616465723a204e554d5f4954454d535f4445434f4445445f4c454e4754485f4d49534d41544348524c505265616465723a204c4953545f4445434f4445445f4c454e4754485f4d49534d41544348524c505265616465723a2055494e545f5354524943545f4445434f4445445f4c454e4754485f4d49534d41544348a264697066735822122013558ec6c0d422de3cbf09e902d44e54fe40810e5e13348ec7f0e77dc8c06cb264736f6c63430006060033",
  "immutableReferences": {},
  "source": "pragma solidity 0.6.6;\n\nimport {MerklePatriciaProof} from \"../lib/MerklePatriciaProof.sol\";\nimport {RLPReader} from \"../lib/RLPReader.sol\";\n\ncontract MerklePatriciaTest {\n    using RLPReader for bytes;\n    using RLPReader for RLPReader.RLPItem;\n\n    function verify(uint receiptRoot, bytes calldata receipt, bytes calldata receiptProof, bytes calldata branchMask) external pure returns(bool) {\n\n        return MerklePatriciaProof.verify(\n            receipt, // receipt\n            branchMask, // branchMask\n            receiptProof, // receiptProof\n            bytes32(receiptRoot) // receiptRoot\n        );\n    }\n}\n",
  "sourcePath": "/Users/abhimanyushekhawat/projects/matic-contracts/contracts/test/MerklePatriciaTest.sol",
  "compiler": {
    "name": "solc",
    "version": "0.6.6+commit.6c089d02.Emscripten.clang"
  },
  "schemaVersion": "3.3.4",
  "updatedAt": "2021-03-01T19:59:54.840Z",
  "devdoc": {
    "methods": {}
  },
  "userdoc": {
    "methods": {}
  }
}