{
  "contractName": "MintableERC20Predicate",
  "abi": [
    {
      "inputs": [],
      "stateMutability": "nonpayable",
      "type": "constructor"
    },
    {
      "anonymous": false,
      "inputs": [
        {
          "indexed": true,
          "internalType": "address",
          "name": "depositor",
          "type": "address"
        },
        {
          "indexed": true,
          "internalType": "address",
          "name": "depositReceiver",
          "type": "address"
        },
        {
          "indexed": true,
          "internalType": "address",
          "name": "rootToken",
          "type": "address"
        },
        {
          "indexed": false,
          "internalType": "uint256",
          "name": "amount",
          "type": "uint256"
        }
      ],
      "name": "LockedMintableERC20",
      "type": "event"
    },
    {
      "anonymous": false,
      "inputs": [
        {
          "indexed": true,
          "internalType": "bytes32",
          "name": "role",
          "type": "bytes32"
        },
        {
          "indexed": true,
          "internalType": "bytes32",
          "name": "previousAdminRole",
          "type": "bytes32"
        },
        {
          "indexed": true,
          "internalType": "bytes32",
          "name": "newAdminRole",
          "type": "bytes32"
        }
      ],
      "name": "RoleAdminChanged",
      "type": "event"
    },
    {
      "anonymous": false,
      "inputs": [
        {
          "indexed": true,
          "internalType": "bytes32",
          "name": "role",
          "type": "bytes32"
        },
        {
          "indexed": true,
          "internalType": "address",
          "name": "account",
          "type": "address"
        },
        {
          "indexed": true,
          "internalType": "address",
          "name": "sender",
          "type": "address"
        }
      ],
      "name": "RoleGranted",
      "type": "event"
    },
    {
      "anonymous": false,
      "inputs": [
        {
          "indexed": true,
          "internalType": "bytes32",
          "name": "role",
          "type": "bytes32"
        },
        {
          "indexed": true,
          "internalType": "address",
          "name": "account",
          "type": "address"
        },
        {
          "indexed": true,
          "internalType": "address",
          "name": "sender",
          "type": "address"
        }
      ],
      "name": "RoleRevoked",
      "type": "event"
    },
    {
      "inputs": [],
      "name": "DEFAULT_ADMIN_ROLE",
      "outputs": [
        {
          "internalType": "bytes32",
          "name": "",
          "type": "bytes32"
        }
      ],
      "stateMutability": "view",
      "type": "function"
    },
    {
      "inputs": [],
      "name": "MANAGER_ROLE",
      "outputs": [
        {
          "internalType": "bytes32",
          "name": "",
          "type": "bytes32"
        }
      ],
      "stateMutability": "view",
      "type": "function"
    },
    {
      "inputs": [],
      "name": "TOKEN_TYPE",
      "outputs": [
        {
          "internalType": "bytes32",
          "name": "",
          "type": "bytes32"
        }
      ],
      "stateMutability": "view",
      "type": "function"
    },
    {
      "inputs": [],
      "name": "TRANSFER_EVENT_SIG",
      "outputs": [
        {
          "internalType": "bytes32",
          "name": "",
          "type": "bytes32"
        }
      ],
      "stateMutability": "view",
      "type": "function"
    },
    {
      "inputs": [
        {
          "internalType": "bytes32",
          "name": "role",
          "type": "bytes32"
        }
      ],
      "name": "getRoleAdmin",
      "outputs": [
        {
          "internalType": "bytes32",
          "name": "",
          "type": "bytes32"
        }
      ],
      "stateMutability": "view",
      "type": "function"
    },
    {
      "inputs": [
        {
          "internalType": "bytes32",
          "name": "role",
          "type": "bytes32"
        },
        {
          "internalType": "uint256",
          "name": "index",
          "type": "uint256"
        }
      ],
      "name": "getRoleMember",
      "outputs": [
        {
          "internalType": "address",
          "name": "",
          "type": "address"
        }
      ],
      "stateMutability": "view",
      "type": "function"
    },
    {
      "inputs": [
        {
          "internalType": "bytes32",
          "name": "role",
          "type": "bytes32"
        }
      ],
      "name": "getRoleMemberCount",
      "outputs": [
        {
          "internalType": "uint256",
          "name": "",
          "type": "uint256"
        }
      ],
      "stateMutability": "view",
      "type": "function"
    },
    {
      "inputs": [
        {
          "internalType": "bytes32",
          "name": "role",
          "type": "bytes32"
        },
        {
          "internalType": "address",
          "name": "account",
          "type": "address"
        }
      ],
      "name": "grantRole",
      "outputs": [],
      "stateMutability": "nonpayable",
      "type": "function"
    },
    {
      "inputs": [
        {
          "internalType": "bytes32",
          "name": "role",
          "type": "bytes32"
        },
        {
          "internalType": "address",
          "name": "account",
          "type": "address"
        }
      ],
      "name": "hasRole",
      "outputs": [
        {
          "internalType": "bool",
          "name": "",
          "type": "bool"
        }
      ],
      "stateMutability": "view",
      "type": "function"
    },
    {
      "inputs": [
        {
          "internalType": "bytes32",
          "name": "role",
          "type": "bytes32"
        },
        {
          "internalType": "address",
          "name": "account",
          "type": "address"
        }
      ],
      "name": "renounceRole",
      "outputs": [],
      "stateMutability": "nonpayable",
      "type": "function"
    },
    {
      "inputs": [
        {
          "internalType": "bytes32",
          "name": "role",
          "type": "bytes32"
        },
        {
          "internalType": "address",
          "name": "account",
          "type": "address"
        }
      ],
      "name": "revokeRole",
      "outputs": [],
      "stateMutability": "nonpayable",
      "type": "function"
    },
    {
      "inputs": [
        {
          "internalType": "address",
          "name": "_owner",
          "type": "address"
        }
      ],
      "name": "initialize",
      "outputs": [],
      "stateMutability": "nonpayable",
      "type": "function"
    },
    {
      "inputs": [
        {
          "internalType": "address",
          "name": "depositor",
          "type": "address"
        },
        {
          "internalType": "address",
          "name": "depositReceiver",
          "type": "address"
        },
        {
          "internalType": "address",
          "name": "rootToken",
          "type": "address"
        },
        {
          "internalType": "bytes",
          "name": "depositData",
          "type": "bytes"
        }
      ],
      "name": "lockTokens",
      "outputs": [],
      "stateMutability": "nonpayable",
      "type": "function"
    },
    {
      "inputs": [
        {
          "internalType": "address",
          "name": "",
          "type": "address"
        },
        {
          "internalType": "address",
          "name": "rootToken",
          "type": "address"
        },
        {
          "internalType": "bytes",
          "name": "log",
          "type": "bytes"
        }
      ],
      "name": "exitTokens",
      "outputs": [],
      "stateMutability": "nonpayable",
      "type": "function"
    }
  ],
  "bytecode": "0x60806040526002805460ff1916905534801561001a57600080fd5b506116888061002a6000396000f3fe608060405234801561001057600080fd5b50600436106100ea5760003560e01c8063a217fddf1161008c578063ca15c87311610066578063ca15c873146102f4578063d547741f14610311578063e375b64e1461033d578063ec87621c146103ce576100ea565b8063a217fddf146102be578063b017a30f146102c6578063c4d66de8146102ce576100ea565b8063609c92b8116100c8578063609c92b8146101785780638274664f146101805780639010d07c1461023f57806391d148541461027e576100ea565b8063248a9ca3146100ef5780632f2ff15d1461011e57806336568abe1461014c575b600080fd5b61010c6004803603602081101561010557600080fd5b50356103d6565b60408051918252519081900360200190f35b61014a6004803603604081101561013457600080fd5b50803590602001356001600160a01b03166103ee565b005b61014a6004803603604081101561016257600080fd5b50803590602001356001600160a01b031661045a565b61010c6104bb565b61014a6004803603606081101561019657600080fd5b6001600160a01b0382358116926020810135909116918101906060810160408201356401000000008111156101ca57600080fd5b8201836020820111156101dc57600080fd5b803590602001918460018302840111640100000000831117156101fe57600080fd5b91908080601f0160208091040260200160405190810160405280939291908181526020018383808284376000920191909152509295506104e0945050505050565b6102626004803603604081101561025557600080fd5b5080359060200135610864565b604080516001600160a01b039092168252519081900360200190f35b6102aa6004803603604081101561029457600080fd5b50803590602001356001600160a01b031661088b565b604080519115158252519081900360200190f35b61010c6108a9565b61010c6108ae565b61014a600480360360208110156102e457600080fd5b50356001600160a01b03166108c9565b61010c6004803603602081101561030a57600080fd5b503561098f565b61014a6004803603604081101561032757600080fd5b50803590602001356001600160a01b03166109a6565b61014a6004803603608081101561035357600080fd5b6001600160a01b038235811692602081013582169260408201359092169181019060808101606082013564010000000081111561038f57600080fd5b8201836020820111156103a157600080fd5b803590602001918460018302840111640100000000831117156103c357600080fd5b5090925090506109ff565b61010c610b80565b6000818152602081905260409020600201545b919050565b6000828152602081905260409020600201546104119061040c610ba4565b61088b565b61044c5760405162461bcd60e51b815260040180806020018281038252602f8152602001806114d9602f913960400191505060405180910390fd5b6104568282610ba9565b5050565b610462610ba4565b6001600160a01b0316816001600160a01b0316146104b15760405162461bcd60e51b815260040180806020018281038252602f8152602001806115fd602f913960400191505060405180910390fd5b6104568282610c18565b604080516c04d696e7461626c65455243323609c1b8152905190819003600d01902081565b604080516b4d414e414745525f524f4c4560a01b8152905190819003600c01902061050d8161040c610ba4565b6001906105ad5760405162461bcd60e51b815260206004820190815282546002600019610100600184161502019091160460248301819052909182916044909101908490801561059e5780601f106105735761010080835404028352916020019161059e565b820191906000526020600020905b81548152906001019060200180831161058157829003601f168201915b50509250505060405180910390fd5b5060606105c16105bc84610c87565b610d02565b905060606105e2826001815181106105d557fe5b6020026020010151610d02565b905060405180806115dc602191396021019050604051809103902061061a8260008151811061060d57fe5b6020026020010151610e84565b146106565760405162461bcd60e51b815260040180806020018281038252602981526020018061158b6029913960400191505060405180910390fd5b60006106688260018151811061060d57fe5b905060006001600160a01b03166106858360028151811061060d57fe5b6001600160a01b0316146106ca5760405162461bcd60e51b81526004018080602001828103825260288152602001806115b46028913960400191505060405180910390fd5b604080516370a0823160e01b8152306004820152905187916000916001600160a01b038416916370a08231916024808301926020929190829003018186803b15801561071557600080fd5b505afa158015610729573d6000803e3d6000fd5b505050506040513d602081101561073f57600080fd5b5051855190915060009061075a908790600290811061060d57fe5b9050808210156107cc57604080516340c10f1960e01b8152306004820152838303602482015290516001600160a01b038516916340c10f1991604480830192600092919082900301818387803b1580156107b357600080fd5b505af11580156107c7573d6000803e3d6000fd5b505050505b826001600160a01b031663a9059cbb85836040518363ffffffff1660e01b815260040180836001600160a01b03166001600160a01b0316815260200182815260200192505050602060405180830381600087803b15801561082c57600080fd5b505af1158015610840573d6000803e3d6000fd5b505050506040513d602081101561085657600080fd5b505050505050505050505050565b6000828152602081905260408120610882908363ffffffff610fcc16565b90505b92915050565b6000828152602081905260408120610882908363ffffffff610fd816565b600081565b6040518060216115dc82396021019050604051809103902081565b60025460ff1615610912576040805162461bcd60e51b815260206004820152600e60248201526d185b1c9958591e481a5b9a5d195960921b604482015290519081900360640190fd5b610949604051806040016040528060168152602001754d696e7461626c65455243323050726564696361746560501b815250610fed565b61095460008261044c565b604080516b4d414e414745525f524f4c4560a01b8152905190819003600c01902061097f908261044c565b506002805460ff19166001179055565b60008181526020819052604081206108859061108b565b6000828152602081905260409020600201546109c49061040c610ba4565b6104b15760405162461bcd60e51b81526004018080602001828103825260308152602001806115086030913960400191505060405180910390fd5b604080516b4d414e414745525f524f4c4560a01b8152905190819003600c019020610a2c8161040c610ba4565b600190610a925760405162461bcd60e51b815260206004820190815282546002600019610100600184161502019091160460248301819052909182916044909101908490801561059e5780601f106105735761010080835404028352916020019161059e565b50600083836020811015610aa557600080fd5b5060408051913580835290519092506001600160a01b038088169289821692918b16917f31472eae9e158460fea5622d1fcb0c5bdc65b6ffb51827f7bc9ef5788410c34c9181900360200190a4604080516323b872dd60e01b81526001600160a01b038981166004830152306024830152604482018490529151918716916323b872dd916064808201926020929091908290030181600087803b158015610b4b57600080fd5b505af1158015610b5f573d6000803e3d6000fd5b505050506040513d6020811015610b7557600080fd5b505050505050505050565b604080516b4d414e414745525f524f4c4560a01b8152905190819003600c01902081565b335b90565b6000828152602081905260409020610bc7908263ffffffff61109616565b1561045657610bd4610ba4565b6001600160a01b0316816001600160a01b0316837f2f8788117e7eff1d82e926ec794901d17c78024a50270940304540a733656f0d60405160405180910390a45050565b6000828152602081905260409020610c36908263ffffffff6110ab16565b1561045657610c43610ba4565b6001600160a01b0316816001600160a01b0316837ff6391f5c32d9c69d2a47ea670b442974b53935d1edc7fd64eb21e047a839171b60405160405180910390a45050565b610c8f611404565b6000825111610ce5576040805162461bcd60e51b815260206004820152601f60248201527f524c505265616465723a20494e56414c49445f42595445535f4c454e47544800604482015290519081900360640190fd5b506040805180820190915281518152602082810190820152919050565b6060610d0d826110c0565b610d5e576040805162461bcd60e51b815260206004820152601860248201527f524c505265616465723a204954454d5f4e4f545f4c4953540000000000000000604482015290519081900360640190fd5b6000610d69836110ec565b905060608167ffffffffffffffff81118015610d8457600080fd5b50604051908082528060200260200182016040528015610dbe57816020015b610dab611404565b815260200190600190039081610da35790505b5090506000610dd08560200151611178565b85519091508114610e125760405162461bcd60e51b81526004018080602001828103825260278152602001806115646027913960400191505060405180910390fd5b6000610e218660200151611211565b60208701510190506000805b85811015610e7857610e3e83611178565b9150604051806040016040528083815260200184815250858281518110610e6157fe5b602090810291909101015291810191600101610e2d565b50929695505050505050565b6000610e8f826110c0565b15610ee1576040805162461bcd60e51b815260206004820181905260248201527f524c505265616465723a204445434f44494e475f4c4953545f41535f55494e54604482015290519081900360640190fd5b815160211015610f38576040805162461bcd60e51b815260206004820152601e60248201527f524c505265616465723a20494e56414c49445f55494e545f4c454e4754480000604482015290519081900360640190fd5b6000610f478360200151611178565b83519091508114610f895760405162461bcd60e51b815260040180806020018281038252602781526020018061162c6027913960400191505060405180910390fd5b6000610f988460200151611211565b84516020808701518301805193945091849003929190831015610fc257826020036101000a820491505b5095945050505050565b60006108828383611274565b6000610882836001600160a01b0384166112d8565b806040516020018082805190602001908083835b602083106110205780518252601f199092019160209182019101611001565b51815160209384036101000a60001901801990921691161790527f3a20494e53554646494349454e545f5045524d495353494f4e530000000000009190930190815260408051808303600519018152601a90920190528051610456955060019450920191905061141e565b6000610885826112f0565b6000610882836001600160a01b0384166112f4565b6000610882836001600160a01b03841661133e565b6020810151805160009190821a9060c08210156110e2576000925050506103e9565b5060019392505050565b6000806000905060006111028460200151611211565b602085015185519181019250015b8082101561116f5761112182611178565b82019150808211156111645760405162461bcd60e51b815260040180806020018281038252602c815260200180611538602c913960400191505060405180910390fd5b600190920191611110565b50909392505050565b80516000908190811a6080811015611193576001915061120a565b60b88110156111a857607e198101915061120a565b60c08110156111d55760b78103600185019450806020036101000a8551046001820181019350505061120a565b60f88110156111ea5760be198101915061120a565b60f78103600185019450806020036101000a855104600182018101935050505b5092915050565b8051600090811a608081101561122b5760009150506103e9565b60b8811080611246575060c08110801590611246575060f881105b156112555760019150506103e9565b60c08110156112695760b5190190506103e9565b60f5190190506103e9565b815460009082106112b65760405162461bcd60e51b81526004018080602001828103825260228152602001806114b76022913960400191505060405180910390fd5b8260000182815481106112c557fe5b9060005260206000200154905092915050565b60009081526001919091016020526040902054151590565b5490565b600061130083836112d8565b61133657508154600181810184556000848152602080822090930184905584548482528286019093526040902091909155610885565b506000610885565b600081815260018301602052604081205480156113fa578354600019808301919081019060009087908390811061137157fe5b906000526020600020015490508087600001848154811061138e57fe5b6000918252602080832090910192909255828152600189810190925260409020908401905586548790806113be57fe5b60019003818190600052602060002001600090559055866001016000878152602001908152602001600020600090556001945050505050610885565b6000915050610885565b604051806040016040528060008152602001600081525090565b828054600181600116156101000203166002900490600052602060002090601f016020900481019282601f1061145f57805160ff191683800117855561148c565b8280016001018555821561148c579182015b8281111561148c578251825591602001919060010190611471565b5061149892915061149c565b5090565b610ba691905b8082111561149857600081556001016114a256fe456e756d657261626c655365743a20696e646578206f7574206f6620626f756e6473416363657373436f6e74726f6c3a2073656e646572206d75737420626520616e2061646d696e20746f206772616e74416363657373436f6e74726f6c3a2073656e646572206d75737420626520616e2061646d696e20746f207265766f6b65524c505265616465723a204e554d5f4954454d535f4445434f4445445f4c454e4754485f4d49534d41544348524c505265616465723a204c4953545f4445434f4445445f4c454e4754485f4d49534d415443484d696e7461626c6545524332305072656469636174653a20494e56414c49445f5349474e41545552454d696e7461626c6545524332305072656469636174653a20494e56414c49445f52454345495645525472616e7366657228616464726573732c616464726573732c75696e7432353629416363657373436f6e74726f6c3a2063616e206f6e6c792072656e6f756e636520726f6c657320666f722073656c66524c505265616465723a2055494e545f4445434f4445445f4c454e4754485f4d49534d41544348a264697066735822122092d48734a2eb869c95afe39a3e43a6ffffa2f5ab942363dc9aaec4323c7e654f64736f6c63430006060033",
  "immutableReferences": {},
  "source": "pragma solidity 0.6.6;\n\nimport {IMintableERC20} from \"../RootToken/IMintableERC20.sol\";\nimport {AccessControlMixin} from \"../../common/AccessControlMixin.sol\";\nimport {RLPReader} from \"../../lib/RLPReader.sol\";\nimport {ITokenPredicate} from \"./ITokenPredicate.sol\";\nimport {Initializable} from \"../../common/Initializable.sol\";\n\ncontract MintableERC20Predicate is\n    ITokenPredicate,\n    AccessControlMixin,\n    Initializable\n{\n    using RLPReader for bytes;\n    using RLPReader for RLPReader.RLPItem;\n\n    bytes32 public constant MANAGER_ROLE = keccak256(\"MANAGER_ROLE\");\n    bytes32 public constant TOKEN_TYPE = keccak256(\"MintableERC20\");\n    bytes32 public constant TRANSFER_EVENT_SIG = keccak256(\n        \"Transfer(address,address,uint256)\"\n    );\n\n    event LockedMintableERC20(\n        address indexed depositor,\n        address indexed depositReceiver,\n        address indexed rootToken,\n        uint256 amount\n    );\n\n    constructor() public {}\n\n    function initialize(address _owner) external initializer {\n        _setupContractId(\"MintableERC20Predicate\");\n        _setupRole(DEFAULT_ADMIN_ROLE, _owner);\n        _setupRole(MANAGER_ROLE, _owner);\n    }\n\n    /**\n     * @notice Lock ERC20 tokens for deposit, callable only by manager\n     * @param depositor Address who wants to deposit tokens\n     * @param depositReceiver Address (address) who wants to receive tokens on child chain\n     * @param rootToken Token which gets deposited\n     * @param depositData ABI encoded amount\n     */\n    function lockTokens(\n        address depositor,\n        address depositReceiver,\n        address rootToken,\n        bytes calldata depositData\n    ) external override only(MANAGER_ROLE) {\n        uint256 amount = abi.decode(depositData, (uint256));\n\n        emit LockedMintableERC20(depositor, depositReceiver, rootToken, amount);\n        IMintableERC20(rootToken).transferFrom(\n            depositor,\n            address(this),\n            amount\n        );\n    }\n\n    /**\n     * @notice Validates log signature, from and to address\n     * then sends the correct amount to withdrawer\n     * callable only by manager\n     * @param rootToken Token which gets withdrawn\n     * @param log Valid ERC20 burn log from child chain\n     */\n    function exitTokens(\n        address,\n        address rootToken,\n        bytes memory log\n    ) public override only(MANAGER_ROLE) {\n        RLPReader.RLPItem[] memory logRLPList = log.toRlpItem().toList();\n        RLPReader.RLPItem[] memory logTopicRLPList = logRLPList[1].toList(); // topics\n\n        require(\n            bytes32(logTopicRLPList[0].toUint()) == TRANSFER_EVENT_SIG, // topic0 is `Transfer` event sig\n            \"MintableERC20Predicate: INVALID_SIGNATURE\"\n        );\n\n        address withdrawer = address(logTopicRLPList[1].toUint()); // topic1 is `from` address\n\n        require(\n            address(logTopicRLPList[2].toUint()) == address(0), // topic2 is `to` address\n            \"MintableERC20Predicate: INVALID_RECEIVER\"\n        );\n\n        IMintableERC20 token = IMintableERC20(rootToken);\n\n        uint256 tokenBalance = token.balanceOf(address(this));\n        uint256 amount = logRLPList[2].toUint();\n\n        // Checking whether MintableERC20Predicate has enough balance\n        // to transfer `amount` to withdrawer or not\n        //\n        // If no, it'll mint those extra tokens & transfer `amount`\n        // to withdrawer\n        if (tokenBalance < amount) {\n            token.mint(address(this), amount - tokenBalance);\n        }\n\n        token.transfer(withdrawer, amount);\n    }\n}\n",
  "sourcePath": "/Users/abhimanyushekhawat/projects/matic-contracts/contracts/root/TokenPredicates/MintableERC20Predicate.sol",
  "compiler": {
    "name": "solc",
    "version": "0.6.6+commit.6c089d02.Emscripten.clang"
  },
  "schemaVersion": "3.3.4",
  "updatedAt": "2021-03-01T19:59:54.834Z",
  "devdoc": {
    "methods": {
      "exitTokens(address,address,bytes)": {
        "params": {
          "log": "Valid ERC20 burn log from child chain",
          "rootToken": "Token which gets withdrawn"
        }
      },
      "getRoleAdmin(bytes32)": {
        "details": "Returns the admin role that controls `role`. See {grantRole} and {revokeRole}.     * To change a role's admin, use {_setRoleAdmin}."
      },
      "getRoleMember(bytes32,uint256)": {
        "details": "Returns one of the accounts that have `role`. `index` must be a value between 0 and {getRoleMemberCount}, non-inclusive.     * Role bearers are not sorted in any particular way, and their ordering may change at any point.     * WARNING: When using {getRoleMember} and {getRoleMemberCount}, make sure you perform all queries on the same block. See the following https://forum.openzeppelin.com/t/iterating-over-elements-on-enumerableset-in-openzeppelin-contracts/2296[forum post] for more information."
      },
      "getRoleMemberCount(bytes32)": {
        "details": "Returns the number of accounts that have `role`. Can be used together with {getRoleMember} to enumerate all bearers of a role."
      },
      "grantRole(bytes32,address)": {
        "details": "Grants `role` to `account`.     * If `account` had not been already granted `role`, emits a {RoleGranted} event.     * Requirements:     * - the caller must have ``role``'s admin role."
      },
      "hasRole(bytes32,address)": {
        "details": "Returns `true` if `account` has been granted `role`."
      },
      "lockTokens(address,address,address,bytes)": {
        "params": {
          "depositData": "ABI encoded amount",
          "depositReceiver": "Address (address) who wants to receive tokens on child chain",
          "depositor": "Address who wants to deposit tokens",
          "rootToken": "Token which gets deposited"
        }
      },
      "renounceRole(bytes32,address)": {
        "details": "Revokes `role` from the calling account.     * Roles are often managed via {grantRole} and {revokeRole}: this function's purpose is to provide a mechanism for accounts to lose their privileges if they are compromised (such as when a trusted device is misplaced).     * If the calling account had been granted `role`, emits a {RoleRevoked} event.     * Requirements:     * - the caller must be `account`."
      },
      "revokeRole(bytes32,address)": {
        "details": "Revokes `role` from `account`.     * If `account` had been granted `role`, emits a {RoleRevoked} event.     * Requirements:     * - the caller must have ``role``'s admin role."
      }
    }
  },
  "userdoc": {
    "methods": {
      "exitTokens(address,address,bytes)": {
        "notice": "Validates log signature, from and to address then sends the correct amount to withdrawer callable only by manager"
      },
      "lockTokens(address,address,address,bytes)": {
        "notice": "Lock ERC20 tokens for deposit, callable only by manager"
      }
    }
  }
}