{
  "contractName": "MintableERC721Predicate",
  "abi": [
    {
      "inputs": [],
      "stateMutability": "nonpayable",
      "type": "constructor"
    },
    {
      "anonymous": false,
      "inputs": [
        {
          "indexed": true,
          "internalType": "address",
          "name": "depositor",
          "type": "address"
        },
        {
          "indexed": true,
          "internalType": "address",
          "name": "depositReceiver",
          "type": "address"
        },
        {
          "indexed": true,
          "internalType": "address",
          "name": "rootToken",
          "type": "address"
        },
        {
          "indexed": false,
          "internalType": "uint256",
          "name": "tokenId",
          "type": "uint256"
        }
      ],
      "name": "LockedMintableERC721",
      "type": "event"
    },
    {
      "anonymous": false,
      "inputs": [
        {
          "indexed": true,
          "internalType": "bytes32",
          "name": "role",
          "type": "bytes32"
        },
        {
          "indexed": true,
          "internalType": "bytes32",
          "name": "previousAdminRole",
          "type": "bytes32"
        },
        {
          "indexed": true,
          "internalType": "bytes32",
          "name": "newAdminRole",
          "type": "bytes32"
        }
      ],
      "name": "RoleAdminChanged",
      "type": "event"
    },
    {
      "anonymous": false,
      "inputs": [
        {
          "indexed": true,
          "internalType": "bytes32",
          "name": "role",
          "type": "bytes32"
        },
        {
          "indexed": true,
          "internalType": "address",
          "name": "account",
          "type": "address"
        },
        {
          "indexed": true,
          "internalType": "address",
          "name": "sender",
          "type": "address"
        }
      ],
      "name": "RoleGranted",
      "type": "event"
    },
    {
      "anonymous": false,
      "inputs": [
        {
          "indexed": true,
          "internalType": "bytes32",
          "name": "role",
          "type": "bytes32"
        },
        {
          "indexed": true,
          "internalType": "address",
          "name": "account",
          "type": "address"
        },
        {
          "indexed": true,
          "internalType": "address",
          "name": "sender",
          "type": "address"
        }
      ],
      "name": "RoleRevoked",
      "type": "event"
    },
    {
      "inputs": [],
      "name": "DEFAULT_ADMIN_ROLE",
      "outputs": [
        {
          "internalType": "bytes32",
          "name": "",
          "type": "bytes32"
        }
      ],
      "stateMutability": "view",
      "type": "function"
    },
    {
      "inputs": [],
      "name": "MANAGER_ROLE",
      "outputs": [
        {
          "internalType": "bytes32",
          "name": "",
          "type": "bytes32"
        }
      ],
      "stateMutability": "view",
      "type": "function"
    },
    {
      "inputs": [],
      "name": "TOKEN_TYPE",
      "outputs": [
        {
          "internalType": "bytes32",
          "name": "",
          "type": "bytes32"
        }
      ],
      "stateMutability": "view",
      "type": "function"
    },
    {
      "inputs": [],
      "name": "TRANSFER_EVENT_SIG",
      "outputs": [
        {
          "internalType": "bytes32",
          "name": "",
          "type": "bytes32"
        }
      ],
      "stateMutability": "view",
      "type": "function"
    },
    {
      "inputs": [],
      "name": "TRANSFER_WITH_METADATA_EVENT_SIG",
      "outputs": [
        {
          "internalType": "bytes32",
          "name": "",
          "type": "bytes32"
        }
      ],
      "stateMutability": "view",
      "type": "function"
    },
    {
      "inputs": [
        {
          "internalType": "bytes32",
          "name": "role",
          "type": "bytes32"
        }
      ],
      "name": "getRoleAdmin",
      "outputs": [
        {
          "internalType": "bytes32",
          "name": "",
          "type": "bytes32"
        }
      ],
      "stateMutability": "view",
      "type": "function"
    },
    {
      "inputs": [
        {
          "internalType": "bytes32",
          "name": "role",
          "type": "bytes32"
        },
        {
          "internalType": "uint256",
          "name": "index",
          "type": "uint256"
        }
      ],
      "name": "getRoleMember",
      "outputs": [
        {
          "internalType": "address",
          "name": "",
          "type": "address"
        }
      ],
      "stateMutability": "view",
      "type": "function"
    },
    {
      "inputs": [
        {
          "internalType": "bytes32",
          "name": "role",
          "type": "bytes32"
        }
      ],
      "name": "getRoleMemberCount",
      "outputs": [
        {
          "internalType": "uint256",
          "name": "",
          "type": "uint256"
        }
      ],
      "stateMutability": "view",
      "type": "function"
    },
    {
      "inputs": [
        {
          "internalType": "bytes32",
          "name": "role",
          "type": "bytes32"
        },
        {
          "internalType": "address",
          "name": "account",
          "type": "address"
        }
      ],
      "name": "grantRole",
      "outputs": [],
      "stateMutability": "nonpayable",
      "type": "function"
    },
    {
      "inputs": [
        {
          "internalType": "bytes32",
          "name": "role",
          "type": "bytes32"
        },
        {
          "internalType": "address",
          "name": "account",
          "type": "address"
        }
      ],
      "name": "hasRole",
      "outputs": [
        {
          "internalType": "bool",
          "name": "",
          "type": "bool"
        }
      ],
      "stateMutability": "view",
      "type": "function"
    },
    {
      "inputs": [
        {
          "internalType": "bytes32",
          "name": "role",
          "type": "bytes32"
        },
        {
          "internalType": "address",
          "name": "account",
          "type": "address"
        }
      ],
      "name": "renounceRole",
      "outputs": [],
      "stateMutability": "nonpayable",
      "type": "function"
    },
    {
      "inputs": [
        {
          "internalType": "bytes32",
          "name": "role",
          "type": "bytes32"
        },
        {
          "internalType": "address",
          "name": "account",
          "type": "address"
        }
      ],
      "name": "revokeRole",
      "outputs": [],
      "stateMutability": "nonpayable",
      "type": "function"
    },
    {
      "inputs": [
        {
          "internalType": "address",
          "name": "_owner",
          "type": "address"
        }
      ],
      "name": "initialize",
      "outputs": [],
      "stateMutability": "nonpayable",
      "type": "function"
    },
    {
      "inputs": [
        {
          "internalType": "address",
          "name": "",
          "type": "address"
        },
        {
          "internalType": "address",
          "name": "",
          "type": "address"
        },
        {
          "internalType": "uint256",
          "name": "",
          "type": "uint256"
        },
        {
          "internalType": "bytes",
          "name": "",
          "type": "bytes"
        }
      ],
      "name": "onERC721Received",
      "outputs": [
        {
          "internalType": "bytes4",
          "name": "",
          "type": "bytes4"
        }
      ],
      "stateMutability": "nonpayable",
      "type": "function"
    },
    {
      "inputs": [
        {
          "internalType": "address",
          "name": "depositor",
          "type": "address"
        },
        {
          "internalType": "address",
          "name": "depositReceiver",
          "type": "address"
        },
        {
          "internalType": "address",
          "name": "rootToken",
          "type": "address"
        },
        {
          "internalType": "bytes",
          "name": "depositData",
          "type": "bytes"
        }
      ],
      "name": "lockTokens",
      "outputs": [],
      "stateMutability": "nonpayable",
      "type": "function"
    },
    {
      "inputs": [
        {
          "internalType": "address",
          "name": "",
          "type": "address"
        },
        {
          "internalType": "address",
          "name": "rootToken",
          "type": "address"
        },
        {
          "internalType": "bytes",
          "name": "log",
          "type": "bytes"
        }
      ],
      "name": "exitTokens",
      "outputs": [],
      "stateMutability": "nonpayable",
      "type": "function"
    }
  ],
  "bytecode": "0x60806040526002805460ff1916905534801561001a57600080fd5b50611aef8061002a6000396000f3fe608060405234801561001057600080fd5b50600436106101005760003560e01c806391d1485411610097578063ca15c87311610066578063ca15c873146103bf578063d547741f146103dc578063e375b64e14610408578063ec87621c1461049957610100565b806391d1485414610349578063a217fddf14610389578063b017a30f14610391578063c4d66de81461039957610100565b806349f5124b116100d357806349f5124b1461023b578063609c92b8146102435780638274664f1461024b5780639010d07c1461030a57610100565b8063150b7a0214610105578063248a9ca3146101b25780632f2ff15d146101e157806336568abe1461020f575b600080fd5b6101956004803603608081101561011b57600080fd5b6001600160a01b0382358116926020810135909116916040820135919081019060808101606082013564010000000081111561015657600080fd5b82018360208201111561016857600080fd5b8035906020019184600183028401116401000000008311171561018a57600080fd5b5090925090506104a1565b604080516001600160e01b03199092168252519081900360200190f35b6101cf600480360360208110156101c857600080fd5b50356104b2565b60408051918252519081900360200190f35b61020d600480360360408110156101f757600080fd5b50803590602001356001600160a01b03166104ca565b005b61020d6004803603604081101561022557600080fd5b50803590602001356001600160a01b0316610536565b6101cf610597565b6101cf6105bb565b61020d6004803603606081101561026157600080fd5b6001600160a01b03823581169260208101359091169181019060608101604082013564010000000081111561029557600080fd5b8201836020820111156102a757600080fd5b803590602001918460018302840111640100000000831117156102c957600080fd5b91908080601f0160208091040260200160405190810160405280939291908181526020018383808284376000920191909152509295506105df945050505050565b61032d6004803603604081101561032057600080fd5b5080359060200135610bc9565b604080516001600160a01b039092168252519081900360200190f35b6103756004803603604081101561035f57600080fd5b50803590602001356001600160a01b0316610bf0565b604080519115158252519081900360200190f35b6101cf610c0e565b6101cf610c13565b61020d600480360360208110156103af57600080fd5b50356001600160a01b0316610c37565b6101cf600480360360208110156103d557600080fd5b5035610cf1565b61020d600480360360408110156103f257600080fd5b50803590602001356001600160a01b0316610d08565b61020d6004803603608081101561041e57600080fd5b6001600160a01b038235811692602081013582169260408201359092169181019060808101606082013564010000000081111561045a57600080fd5b82018360208201111561046c57600080fd5b8035906020019184600183028401116401000000008311171561048e57600080fd5b509092509050610d61565b6101cf610ebb565b630a85bd0160e11b95945050505050565b6000818152602081905260409020600201545b919050565b6000828152602081905260409020600201546104ed906104e8610ecd565b610bf0565b6105285760405162461bcd60e51b815260040180806020018281038252602f815260200180611917602f913960400191505060405180910390fd5b6105328282610ed2565b5050565b61053e610ecd565b6001600160a01b0316816001600160a01b03161461058d5760405162461bcd60e51b815260040180806020018281038252602f815260200180611a64602f913960400191505060405180910390fd5b6105328282610f41565b7ff3c6803764de9a0fc1c2acb6a71f53407c5e2b9a3e04973e6586da23d64ecaa581565b7fd4392723c111fcb98b073fe55873efb447bcd23cd3e49ec9ea2581930cd01ddc81565b6000805160206119f48339815191526105fa816104e8610ecd565b60019061069a5760405162461bcd60e51b815260206004820190815282546002600019610100600184161502019091160460248301819052909182916044909101908490801561068b5780601f106106605761010080835404028352916020019161068b565b820191906000526020600020905b81548152906001019060200180831161066e57829003601f168201915b50509250505060405180910390fd5b5060606106ae6106a984610fb0565b61102b565b905060606106cf826001815181106106c257fe5b602002602001015161102b565b90507fddf252ad1be2c89b69c2b068fc378daa952ba7f163c4a11628f55a4df523b3ef60001b6107128260008151811061070557fe5b60200260200101516111ad565b141561091057600061072a8260018151811061070557fe5b905060006001600160a01b03166107478360028151811061070557fe5b6001600160a01b03161461078c5760405162461bcd60e51b8152600401808060200182810382526029815260200180611a146029913960400191505060405180910390fd5b600086905060006107a38460038151811061070557fe5b9050816001600160a01b0316634f558e79826040518263ffffffff1660e01b81526004018082815260200191505060206040518083038186803b1580156107e957600080fd5b505afa1580156107fd573d6000803e3d6000fd5b505050506040513d602081101561081357600080fd5b50511561088f5760408051632142170760e11b81523060048201526001600160a01b038581166024830152604482018490529151918416916342842e0e9160648082019260009290919082900301818387803b15801561087257600080fd5b505af1158015610886573d6000803e3d6000fd5b50505050610908565b816001600160a01b03166340c10f1984836040518363ffffffff1660e01b815260040180836001600160a01b03166001600160a01b0316815260200182815260200192505050600060405180830381600087803b1580156108ef57600080fd5b505af1158015610903573d6000803e3d6000fd5b505050505b505050610bc1565b7ff3c6803764de9a0fc1c2acb6a71f53407c5e2b9a3e04973e6586da23d64ecaa560001b6109448260008151811061070557fe5b1415610b8a57600061095c8260018151811061070557fe5b905060006001600160a01b03166109798360028151811061070557fe5b6001600160a01b0316146109be5760405162461bcd60e51b8152600401808060200182810382526029815260200180611a146029913960400191505060405180910390fd5b600086905060006109d58460038151811061070557fe5b9050816001600160a01b0316634f558e79826040518263ffffffff1660e01b81526004018082815260200191505060206040518083038186803b158015610a1b57600080fd5b505afa158015610a2f573d6000803e3d6000fd5b505050506040513d6020811015610a4557600080fd5b505115610aa45760408051632142170760e11b81523060048201526001600160a01b038581166024830152604482018490529151918416916342842e0e9160648082019260009290919082900301818387803b15801561087257600080fd5b816001600160a01b03166394d008ef8483610ad289600281518110610ac557fe5b60200260200101516112f5565b6040518463ffffffff1660e01b815260040180846001600160a01b03166001600160a01b0316815260200183815260200180602001828103825283818151815260200191508051906020019080838360005b83811015610b3c578181015183820152602001610b24565b50505050905090810190601f168015610b695780820380516001836020036101000a031916815260200191505b50945050505050600060405180830381600087803b1580156108ef57600080fd5b60405162461bcd60e51b815260040180806020018281038252602a815260200180611946602a913960400191505060405180910390fd5b505050505050565b6000828152602081905260408120610be7908363ffffffff6113bf16565b90505b92915050565b6000828152602081905260408120610be7908363ffffffff6113cb16565b600081565b7fddf252ad1be2c89b69c2b068fc378daa952ba7f163c4a11628f55a4df523b3ef81565b60025460ff1615610c80576040805162461bcd60e51b815260206004820152600e60248201526d185b1c9958591e481a5b9a5d195960921b604482015290519081900360640190fd5b610cbe6040518060400160405280601781526020017f4d696e7461626c654552433732315072656469636174650000000000000000008152506113e0565b610cc9600082610528565b610ce16000805160206119f483398151915282610528565b506002805460ff19166001179055565b6000818152602081905260408120610bea9061147e565b600082815260208190526040902060020154610d26906104e8610ecd565b61058d5760405162461bcd60e51b81526004018080602001828103825260308152602001806119986030913960400191505060405180910390fd5b6000805160206119f4833981519152610d7c816104e8610ecd565b600190610de25760405162461bcd60e51b815260206004820190815282546002600019610100600184161502019091160460248301819052909182916044909101908490801561068b5780601f106106605761010080835404028352916020019161068b565b50600083836020811015610df557600080fd5b5060408051913580835290519092506001600160a01b038088169289821692918b16917fe13244aa06bdc79480ed5fdc6ebe2bb37202fcdf33ecf45dc449f4201f3dc0879181900360200190a460408051632142170760e11b81526001600160a01b038981166004830152306024830152604482018490529151918716916342842e0e9160648082019260009290919082900301818387803b158015610e9a57600080fd5b505af1158015610eae573d6000803e3d6000fd5b5050505050505050505050565b6000805160206119f483398151915281565b335b90565b6000828152602081905260409020610ef0908263ffffffff61148916565b1561053257610efd610ecd565b6001600160a01b0316816001600160a01b0316837f2f8788117e7eff1d82e926ec794901d17c78024a50270940304540a733656f0d60405160405180910390a45050565b6000828152602081905260409020610f5f908263ffffffff61149e16565b1561053257610f6c610ecd565b6001600160a01b0316816001600160a01b0316837ff6391f5c32d9c69d2a47ea670b442974b53935d1edc7fd64eb21e047a839171b60405160405180910390a45050565b610fb8611842565b600082511161100e576040805162461bcd60e51b815260206004820152601f60248201527f524c505265616465723a20494e56414c49445f42595445535f4c454e47544800604482015290519081900360640190fd5b506040805180820190915281518152602082810190820152919050565b6060611036826114b3565b611087576040805162461bcd60e51b815260206004820152601860248201527f524c505265616465723a204954454d5f4e4f545f4c4953540000000000000000604482015290519081900360640190fd5b6000611092836114df565b905060608167ffffffffffffffff811180156110ad57600080fd5b506040519080825280602002602001820160405280156110e757816020015b6110d4611842565b8152602001906001900390816110cc5790505b50905060006110f9856020015161156b565b8551909150811461113b5760405162461bcd60e51b8152600401808060200182810382526027815260200180611a3d6027913960400191505060405180910390fd5b600061114a8660200151611604565b60208701510190506000805b858110156111a1576111678361156b565b915060405180604001604052808381526020018481525085828151811061118a57fe5b602090810291909101015291810191600101611156565b50929695505050505050565b60006111b8826114b3565b1561120a576040805162461bcd60e51b815260206004820181905260248201527f524c505265616465723a204445434f44494e475f4c4953545f41535f55494e54604482015290519081900360640190fd5b815160211015611261576040805162461bcd60e51b815260206004820152601e60248201527f524c505265616465723a20494e56414c49445f55494e545f4c454e4754480000604482015290519081900360640190fd5b6000611270836020015161156b565b835190915081146112b25760405162461bcd60e51b8152600401808060200182810382526027815260200180611a936027913960400191505060405180910390fd5b60006112c18460200151611604565b845160208087015183018051939450918490039291908310156112eb57826020036101000a820491505b5095945050505050565b60606000611306836020015161156b565b835190915081146113485760405162461bcd60e51b81526004018080602001828103825260288152602001806119706028913960400191505060405180910390fd5b60006113578460200151611604565b845190915081900360608167ffffffffffffffff8111801561137857600080fd5b506040519080825280601f01601f1916602001820160405280156113a3576020820181803683370190505b50905060008160200190506112eb848860200151018285611667565b6000610be783836116b2565b6000610be7836001600160a01b038416611716565b806040516020018082805190602001908083835b602083106114135780518252601f1990920191602091820191016113f4565b51815160209384036101000a60001901801990921691161790527f3a20494e53554646494349454e545f5045524d495353494f4e530000000000009190930190815260408051808303600519018152601a90920190528051610532955060019450920191905061185c565b6000610bea8261172e565b6000610be7836001600160a01b038416611732565b6000610be7836001600160a01b03841661177c565b6020810151805160009190821a9060c08210156114d5576000925050506104c5565b5060019392505050565b6000806000905060006114f58460200151611604565b602085015185519181019250015b80821015611562576115148261156b565b82019150808211156115575760405162461bcd60e51b815260040180806020018281038252602c8152602001806119c8602c913960400191505060405180910390fd5b600190920191611503565b50909392505050565b80516000908190811a608081101561158657600191506115fd565b60b881101561159b57607e19810191506115fd565b60c08110156115c85760b78103600185019450806020036101000a855104600182018101935050506115fd565b60f88110156115dd5760be19810191506115fd565b60f78103600185019450806020036101000a855104600182018101935050505b5092915050565b8051600090811a608081101561161e5760009150506104c5565b60b8811080611639575060c08110801590611639575060f881105b156116485760019150506104c5565b60c081101561165c5760b5190190506104c5565b60f5190190506104c5565b80611671576116ad565b5b60208110611691578251825260209283019290910190601f1901611672565b8251825160208390036101000a60001901801990921691161782525b505050565b815460009082106116f45760405162461bcd60e51b81526004018080602001828103825260228152602001806118f56022913960400191505060405180910390fd5b82600001828154811061170357fe5b9060005260206000200154905092915050565b60009081526001919091016020526040902054151590565b5490565b600061173e8383611716565b61177457508154600181810184556000848152602080822090930184905584548482528286019093526040902091909155610bea565b506000610bea565b6000818152600183016020526040812054801561183857835460001980830191908101906000908790839081106117af57fe5b90600052602060002001549050808760000184815481106117cc57fe5b6000918252602080832090910192909255828152600189810190925260409020908401905586548790806117fc57fe5b60019003818190600052602060002001600090559055866001016000878152602001908152602001600020600090556001945050505050610bea565b6000915050610bea565b604051806040016040528060008152602001600081525090565b828054600181600116156101000203166002900490600052602060002090601f016020900481019282601f1061189d57805160ff19168380011785556118ca565b828001600101855582156118ca579182015b828111156118ca5782518255916020019190600101906118af565b506118d69291506118da565b5090565b610ecf91905b808211156118d657600081556001016118e056fe456e756d657261626c655365743a20696e646578206f7574206f6620626f756e6473416363657373436f6e74726f6c3a2073656e646572206d75737420626520616e2061646d696e20746f206772616e744d696e7461626c654552433732315072656469636174653a20494e56414c49445f5349474e4154555245524c505265616465723a2042595445535f4445434f4445445f4c454e4754485f4d49534d41544348416363657373436f6e74726f6c3a2073656e646572206d75737420626520616e2061646d696e20746f207265766f6b65524c505265616465723a204e554d5f4954454d535f4445434f4445445f4c454e4754485f4d49534d41544348241ecf16d79d0f8dbfb92cbc07fe17840425976cf0667f022fe9877caa831b084d696e7461626c654552433732315072656469636174653a20494e56414c49445f5245434549564552524c505265616465723a204c4953545f4445434f4445445f4c454e4754485f4d49534d41544348416363657373436f6e74726f6c3a2063616e206f6e6c792072656e6f756e636520726f6c657320666f722073656c66524c505265616465723a2055494e545f4445434f4445445f4c454e4754485f4d49534d41544348a26469706673582212200c3ca835189b944c23f2521d67457d6b3eaf84f23eefcb4e397814e980c52c7764736f6c63430006060033",
  "immutableReferences": {},
  "source": "pragma solidity 0.6.6;\n\nimport {IERC721Receiver} from \"@openzeppelin/contracts/token/ERC721/IERC721Receiver.sol\";\nimport {AccessControlMixin} from \"../../common/AccessControlMixin.sol\";\nimport {RLPReader} from \"../../lib/RLPReader.sol\";\nimport {IMintableERC721} from \"../RootToken/IMintableERC721.sol\";\nimport {ITokenPredicate} from \"./ITokenPredicate.sol\";\nimport {Initializable} from \"../../common/Initializable.sol\";\n\ncontract MintableERC721Predicate is ITokenPredicate, AccessControlMixin, Initializable, IERC721Receiver {\n    using RLPReader for bytes;\n    using RLPReader for RLPReader.RLPItem;\n\n    // keccak256(\"MANAGER_ROLE\")\n    bytes32 public constant MANAGER_ROLE = 0x241ecf16d79d0f8dbfb92cbc07fe17840425976cf0667f022fe9877caa831b08;\n    // keccak256(\"MintableERC721\")\n    bytes32 public constant TOKEN_TYPE = 0xd4392723c111fcb98b073fe55873efb447bcd23cd3e49ec9ea2581930cd01ddc;\n    // keccak(\"Transfer(address,address,uint256)\")\n    bytes32 public constant TRANSFER_EVENT_SIG = 0xddf252ad1be2c89b69c2b068fc378daa952ba7f163c4a11628f55a4df523b3ef;\n    // keccak(\"TransferWithMetadata(address,address,uint256,string)\")\n    bytes32 public constant TRANSFER_WITH_METADATA_EVENT_SIG = 0xf3c6803764de9a0fc1c2acb6a71f53407c5e2b9a3e04973e6586da23d64ecaa5;\n\n    event LockedMintableERC721(\n        address indexed depositor,\n        address indexed depositReceiver,\n        address indexed rootToken,\n        uint256 tokenId\n    );\n\n    constructor() public {}\n\n    function initialize(address _owner) external initializer {\n        _setupContractId(\"MintableERC721Predicate\");\n        _setupRole(DEFAULT_ADMIN_ROLE, _owner);\n        _setupRole(MANAGER_ROLE, _owner);\n    }\n\n    /**\n     * @notice accepts safe ERC721 transfer\n     */\n    function onERC721Received(\n        address,\n        address,\n        uint256,\n        bytes calldata\n    )\n        external\n        override\n        returns (bytes4)\n    {\n        return IERC721Receiver.onERC721Received.selector;\n    }\n\n    /**\n     * @notice Lock ERC721 tokens for deposit, callable only by manager\n     * @param depositor Address who wants to deposit token\n     * @param depositReceiver Address (address) who wants to receive token on child chain\n     * @param rootToken Token which gets deposited\n     * @param depositData ABI encoded tokenId\n     */\n    function lockTokens(\n        address depositor,\n        address depositReceiver,\n        address rootToken,\n        bytes calldata depositData\n    )\n        external\n        override\n        only(MANAGER_ROLE)\n    {\n        uint256 tokenId = abi.decode(depositData, (uint256));\n        emit LockedMintableERC721(depositor, depositReceiver, rootToken, tokenId);\n        IMintableERC721(rootToken).safeTransferFrom(depositor, address(this), tokenId);\n    }\n\n    /**\n     * @notice Validates log signature, from and to address\n     * then checks if token already exists on root chain\n     * if token exits then transfers it to withdrawer\n     * if token doesn't exit then it is minted\n     * callable only by manager\n     * @param rootToken Token which gets withdrawn\n     * @param log Valid ERC721 burn log from child chain\n     */\n    function exitTokens(\n        address,\n        address rootToken,\n        bytes memory log\n    )\n        public\n        override\n        only(MANAGER_ROLE)\n    {\n        RLPReader.RLPItem[] memory logRLPList = log.toRlpItem().toList();\n        RLPReader.RLPItem[] memory logTopicRLPList = logRLPList[1].toList(); // topics\n\n        // If it's a simple exit ( with out metadata coming from L2 to L1 )\n        if(bytes32(logTopicRLPList[0].toUint()) == TRANSFER_EVENT_SIG) {\n\n            address withdrawer = address(logTopicRLPList[1].toUint()); // topic1 is from address\n\n            require(\n                address(logTopicRLPList[2].toUint()) == address(0), // topic2 is to address\n                \"MintableERC721Predicate: INVALID_RECEIVER\"\n            );\n\n            IMintableERC721 token = IMintableERC721(rootToken);\n\n            uint256 tokenId = logTopicRLPList[3].toUint(); // topic3 is tokenId field\n            if (token.exists(tokenId)) {\n                token.safeTransferFrom(\n                    address(this),\n                    withdrawer,\n                    tokenId\n                );\n            } else {\n                token.mint(withdrawer, tokenId);\n            }\n\n        } else if (bytes32(logTopicRLPList[0].toUint()) == TRANSFER_WITH_METADATA_EVENT_SIG) { \n            // If this is NFT exit with metadata i.e. URI \n            //\n            // Note: If your token is only minted in L2, you can exit\n            // it with metadata. But if it was minted on L1, it'll be\n            // simply transferred to withdrawer address. And in that case,\n            // it's lot better to exit with `Transfer(address,address,uint256)`\n            // i.e. calling `withdraw` method on L2 contract\n            // event signature proof, which is defined under first `if` clause\n            //\n            // If you've called `withdrawWithMetadata`, you should submit\n            // proof of event signature `TransferWithMetadata(address,address,uint256,bytes)`\n\n            address withdrawer = address(logTopicRLPList[1].toUint()); // topic1 is from address\n\n            require(\n                address(logTopicRLPList[2].toUint()) == address(0), // topic2 is to address\n                \"MintableERC721Predicate: INVALID_RECEIVER\"\n            );\n\n            IMintableERC721 token = IMintableERC721(rootToken);\n\n            uint256 tokenId = logTopicRLPList[3].toUint(); // topic3 is tokenId field\n            if (token.exists(tokenId)) {\n                token.safeTransferFrom(\n                    address(this),\n                    withdrawer,\n                    tokenId\n                );\n            } else {\n                // Minting with metadata received from L2 i.e. emitted\n                // by event `TransferWithMetadata` during burning\n                token.mint(withdrawer, tokenId, logRLPList[2].toBytes());\n            }\n\n        } else {\n            // Attempting to exit with some event signature from L2, which is\n            // not ( yet ) supported by L1 exit manager\n            revert(\"MintableERC721Predicate: INVALID_SIGNATURE\");\n        }\n        \n    }\n}\n",
  "sourcePath": "/Users/abhimanyushekhawat/projects/matic-contracts/contracts/root/TokenPredicates/MintableERC721Predicate.sol",
  "compiler": {
    "name": "solc",
    "version": "0.6.6+commit.6c089d02.Emscripten.clang"
  },
  "schemaVersion": "3.3.4",
  "updatedAt": "2021-03-01T19:59:54.837Z",
  "devdoc": {
    "methods": {
      "exitTokens(address,address,bytes)": {
        "params": {
          "log": "Valid ERC721 burn log from child chain",
          "rootToken": "Token which gets withdrawn"
        }
      },
      "getRoleAdmin(bytes32)": {
        "details": "Returns the admin role that controls `role`. See {grantRole} and {revokeRole}.     * To change a role's admin, use {_setRoleAdmin}."
      },
      "getRoleMember(bytes32,uint256)": {
        "details": "Returns one of the accounts that have `role`. `index` must be a value between 0 and {getRoleMemberCount}, non-inclusive.     * Role bearers are not sorted in any particular way, and their ordering may change at any point.     * WARNING: When using {getRoleMember} and {getRoleMemberCount}, make sure you perform all queries on the same block. See the following https://forum.openzeppelin.com/t/iterating-over-elements-on-enumerableset-in-openzeppelin-contracts/2296[forum post] for more information."
      },
      "getRoleMemberCount(bytes32)": {
        "details": "Returns the number of accounts that have `role`. Can be used together with {getRoleMember} to enumerate all bearers of a role."
      },
      "grantRole(bytes32,address)": {
        "details": "Grants `role` to `account`.     * If `account` had not been already granted `role`, emits a {RoleGranted} event.     * Requirements:     * - the caller must have ``role``'s admin role."
      },
      "hasRole(bytes32,address)": {
        "details": "Returns `true` if `account` has been granted `role`."
      },
      "lockTokens(address,address,address,bytes)": {
        "params": {
          "depositData": "ABI encoded tokenId",
          "depositReceiver": "Address (address) who wants to receive token on child chain",
          "depositor": "Address who wants to deposit token",
          "rootToken": "Token which gets deposited"
        }
      },
      "renounceRole(bytes32,address)": {
        "details": "Revokes `role` from the calling account.     * Roles are often managed via {grantRole} and {revokeRole}: this function's purpose is to provide a mechanism for accounts to lose their privileges if they are compromised (such as when a trusted device is misplaced).     * If the calling account had been granted `role`, emits a {RoleRevoked} event.     * Requirements:     * - the caller must be `account`."
      },
      "revokeRole(bytes32,address)": {
        "details": "Revokes `role` from `account`.     * If `account` had been granted `role`, emits a {RoleRevoked} event.     * Requirements:     * - the caller must have ``role``'s admin role."
      }
    }
  },
  "userdoc": {
    "methods": {
      "exitTokens(address,address,bytes)": {
        "notice": "Validates log signature, from and to address then checks if token already exists on root chain if token exits then transfers it to withdrawer if token doesn't exit then it is minted callable only by manager"
      },
      "lockTokens(address,address,address,bytes)": {
        "notice": "Lock ERC721 tokens for deposit, callable only by manager"
      },
      "onERC721Received(address,address,uint256,bytes)": {
        "notice": "accepts safe ERC721 transfer"
      }
    }
  }
}