{
  "contractName": "MintableERC1155Predicate",
  "abi": [
    {
      "inputs": [],
      "stateMutability": "nonpayable",
      "type": "constructor"
    },
    {
      "anonymous": false,
      "inputs": [
        {
          "indexed": true,
          "internalType": "address",
          "name": "depositor",
          "type": "address"
        },
        {
          "indexed": true,
          "internalType": "address",
          "name": "depositReceiver",
          "type": "address"
        },
        {
          "indexed": true,
          "internalType": "address",
          "name": "rootToken",
          "type": "address"
        },
        {
          "indexed": false,
          "internalType": "uint256[]",
          "name": "ids",
          "type": "uint256[]"
        },
        {
          "indexed": false,
          "internalType": "uint256[]",
          "name": "amounts",
          "type": "uint256[]"
        }
      ],
      "name": "LockedBatchMintableERC1155",
      "type": "event"
    },
    {
      "anonymous": false,
      "inputs": [
        {
          "indexed": true,
          "internalType": "bytes32",
          "name": "role",
          "type": "bytes32"
        },
        {
          "indexed": true,
          "internalType": "bytes32",
          "name": "previousAdminRole",
          "type": "bytes32"
        },
        {
          "indexed": true,
          "internalType": "bytes32",
          "name": "newAdminRole",
          "type": "bytes32"
        }
      ],
      "name": "RoleAdminChanged",
      "type": "event"
    },
    {
      "anonymous": false,
      "inputs": [
        {
          "indexed": true,
          "internalType": "bytes32",
          "name": "role",
          "type": "bytes32"
        },
        {
          "indexed": true,
          "internalType": "address",
          "name": "account",
          "type": "address"
        },
        {
          "indexed": true,
          "internalType": "address",
          "name": "sender",
          "type": "address"
        }
      ],
      "name": "RoleGranted",
      "type": "event"
    },
    {
      "anonymous": false,
      "inputs": [
        {
          "indexed": true,
          "internalType": "bytes32",
          "name": "role",
          "type": "bytes32"
        },
        {
          "indexed": true,
          "internalType": "address",
          "name": "account",
          "type": "address"
        },
        {
          "indexed": true,
          "internalType": "address",
          "name": "sender",
          "type": "address"
        }
      ],
      "name": "RoleRevoked",
      "type": "event"
    },
    {
      "inputs": [],
      "name": "DEFAULT_ADMIN_ROLE",
      "outputs": [
        {
          "internalType": "bytes32",
          "name": "",
          "type": "bytes32"
        }
      ],
      "stateMutability": "view",
      "type": "function"
    },
    {
      "inputs": [],
      "name": "MANAGER_ROLE",
      "outputs": [
        {
          "internalType": "bytes32",
          "name": "",
          "type": "bytes32"
        }
      ],
      "stateMutability": "view",
      "type": "function"
    },
    {
      "inputs": [],
      "name": "TOKEN_TYPE",
      "outputs": [
        {
          "internalType": "bytes32",
          "name": "",
          "type": "bytes32"
        }
      ],
      "stateMutability": "view",
      "type": "function"
    },
    {
      "inputs": [],
      "name": "TRANSFER_BATCH_EVENT_SIG",
      "outputs": [
        {
          "internalType": "bytes32",
          "name": "",
          "type": "bytes32"
        }
      ],
      "stateMutability": "view",
      "type": "function"
    },
    {
      "inputs": [],
      "name": "TRANSFER_SINGLE_EVENT_SIG",
      "outputs": [
        {
          "internalType": "bytes32",
          "name": "",
          "type": "bytes32"
        }
      ],
      "stateMutability": "view",
      "type": "function"
    },
    {
      "inputs": [
        {
          "internalType": "bytes32",
          "name": "role",
          "type": "bytes32"
        }
      ],
      "name": "getRoleAdmin",
      "outputs": [
        {
          "internalType": "bytes32",
          "name": "",
          "type": "bytes32"
        }
      ],
      "stateMutability": "view",
      "type": "function"
    },
    {
      "inputs": [
        {
          "internalType": "bytes32",
          "name": "role",
          "type": "bytes32"
        },
        {
          "internalType": "uint256",
          "name": "index",
          "type": "uint256"
        }
      ],
      "name": "getRoleMember",
      "outputs": [
        {
          "internalType": "address",
          "name": "",
          "type": "address"
        }
      ],
      "stateMutability": "view",
      "type": "function"
    },
    {
      "inputs": [
        {
          "internalType": "bytes32",
          "name": "role",
          "type": "bytes32"
        }
      ],
      "name": "getRoleMemberCount",
      "outputs": [
        {
          "internalType": "uint256",
          "name": "",
          "type": "uint256"
        }
      ],
      "stateMutability": "view",
      "type": "function"
    },
    {
      "inputs": [
        {
          "internalType": "bytes32",
          "name": "role",
          "type": "bytes32"
        },
        {
          "internalType": "address",
          "name": "account",
          "type": "address"
        }
      ],
      "name": "grantRole",
      "outputs": [],
      "stateMutability": "nonpayable",
      "type": "function"
    },
    {
      "inputs": [
        {
          "internalType": "bytes32",
          "name": "role",
          "type": "bytes32"
        },
        {
          "internalType": "address",
          "name": "account",
          "type": "address"
        }
      ],
      "name": "hasRole",
      "outputs": [
        {
          "internalType": "bool",
          "name": "",
          "type": "bool"
        }
      ],
      "stateMutability": "view",
      "type": "function"
    },
    {
      "inputs": [
        {
          "internalType": "bytes32",
          "name": "role",
          "type": "bytes32"
        },
        {
          "internalType": "address",
          "name": "account",
          "type": "address"
        }
      ],
      "name": "renounceRole",
      "outputs": [],
      "stateMutability": "nonpayable",
      "type": "function"
    },
    {
      "inputs": [
        {
          "internalType": "bytes32",
          "name": "role",
          "type": "bytes32"
        },
        {
          "internalType": "address",
          "name": "account",
          "type": "address"
        }
      ],
      "name": "revokeRole",
      "outputs": [],
      "stateMutability": "nonpayable",
      "type": "function"
    },
    {
      "inputs": [
        {
          "internalType": "bytes4",
          "name": "interfaceId",
          "type": "bytes4"
        }
      ],
      "name": "supportsInterface",
      "outputs": [
        {
          "internalType": "bool",
          "name": "",
          "type": "bool"
        }
      ],
      "stateMutability": "view",
      "type": "function"
    },
    {
      "inputs": [
        {
          "internalType": "address",
          "name": "_owner",
          "type": "address"
        }
      ],
      "name": "initialize",
      "outputs": [],
      "stateMutability": "nonpayable",
      "type": "function"
    },
    {
      "inputs": [
        {
          "internalType": "address",
          "name": "",
          "type": "address"
        },
        {
          "internalType": "address",
          "name": "",
          "type": "address"
        },
        {
          "internalType": "uint256",
          "name": "",
          "type": "uint256"
        },
        {
          "internalType": "uint256",
          "name": "",
          "type": "uint256"
        },
        {
          "internalType": "bytes",
          "name": "",
          "type": "bytes"
        }
      ],
      "name": "onERC1155Received",
      "outputs": [
        {
          "internalType": "bytes4",
          "name": "",
          "type": "bytes4"
        }
      ],
      "stateMutability": "nonpayable",
      "type": "function"
    },
    {
      "inputs": [
        {
          "internalType": "address",
          "name": "",
          "type": "address"
        },
        {
          "internalType": "address",
          "name": "",
          "type": "address"
        },
        {
          "internalType": "uint256[]",
          "name": "",
          "type": "uint256[]"
        },
        {
          "internalType": "uint256[]",
          "name": "",
          "type": "uint256[]"
        },
        {
          "internalType": "bytes",
          "name": "",
          "type": "bytes"
        }
      ],
      "name": "onERC1155BatchReceived",
      "outputs": [
        {
          "internalType": "bytes4",
          "name": "",
          "type": "bytes4"
        }
      ],
      "stateMutability": "nonpayable",
      "type": "function"
    },
    {
      "inputs": [
        {
          "internalType": "address",
          "name": "depositor",
          "type": "address"
        },
        {
          "internalType": "address",
          "name": "depositReceiver",
          "type": "address"
        },
        {
          "internalType": "address",
          "name": "rootToken",
          "type": "address"
        },
        {
          "internalType": "bytes",
          "name": "depositData",
          "type": "bytes"
        }
      ],
      "name": "lockTokens",
      "outputs": [],
      "stateMutability": "nonpayable",
      "type": "function"
    },
    {
      "inputs": [
        {
          "internalType": "address",
          "name": "",
          "type": "address"
        },
        {
          "internalType": "address",
          "name": "rootToken",
          "type": "address"
        },
        {
          "internalType": "bytes",
          "name": "log",
          "type": "bytes"
        }
      ],
      "name": "exitTokens",
      "outputs": [],
      "stateMutability": "nonpayable",
      "type": "function"
    }
  ],
  "bytecode": "0x60806040526003805460ff191690553480156200001b57600080fd5b50620000376301ffc9a760e01b6001600160e01b036200005816565b62000052630271189760e51b6001600160e01b036200005816565b620000dd565b6001600160e01b03198082161415620000b8576040805162461bcd60e51b815260206004820152601c60248201527f4552433136353a20696e76616c696420696e7465726661636520696400000000604482015290519081900360640190fd5b6001600160e01b0319166000908152602081905260409020805460ff19166001179055565b6127d980620000ed6000396000f3fe608060405234801561001057600080fd5b50600436106101165760003560e01c8063bc197c81116100a2578063e375b64e11610071578063e375b64e146104ca578063e9cff29114610559578063eacc7af214610561578063ec87621c14610569578063f23a6e611461057157610116565b8063bc197c8114610317578063c4d66de81461045b578063ca15c87314610481578063d547741f1461049e57610116565b8063609c92b8116100e9578063609c92b8146101df5780638274664f146101e75780639010d07c146102a457806391d14854146102e3578063a217fddf1461030f57610116565b806301ffc9a71461011b578063248a9ca3146101565780632f2ff15d1461018557806336568abe146101b3575b600080fd5b6101426004803603602081101561013157600080fd5b50356001600160e01b031916610604565b604080519115158252519081900360200190f35b6101736004803603602081101561016c57600080fd5b5035610627565b60408051918252519081900360200190f35b6101b16004803603604081101561019b57600080fd5b50803590602001356001600160a01b031661063c565b005b6101b1600480360360408110156101c957600080fd5b50803590602001356001600160a01b03166106a8565b610173610709565b6101b1600480360360608110156101fd57600080fd5b6001600160a01b038235811692602081013590911691810190606081016040820135600160201b81111561023057600080fd5b82018360208201111561024257600080fd5b803590602001918460018302840111600160201b8311171561026357600080fd5b91908080601f016020809104026020016040519081016040528093929190818152602001838380828437600092019190915250929550610730945050505050565b6102c7600480360360408110156102ba57600080fd5b5080359060200135611213565b604080516001600160a01b039092168252519081900360200190f35b610142600480360360408110156102f957600080fd5b50803590602001356001600160a01b031661123a565b610173611258565b61043e600480360360a081101561032d57600080fd5b6001600160a01b038235811692602081013590911691810190606081016040820135600160201b81111561036057600080fd5b82018360208201111561037257600080fd5b803590602001918460208302840111600160201b8311171561039357600080fd5b919390929091602081019035600160201b8111156103b057600080fd5b8201836020820111156103c257600080fd5b803590602001918460208302840111600160201b831117156103e357600080fd5b919390929091602081019035600160201b81111561040057600080fd5b82018360208201111561041257600080fd5b803590602001918460018302840111600160201b8311171561043357600080fd5b50909250905061125d565b604080516001600160e01b03199092168252519081900360200190f35b6101b16004803603602081101561047157600080fd5b50356001600160a01b0316611271565b6101736004803603602081101561049757600080fd5b503561133e565b6101b1600480360360408110156104b457600080fd5b50803590602001356001600160a01b0316611355565b6101b1600480360360808110156104e057600080fd5b6001600160a01b0382358116926020810135821692604082013590921691810190608081016060820135600160201b81111561051b57600080fd5b82018360208201111561052d57600080fd5b803590602001918460018302840111600160201b8311171561054e57600080fd5b5090925090506113ae565b610173611844565b61017361185f565b61017361187a565b61043e600480360360a081101561058757600080fd5b6001600160a01b03823581169260208101359091169160408201359160608101359181019060a081016080820135600160201b8111156105c657600080fd5b8201836020820111156105d857600080fd5b803590602001918460018302840111600160201b831117156105f957600080fd5b50909250905061189e565b6001600160e01b0319811660009081526020819052604090205460ff165b919050565b60009081526001602052604090206002015490565b60008281526001602052604090206002015461065f9061065a6118aa565b61123a565b61069a5760405162461bcd60e51b815260040180806020018281038252602f815260200180612515602f913960400191505060405180910390fd5b6106a482826118af565b5050565b6106b06118aa565b6001600160a01b0316816001600160a01b0316146106ff5760405162461bcd60e51b815260040180806020018281038252602f81526020018061274e602f913960400191505060405180910390fd5b6106a4828261191e565b604080516e4d696e7461626c654552433131353560881b8152905190819003600f01902081565b604080516b4d414e414745525f524f4c4560a01b8152905190819003600c01902061075d8161065a6118aa565b6002906107fd5760405162461bcd60e51b81526020600482019081528254600260001961010060018416150201909116046024830181905290918291604490910190849080156107ee5780601f106107c3576101008083540402835291602001916107ee565b820191906000526020600020905b8154815290600101906020018083116107d157829003601f168201915b50509250505060405180910390fd5b50606061081161080c8461198d565b611a08565b905060606108328260018151811061082557fe5b6020026020010151611a08565b905060606108538360028151811061084657fe5b6020026020010151611b8a565b905060006108748360028151811061086757fe5b6020026020010151611c5e565b905060006001600160a01b03166108918460038151811061086757fe5b6001600160a01b0316146108d65760405162461bcd60e51b815260040180806020018281038252602a81526020018061257e602a913960400191505060405180910390fd5b6040518060376126f08239603701905060405180910390206108fe8460008151811061086757fe5b1415610bc65760008083806020019051604081101561091c57600080fd5b50805160209182015160408051627eeac760e11b81523060048201526024810184905290519295509093508b926000926001600160a01b0385169262fdd58e926044808301939192829003018186803b15801561097857600080fd5b505afa15801561098c573d6000803e3d6000fd5b505050506040513d60208110156109a257600080fd5b5051905082811015610aaa57816001600160a01b031663731133e93086848703604051806020016040528060008152506040518563ffffffff1660e01b815260040180856001600160a01b03166001600160a01b0316815260200184815260200183815260200180602001828103825283818151815260200191508051906020019080838360005b83811015610a42578181015183820152602001610a2a565b50505050905090810190601f168015610a6f5780820380516001836020036101000a031916815260200191505b5095505050505050600060405180830381600087803b158015610a9157600080fd5b505af1158015610aa5573d6000803e3d6000fd5b505050505b816001600160a01b031663f242432a30878787604051806020016040528060008152506040518663ffffffff1660e01b815260040180866001600160a01b03166001600160a01b03168152602001856001600160a01b03166001600160a01b0316815260200184815260200183815260200180602001828103825283818151815260200191508051906020019080838360005b83811015610b55578181015183820152602001610b3d565b50505050905090810190601f168015610b825780820380516001836020036101000a031916815260200191505b509650505050505050600060405180830381600087803b158015610ba557600080fd5b505af1158015610bb9573d6000803e3d6000fd5b5050505050505050611209565b60405180603a6125448239603a0190506040518091039020610bee8460008151811061086757fe5b14156111d257606080838060200190516040811015610c0c57600080fd5b8101908080516040519392919084600160201b821115610c2b57600080fd5b908301906020820185811115610c4057600080fd5b82518660208202830111600160201b82111715610c5c57600080fd5b82525081516020918201928201910280838360005b83811015610c89578181015183820152602001610c71565b5050505090500160405260200180516040519392919084600160201b821115610cb157600080fd5b908301906020820185811115610cc657600080fd5b82518660208202830111600160201b82111715610ce257600080fd5b82525081516020918201928201910280838360005b83811015610d0f578181015183820152602001610cf7565b50505050905001604052505050915091506000899050806001600160a01b0316631f7fdffa3085610ed8856001600160a01b0316634e1273f4610d53308b51611da4565b8a6040518363ffffffff1660e01b8152600401808060200180602001838103835285818151815260200191508051906020019060200280838360005b83811015610da7578181015183820152602001610d8f565b50505050905001838103825284818151815260200191508051906020019060200280838360005b83811015610de6578181015183820152602001610dce565b5050505090500194505050505060006040518083038186803b158015610e0b57600080fd5b505afa158015610e1f573d6000803e3d6000fd5b505050506040513d6000823e601f3d908101601f191682016040526020811015610e4857600080fd5b8101908080516040519392919084600160201b821115610e6757600080fd5b908301906020820185811115610e7c57600080fd5b82518660208202830111600160201b82111715610e9857600080fd5b82525081516020918201928201910280838360005b83811015610ec5578181015183820152602001610ead565b5050505090500160405250505087611eb0565b604051806020016040528060008152506040518563ffffffff1660e01b815260040180856001600160a01b03166001600160a01b03168152602001806020018060200180602001848103845287818151815260200191508051906020019060200280838360005b83811015610f57578181015183820152602001610f3f565b50505050905001848103835286818151815260200191508051906020019060200280838360005b83811015610f96578181015183820152602001610f7e565b50505050905001848103825285818151815260200191508051906020019080838360005b83811015610fd2578181015183820152602001610fba565b50505050905090810190601f168015610fff5780820380516001836020036101000a031916815260200191505b50975050505050505050600060405180830381600087803b15801561102357600080fd5b505af1158015611037573d6000803e3d6000fd5b50505050896001600160a01b0316632eb2c2d630868686604051806020016040528060008152506040518663ffffffff1660e01b815260040180866001600160a01b03166001600160a01b03168152602001856001600160a01b03166001600160a01b03168152602001806020018060200180602001848103845287818151815260200191508051906020019060200280838360005b838110156110e55781810151838201526020016110cd565b50505050905001848103835286818151815260200191508051906020019060200280838360005b8381101561112457818101518382015260200161110c565b50505050905001848103825285818151815260200191508051906020019080838360005b83811015611160578181015183820152602001611148565b50505050905090810190601f16801561118d5780820380516001836020036101000a031916815260200191505b5098505050505050505050600060405180830381600087803b1580156111b257600080fd5b505af11580156111c6573d6000803e3d6000fd5b50505050505050611209565b60405162461bcd60e51b815260040180806020018281038252602e81526020018061268d602e913960400191505060405180910390fd5b5050505050505050565b6000828152600160205260408120611231908363ffffffff611fbd16565b90505b92915050565b6000828152600160205260408120611231908363ffffffff611fc916565b600081565b63bc197c8160e01b98975050505050505050565b60035460ff16156112ba576040805162461bcd60e51b815260206004820152600e60248201526d185b1c9958591e481a5b9a5d195960921b604482015290519081900360640190fd5b6112f86040518060400160405280601881526020017f4d696e7461626c65455243313135355072656469636174650000000000000000815250611fde565b61130360008261069a565b604080516b4d414e414745525f524f4c4560a01b8152905190819003600c01902061132e908261069a565b506003805460ff19166001179055565b60008181526001602052604081206112349061207c565b6000828152600160205260409020600201546113739061065a6118aa565b6106ff5760405162461bcd60e51b81526004018080602001828103825260308152602001806125f96030913960400191505060405180910390fd5b604080516b4d414e414745525f524f4c4560a01b8152905190819003600c0190206113db8161065a6118aa565b6002906114415760405162461bcd60e51b81526020600482019081528254600260001961010060018416150201909116046024830181905290918291604490910190849080156107ee5780601f106107c3576101008083540402835291602001916107ee565b5060608060608585606081101561145757600080fd5b810190602081018135600160201b81111561147157600080fd5b82018360208201111561148357600080fd5b803590602001918460208302840111600160201b831117156114a457600080fd5b9190808060200260200160405190810160405280939291908181526020018383602002808284376000920191909152509295949360208101935035915050600160201b8111156114f357600080fd5b82018360208201111561150557600080fd5b803590602001918460208302840111600160201b8311171561152657600080fd5b9190808060200260200160405190810160405280939291908181526020018383602002808284376000920191909152509295949360208101935035915050600160201b81111561157557600080fd5b82018360208201111561158757600080fd5b803590602001918460018302840111600160201b831117156115a857600080fd5b91908080601f016020809104026020016040519081016040528093929190818152602001838380828437600081840152601f19601f820116905080830192505050505050509192919290505050925092509250866001600160a01b0316886001600160a01b03168a6001600160a01b03167f1f512d82dee9e34be6d1fbe7e9eee79cb3185b84686ce1968a3e95f76fdb8c6a8686604051808060200180602001838103835285818151815260200191508051906020019060200280838360005b83811015611680578181015183820152602001611668565b50505050905001838103825284818151815260200191508051906020019060200280838360005b838110156116bf5781810151838201526020016116a7565b5050505090500194505050505060405180910390a4604051631759616b60e11b81526001600160a01b038a811660048301908152306024840181905260a060448501908152875160a48601528751938c1694632eb2c2d6948f948a938a938a936064820191608481019160c4909101906020808a01910280838360005b8381101561175457818101518382015260200161173c565b50505050905001848103835286818151815260200191508051906020019060200280838360005b8381101561179357818101518382015260200161177b565b50505050905001848103825285818151815260200191508051906020019080838360005b838110156117cf5781810151838201526020016117b7565b50505050905090810190601f1680156117fc5780820380516001836020036101000a031916815260200191505b5098505050505050505050600060405180830381600087803b15801561182157600080fd5b505af1158015611835573d6000803e3d6000fd5b50505050505050505050505050565b6040518060376126f082396037019050604051809103902081565b60405180603a6125448239603a019050604051809103902081565b604080516b4d414e414745525f524f4c4560a01b8152905190819003600c01902081565b60009695505050505050565b335b90565b60008281526001602052604090206118cd908263ffffffff61208716565b156106a4576118da6118aa565b6001600160a01b0316816001600160a01b0316837f2f8788117e7eff1d82e926ec794901d17c78024a50270940304540a733656f0d60405160405180910390a45050565b600082815260016020526040902061193c908263ffffffff61209c16565b156106a4576119496118aa565b6001600160a01b0316816001600160a01b0316837ff6391f5c32d9c69d2a47ea670b442974b53935d1edc7fd64eb21e047a839171b60405160405180910390a45050565b611995612440565b60008251116119eb576040805162461bcd60e51b815260206004820152601f60248201527f524c505265616465723a20494e56414c49445f42595445535f4c454e47544800604482015290519081900360640190fd5b506040805180820190915281518152602082810190820152919050565b6060611a13826120b1565b611a64576040805162461bcd60e51b815260206004820152601860248201527f524c505265616465723a204954454d5f4e4f545f4c4953540000000000000000604482015290519081900360640190fd5b6000611a6f836120dd565b905060608167ffffffffffffffff81118015611a8a57600080fd5b50604051908082528060200260200182016040528015611ac457816020015b611ab1612440565b815260200190600190039081611aa95790505b5090506000611ad68560200151612169565b85519091508114611b185760405162461bcd60e51b81526004018080602001828103825260278152602001806127276027913960400191505060405180910390fd5b6000611b278660200151612202565b60208701510190506000805b85811015611b7e57611b4483612169565b9150604051806040016040528083815260200184815250858281518110611b6757fe5b602090810291909101015291810191600101611b33565b50929695505050505050565b60606000611b9b8360200151612169565b83519091508114611bdd5760405162461bcd60e51b81526004018080602001828103825260288152602001806125a86028913960400191505060405180910390fd5b6000611bec8460200151612202565b845190915081900360608167ffffffffffffffff81118015611c0d57600080fd5b506040519080825280601f01601f191660200182016040528015611c38576020820181803683370190505b5090506000816020019050611c54848860200151018285612265565b5095945050505050565b6000611c69826120b1565b15611cbb576040805162461bcd60e51b815260206004820181905260248201527f524c505265616465723a204445434f44494e475f4c4953545f41535f55494e54604482015290519081900360640190fd5b815160211015611d12576040805162461bcd60e51b815260206004820152601e60248201527f524c505265616465723a20494e56414c49445f55494e545f4c454e4754480000604482015290519081900360640190fd5b6000611d218360200151612169565b83519091508114611d635760405162461bcd60e51b815260040180806020018281038252602781526020018061277d6027913960400191505060405180910390fd5b6000611d728460200151612202565b84516020808701518301805193945091849003929190831015611c5457506020919091036101000a9004949350505050565b60606001600160a01b038316611deb5760405162461bcd60e51b81526004018080602001828103825260298152602001806125d06029913960400191505060405180910390fd5b60008211611e2a5760405162461bcd60e51b81526004018080602001828103825260388152602001806126556038913960400191505060405180910390fd5b60608267ffffffffffffffff81118015611e4357600080fd5b50604051908082528060200260200182016040528015611e6d578160200160208202803683370190505b50905060005b83811015611ea85784828281518110611e8857fe5b6001600160a01b0390921660209283029190910190910152600101611e73565b509392505050565b60608151835114611ef25760405162461bcd60e51b81526004018080602001828103825260358152602001806126bb6035913960400191505060405180910390fd5b6060835167ffffffffffffffff81118015611f0c57600080fd5b50604051908082528060200260200182016040528015611f36578160200160208202803683370190505b50905060005b8451811015611ea857838181518110611f5157fe5b6020026020010151858281518110611f6557fe5b60200260200101511015611fb557848181518110611f7f57fe5b6020026020010151848281518110611f9357fe5b602002602001015103828281518110611fa857fe5b6020026020010181815250505b600101611f3c565b600061123183836122b0565b6000611231836001600160a01b038416612314565b806040516020018082805190602001908083835b602083106120115780518252601f199092019160209182019101611ff2565b51815160209384036101000a60001901801990921691161790527f3a20494e53554646494349454e545f5045524d495353494f4e530000000000009190930190815260408051808303600519018152601a909201905280516106a4955060029450920191905061245a565b60006112348261232c565b6000611231836001600160a01b038416612330565b6000611231836001600160a01b03841661237a565b6020810151805160009190821a9060c08210156120d357600092505050610622565b5060019392505050565b6000806000905060006120f38460200151612202565b602085015185519181019250015b808210156121605761211282612169565b82019150808211156121555760405162461bcd60e51b815260040180806020018281038252602c815260200180612629602c913960400191505060405180910390fd5b600190920191612101565b50909392505050565b80516000908190811a608081101561218457600191506121fb565b60b881101561219957607e19810191506121fb565b60c08110156121c65760b78103600185019450806020036101000a855104600182018101935050506121fb565b60f88110156121db5760be19810191506121fb565b60f78103600185019450806020036101000a855104600182018101935050505b5092915050565b8051600090811a608081101561221c576000915050610622565b60b8811080612237575060c08110801590612237575060f881105b15612246576001915050610622565b60c081101561225a5760b519019050610622565b60f519019050610622565b8061226f576122ab565b5b6020811061228f578251825260209283019290910190601f1901612270565b8251825160208390036101000a60001901801990921691161782525b505050565b815460009082106122f25760405162461bcd60e51b81526004018080602001828103825260228152602001806124f36022913960400191505060405180910390fd5b82600001828154811061230157fe5b9060005260206000200154905092915050565b60009081526001919091016020526040902054151590565b5490565b600061233c8383612314565b61237257508154600181810184556000848152602080822090930184905584548482528286019093526040902091909155611234565b506000611234565b6000818152600183016020526040812054801561243657835460001980830191908101906000908790839081106123ad57fe5b90600052602060002001549050808760000184815481106123ca57fe5b6000918252602080832090910192909255828152600189810190925260409020908401905586548790806123fa57fe5b60019003818190600052602060002001600090559055866001016000878152602001908152602001600020600090556001945050505050611234565b6000915050611234565b604051806040016040528060008152602001600081525090565b828054600181600116156101000203166002900490600052602060002090601f016020900481019282601f1061249b57805160ff19168380011785556124c8565b828001600101855582156124c8579182015b828111156124c85782518255916020019190600101906124ad565b506124d49291506124d8565b5090565b6118ac91905b808211156124d457600081556001016124de56fe456e756d657261626c655365743a20696e646578206f7574206f6620626f756e6473416363657373436f6e74726f6c3a2073656e646572206d75737420626520616e2061646d696e20746f206772616e745472616e73666572426174636828616464726573732c616464726573732c616464726573732c75696e743235365b5d2c75696e743235365b5d294d696e7461626c65455243313135355072656469636174653a20494e56414c49445f5245434549564552524c505265616465723a2042595445535f4445434f4445445f4c454e4754485f4d49534d415443484d696e7461626c65455243313135355072656469636174653a20496e76616c69642061646472657373416363657373436f6e74726f6c3a2073656e646572206d75737420626520616e2061646d696e20746f207265766f6b65524c505265616465723a204e554d5f4954454d535f4445434f4445445f4c454e4754485f4d49534d415443484d696e7461626c65455243313135355072656469636174653a20496e76616c696420726573756c74696e67206172726179206c656e6774684d696e7461626c65455243313135355072656469636174653a20494e56414c49445f57495448445241575f5349474d696e7461626c65455243313135355072656469636174653a204172726179206c656e677468206d69736d6174636820666f756e645472616e7366657253696e676c6528616464726573732c616464726573732c616464726573732c75696e743235362c75696e7432353629524c505265616465723a204c4953545f4445434f4445445f4c454e4754485f4d49534d41544348416363657373436f6e74726f6c3a2063616e206f6e6c792072656e6f756e636520726f6c657320666f722073656c66524c505265616465723a2055494e545f4445434f4445445f4c454e4754485f4d49534d41544348a264697066735822122068b59475e4c90de8f61392f9262c20e88a4d9f082a186c3fd15feb2c34b8c05c64736f6c63430006060033",
  "immutableReferences": {},
  "source": "pragma solidity 0.6.6;\n\nimport {IMintableERC1155} from \"../RootToken/IMintableERC1155.sol\";\nimport {\n    ERC1155Receiver\n} from \"@openzeppelin/contracts/token/ERC1155/ERC1155Receiver.sol\";\nimport {AccessControlMixin} from \"../../common/AccessControlMixin.sol\";\nimport {RLPReader} from \"../../lib/RLPReader.sol\";\nimport {ITokenPredicate} from \"./ITokenPredicate.sol\";\nimport {Initializable} from \"../../common/Initializable.sol\";\n\ncontract MintableERC1155Predicate is\n    ITokenPredicate,\n    ERC1155Receiver,\n    AccessControlMixin,\n    Initializable\n{\n    using RLPReader for bytes;\n    using RLPReader for RLPReader.RLPItem;\n\n    bytes32 public constant MANAGER_ROLE = keccak256(\"MANAGER_ROLE\");\n    bytes32 public constant TOKEN_TYPE = keccak256(\"MintableERC1155\");\n\n    bytes32 public constant TRANSFER_SINGLE_EVENT_SIG = keccak256(\n        \"TransferSingle(address,address,address,uint256,uint256)\"\n    );\n    bytes32 public constant TRANSFER_BATCH_EVENT_SIG = keccak256(\n        \"TransferBatch(address,address,address,uint256[],uint256[])\"\n    );\n\n    event LockedBatchMintableERC1155(\n        address indexed depositor,\n        address indexed depositReceiver,\n        address indexed rootToken,\n        uint256[] ids,\n        uint256[] amounts\n    );\n\n    constructor() public {}\n\n    function initialize(address _owner) external initializer {\n        _setupContractId(\"MintableERC1155Predicate\");\n        _setupRole(DEFAULT_ADMIN_ROLE, _owner);\n        _setupRole(MANAGER_ROLE, _owner);\n    }\n\n    /**\n     * @notice rejects single transfer\n     */\n    function onERC1155Received(\n        address,\n        address,\n        uint256,\n        uint256,\n        bytes calldata\n    ) external override returns (bytes4) {\n        return 0;\n    }\n\n    /**\n     * @notice accepts batch transfer\n     */\n    function onERC1155BatchReceived(\n        address,\n        address,\n        uint256[] calldata,\n        uint256[] calldata,\n        bytes calldata\n    ) external override returns (bytes4) {\n        return ERC1155Receiver(0).onERC1155BatchReceived.selector;\n    }\n\n    /**\n     * @notice Lock ERC1155 tokens for deposit, callable only by manager\n     * @param depositor Address who wants to deposit tokens\n     * @param depositReceiver Address (address) who wants to receive tokens on child chain\n     * @param rootToken Token which gets deposited\n     * @param depositData ABI encoded id array and amount array\n     */\n    function lockTokens(\n        address depositor,\n        address depositReceiver,\n        address rootToken,\n        bytes calldata depositData\n    ) external override only(MANAGER_ROLE) {\n        // forcing batch deposit since supporting both single and batch deposit introduces too much complexity\n        (\n            uint256[] memory ids,\n            uint256[] memory amounts,\n            bytes memory data\n        ) = abi.decode(depositData, (uint256[], uint256[], bytes));\n\n        emit LockedBatchMintableERC1155(\n            depositor,\n            depositReceiver,\n            rootToken,\n            ids,\n            amounts\n        );\n        IMintableERC1155(rootToken).safeBatchTransferFrom(\n            depositor,\n            address(this),\n            ids,\n            amounts,\n            data\n        );\n    }\n\n    /**\n     * @notice Creates an array of `size` by repeating provided address,\n     * to be required for passing to batch balance checking function of ERC1155 tokens.\n     * @param addr Address to be repeated `size` times in resulting array\n     * @param size Size of resulting array\n     */\n    function makeArrayWithAddress(address addr, uint256 size)\n        internal\n        pure\n        returns (address[] memory)\n    {\n        require(\n            addr != address(0),\n            \"MintableERC1155Predicate: Invalid address\"\n        );\n        require(\n            size > 0,\n            \"MintableERC1155Predicate: Invalid resulting array length\"\n        );\n\n        address[] memory addresses = new address[](size);\n\n        for (uint256 i = 0; i < size; i++) {\n            addresses[i] = addr;\n        }\n\n        return addresses;\n    }\n\n    /**\n     * @notice Calculates amount of tokens to be minted, by subtracting available\n     * token balances from amount of tokens to be exited\n     * @param tokenBalances Token balances this contract holds for some ordered token ids\n     * @param amountsToBeExited Amount of tokens being exited\n     */\n    function calculateAmountsToBeMinted(\n        uint256[] memory tokenBalances,\n        uint256[] memory amountsToBeExited\n    ) internal pure returns (uint256[] memory) {\n        require(\n            tokenBalances.length == amountsToBeExited.length,\n            \"MintableERC1155Predicate: Array length mismatch found\"\n        );\n\n        uint256[] memory toBeMintedAmounts = new uint256[](\n            tokenBalances.length\n        );\n\n        // Iteratively calculating amounts of token to be minted\n        //\n        // Please note, in some cases it can be 0, but that will not\n        // be a problem, due to implementation of mint logic for ERC1155\n        for (uint256 i = 0; i < tokenBalances.length; i++) {\n            if (tokenBalances[i] < amountsToBeExited[i]) {\n                toBeMintedAmounts[i] = amountsToBeExited[i] - tokenBalances[i];\n            }\n        }\n\n        return toBeMintedAmounts;\n    }\n\n    /**\n     * @notice Validates log signature, from and to address\n     * then sends the correct tokenId, amount to withdrawer\n     * callable only by manager\n     * @param rootToken Token which gets withdrawn\n     * @param log Valid ERC1155 TransferSingle burn or TransferBatch burn log from child chain\n     */\n    function exitTokens(\n        address,\n        address rootToken,\n        bytes memory log\n    ) public override only(MANAGER_ROLE) {\n        RLPReader.RLPItem[] memory logRLPList = log.toRlpItem().toList();\n        RLPReader.RLPItem[] memory logTopicRLPList = logRLPList[1].toList(); // topics\n        bytes memory logData = logRLPList[2].toBytes();\n\n        address withdrawer = address(logTopicRLPList[2].toUint()); // topic2 is from address\n\n        require(\n            address(logTopicRLPList[3].toUint()) == address(0), // topic3 is to address\n            \"MintableERC1155Predicate: INVALID_RECEIVER\"\n        );\n\n        if (bytes32(logTopicRLPList[0].toUint()) == TRANSFER_SINGLE_EVENT_SIG) {\n            // topic0 is event sig\n            (uint256 id, uint256 amount) = abi.decode(\n                logData,\n                (uint256, uint256)\n            );\n\n            IMintableERC1155 token = IMintableERC1155(rootToken);\n            // Currently locked tokens for `id` in this contract\n            uint256 tokenBalance = token.balanceOf(address(this), id);\n\n            // Checking whether MintableERC1155 contract has enough\n            // tokens locked in to transfer to withdrawer, if not\n            // it'll mint those tokens for this contract and return\n            // safely transfer those to withdrawer\n            if (tokenBalance < amount) {\n                token.mint(address(this), id, amount - tokenBalance, bytes(\"\"));\n            }\n\n            token.safeTransferFrom(\n                address(this),\n                withdrawer,\n                id,\n                amount,\n                bytes(\"\")\n            );\n        } else if (\n            bytes32(logTopicRLPList[0].toUint()) == TRANSFER_BATCH_EVENT_SIG\n        ) {\n            (uint256[] memory ids, uint256[] memory amounts) = abi.decode(\n                logData,\n                (uint256[], uint256[])\n            );\n\n            IMintableERC1155 token = IMintableERC1155(rootToken);\n\n            token.mintBatch(\n                address(this),\n                ids,\n                calculateAmountsToBeMinted(\n                    token.balanceOfBatch(\n                        makeArrayWithAddress(address(this), ids.length),\n                        ids\n                    ),\n                    amounts\n                ),\n                bytes(\"\")\n            );\n\n            IMintableERC1155(rootToken).safeBatchTransferFrom(\n                address(this),\n                withdrawer,\n                ids,\n                amounts,\n                bytes(\"\")\n            );\n        } else {\n            revert(\"MintableERC1155Predicate: INVALID_WITHDRAW_SIG\");\n        }\n    }\n}\n",
  "sourcePath": "/Users/abhimanyushekhawat/projects/matic-contracts/contracts/root/TokenPredicates/MintableERC1155Predicate.sol",
  "compiler": {
    "name": "solc",
    "version": "0.6.6+commit.6c089d02.Emscripten.clang"
  },
  "schemaVersion": "3.3.4",
  "updatedAt": "2021-03-01T19:59:54.828Z",
  "devdoc": {
    "methods": {
      "exitTokens(address,address,bytes)": {
        "params": {
          "log": "Valid ERC1155 TransferSingle burn or TransferBatch burn log from child chain",
          "rootToken": "Token which gets withdrawn"
        }
      },
      "getRoleAdmin(bytes32)": {
        "details": "Returns the admin role that controls `role`. See {grantRole} and {revokeRole}.     * To change a role's admin, use {_setRoleAdmin}."
      },
      "getRoleMember(bytes32,uint256)": {
        "details": "Returns one of the accounts that have `role`. `index` must be a value between 0 and {getRoleMemberCount}, non-inclusive.     * Role bearers are not sorted in any particular way, and their ordering may change at any point.     * WARNING: When using {getRoleMember} and {getRoleMemberCount}, make sure you perform all queries on the same block. See the following https://forum.openzeppelin.com/t/iterating-over-elements-on-enumerableset-in-openzeppelin-contracts/2296[forum post] for more information."
      },
      "getRoleMemberCount(bytes32)": {
        "details": "Returns the number of accounts that have `role`. Can be used together with {getRoleMember} to enumerate all bearers of a role."
      },
      "grantRole(bytes32,address)": {
        "details": "Grants `role` to `account`.     * If `account` had not been already granted `role`, emits a {RoleGranted} event.     * Requirements:     * - the caller must have ``role``'s admin role."
      },
      "hasRole(bytes32,address)": {
        "details": "Returns `true` if `account` has been granted `role`."
      },
      "lockTokens(address,address,address,bytes)": {
        "params": {
          "depositData": "ABI encoded id array and amount array",
          "depositReceiver": "Address (address) who wants to receive tokens on child chain",
          "depositor": "Address who wants to deposit tokens",
          "rootToken": "Token which gets deposited"
        }
      },
      "renounceRole(bytes32,address)": {
        "details": "Revokes `role` from the calling account.     * Roles are often managed via {grantRole} and {revokeRole}: this function's purpose is to provide a mechanism for accounts to lose their privileges if they are compromised (such as when a trusted device is misplaced).     * If the calling account had been granted `role`, emits a {RoleRevoked} event.     * Requirements:     * - the caller must be `account`."
      },
      "revokeRole(bytes32,address)": {
        "details": "Revokes `role` from `account`.     * If `account` had been granted `role`, emits a {RoleRevoked} event.     * Requirements:     * - the caller must have ``role``'s admin role."
      },
      "supportsInterface(bytes4)": {
        "details": "See {IERC165-supportsInterface}.     * Time complexity O(1), guaranteed to always use less than 30 000 gas."
      }
    }
  },
  "userdoc": {
    "methods": {
      "exitTokens(address,address,bytes)": {
        "notice": "Validates log signature, from and to address then sends the correct tokenId, amount to withdrawer callable only by manager"
      },
      "lockTokens(address,address,address,bytes)": {
        "notice": "Lock ERC1155 tokens for deposit, callable only by manager"
      },
      "onERC1155BatchReceived(address,address,uint256[],uint256[],bytes)": {
        "notice": "accepts batch transfer"
      },
      "onERC1155Received(address,address,uint256,uint256,bytes)": {
        "notice": "rejects single transfer"
      }
    }
  }
}