{
  "contractName": "ProxyTestImplStorageLayoutChange",
  "abi": [
    {
      "inputs": [],
      "name": "a",
      "outputs": [
        {
          "internalType": "uint256",
          "name": "",
          "type": "uint256"
        }
      ],
      "stateMutability": "view",
      "type": "function"
    },
    {
      "inputs": [],
      "name": "b",
      "outputs": [
        {
          "internalType": "uint256",
          "name": "",
          "type": "uint256"
        }
      ],
      "stateMutability": "view",
      "type": "function"
    }
  ],
  "bytecode": "0x60806040526000805460ff19169055348015601957600080fd5b506097806100286000396000f3fe6080604052348015600f57600080fd5b506004361060325760003560e01c80630dbe671f1460375780634df7e3d014604f575b600080fd5b603d6055565b60408051918252519081900360200190f35b603d605b565b60025481565b6001548156fea26469706673582212205581807400cf944120b727f125f5d46a532b663e0a873cf5e6a00240eb55040864736f6c63430006060033",
  "immutableReferences": {},
  "source": "pragma solidity 0.6.6;\n\nimport {Initializable} from \"../common/Initializable.sol\";\n\ncontract ProxyTestImplStorageLayoutChange is Initializable {\n    uint256 public b;\n    uint256 public a;\n}\n",
  "sourcePath": "/Users/abhimanyushekhawat/projects/matic-contracts/contracts/test/ProxyTestImplStorageLayoutChange.sol",
  "compiler": {
    "name": "solc",
    "version": "0.6.6+commit.6c089d02.Emscripten.clang"
  },
  "schemaVersion": "3.3.4",
  "updatedAt": "2021-03-01T19:59:54.844Z",
  "devdoc": {
    "methods": {}
  },
  "userdoc": {
    "methods": {}
  }
}