{
  "contractName": "RootChainManager",
  "abi": [
    {
      "anonymous": false,
      "inputs": [
        {
          "indexed": false,
          "internalType": "address",
          "name": "userAddress",
          "type": "address"
        },
        {
          "indexed": false,
          "internalType": "address payable",
          "name": "relayerAddress",
          "type": "address"
        },
        {
          "indexed": false,
          "internalType": "bytes",
          "name": "functionSignature",
          "type": "bytes"
        }
      ],
      "name": "MetaTransactionExecuted",
      "type": "event"
    },
    {
      "anonymous": false,
      "inputs": [
        {
          "indexed": true,
          "internalType": "bytes32",
          "name": "tokenType",
          "type": "bytes32"
        },
        {
          "indexed": true,
          "internalType": "address",
          "name": "predicateAddress",
          "type": "address"
        }
      ],
      "name": "PredicateRegistered",
      "type": "event"
    },
    {
      "anonymous": false,
      "inputs": [
        {
          "indexed": true,
          "internalType": "bytes32",
          "name": "role",
          "type": "bytes32"
        },
        {
          "indexed": true,
          "internalType": "bytes32",
          "name": "previousAdminRole",
          "type": "bytes32"
        },
        {
          "indexed": true,
          "internalType": "bytes32",
          "name": "newAdminRole",
          "type": "bytes32"
        }
      ],
      "name": "RoleAdminChanged",
      "type": "event"
    },
    {
      "anonymous": false,
      "inputs": [
        {
          "indexed": true,
          "internalType": "bytes32",
          "name": "role",
          "type": "bytes32"
        },
        {
          "indexed": true,
          "internalType": "address",
          "name": "account",
          "type": "address"
        },
        {
          "indexed": true,
          "internalType": "address",
          "name": "sender",
          "type": "address"
        }
      ],
      "name": "RoleGranted",
      "type": "event"
    },
    {
      "anonymous": false,
      "inputs": [
        {
          "indexed": true,
          "internalType": "bytes32",
          "name": "role",
          "type": "bytes32"
        },
        {
          "indexed": true,
          "internalType": "address",
          "name": "account",
          "type": "address"
        },
        {
          "indexed": true,
          "internalType": "address",
          "name": "sender",
          "type": "address"
        }
      ],
      "name": "RoleRevoked",
      "type": "event"
    },
    {
      "anonymous": false,
      "inputs": [
        {
          "indexed": true,
          "internalType": "address",
          "name": "rootToken",
          "type": "address"
        },
        {
          "indexed": true,
          "internalType": "address",
          "name": "childToken",
          "type": "address"
        },
        {
          "indexed": true,
          "internalType": "bytes32",
          "name": "tokenType",
          "type": "bytes32"
        }
      ],
      "name": "TokenMapped",
      "type": "event"
    },
    {
      "inputs": [],
      "name": "DEFAULT_ADMIN_ROLE",
      "outputs": [
        {
          "internalType": "bytes32",
          "name": "",
          "type": "bytes32"
        }
      ],
      "stateMutability": "view",
      "type": "function"
    },
    {
      "inputs": [],
      "name": "DEPOSIT",
      "outputs": [
        {
          "internalType": "bytes32",
          "name": "",
          "type": "bytes32"
        }
      ],
      "stateMutability": "view",
      "type": "function"
    },
    {
      "inputs": [],
      "name": "ERC712_VERSION",
      "outputs": [
        {
          "internalType": "string",
          "name": "",
          "type": "string"
        }
      ],
      "stateMutability": "view",
      "type": "function"
    },
    {
      "inputs": [],
      "name": "ETHER_ADDRESS",
      "outputs": [
        {
          "internalType": "address",
          "name": "",
          "type": "address"
        }
      ],
      "stateMutability": "view",
      "type": "function"
    },
    {
      "inputs": [],
      "name": "MAPPER_ROLE",
      "outputs": [
        {
          "internalType": "bytes32",
          "name": "",
          "type": "bytes32"
        }
      ],
      "stateMutability": "view",
      "type": "function"
    },
    {
      "inputs": [],
      "name": "MAP_TOKEN",
      "outputs": [
        {
          "internalType": "bytes32",
          "name": "",
          "type": "bytes32"
        }
      ],
      "stateMutability": "view",
      "type": "function"
    },
    {
      "inputs": [],
      "name": "childChainManagerAddress",
      "outputs": [
        {
          "internalType": "address",
          "name": "",
          "type": "address"
        }
      ],
      "stateMutability": "view",
      "type": "function"
    },
    {
      "inputs": [
        {
          "internalType": "address",
          "name": "",
          "type": "address"
        }
      ],
      "name": "childToRootToken",
      "outputs": [
        {
          "internalType": "address",
          "name": "",
          "type": "address"
        }
      ],
      "stateMutability": "view",
      "type": "function"
    },
    {
      "inputs": [
        {
          "internalType": "address",
          "name": "userAddress",
          "type": "address"
        },
        {
          "internalType": "bytes",
          "name": "functionSignature",
          "type": "bytes"
        },
        {
          "internalType": "bytes32",
          "name": "sigR",
          "type": "bytes32"
        },
        {
          "internalType": "bytes32",
          "name": "sigS",
          "type": "bytes32"
        },
        {
          "internalType": "uint8",
          "name": "sigV",
          "type": "uint8"
        }
      ],
      "name": "executeMetaTransaction",
      "outputs": [
        {
          "internalType": "bytes",
          "name": "",
          "type": "bytes"
        }
      ],
      "stateMutability": "payable",
      "type": "function"
    },
    {
      "inputs": [],
      "name": "getChainId",
      "outputs": [
        {
          "internalType": "uint256",
          "name": "",
          "type": "uint256"
        }
      ],
      "stateMutability": "pure",
      "type": "function"
    },
    {
      "inputs": [],
      "name": "getDomainSeperator",
      "outputs": [
        {
          "internalType": "bytes32",
          "name": "",
          "type": "bytes32"
        }
      ],
      "stateMutability": "view",
      "type": "function"
    },
    {
      "inputs": [
        {
          "internalType": "address",
          "name": "user",
          "type": "address"
        }
      ],
      "name": "getNonce",
      "outputs": [
        {
          "internalType": "uint256",
          "name": "nonce",
          "type": "uint256"
        }
      ],
      "stateMutability": "view",
      "type": "function"
    },
    {
      "inputs": [
        {
          "internalType": "bytes32",
          "name": "role",
          "type": "bytes32"
        }
      ],
      "name": "getRoleAdmin",
      "outputs": [
        {
          "internalType": "bytes32",
          "name": "",
          "type": "bytes32"
        }
      ],
      "stateMutability": "view",
      "type": "function"
    },
    {
      "inputs": [
        {
          "internalType": "bytes32",
          "name": "role",
          "type": "bytes32"
        },
        {
          "internalType": "uint256",
          "name": "index",
          "type": "uint256"
        }
      ],
      "name": "getRoleMember",
      "outputs": [
        {
          "internalType": "address",
          "name": "",
          "type": "address"
        }
      ],
      "stateMutability": "view",
      "type": "function"
    },
    {
      "inputs": [
        {
          "internalType": "bytes32",
          "name": "role",
          "type": "bytes32"
        }
      ],
      "name": "getRoleMemberCount",
      "outputs": [
        {
          "internalType": "uint256",
          "name": "",
          "type": "uint256"
        }
      ],
      "stateMutability": "view",
      "type": "function"
    },
    {
      "inputs": [
        {
          "internalType": "bytes32",
          "name": "role",
          "type": "bytes32"
        },
        {
          "internalType": "address",
          "name": "account",
          "type": "address"
        }
      ],
      "name": "grantRole",
      "outputs": [],
      "stateMutability": "nonpayable",
      "type": "function"
    },
    {
      "inputs": [
        {
          "internalType": "bytes32",
          "name": "role",
          "type": "bytes32"
        },
        {
          "internalType": "address",
          "name": "account",
          "type": "address"
        }
      ],
      "name": "hasRole",
      "outputs": [
        {
          "internalType": "bool",
          "name": "",
          "type": "bool"
        }
      ],
      "stateMutability": "view",
      "type": "function"
    },
    {
      "inputs": [
        {
          "internalType": "bytes32",
          "name": "",
          "type": "bytes32"
        }
      ],
      "name": "processedExits",
      "outputs": [
        {
          "internalType": "bool",
          "name": "",
          "type": "bool"
        }
      ],
      "stateMutability": "view",
      "type": "function"
    },
    {
      "inputs": [
        {
          "internalType": "bytes32",
          "name": "role",
          "type": "bytes32"
        },
        {
          "internalType": "address",
          "name": "account",
          "type": "address"
        }
      ],
      "name": "renounceRole",
      "outputs": [],
      "stateMutability": "nonpayable",
      "type": "function"
    },
    {
      "inputs": [
        {
          "internalType": "bytes32",
          "name": "role",
          "type": "bytes32"
        },
        {
          "internalType": "address",
          "name": "account",
          "type": "address"
        }
      ],
      "name": "revokeRole",
      "outputs": [],
      "stateMutability": "nonpayable",
      "type": "function"
    },
    {
      "inputs": [
        {
          "internalType": "address",
          "name": "",
          "type": "address"
        }
      ],
      "name": "rootToChildToken",
      "outputs": [
        {
          "internalType": "address",
          "name": "",
          "type": "address"
        }
      ],
      "stateMutability": "view",
      "type": "function"
    },
    {
      "inputs": [
        {
          "internalType": "address",
          "name": "",
          "type": "address"
        }
      ],
      "name": "tokenToType",
      "outputs": [
        {
          "internalType": "bytes32",
          "name": "",
          "type": "bytes32"
        }
      ],
      "stateMutability": "view",
      "type": "function"
    },
    {
      "inputs": [
        {
          "internalType": "bytes32",
          "name": "",
          "type": "bytes32"
        }
      ],
      "name": "typeToPredicate",
      "outputs": [
        {
          "internalType": "address",
          "name": "",
          "type": "address"
        }
      ],
      "stateMutability": "view",
      "type": "function"
    },
    {
      "stateMutability": "payable",
      "type": "receive"
    },
    {
      "inputs": [
        {
          "internalType": "address",
          "name": "_owner",
          "type": "address"
        }
      ],
      "name": "initialize",
      "outputs": [],
      "stateMutability": "nonpayable",
      "type": "function"
    },
    {
      "inputs": [],
      "name": "setupContractId",
      "outputs": [],
      "stateMutability": "nonpayable",
      "type": "function"
    },
    {
      "inputs": [],
      "name": "initializeEIP712",
      "outputs": [],
      "stateMutability": "nonpayable",
      "type": "function"
    },
    {
      "inputs": [
        {
          "internalType": "address",
          "name": "newStateSender",
          "type": "address"
        }
      ],
      "name": "setStateSender",
      "outputs": [],
      "stateMutability": "nonpayable",
      "type": "function"
    },
    {
      "inputs": [],
      "name": "stateSenderAddress",
      "outputs": [
        {
          "internalType": "address",
          "name": "",
          "type": "address"
        }
      ],
      "stateMutability": "view",
      "type": "function"
    },
    {
      "inputs": [
        {
          "internalType": "address",
          "name": "newCheckpointManager",
          "type": "address"
        }
      ],
      "name": "setCheckpointManager",
      "outputs": [],
      "stateMutability": "nonpayable",
      "type": "function"
    },
    {
      "inputs": [],
      "name": "checkpointManagerAddress",
      "outputs": [
        {
          "internalType": "address",
          "name": "",
          "type": "address"
        }
      ],
      "stateMutability": "view",
      "type": "function"
    },
    {
      "inputs": [
        {
          "internalType": "address",
          "name": "newChildChainManager",
          "type": "address"
        }
      ],
      "name": "setChildChainManagerAddress",
      "outputs": [],
      "stateMutability": "nonpayable",
      "type": "function"
    },
    {
      "inputs": [
        {
          "internalType": "bytes32",
          "name": "tokenType",
          "type": "bytes32"
        },
        {
          "internalType": "address",
          "name": "predicateAddress",
          "type": "address"
        }
      ],
      "name": "registerPredicate",
      "outputs": [],
      "stateMutability": "nonpayable",
      "type": "function"
    },
    {
      "inputs": [
        {
          "internalType": "address",
          "name": "rootToken",
          "type": "address"
        },
        {
          "internalType": "address",
          "name": "childToken",
          "type": "address"
        },
        {
          "internalType": "bytes32",
          "name": "tokenType",
          "type": "bytes32"
        }
      ],
      "name": "mapToken",
      "outputs": [],
      "stateMutability": "nonpayable",
      "type": "function"
    },
    {
      "inputs": [
        {
          "internalType": "address",
          "name": "rootToken",
          "type": "address"
        },
        {
          "internalType": "address",
          "name": "childToken",
          "type": "address"
        }
      ],
      "name": "cleanMapToken",
      "outputs": [],
      "stateMutability": "nonpayable",
      "type": "function"
    },
    {
      "inputs": [
        {
          "internalType": "address",
          "name": "rootToken",
          "type": "address"
        },
        {
          "internalType": "address",
          "name": "childToken",
          "type": "address"
        },
        {
          "internalType": "bytes32",
          "name": "tokenType",
          "type": "bytes32"
        }
      ],
      "name": "remapToken",
      "outputs": [],
      "stateMutability": "nonpayable",
      "type": "function"
    },
    {
      "inputs": [
        {
          "internalType": "address",
          "name": "user",
          "type": "address"
        }
      ],
      "name": "depositEtherFor",
      "outputs": [],
      "stateMutability": "payable",
      "type": "function"
    },
    {
      "inputs": [
        {
          "internalType": "address",
          "name": "user",
          "type": "address"
        },
        {
          "internalType": "address",
          "name": "rootToken",
          "type": "address"
        },
        {
          "internalType": "bytes",
          "name": "depositData",
          "type": "bytes"
        }
      ],
      "name": "depositFor",
      "outputs": [],
      "stateMutability": "nonpayable",
      "type": "function"
    },
    {
      "inputs": [
        {
          "internalType": "bytes",
          "name": "inputData",
          "type": "bytes"
        }
      ],
      "name": "exit",
      "outputs": [],
      "stateMutability": "nonpayable",
      "type": "function"
    }
  ],
  "bytecode": "0x60806040526000805460ff1916905534801561001a57600080fd5b506143328061002a6000396000f3fe6080604052600436106102295760003560e01c8063886a69ba11610123578063cf1d21c0116100ab578063e2c49de11161006f578063e2c49de11461091d578063e3dec8fb14610932578063e43009a6146109c8578063e66f9603146109fb578063ea60c7c414610a2557610240565b8063cf1d21c014610844578063d233a3c714610859578063d547741f1461089c578063d81c8e52146108d5578063dc993a23146108ea57610240565b8063a217fddf116100f2578063a217fddf1461078a578063b4b4f63e1461079f578063bc08452b146107b4578063c4d66de8146107e7578063ca15c8731461081a57610240565b8063886a69ba146106c95780639010d07c146106de5780639173b1391461070e57806391d148541461075157610240565b80633138b6f1116101b1578063568b80b511610175578063568b80b5146105fb578063607f2d4214610610578063630fcbfb1461064e5780636cb136b0146106635780636e86b7701461069657610240565b80633138b6f1146104f55780633408e4701461050a57806336568abe1461051f5780633805550f146105585780634faa8a26146105d557610240565b80630f7e5970116101f85780630f7e59701461042357806320379ee514610438578063248a9ca31461045f5780632d0335ab146104895780632f2ff15d146104bc57610240565b806304967702146102455780630c3894bb146102765780630c53c51c146102b15780630c598220146103ea57610240565b366102405761023e610239610a58565b610a68565b005b600080fd5b34801561025157600080fd5b5061025a610b69565b604080516001600160a01b039092168252519081900360200190f35b34801561028257600080fd5b5061023e6004803603604081101561029957600080fd5b506001600160a01b0381358116916020013516610b78565b610375600480360360a08110156102c757600080fd5b6001600160a01b0382351691908101906040810160208201356401000000008111156102f257600080fd5b82018360208201111561030457600080fd5b8035906020019184600183028401116401000000008311171561032657600080fd5b91908080601f016020809104026020016040519081016040528093929190818152602001838380828437600092019190915250929550508235935050506020810135906040013560ff16610cc9565b6040805160208082528351818301528351919283929083019185019080838360005b838110156103af578181015183820152602001610397565b50505050905090810190601f1680156103dc5780820380516001836020036101000a031916815260200191505b509250505060405180910390f35b3480156103f657600080fd5b5061023e6004803603604081101561040d57600080fd5b50803590602001356001600160a01b0316610fcc565b34801561042f57600080fd5b506103756110b9565b34801561044457600080fd5b5061044d6110d6565b60408051918252519081900360200190f35b34801561046b57600080fd5b5061044d6004803603602081101561048257600080fd5b50356110dc565b34801561049557600080fd5b5061044d600480360360208110156104ac57600080fd5b50356001600160a01b03166110f4565b3480156104c857600080fd5b5061023e600480360360408110156104df57600080fd5b50803590602001356001600160a01b031661110f565b34801561050157600080fd5b5061025a611176565b34801561051657600080fd5b5061044d611185565b34801561052b57600080fd5b5061023e6004803603604081101561054257600080fd5b50803590602001356001600160a01b0316611189565b34801561056457600080fd5b5061023e6004803603602081101561057b57600080fd5b81019060208101813564010000000081111561059657600080fd5b8201836020820111156105a857600080fd5b803590602001918460018302840111640100000000831117156105ca57600080fd5b5090925090506111ea565b61023e600480360360208110156105eb57600080fd5b50356001600160a01b03166116ec565b34801561060757600080fd5b5061044d6116f8565b34801561061c57600080fd5b5061063a6004803603602081101561063357600080fd5b503561171b565b604080519115158252519081900360200190f35b34801561065a57600080fd5b5061023e611730565b34801561066f57600080fd5b5061023e6004803603602081101561068657600080fd5b50356001600160a01b03166117d6565b3480156106a257600080fd5b5061025a600480360360208110156106b957600080fd5b50356001600160a01b031661186e565b3480156106d557600080fd5b5061044d611889565b3480156106ea57600080fd5b5061025a6004803603604081101561070157600080fd5b50803590602001356118aa565b34801561071a57600080fd5b5061023e6004803603606081101561073157600080fd5b506001600160a01b038135811691602081013590911690604001356118d1565b34801561075d57600080fd5b5061063a6004803603604081101561077457600080fd5b50803590602001356001600160a01b0316611a06565b34801561079657600080fd5b5061044d611a24565b3480156107ab57600080fd5b5061023e611a29565b3480156107c057600080fd5b5061023e600480360360208110156107d757600080fd5b50356001600160a01b0316611acf565b3480156107f357600080fd5b5061023e6004803603602081101561080a57600080fd5b50356001600160a01b0316611b67565b34801561082657600080fd5b5061044d6004803603602081101561083d57600080fd5b5035611c57565b34801561085057600080fd5b5061025a611c6e565b34801561086557600080fd5b5061023e6004803603606081101561087c57600080fd5b506001600160a01b03813581169160208101359091169060400135611c86565b3480156108a857600080fd5b5061023e600480360360408110156108bf57600080fd5b50803590602001356001600160a01b0316611de8565b3480156108e157600080fd5b5061044d611e41565b3480156108f657600080fd5b5061023e6004803603602081101561090d57600080fd5b50356001600160a01b0316611e60565b34801561092957600080fd5b5061025a611f3d565b34801561093e57600080fd5b5061023e6004803603606081101561095557600080fd5b6001600160a01b03823581169260208101359091169181019060608101604082013564010000000081111561098957600080fd5b82018360208201111561099b57600080fd5b803590602001918460018302840111640100000000831117156109bd57600080fd5b509092509050611f4c565b3480156109d457600080fd5b5061044d600480360360208110156109eb57600080fd5b50356001600160a01b0316611fe9565b348015610a0757600080fd5b5061025a60048036036020811015610a1e57600080fd5b5035611ffb565b348015610a3157600080fd5b5061025a60048036036020811015610a4857600080fd5b50356001600160a01b0316612016565b6000610a62612031565b90505b90565b604080513460208083019190915282518083039091018152908201909152610aa58273eeeeeeeeeeeeeeeeeeeeeeeeeeeeeeeeeeeeeeee8361208e565b7fa1829a9003092132f585b6ccdd167c19fe9774dbdea4260287e8a8e8ca8185d7546000908152600260205260408082205490516001600160a01b039091169034908381818185875af1925050503d8060008114610b1f576040519150601f19603f3d011682016040523d82523d6000602084013e610b24565b606091505b5050905080610b645760405162461bcd60e51b815260040180806020018281038252602781526020018061419d6027913960400191505060405180910390fd5b505050565b6009546001600160a01b031681565b604080516a4d41505045525f524f4c4560a81b8152905190819003600b019020610ba981610ba4610a58565b611a06565b600a90610c495760405162461bcd60e51b8152602060048201908152825460026000196101006001841615020190911604602483018190529091829160449091019084908015610c3a5780601f10610c0f57610100808354040283529160200191610c3a565b820191906000526020600020905b815481529060010190602001808311610c1d57829003601f168201915b50509250505060405180910390fd5b506001600160a01b03808416600081815260036020908152604080832080546001600160a01b0319908116909155948716808452600483528184208054909616909555838352600590915280822082905551909291907f9e651a8866fbea043e911d816ec254b0e3c992c06fff32d605e72362d6023bd9908490a4505050565b6060610cd3613e2a565b50604080516060810182526001600160a01b0388166000818152600c602090815290849020548352820152908101869052610d118782878787612508565b610d4c5760405162461bcd60e51b81526004018080602001828103825260218152602001806141c46021913960400191505060405180910390fd5b6001600160a01b0387166000908152600c6020526040902054610d7690600163ffffffff6125e516565b6001600160a01b0388166000818152600c602090815260408083209490945583519283523383820181905260609484018581528b51958501959095528a517f5845892132946850460bff5a0083f71031bc5bf9aadcd40f1de79423eac9b10b958d9592948d94919260808501928601918190849084905b83811015610e05578181015183820152602001610ded565b50505050905090810190601f168015610e325780820380516001836020036101000a031916815260200191505b5094505050505060405180910390a160006060306001600160a01b0316888a6040516020018083805190602001908083835b60208310610e835780518252601f199092019160209182019101610e64565b6001836020036101000a038019825116818451168082178552505050505050905001826001600160a01b03166001600160a01b031660601b8152601401925050506040516020818303038152906040526040518082805190602001908083835b60208310610f025780518252601f199092019160209182019101610ee3565b6001836020036101000a0380198251168184511680821785525050505050509050019150506000604051808303816000865af19150503d8060008114610f64576040519150601f19603f3d011682016040523d82523d6000602084013e610f69565b606091505b509150915081610fc0576040805162461bcd60e51b815260206004820152601c60248201527f46756e6374696f6e2063616c6c206e6f74207375636365737366756c00000000604482015290519081900360640190fd5b98975050505050505050565b604080516a4d41505045525f524f4c4560a81b8152905190819003600b019020610ff881610ba4610a58565b600a9061105e5760405162461bcd60e51b8152602060048201908152825460026000196101006001841615020190911604602483018190529091829160449091019084908015610c3a5780601f10610c0f57610100808354040283529160200191610c3a565b5060008381526002602052604080822080546001600160a01b0319166001600160a01b0386169081179091559051909185917f8643692ae1c12ec91fa18e50b82ed93fa314f580999a236824db6de9ae0d839b9190a3505050565b604051806040016040528060018152602001603160f81b81525081565b600b5490565b6000818152600160205260409020600201545b919050565b6001600160a01b03166000908152600c602052604090205490565b60008281526001602052604090206002015461112d90610ba4610a58565b6111685760405162461bcd60e51b815260040180806020018281038252602f815260200180613f78602f913960400191505060405180910390fd5b611172828261263f565b5050565b6008546001600160a01b031690565b4690565b611191610a58565b6001600160a01b0316816001600160a01b0316146111e05760405162461bcd60e51b815260040180806020018281038252602f815260200180614286602f913960400191505060405180910390fd5b61117282826126ae565b606061123361122e84848080601f01602080910402602001604051908101604052809392919081815260200183838082843760009201919091525061271d92505050565b612798565b905060006112548260028151811061124757fe5b602002602001015161291a565b6112796112748460088151811061126757fe5b6020026020010151612a62565b612b2c565b6112898460098151811061124757fe5b6040516020018084815260200183805190602001908083835b602083106112c15780518252601f1990920191602091820191016112a2565b51815160209384036101000a6000190180199092169116179052920193845250604080518085038152938201815283519382019390932060008181526006909252929020549194505060ff1615915061134d90505760405162461bcd60e51b81526004018080602001828103825260288152602001806142096028913960400191505060405180910390fd5b6000818152600660208190526040909120805460ff19166001179055825160609161138a9161122e9161138591879190811061126757fe5b61271d565b9050611394613e54565b6113b1826003815181106113a457fe5b6020026020010151612798565b6113c18560098151811061124757fe5b815181106113cb57fe5b6020026020010151905060006113fc6113e383612798565b6000815181106113ef57fe5b6020026020010151612c9f565b6001600160a01b0380821660009081526004602052604090205491925016806114565760405162461bcd60e51b81526004018080602001828103825260228152602001806140af6022913960400191505060405180910390fd5b6001600160a01b03808216600090815260056020908152604080832054835260029091529020548751911690611493908890600890811061124757fe5b63ffffffff1916156114d65760405162461bcd60e51b815260040180806020018281038252602581526020018061408a6025913960400191505060405180910390fd5b61151e6114e98860068151811061126757fe5b6114f98960088151811061126757fe5b6115098a60078151811061126757fe5b6115198b60058151811061124757fe5b612d2f565b61156f576040805162461bcd60e51b815260206004820152601f60248201527f526f6f74436861696e4d616e616765723a20494e56414c49445f50524f4f4600604482015290519081900360640190fd5b6115dd6115828860028151811061124757fe5b6115928960038151811061124757fe5b6115a28a60048151811061124757fe5b60001b6115b58b60058151811061124757fe5b60001b6115c88c60008151811061124757fe5b6115d88d60018151811061126757fe5b612f76565b50806001600160a01b0316638274664f6115f5610a58565b846115ff886130bf565b6040518463ffffffff1660e01b815260040180846001600160a01b03166001600160a01b03168152602001836001600160a01b03166001600160a01b0316815260200180602001828103825283818151815260200191508051906020019080838360005b8381101561167b578181015183820152602001611663565b50505050905090810190601f1680156116a85780820380516001836020036101000a031916815260200191505b50945050505050600060405180830381600087803b1580156116c957600080fd5b505af11580156116dd573d6000803e3d6000fd5b50505050505050505050505050565b6116f581610a68565b50565b604080516a4d41505045525f524f4c4560a81b8152905190819003600b01902081565b60066020526000908152604090205460ff1681565b600061173e81610ba4610a58565b600a906117a45760405162461bcd60e51b8152602060048201908152825460026000196101006001841615020190911604602483018190529091829160449091019084908015610c3a5780601f10610c0f57610100808354040283529160200191610c3a565b506116f56040518060400160405280601081526020016f2937b7ba21b430b4b726b0b730b3b2b960811b81525061312d565b60006117e481610ba4610a58565b600a9061184a5760405162461bcd60e51b8152602060048201908152825460026000196101006001841615020190911604602483018190529091829160449091019084908015610c3a5780601f10610c0f57610100808354040283529160200191610c3a565b5050600780546001600160a01b0319166001600160a01b0392909216919091179055565b6004602052600090815260409020546001600160a01b031681565b604080516826a0a82faa27a5a2a760b91b8152905190819003600901902081565b60008281526001602052604081206118c8908363ffffffff6131e916565b90505b92915050565b604080516a4d41505045525f524f4c4560a81b8152905190819003600b0190206118fd81610ba4610a58565b600a906119635760405162461bcd60e51b8152602060048201908152825460026000196101006001841615020190911604602483018190529091829160449091019084908015610c3a5780601f10610c0f57610100808354040283529160200191610c3a565b506001600160a01b03848116600090815260036020526040902054161580156119a457506001600160a01b0383811660009081526004602052604090205416155b6119f5576040805162461bcd60e51b815260206004820181905260248201527f526f6f74436861696e4d616e616765723a20414c52454144595f4d4150504544604482015290519081900360640190fd5b611a008484846131f5565b50505050565b60008281526001602052604081206118c8908363ffffffff61348416565b600081565b6000611a3781610ba4610a58565b600a90611a9d5760405162461bcd60e51b8152602060048201908152825460026000196101006001841615020190911604602483018190529091829160449091019084908015610c3a5780601f10610c0f57610100808354040283529160200191610c3a565b506116f56040518060400160405280601081526020016f2937b7ba21b430b4b726b0b730b3b2b960811b815250613499565b6000611add81610ba4610a58565b600a90611b435760405162461bcd60e51b8152602060048201908152825460026000196101006001841615020190911604602483018190529091829160449091019084908015610c3a5780601f10610c0f57610100808354040283529160200191610c3a565b5050600880546001600160a01b0319166001600160a01b0392909216919091179055565b60005460ff1615611bb0576040805162461bcd60e51b815260206004820152600e60248201526d185b1c9958591e481a5b9a5d195960921b604482015290519081900360640190fd5b611be16040518060400160405280601081526020016f2937b7ba21b430b4b726b0b730b3b2b960811b815250613537565b611c126040518060400160405280601081526020016f2937b7ba21b430b4b726b0b730b3b2b960811b815250613499565b611c1d600082611168565b604080516a4d41505045525f524f4c4560a81b8152905190819003600b019020611c479082611168565b506000805460ff19166001179055565b60008181526001602052604081206118cb90613589565b73eeeeeeeeeeeeeeeeeeeeeeeeeeeeeeeeeeeeeeee81565b604080516a4d41505045525f524f4c4560a81b8152905190819003600b019020611cb281610ba4610a58565b600a90611d185760405162461bcd60e51b8152602060048201908152825460026000196101006001841615020190911604602483018190529091829160449091019084908015610c3a5780601f10610c0f57610100808354040283529160200191610c3a565b506001600160a01b0380851660009081526003602081815260408084205488861685526004835281852054861680865293909252909220549183169290911615611d8e576001600160a01b038116600090815260036020908152604080832080546001600160a01b031916905560059091528120555b6001600160a01b038281166000908152600460205260409020541615611dd5576001600160a01b038216600090815260046020526040902080546001600160a01b03191690555b611de08686866131f5565b505050505050565b600082815260016020526040902060020154611e0690610ba4610a58565b6111e05760405162461bcd60e51b81526004018080602001828103825260308152602001806140f96030913960400191505060405180910390fd5b604080516611115413d4d25560ca1b8152905190819003600701902081565b6000611e6e81610ba4610a58565b600a90611ed45760405162461bcd60e51b8152602060048201908152825460026000196101006001841615020190911604602483018190529091829160449091019084908015610c3a5780601f10610c0f57610100808354040283529160200191610c3a565b506001600160a01b038216611f1a5760405162461bcd60e51b815260040180806020018281038252602d815260200180613fa7602d913960400191505060405180910390fd5b50600980546001600160a01b0319166001600160a01b0392909216919091179055565b6007546001600160a01b031690565b6001600160a01b03831673eeeeeeeeeeeeeeeeeeeeeeeeeeeeeeeeeeeeeeee1415611fa85760405162461bcd60e51b81526004018080602001828103825260248152602001806141e56024913960400191505060405180910390fd5b611a00848484848080601f01602080910402602001604051908101604052809392919081815260200183838082843760009201919091525061208e92505050565b60056020526000908152604090205481565b6002602052600090815260409020546001600160a01b031681565b6003602052600090815260409020546001600160a01b031681565b6000333014156120895760606000368080601f0160208091040260200160405190810160405280939291908181526020018383808284376000920191909152505050503601516001600160a01b03169150610a659050565b503390565b6001600160a01b03808316600090815260056020908152604080832054600390925290912054909116158015906120c457508015155b6120ff5760405162461bcd60e51b81526004018080602001828103825260228152602001806140af6022913960400191505060405180910390fd5b6000818152600260205260409020546001600160a01b0316806121535760405162461bcd60e51b81526004018080602001828103825260248152602001806140176024913960400191505060405180910390fd5b6001600160a01b0385166121ae576040805162461bcd60e51b815260206004820152601e60248201527f526f6f74436861696e4d616e616765723a20494e56414c49445f555345520000604482015290519081900360640190fd5b806001600160a01b031663e375b64e6121c5610a58565b8787876040518563ffffffff1660e01b815260040180856001600160a01b03166001600160a01b03168152602001846001600160a01b03166001600160a01b03168152602001836001600160a01b03166001600160a01b0316815260200180602001828103825283818151815260200191508051906020019080838360005b8381101561225c578181015183820152602001612244565b50505050905090810190601f1680156122895780820380516001836020036101000a031916815260200191505b5095505050505050600060405180830381600087803b1580156122ab57600080fd5b505af11580156122bf573d6000803e3d6000fd5b50505050606085858560405160200180846001600160a01b03166001600160a01b03168152602001836001600160a01b03166001600160a01b0316815260200180602001828103825283818151815260200191508051906020019080838360005b83811015612338578181015183820152602001612320565b50505050905090810190601f1680156123655780820380516001836020036101000a031916815260200191505b5060408051808303601f19018152828252600780546009546611115413d4d25560ca1b865284519586900390920185206020808701828152878701968752855160608901528551959d506001600160a01b039384169c506316f198319b5092909316985096508a955093608001919085019080838360005b838110156123f55781810151838201526020016123dd565b50505050905090810190601f1680156124225780820380516001836020036101000a031916815260200191505b5093505050506040516020818303038152906040526040518363ffffffff1660e01b815260040180836001600160a01b03166001600160a01b0316815260200180602001828103825283818151815260200191508051906020019080838360005b8381101561249b578181015183820152602001612483565b50505050905090810190601f1680156124c85780820380516001836020036101000a031916815260200191505b509350505050600060405180830381600087803b1580156124e857600080fd5b505af11580156124fc573d6000803e3d6000fd5b50505050505050505050565b60006001600160a01b03861661254f5760405162461bcd60e51b81526004018080602001828103825260258152602001806141296025913960400191505060405180910390fd5b600161256261255d87613594565b613620565b83868660405160008152602001604052604051808581526020018460ff1660ff1681526020018381526020018281526020019450505050506020604051602081039080840390855afa1580156125bc573d6000803e3d6000fd5b505050602060405103516001600160a01b0316866001600160a01b031614905095945050505050565b6000828201838110156118c8576040805162461bcd60e51b815260206004820152601b60248201527f536166654d6174683a206164646974696f6e206f766572666c6f770000000000604482015290519081900360640190fd5b600082815260016020526040902061265d908263ffffffff61366c16565b156111725761266a610a58565b6001600160a01b0316816001600160a01b0316837f2f8788117e7eff1d82e926ec794901d17c78024a50270940304540a733656f0d60405160405180910390a45050565b60008281526001602052604090206126cc908263ffffffff61368116565b15611172576126d9610a58565b6001600160a01b0316816001600160a01b0316837ff6391f5c32d9c69d2a47ea670b442974b53935d1edc7fd64eb21e047a839171b60405160405180910390a45050565b612725613e54565b600082511161277b576040805162461bcd60e51b815260206004820152601f60248201527f524c505265616465723a20494e56414c49445f42595445535f4c454e47544800604482015290519081900360640190fd5b506040805180820190915281518152602082810190820152919050565b60606127a382613696565b6127f4576040805162461bcd60e51b815260206004820152601860248201527f524c505265616465723a204954454d5f4e4f545f4c4953540000000000000000604482015290519081900360640190fd5b60006127ff836136c2565b905060608167ffffffffffffffff8111801561281a57600080fd5b5060405190808252806020026020018201604052801561285457816020015b612841613e54565b8152602001906001900390816128395790505b5090506000612866856020015161374e565b855190915081146128a85760405162461bcd60e51b81526004018080602001828103825260278152602001806142316027913960400191505060405180910390fd5b60006128b786602001516137e2565b60208701510190506000805b8581101561290e576128d48361374e565b91506040518060400160405280838152602001848152508582815181106128f757fe5b6020908102919091010152918101916001016128c3565b50929695505050505050565b600061292582613696565b15612977576040805162461bcd60e51b815260206004820181905260248201527f524c505265616465723a204445434f44494e475f4c4953545f41535f55494e54604482015290519081900360640190fd5b8151602110156129ce576040805162461bcd60e51b815260206004820152601e60248201527f524c505265616465723a20494e56414c49445f55494e545f4c454e4754480000604482015290519081900360640190fd5b60006129dd836020015161374e565b83519091508114612a1f5760405162461bcd60e51b81526004018080602001828103825260278152602001806142b56027913960400191505060405180910390fd5b6000612a2e84602001516137e2565b84516020808701518301805193945091849003929190831015612a5857826020036101000a820491505b5095945050505050565b60606000612a73836020015161374e565b83519091508114612ab55760405162461bcd60e51b81526004018080602001828103825260288152602001806140d16028913960400191505060405180910390fd5b6000612ac484602001516137e2565b845190915081900360608167ffffffffffffffff81118015612ae557600080fd5b506040519080825280601f01601f191660200182016040528015612b10576020820181803683370190505b5090506000816020019050612a58848860200151018285613845565b604080516020810190915260008152815160609190156118cb57600080612b54600086613890565b60f81c90506001811480612b6b57508060ff166003145b15612bfa57600185516002020367ffffffffffffffff81118015612b8e57600080fd5b506040519080825280601f01601f191660200182016040528015612bb9576020820181803683370190505b5092506000612bc9600187613890565b90508084600081518110612bd957fe5b60200101906001600160f81b031916908160001a9053506001925050612c4b565b600285516002020367ffffffffffffffff81118015612c1857600080fd5b506040519080825280601f01601f191660200182016040528015612c43576020820181803683370190505b509250600091505b60ff82165b8351811015612c9657612c6b8360ff16820360020187613890565b848281518110612c7757fe5b60200101906001600160f81b031916908160001a905350600101612c50565b50505092915050565b6000612caa82613696565b15612ce65760405162461bcd60e51b815260040180806020018281038252602381526020018061417a6023913960400191505060405180910390fd5b8151601514612d265760405162461bcd60e51b81526004018080602001828103825260218152602001806142dc6021913960400191505060405180910390fd5b6118cb8261291a565b6000612d39613e54565b612d428461271d565b90506060612d4f82612798565b905060608085600082612d618b612b2c565b9050805160001415612d7d576000975050505050505050612f6e565b60005b8651811015612f65578151831115612da357600098505050505050505050612f6e565b612dbf878281518110612db257fe5b60200260200101516130bf565b955085805190602001208414612de057600098505050505050505050612f6e565b612def8782815181106113a457fe5b9450845160111415612eac578151831415612e4b578c80519060200120612e1c8660108151811061126757fe5b805190602001201415612e3a57600198505050505050505050612f6e565b600098505050505050505050612f6e565b6000828481518110612e5957fe5b016020015160f81c90506010811115612e7e5760009950505050505050505050612f6e565b612e9d868260ff1681518110612e9057fe5b60200260200101516138ed565b94505060019290920191612f5d565b845160021415612e3a576000612ed2612ecb8760008151811061126757fe5b848661398c565b905082518185011415612f28578d80519060200120612ef78760018151811061126757fe5b805190602001201415612f165760019950505050505050505050612f6e565b60009950505050505050505050612f6e565b80612f3f5760009950505050505050505050612f6e565b8084019350612f5486600181518110612e9057fe5b9450612f5d9050565b600101612d80565b50505050505050505b949350505050565b600854604080516320a9cea560e11b81526004810185905290516000928392839283926001600160a01b0316916341539d4a9160248083019260a0929190829003018186803b158015612fc857600080fd5b505afa158015612fdc573d6000803e3d6000fd5b505050506040513d60a0811015612ff257600080fd5b5080516020820151606090920151909450909250905061306161301b8b8463ffffffff613a6b16565b6040805160208082018f90528183018e9052606082018d905260808083018d90528351808403909101815260a0909201909252805191012090858863ffffffff613aad16565b6130b2576040805162461bcd60e51b815260206004820181905260248201527f526f6f74436861696e4d616e616765723a20494e56414c49445f484541444552604482015290519081900360640190fd5b9998505050505050505050565b606080826000015167ffffffffffffffff811180156130dd57600080fd5b506040519080825280601f01601f191660200182016040528015613108576020820181803683370190505b50905060008160200190506131268460200151828660000151613845565b5092915050565b6040518060800160405280604f815260200161403b604f913980516020918201208251838301206040805180820190915260018152603160f81b930192909252907fc89efdaa54c0f20c7adf612882df0950f5a951637e0307cdcb4c672f298b8bc630613198611185565b604080516020808201979097528082019590955260608501939093526001600160a01b03909116608084015260a0808401919091528151808403909101815260c090920190528051910120600b5550565b60006118c88383613c03565b6000818152600260205260409020546001600160a01b03166132485760405162461bcd60e51b815260040180806020018281038252602a815260200180613f07602a913960400191505060405180910390fd5b6001600160a01b03808416600081815260036020908152604080832080549588166001600160a01b031996871681179091558084526004835281842080549096168517909555838352600590915280822085905551849392917f9e651a8866fbea043e911d816ec254b0e3c992c06fff32d605e72362d6023bd991a4604080516001600160a01b0380861660208084019190915281861683850152606083810186905284518085038201815260808086018088526007546009546826a0a82faa27a5a2a760b91b9092528851978890036089018820888701818152898b019a8b528551968a019690965284519499918816986316f1983198939093169690958a9590949293909201919085019080838360005b8381101561337357818101518382015260200161335b565b50505050905090810190601f1680156133a05780820380516001836020036101000a031916815260200191505b5093505050506040516020818303038152906040526040518363ffffffff1660e01b815260040180836001600160a01b03166001600160a01b0316815260200180602001828103825283818151815260200191508051906020019080838360005b83811015613419578181015183820152602001613401565b50505050905090810190601f1680156134465780820380516001836020036101000a031916815260200191505b509350505050600060405180830381600087803b15801561346657600080fd5b505af115801561347a573d6000803e3d6000fd5b5050505050505050565b60006118c8836001600160a01b038416613c67565b806040516020018082805190602001908083835b602083106134cc5780518252601f1990920191602091820191016134ad565b51815160209384036101000a60001901801990921691161790527f3a20494e53554646494349454e545f5045524d495353494f4e530000000000009190930190815260408051808303600519018152601a909201905280516111729550600a94509201919050613e6e565b60005460ff1615613580576040805162461bcd60e51b815260206004820152600e60248201526d185b1c9958591e481a5b9a5d195960921b604482015290519081900360640190fd5b611c478161312d565b60006118cb82613c7f565b6000604051806080016040528060438152602001613fd460439139805190602001208260000151836020015184604001518051906020012060405160200180858152602001848152602001836001600160a01b03166001600160a01b03168152602001828152602001945050505050604051602081830303815290604052805190602001209050919050565b600061362a6110d6565b82604051602001808061190160f01b81525060020183815260200182815260200192505050604051602081830303815290604052805190602001209050919050565b60006118c8836001600160a01b038416613c83565b60006118c8836001600160a01b038416613ccd565b6020810151805160009190821a9060c08210156136b8576000925050506110ef565b5060019392505050565b6000806000905060006136d884602001516137e2565b602085015185519181019250015b80821015613745576136f78261374e565b820191508082111561373a5760405162461bcd60e51b815260040180806020018281038252602c81526020018061414e602c913960400191505060405180910390fd5b6001909201916136e6565b50909392505050565b80516000908190811a60808110156137695760019150613126565b60b881101561377e57607e1981019150613126565b60c08110156137ab5760b78103600185019450806020036101000a85510460018201810193505050613126565b60f88110156137c05760be1981019150613126565b60019390930151602084900360f7016101000a900490920160f5190192915050565b8051600090811a60808110156137fc5760009150506110ef565b60b8811080613817575060c08110801590613817575060f881105b156138265760019150506110ef565b60c081101561383a5760b5190190506110ef565b60f5190190506110ef565b8061384f57610b64565b5b6020811061386f578251825260209283019290910190601f1901613850565b915181516020939093036101000a6000190180199091169216919091179052565b600060028306156138c15760108260028504815181106138ac57fe5b016020015160f81c816138bb57fe5b066138e3565b60108260028504815181106138d257fe5b016020015160f81c816138e157fe5b045b60f81b9392505050565b6000806138fd836020015161374e565b8351909150811461393f5760405162461bcd60e51b815260040180806020018281038252602e815260200180614258602e913960400191505060405180910390fd5b825160211461397f5760405162461bcd60e51b8152600401808060200182810382526025815260200180613f536025913960400191505060405180910390fd5b5050602001516001015190565b600080606061399a86612b2c565b90506060815167ffffffffffffffff811180156139b657600080fd5b506040519080825280601f01601f1916602001820160405280156139e1576020820181803683370190505b509050845b82518601811015613a3b5760008782815181106139ff57fe5b602001015160f81c60f81b9050808388840381518110613a1b57fe5b60200101906001600160f81b031916908160001a905350506001016139e6565b50808051906020012082805190602001201415613a5b5781519250613a60565b600092505b509095945050505050565b60006118c883836040518060400160405280601e81526020017f536166654d6174683a207375627472616374696f6e206f766572666c6f770000815250613d93565b60006020825181613aba57fe5b0615613b04576040805162461bcd60e51b8152602060048201526014602482015273092dcecc2d8d2c840e0e4dedecc40d8cadccee8d60631b604482015290519081900360640190fd5b60006020835181613b1157fe5b0490508060020a8510613b63576040805162461bcd60e51b81526020600482015260156024820152744c65616620696e64657820697320746f6f2062696760581b604482015290519081900360640190fd5b60008660205b85518111613bf55785810151925060028806613bb55781836040516020018083815260200182815260200192505050604051602081830303815290604052805190602001209150613be7565b828260405160200180838152602001828152602001925050506040516020818303038152906040528051906020012091505b600288049750602001613b69565b509094149695505050505050565b81546000908210613c455760405162461bcd60e51b8152600401808060200182810382526022815260200180613f316022913960400191505060405180910390fd5b826000018281548110613c5457fe5b9060005260206000200154905092915050565b60009081526001919091016020526040902054151590565b5490565b6000613c8f8383613c67565b613cc5575081546001818101845560008481526020808220909301849055845484825282860190935260409020919091556118cb565b5060006118cb565b60008181526001830160205260408120548015613d895783546000198083019190810190600090879083908110613d0057fe5b9060005260206000200154905080876000018481548110613d1d57fe5b600091825260208083209091019290925582815260018981019092526040902090840190558654879080613d4d57fe5b600190038181906000526020600020016000905590558660010160008781526020019081526020016000206000905560019450505050506118cb565b60009150506118cb565b60008184841115613e225760405162461bcd60e51b81526004018080602001828103825283818151815260200191508051906020019080838360005b83811015613de7578181015183820152602001613dcf565b50505050905090810190601f168015613e145780820380516001836020036101000a031916815260200191505b509250505060405180910390fd5b505050900390565b60405180606001604052806000815260200160006001600160a01b03168152602001606081525090565b604051806040016040528060008152602001600081525090565b828054600181600116156101000203166002900490600052602060002090601f016020900481019282601f10613eaf57805160ff1916838001178555613edc565b82800160010185558215613edc579182015b82811115613edc578251825591602001919060010190613ec1565b50613ee8929150613eec565b5090565b610a6591905b80821115613ee85760008155600101613ef256fe526f6f74436861696e4d616e616765723a20544f4b454e5f545950455f4e4f545f535550504f52544544456e756d657261626c655365743a20696e646578206f7574206f6620626f756e6473524c505265616465723a20494e56414c49445f55494e545f5354524943545f4c454e475448416363657373436f6e74726f6c3a2073656e646572206d75737420626520616e2061646d696e20746f206772616e74526f6f74436861696e4d616e616765723a20494e56414c49445f4348494c445f434841494e5f414444524553534d6574615472616e73616374696f6e2875696e74323536206e6f6e63652c616464726573732066726f6d2c62797465732066756e6374696f6e5369676e617475726529526f6f74436861696e4d616e616765723a20494e56414c49445f544f4b454e5f54595045454950373132446f6d61696e28737472696e67206e616d652c737472696e672076657273696f6e2c6164647265737320766572696679696e67436f6e74726163742c627974657333322073616c7429526f6f74436861696e4d616e616765723a20494e56414c49445f4252414e43485f4d41534b526f6f74436861696e4d616e616765723a20544f4b454e5f4e4f545f4d4150504544524c505265616465723a2042595445535f4445434f4445445f4c454e4754485f4d49534d41544348416363657373436f6e74726f6c3a2073656e646572206d75737420626520616e2061646d696e20746f207265766f6b654e61746976654d6574615472616e73616374696f6e3a20494e56414c49445f5349474e4552524c505265616465723a204e554d5f4954454d535f4445434f4445445f4c454e4754485f4d49534d41544348524c505265616465723a204445434f44494e475f4c4953545f41535f41444452455353526f6f74436861696e4d616e616765723a2045544845525f5452414e534645525f4641494c45445369676e657220616e64207369676e617475726520646f206e6f74206d61746368526f6f74436861696e4d616e616765723a20494e56414c49445f524f4f545f544f4b454e526f6f74436861696e4d616e616765723a20455849545f414c52454144595f50524f434553534544524c505265616465723a204c4953545f4445434f4445445f4c454e4754485f4d49534d41544348524c505265616465723a2055494e545f5354524943545f4445434f4445445f4c454e4754485f4d49534d41544348416363657373436f6e74726f6c3a2063616e206f6e6c792072656e6f756e636520726f6c657320666f722073656c66524c505265616465723a2055494e545f4445434f4445445f4c454e4754485f4d49534d41544348524c505265616465723a20494e56414c49445f414444524553535f4c454e475448a2646970667358221220703c1ece86707e87c9338db7a38a40659e24f94775b771fdf8a393ea1ac6f99f64736f6c63430006060033",
  "immutableReferences": {},
  "source": "pragma solidity 0.6.6;\n\nimport {SafeMath} from \"@openzeppelin/contracts/math/SafeMath.sol\";\nimport {IRootChainManager} from \"./IRootChainManager.sol\";\nimport {RootChainManagerStorage} from \"./RootChainManagerStorage.sol\";\nimport {IStateSender} from \"../StateSender/IStateSender.sol\";\nimport {ICheckpointManager} from \"../ICheckpointManager.sol\";\nimport {RLPReader} from \"../../lib/RLPReader.sol\";\nimport {MerklePatriciaProof} from \"../../lib/MerklePatriciaProof.sol\";\nimport {Merkle} from \"../../lib/Merkle.sol\";\nimport {ITokenPredicate} from \"../TokenPredicates/ITokenPredicate.sol\";\nimport {Initializable} from \"../../common/Initializable.sol\";\nimport {NativeMetaTransaction} from \"../../common/NativeMetaTransaction.sol\";\nimport {AccessControl} from \"@openzeppelin/contracts/access/AccessControl.sol\";\nimport {AccessControlMixin} from \"../../common/AccessControlMixin.sol\";\nimport {ContextMixin} from \"../../common/ContextMixin.sol\";\n\ncontract RootChainManager is\n    IRootChainManager,\n    Initializable,\n    AccessControl, // included to match old storage layout while upgrading\n    RootChainManagerStorage, // created to match old storage layout while upgrading\n    AccessControlMixin,\n    NativeMetaTransaction,\n    ContextMixin\n{\n    using RLPReader for bytes;\n    using RLPReader for RLPReader.RLPItem;\n    using Merkle for bytes32;\n    using SafeMath for uint256;\n\n    // maybe DEPOSIT and MAP_TOKEN can be reduced to bytes4\n    bytes32 public constant DEPOSIT = keccak256(\"DEPOSIT\");\n    bytes32 public constant MAP_TOKEN = keccak256(\"MAP_TOKEN\");\n    address public constant ETHER_ADDRESS = 0xEeeeeEeeeEeEeeEeEeEeeEEEeeeeEeeeeeeeEEeE;\n    bytes32 public constant MAPPER_ROLE = keccak256(\"MAPPER_ROLE\");\n\n    function _msgSender()\n        internal\n        override\n        view\n        returns (address payable sender)\n    {\n        return ContextMixin.msgSender();\n    }\n\n    /**\n     * @notice Deposit ether by directly sending to the contract\n     * The account sending ether receives WETH on child chain\n     */\n    receive() external payable {\n        _depositEtherFor(_msgSender());\n    }\n\n    /**\n     * @notice Initialize the contract after it has been proxified\n     * @dev meant to be called once immediately after deployment\n     * @param _owner the account that should be granted admin role\n     */\n    function initialize(\n        address _owner\n    )\n        external\n        initializer\n    {\n        _initializeEIP712(\"RootChainManager\");\n        _setupContractId(\"RootChainManager\");\n        _setupRole(DEFAULT_ADMIN_ROLE, _owner);\n        _setupRole(MAPPER_ROLE, _owner);\n    }\n\n    // adding seperate function setupContractId since initialize is already called with old implementation\n    function setupContractId()\n        external\n        only(DEFAULT_ADMIN_ROLE)\n    {\n        _setupContractId(\"RootChainManager\");\n    }\n\n    // adding seperate function initializeEIP712 since initialize is already called with old implementation\n    function initializeEIP712()\n        external\n        only(DEFAULT_ADMIN_ROLE)\n    {\n        _setDomainSeperator(\"RootChainManager\");\n    }\n\n    /**\n     * @notice Set the state sender, callable only by admins\n     * @dev This should be the state sender from plasma contracts\n     * It is used to send bytes from root to child chain\n     * @param newStateSender address of state sender contract\n     */\n    function setStateSender(address newStateSender)\n        external\n        only(DEFAULT_ADMIN_ROLE)\n    {\n        _stateSender = IStateSender(newStateSender);\n    }\n\n    /**\n     * @notice Get the address of contract set as state sender\n     * @return The address of state sender contract\n     */\n    function stateSenderAddress() external view returns (address) {\n        return address(_stateSender);\n    }\n\n    /**\n     * @notice Set the checkpoint manager, callable only by admins\n     * @dev This should be the plasma contract responsible for keeping track of checkpoints\n     * @param newCheckpointManager address of checkpoint manager contract\n     */\n    function setCheckpointManager(address newCheckpointManager)\n        external\n        only(DEFAULT_ADMIN_ROLE)\n    {\n        _checkpointManager = ICheckpointManager(newCheckpointManager);\n    }\n\n    /**\n     * @notice Get the address of contract set as checkpoint manager\n     * @return The address of checkpoint manager contract\n     */\n    function checkpointManagerAddress() external view returns (address) {\n        return address(_checkpointManager);\n    }\n\n    /**\n     * @notice Set the child chain manager, callable only by admins\n     * @dev This should be the contract responsible to receive deposit bytes on child chain\n     * @param newChildChainManager address of child chain manager contract\n     */\n    function setChildChainManagerAddress(address newChildChainManager)\n        external\n        only(DEFAULT_ADMIN_ROLE)\n    {\n        require(newChildChainManager != address(0x0), \"RootChainManager: INVALID_CHILD_CHAIN_ADDRESS\");\n        childChainManagerAddress = newChildChainManager;\n    }\n\n    /**\n     * @notice Register a token predicate address against its type, callable only by mappers\n     * @dev A predicate is a contract responsible to process the token specific logic while locking or exiting tokens\n     * @param tokenType bytes32 unique identifier for the token type\n     * @param predicateAddress address of token predicate address\n     */\n    function registerPredicate(bytes32 tokenType, address predicateAddress)\n        external\n        override\n        only(MAPPER_ROLE)\n    {\n        typeToPredicate[tokenType] = predicateAddress;\n        emit PredicateRegistered(tokenType, predicateAddress);\n    }\n\n    /**\n     * @notice Map a token to enable its movement via the PoS Portal, callable only by mappers\n     * @param rootToken address of token on root chain\n     * @param childToken address of token on child chain\n     * @param tokenType bytes32 unique identifier for the token type\n     */\n    function mapToken(\n        address rootToken,\n        address childToken,\n        bytes32 tokenType\n    ) external override only(MAPPER_ROLE) {\n        // explicit check if token is already mapped to avoid accidental remaps\n        require(\n            rootToChildToken[rootToken] == address(0) &&\n            childToRootToken[childToken] == address(0),\n            \"RootChainManager: ALREADY_MAPPED\"\n        );\n        _mapToken(rootToken, childToken, tokenType);\n    }\n\n    /**\n     * @notice Clean polluted token mapping\n     * @param rootToken address of token on root chain. Since rename token was introduced later stage, \n     * clean method is used to clean pollulated mapping\n     */\n    function cleanMapToken(\n        address rootToken,\n        address childToken\n    ) external override only(MAPPER_ROLE) {\n        rootToChildToken[rootToken] = address(0);\n        childToRootToken[childToken] = address(0);\n        tokenToType[rootToken] = bytes32(0);\n\n        emit TokenMapped(rootToken, childToken, tokenToType[rootToken]);\n    }\n\n    /**\n     * @notice Remap a token that has already been mapped, properly cleans up old mapping\n     * Callable only by mappers\n     * @param rootToken address of token on root chain\n     * @param childToken address of token on child chain\n     * @param tokenType bytes32 unique identifier for the token type\n     */\n    function remapToken(\n        address rootToken,\n        address childToken,\n        bytes32 tokenType\n    ) external override only(MAPPER_ROLE) {\n        // cleanup old mapping\n        address oldChildToken = rootToChildToken[rootToken];\n        address oldRootToken = childToRootToken[childToken];\n\n        if (rootToChildToken[oldRootToken] != address(0)) {\n            rootToChildToken[oldRootToken] = address(0);\n            tokenToType[oldRootToken] = bytes32(0);\n        }\n\n        if (childToRootToken[oldChildToken] != address(0)) {\n            childToRootToken[oldChildToken] = address(0);\n        }\n\n        _mapToken(rootToken, childToken, tokenType);\n    }\n\n    function _mapToken(\n        address rootToken,\n        address childToken,\n        bytes32 tokenType\n    ) private {\n        require(\n            typeToPredicate[tokenType] != address(0x0),\n            \"RootChainManager: TOKEN_TYPE_NOT_SUPPORTED\"\n        );\n\n        rootToChildToken[rootToken] = childToken;\n        childToRootToken[childToken] = rootToken;\n        tokenToType[rootToken] = tokenType;\n\n        emit TokenMapped(rootToken, childToken, tokenType);\n\n        bytes memory syncData = abi.encode(rootToken, childToken, tokenType);\n        _stateSender.syncState(\n            childChainManagerAddress,\n            abi.encode(MAP_TOKEN, syncData)\n        );\n    }\n\n    /**\n     * @notice Move ether from root to child chain, accepts ether transfer\n     * Keep in mind this ether cannot be used to pay gas on child chain\n     * Use Matic tokens deposited using plasma mechanism for that\n     * @param user address of account that should receive WETH on child chain\n     */\n    function depositEtherFor(address user) external override payable {\n        _depositEtherFor(user);\n    }\n\n    /**\n     * @notice Move tokens from root to child chain\n     * @dev This mechanism supports arbitrary tokens as long as its predicate has been registered and the token is mapped\n     * @param user address of account that should receive this deposit on child chain\n     * @param rootToken address of token that is being deposited\n     * @param depositData bytes data that is sent to predicate and child token contracts to handle deposit\n     */\n    function depositFor(\n        address user,\n        address rootToken,\n        bytes calldata depositData\n    ) external override {\n        require(\n            rootToken != ETHER_ADDRESS,\n            \"RootChainManager: INVALID_ROOT_TOKEN\"\n        );\n        _depositFor(user, rootToken, depositData);\n    }\n\n    function _depositEtherFor(address user) private {\n        bytes memory depositData = abi.encode(msg.value);\n        _depositFor(user, ETHER_ADDRESS, depositData);\n\n        // payable(typeToPredicate[tokenToType[ETHER_ADDRESS]]).transfer(msg.value);\n        // transfer doesn't work as expected when receiving contract is proxified so using call\n        (bool success, /* bytes memory data */) = typeToPredicate[tokenToType[ETHER_ADDRESS]].call{value: msg.value}(\"\");\n        if (!success) {\n            revert(\"RootChainManager: ETHER_TRANSFER_FAILED\");\n        }\n    }\n\n    function _depositFor(\n        address user,\n        address rootToken,\n        bytes memory depositData\n    ) private {\n        bytes32 tokenType = tokenToType[rootToken];\n        require(\n            rootToChildToken[rootToken] != address(0x0) &&\n               tokenType != 0,\n            \"RootChainManager: TOKEN_NOT_MAPPED\"\n        );\n        address predicateAddress = typeToPredicate[tokenType];\n        require(\n            predicateAddress != address(0),\n            \"RootChainManager: INVALID_TOKEN_TYPE\"\n        );\n        require(\n            user != address(0),\n            \"RootChainManager: INVALID_USER\"\n        );\n\n        ITokenPredicate(predicateAddress).lockTokens(\n            _msgSender(),\n            user,\n            rootToken,\n            depositData\n        );\n        bytes memory syncData = abi.encode(user, rootToken, depositData);\n        _stateSender.syncState(\n            childChainManagerAddress,\n            abi.encode(DEPOSIT, syncData)\n        );\n    }\n\n    /**\n     * @notice exit tokens by providing proof\n     * @dev This function verifies if the transaction actually happened on child chain\n     * the transaction log is then sent to token predicate to handle it accordingly\n     *\n     * @param inputData RLP encoded data of the reference tx containing following list of fields\n     *  0 - headerNumber - Checkpoint header block number containing the reference tx\n     *  1 - blockProof - Proof that the block header (in the child chain) is a leaf in the submitted merkle root\n     *  2 - blockNumber - Block number containing the reference tx on child chain\n     *  3 - blockTime - Reference tx block time\n     *  4 - txRoot - Transactions root of block\n     *  5 - receiptRoot - Receipts root of block\n     *  6 - receipt - Receipt of the reference transaction\n     *  7 - receiptProof - Merkle proof of the reference receipt\n     *  8 - branchMask - 32 bits denoting the path of receipt in merkle tree\n     *  9 - receiptLogIndex - Log Index to read from the receipt\n     */\n    function exit(bytes calldata inputData) external override {\n        RLPReader.RLPItem[] memory inputDataRLPList = inputData\n            .toRlpItem()\n            .toList();\n\n        // checking if exit has already been processed\n        // unique exit is identified using hash of (blockNumber, branchMask, receiptLogIndex)\n        bytes32 exitHash = keccak256(\n            abi.encodePacked(\n                inputDataRLPList[2].toUint(), // blockNumber\n                // first 2 nibbles are dropped while generating nibble array\n                // this allows branch masks that are valid but bypass exitHash check (changing first 2 nibbles only)\n                // so converting to nibble array and then hashing it\n                MerklePatriciaProof._getNibbleArray(inputDataRLPList[8].toBytes()), // branchMask\n                inputDataRLPList[9].toUint() // receiptLogIndex\n            )\n        );\n        require(\n            processedExits[exitHash] == false,\n            \"RootChainManager: EXIT_ALREADY_PROCESSED\"\n        );\n        processedExits[exitHash] = true;\n\n        RLPReader.RLPItem[] memory receiptRLPList = inputDataRLPList[6]\n            .toBytes()\n            .toRlpItem()\n            .toList();\n        RLPReader.RLPItem memory logRLP = receiptRLPList[3]\n            .toList()[\n                inputDataRLPList[9].toUint() // receiptLogIndex\n            ];\n\n        address childToken = RLPReader.toAddress(logRLP.toList()[0]); // log emitter address field\n        // log should be emmited only by the child token\n        address rootToken = childToRootToken[childToken];\n        require(\n            rootToken != address(0),\n            \"RootChainManager: TOKEN_NOT_MAPPED\"\n        );\n\n        address predicateAddress = typeToPredicate[\n            tokenToType[rootToken]\n        ];\n\n        // branch mask can be maximum 32 bits\n        require(\n            inputDataRLPList[8].toUint() &\n                0xFFFFFFFFFFFFFFFFFFFFFFFFFFFFFFFFFFFFFFFFFFFFFFFFFFFFFFFF00000000 ==\n                0,\n            \"RootChainManager: INVALID_BRANCH_MASK\"\n        );\n\n        // verify receipt inclusion\n        require(\n            MerklePatriciaProof.verify(\n                inputDataRLPList[6].toBytes(), // receipt\n                inputDataRLPList[8].toBytes(), // branchMask\n                inputDataRLPList[7].toBytes(), // receiptProof\n                bytes32(inputDataRLPList[5].toUint()) // receiptRoot\n            ),\n            \"RootChainManager: INVALID_PROOF\"\n        );\n\n        // verify checkpoint inclusion\n        _checkBlockMembershipInCheckpoint(\n            inputDataRLPList[2].toUint(), // blockNumber\n            inputDataRLPList[3].toUint(), // blockTime\n            bytes32(inputDataRLPList[4].toUint()), // txRoot\n            bytes32(inputDataRLPList[5].toUint()), // receiptRoot\n            inputDataRLPList[0].toUint(), // headerNumber\n            inputDataRLPList[1].toBytes() // blockProof\n        );\n\n        ITokenPredicate(predicateAddress).exitTokens(\n            _msgSender(),\n            rootToken,\n            logRLP.toRlpBytes()\n        );\n    }\n\n    function _checkBlockMembershipInCheckpoint(\n        uint256 blockNumber,\n        uint256 blockTime,\n        bytes32 txRoot,\n        bytes32 receiptRoot,\n        uint256 headerNumber,\n        bytes memory blockProof\n    ) private view returns (uint256) {\n        (\n            bytes32 headerRoot,\n            uint256 startBlock,\n            ,\n            uint256 createdAt,\n\n        ) = _checkpointManager.headerBlocks(headerNumber);\n\n        require(\n            keccak256(\n                abi.encodePacked(blockNumber, blockTime, txRoot, receiptRoot)\n            )\n                .checkMembership(\n                blockNumber.sub(startBlock),\n                headerRoot,\n                blockProof\n            ),\n            \"RootChainManager: INVALID_HEADER\"\n        );\n        return createdAt;\n    }\n}\n",
  "sourcePath": "/Users/abhimanyushekhawat/projects/matic-contracts/contracts/root/RootChainManager/RootChainManager.sol",
  "compiler": {
    "name": "solc",
    "version": "0.6.6+commit.6c089d02.Emscripten.clang"
  },
  "schemaVersion": "3.3.4",
  "updatedAt": "2021-03-01T19:59:54.796Z",
  "devdoc": {
    "methods": {
      "cleanMapToken(address,address)": {
        "params": {
          "rootToken": "address of token on root chain. Since rename token was introduced later stage,  clean method is used to clean pollulated mapping"
        }
      },
      "depositEtherFor(address)": {
        "params": {
          "user": "address of account that should receive WETH on child chain"
        }
      },
      "depositFor(address,address,bytes)": {
        "details": "This mechanism supports arbitrary tokens as long as its predicate has been registered and the token is mapped",
        "params": {
          "depositData": "bytes data that is sent to predicate and child token contracts to handle deposit",
          "rootToken": "address of token that is being deposited",
          "user": "address of account that should receive this deposit on child chain"
        }
      },
      "exit(bytes)": {
        "details": "This function verifies if the transaction actually happened on child chain the transaction log is then sent to token predicate to handle it accordingly",
        "params": {
          "inputData": "RLP encoded data of the reference tx containing following list of fields 0 - headerNumber - Checkpoint header block number containing the reference tx 1 - blockProof - Proof that the block header (in the child chain) is a leaf in the submitted merkle root 2 - blockNumber - Block number containing the reference tx on child chain 3 - blockTime - Reference tx block time 4 - txRoot - Transactions root of block 5 - receiptRoot - Receipts root of block 6 - receipt - Receipt of the reference transaction 7 - receiptProof - Merkle proof of the reference receipt 8 - branchMask - 32 bits denoting the path of receipt in merkle tree 9 - receiptLogIndex - Log Index to read from the receipt"
        }
      },
      "getRoleAdmin(bytes32)": {
        "details": "Returns the admin role that controls `role`. See {grantRole} and {revokeRole}.     * To change a role's admin, use {_setRoleAdmin}."
      },
      "getRoleMember(bytes32,uint256)": {
        "details": "Returns one of the accounts that have `role`. `index` must be a value between 0 and {getRoleMemberCount}, non-inclusive.     * Role bearers are not sorted in any particular way, and their ordering may change at any point.     * WARNING: When using {getRoleMember} and {getRoleMemberCount}, make sure you perform all queries on the same block. See the following https://forum.openzeppelin.com/t/iterating-over-elements-on-enumerableset-in-openzeppelin-contracts/2296[forum post] for more information."
      },
      "getRoleMemberCount(bytes32)": {
        "details": "Returns the number of accounts that have `role`. Can be used together with {getRoleMember} to enumerate all bearers of a role."
      },
      "grantRole(bytes32,address)": {
        "details": "Grants `role` to `account`.     * If `account` had not been already granted `role`, emits a {RoleGranted} event.     * Requirements:     * - the caller must have ``role``'s admin role."
      },
      "hasRole(bytes32,address)": {
        "details": "Returns `true` if `account` has been granted `role`."
      },
      "initialize(address)": {
        "details": "meant to be called once immediately after deployment",
        "params": {
          "_owner": "the account that should be granted admin role"
        }
      },
      "mapToken(address,address,bytes32)": {
        "params": {
          "childToken": "address of token on child chain",
          "rootToken": "address of token on root chain",
          "tokenType": "bytes32 unique identifier for the token type"
        }
      },
      "registerPredicate(bytes32,address)": {
        "details": "A predicate is a contract responsible to process the token specific logic while locking or exiting tokens",
        "params": {
          "predicateAddress": "address of token predicate address",
          "tokenType": "bytes32 unique identifier for the token type"
        }
      },
      "remapToken(address,address,bytes32)": {
        "params": {
          "childToken": "address of token on child chain",
          "rootToken": "address of token on root chain",
          "tokenType": "bytes32 unique identifier for the token type"
        }
      },
      "renounceRole(bytes32,address)": {
        "details": "Revokes `role` from the calling account.     * Roles are often managed via {grantRole} and {revokeRole}: this function's purpose is to provide a mechanism for accounts to lose their privileges if they are compromised (such as when a trusted device is misplaced).     * If the calling account had been granted `role`, emits a {RoleRevoked} event.     * Requirements:     * - the caller must be `account`."
      },
      "revokeRole(bytes32,address)": {
        "details": "Revokes `role` from `account`.     * If `account` had been granted `role`, emits a {RoleRevoked} event.     * Requirements:     * - the caller must have ``role``'s admin role."
      },
      "setCheckpointManager(address)": {
        "details": "This should be the plasma contract responsible for keeping track of checkpoints",
        "params": {
          "newCheckpointManager": "address of checkpoint manager contract"
        }
      },
      "setChildChainManagerAddress(address)": {
        "details": "This should be the contract responsible to receive deposit bytes on child chain",
        "params": {
          "newChildChainManager": "address of child chain manager contract"
        }
      },
      "setStateSender(address)": {
        "details": "This should be the state sender from plasma contracts It is used to send bytes from root to child chain",
        "params": {
          "newStateSender": "address of state sender contract"
        }
      }
    }
  },
  "userdoc": {
    "methods": {
      "checkpointManagerAddress()": {
        "notice": "Get the address of contract set as checkpoint manager"
      },
      "cleanMapToken(address,address)": {
        "notice": "Clean polluted token mapping"
      },
      "depositEtherFor(address)": {
        "notice": "Move ether from root to child chain, accepts ether transfer Keep in mind this ether cannot be used to pay gas on child chain Use Matic tokens deposited using plasma mechanism for that"
      },
      "depositFor(address,address,bytes)": {
        "notice": "Move tokens from root to child chain"
      },
      "exit(bytes)": {
        "notice": "exit tokens by providing proof"
      },
      "initialize(address)": {
        "notice": "Initialize the contract after it has been proxified"
      },
      "mapToken(address,address,bytes32)": {
        "notice": "Map a token to enable its movement via the PoS Portal, callable only by mappers"
      },
      "registerPredicate(bytes32,address)": {
        "notice": "Register a token predicate address against its type, callable only by mappers"
      },
      "remapToken(address,address,bytes32)": {
        "notice": "Remap a token that has already been mapped, properly cleans up old mapping Callable only by mappers"
      },
      "setCheckpointManager(address)": {
        "notice": "Set the checkpoint manager, callable only by admins"
      },
      "setChildChainManagerAddress(address)": {
        "notice": "Set the child chain manager, callable only by admins"
      },
      "setStateSender(address)": {
        "notice": "Set the state sender, callable only by admins"
      },
      "stateSenderAddress()": {
        "notice": "Get the address of contract set as state sender"
      }
    }
  }
}