{
  "contractName": "RootTunnel",
  "abi": [
    {
      "anonymous": false,
      "inputs": [
        {
          "indexed": true,
          "internalType": "bytes32",
          "name": "role",
          "type": "bytes32"
        },
        {
          "indexed": true,
          "internalType": "bytes32",
          "name": "previousAdminRole",
          "type": "bytes32"
        },
        {
          "indexed": true,
          "internalType": "bytes32",
          "name": "newAdminRole",
          "type": "bytes32"
        }
      ],
      "name": "RoleAdminChanged",
      "type": "event"
    },
    {
      "anonymous": false,
      "inputs": [
        {
          "indexed": true,
          "internalType": "bytes32",
          "name": "role",
          "type": "bytes32"
        },
        {
          "indexed": true,
          "internalType": "address",
          "name": "account",
          "type": "address"
        },
        {
          "indexed": true,
          "internalType": "address",
          "name": "sender",
          "type": "address"
        }
      ],
      "name": "RoleGranted",
      "type": "event"
    },
    {
      "anonymous": false,
      "inputs": [
        {
          "indexed": true,
          "internalType": "bytes32",
          "name": "role",
          "type": "bytes32"
        },
        {
          "indexed": true,
          "internalType": "address",
          "name": "account",
          "type": "address"
        },
        {
          "indexed": true,
          "internalType": "address",
          "name": "sender",
          "type": "address"
        }
      ],
      "name": "RoleRevoked",
      "type": "event"
    },
    {
      "inputs": [],
      "name": "DEFAULT_ADMIN_ROLE",
      "outputs": [
        {
          "internalType": "bytes32",
          "name": "",
          "type": "bytes32"
        }
      ],
      "stateMutability": "view",
      "type": "function"
    },
    {
      "inputs": [],
      "name": "SEND_MESSAGE_EVENT_SIG",
      "outputs": [
        {
          "internalType": "bytes32",
          "name": "",
          "type": "bytes32"
        }
      ],
      "stateMutability": "view",
      "type": "function"
    },
    {
      "inputs": [],
      "name": "checkpointManager",
      "outputs": [
        {
          "internalType": "contract ICheckpointManager",
          "name": "",
          "type": "address"
        }
      ],
      "stateMutability": "view",
      "type": "function"
    },
    {
      "inputs": [],
      "name": "childTunnel",
      "outputs": [
        {
          "internalType": "address",
          "name": "",
          "type": "address"
        }
      ],
      "stateMutability": "view",
      "type": "function"
    },
    {
      "inputs": [
        {
          "internalType": "bytes32",
          "name": "role",
          "type": "bytes32"
        }
      ],
      "name": "getRoleAdmin",
      "outputs": [
        {
          "internalType": "bytes32",
          "name": "",
          "type": "bytes32"
        }
      ],
      "stateMutability": "view",
      "type": "function"
    },
    {
      "inputs": [
        {
          "internalType": "bytes32",
          "name": "role",
          "type": "bytes32"
        },
        {
          "internalType": "uint256",
          "name": "index",
          "type": "uint256"
        }
      ],
      "name": "getRoleMember",
      "outputs": [
        {
          "internalType": "address",
          "name": "",
          "type": "address"
        }
      ],
      "stateMutability": "view",
      "type": "function"
    },
    {
      "inputs": [
        {
          "internalType": "bytes32",
          "name": "role",
          "type": "bytes32"
        }
      ],
      "name": "getRoleMemberCount",
      "outputs": [
        {
          "internalType": "uint256",
          "name": "",
          "type": "uint256"
        }
      ],
      "stateMutability": "view",
      "type": "function"
    },
    {
      "inputs": [
        {
          "internalType": "bytes32",
          "name": "role",
          "type": "bytes32"
        },
        {
          "internalType": "address",
          "name": "account",
          "type": "address"
        }
      ],
      "name": "grantRole",
      "outputs": [],
      "stateMutability": "nonpayable",
      "type": "function"
    },
    {
      "inputs": [
        {
          "internalType": "bytes32",
          "name": "role",
          "type": "bytes32"
        },
        {
          "internalType": "address",
          "name": "account",
          "type": "address"
        }
      ],
      "name": "hasRole",
      "outputs": [
        {
          "internalType": "bool",
          "name": "",
          "type": "bool"
        }
      ],
      "stateMutability": "view",
      "type": "function"
    },
    {
      "inputs": [
        {
          "internalType": "bytes32",
          "name": "",
          "type": "bytes32"
        }
      ],
      "name": "processedExits",
      "outputs": [
        {
          "internalType": "bool",
          "name": "",
          "type": "bool"
        }
      ],
      "stateMutability": "view",
      "type": "function"
    },
    {
      "inputs": [
        {
          "internalType": "bytes",
          "name": "inputData",
          "type": "bytes"
        }
      ],
      "name": "receiveMessage",
      "outputs": [],
      "stateMutability": "nonpayable",
      "type": "function"
    },
    {
      "inputs": [
        {
          "internalType": "bytes32",
          "name": "role",
          "type": "bytes32"
        },
        {
          "internalType": "address",
          "name": "account",
          "type": "address"
        }
      ],
      "name": "renounceRole",
      "outputs": [],
      "stateMutability": "nonpayable",
      "type": "function"
    },
    {
      "inputs": [
        {
          "internalType": "bytes32",
          "name": "role",
          "type": "bytes32"
        },
        {
          "internalType": "address",
          "name": "account",
          "type": "address"
        }
      ],
      "name": "revokeRole",
      "outputs": [],
      "stateMutability": "nonpayable",
      "type": "function"
    },
    {
      "inputs": [
        {
          "internalType": "address",
          "name": "newCheckpointManager",
          "type": "address"
        }
      ],
      "name": "setCheckpointManager",
      "outputs": [],
      "stateMutability": "nonpayable",
      "type": "function"
    },
    {
      "inputs": [
        {
          "internalType": "address",
          "name": "newChildTunnel",
          "type": "address"
        }
      ],
      "name": "setChildTunnel",
      "outputs": [],
      "stateMutability": "nonpayable",
      "type": "function"
    },
    {
      "inputs": [
        {
          "internalType": "address",
          "name": "newStateSender",
          "type": "address"
        }
      ],
      "name": "setStateSender",
      "outputs": [],
      "stateMutability": "nonpayable",
      "type": "function"
    },
    {
      "inputs": [],
      "name": "stateSender",
      "outputs": [
        {
          "internalType": "contract IStateSender",
          "name": "",
          "type": "address"
        }
      ],
      "stateMutability": "view",
      "type": "function"
    }
  ],
  "bytecode": "0x60806040526200001a6000336001600160e01b036200005516565b60408051808201909152600a815269149bdbdd151d5b9b995b60b21b60208201526200004f906001600160e01b036200006e16565b620002d2565b6200006a82826001600160e01b036200011016565b5050565b806040516020018082805190602001908083835b60208310620000a35780518252601f19909201916020918201910162000082565b51815160209384036101000a60001901801990921691161790527f3a20494e53554646494349454e545f5045524d495353494f4e530000000000009190930190815260408051808303600519018152601a909201905280516200006a955060019450920191905062000230565b6000828152602081815260409091206200013591839062000de862000192821b17901c565b156200006a576200014e6001600160e01b03620001bb16565b6001600160a01b0316816001600160a01b0316837f2f8788117e7eff1d82e926ec794901d17c78024a50270940304540a733656f0d60405160405180910390a45050565b6000620001b2836001600160a01b0384166001600160e01b03620001c016565b90505b92915050565b335b90565b6000620001d783836001600160e01b036200021816565b6200020f57508154600181810184556000848152602080822090930184905584548482528286019093526040902091909155620001b5565b506000620001b5565b60009081526001919091016020526040902054151590565b828054600181600116156101000203166002900490600052602060002090601f016020900481019282601f106200027357805160ff1916838001178555620002a3565b82800160010185558215620002a3579182015b82811115620002a357825182559160200191906001019062000286565b50620002b1929150620002b5565b5090565b620001bd91905b80821115620002b15760008155600101620002bc565b61225880620002e26000396000f3fe608060405234801561001057600080fd5b506004361061010b5760003560e01c806391d14854116100a2578063ca02b26711610071578063ca02b267146102a1578063ca15c873146102c7578063cb10f94c146102e4578063d547741f146102ec578063f953cec7146103185761010b565b806391d148541461023f578063a217fddf1461026b578063bc08452b14610273578063c0857ba0146102995761010b565b8063607f2d42116100de578063607f2d42146101a15780636cb136b0146101d25780636d6aa34d146101f85780639010d07c1461021c5761010b565b80630e387de614610110578063248a9ca31461012a5780632f2ff15d1461014757806336568abe14610175575b600080fd5b6101186103be565b60408051918252519081900360200190f35b6101186004803603602081101561014057600080fd5b50356103e2565b6101736004803603604081101561015d57600080fd5b50803590602001356001600160a01b03166103fa565b005b6101736004803603604081101561018b57600080fd5b50803590602001356001600160a01b0316610466565b6101be600480360360208110156101b757600080fd5b50356104c7565b604080519115158252519081900360200190f35b610173600480360360208110156101e857600080fd5b50356001600160a01b03166104dc565b6102006105ae565b604080516001600160a01b039092168252519081900360200190f35b6102006004803603604081101561023257600080fd5b50803590602001356105bd565b6101be6004803603604081101561025557600080fd5b50803590602001356001600160a01b03166105e4565b610118610602565b6101736004803603602081101561028957600080fd5b50356001600160a01b0316610607565b61020061069f565b610173600480360360208110156102b757600080fd5b50356001600160a01b03166106ae565b610118600480360360208110156102dd57600080fd5b503561078b565b6102006107a2565b6101736004803603604081101561030257600080fd5b50803590602001356001600160a01b03166107b1565b6101736004803603602081101561032e57600080fd5b81019060208101813564010000000081111561034957600080fd5b82018360208201111561035b57600080fd5b8035906020019184600183028401116401000000008311171561037d57600080fd5b91908080601f01602080910402602001604051908101604052809392919081815260200183838082843760009201919091525092955061080a945050505050565b7f8c5261668696ce22758910d05bab8f186d6eb247ceac2af2e82c7dc17669b03681565b6000818152602081905260409020600201545b919050565b60008281526020819052604090206002015461041d90610418610820565b6105e4565b6104585760405162461bcd60e51b815260040180806020018281038252602f815260200180612016602f913960400191505060405180910390fd5b6104628282610824565b5050565b61046e610820565b6001600160a01b0316816001600160a01b0316146104bd5760405162461bcd60e51b815260040180806020018281038252602f815260200180612184602f913960400191505060405180910390fd5b6104628282610893565b60056020526000908152604090205460ff1681565b60006104ea81610418610820565b60019061058a5760405162461bcd60e51b815260206004820190815282546002600019610100600184161502019091160460248301819052909182916044909101908490801561057b5780601f106105505761010080835404028352916020019161057b565b820191906000526020600020905b81548152906001019060200180831161055e57829003601f168201915b50509250505060405180910390fd5b5050600280546001600160a01b0319166001600160a01b0392909216919091179055565b6004546001600160a01b031681565b60008281526020819052604081206105db908363ffffffff61090216565b90505b92915050565b60008281526020819052604081206105db908363ffffffff61090e16565b600081565b600061061581610418610820565b60019061067b5760405162461bcd60e51b815260206004820190815282546002600019610100600184161502019091160460248301819052909182916044909101908490801561057b5780601f106105505761010080835404028352916020019161057b565b5050600380546001600160a01b0319166001600160a01b0392909216919091179055565b6003546001600160a01b031681565b60006106bc81610418610820565b6001906107225760405162461bcd60e51b815260206004820190815282546002600019610100600184161502019091160460248301819052909182916044909101908490801561057b5780601f106105505761010080835404028352916020019161057b565b506001600160a01b0382166107685760405162461bcd60e51b81526004018080602001828103825260288152602001806121fb6028913960400191505060405180910390fd5b50600480546001600160a01b0319166001600160a01b0392909216919091179055565b60008181526020819052604081206105de90610923565b6002546001600160a01b031681565b6000828152602081905260409020600201546107cf90610418610820565b6104bd5760405162461bcd60e51b815260040180806020018281038252603081526020018061206d6030913960400191505060405180910390fd5b60606108158261092e565b905061046281610de5565b3390565b6000828152602081905260409020610842908263ffffffff610de816565b156104625761084f610820565b6001600160a01b0316816001600160a01b0316837f2f8788117e7eff1d82e926ec794901d17c78024a50270940304540a733656f0d60405160405180910390a45050565b60008281526020819052604090206108b1908263ffffffff610dfd16565b15610462576108be610820565b6001600160a01b0316816001600160a01b0316837ff6391f5c32d9c69d2a47ea670b442974b53935d1edc7fd64eb21e047a839171b60405160405180910390a45050565b60006105db8383610e12565b60006105db836001600160a01b038416610e76565b60006105de82610e8e565b60608061094261093d84610e92565b610f0d565b905060006109638260028151811061095657fe5b602002602001015161108f565b6109886109838460088151811061097657fe5b60200260200101516111d7565b6112a1565b6109988460098151811061095657fe5b6040516020018084815260200183805190602001908083835b602083106109d05780518252601f1990920191602091820191016109b1565b51815160209384036101000a6000190180199092169116179052920193845250604080518085038152938201815283519382019390932060008181526005909252929020549194505060ff16159150610a5c90505760405162461bcd60e51b81526004018080602001828103825260228152602001806120ec6022913960400191505060405180910390fd5b6000818152600560205260409020805460ff191660011790558151606090610a989061093d90610a93908690600690811061097657fe5b610e92565b9050610aa2611fb4565b610abf82600381518110610ab257fe5b6020026020010151610f0d565b610acf8560098151811061095657fe5b81518110610ad957fe5b602002602001015190506060610aee82610f0d565b9050610b0d81600081518110610b0057fe5b6020026020010151611414565b6004546001600160a01b03908116911614610b6f576040805162461bcd60e51b815260206004820181905260248201527f526f6f7454756e6e656c3a20494e56414c49445f4348494c445f54554e4e454c604482015290519081900360640190fd5b610bb7610b828660068151811061097657fe5b610b928760088151811061097657fe5b610ba28860078151811061097657fe5b610bb28960058151811061095657fe5b6114a4565b610bf25760405162461bcd60e51b815260040180806020018281038252602181526020018061210e6021913960400191505060405180910390fd5b610c60610c058660028151811061095657fe5b610c158760038151811061095657fe5b610c258860048151811061095657fe5b60001b610c388960058151811061095657fe5b60001b610c4b8a60008151811061095657fe5b610c5b8b60018151811061097657fe5b6116eb565b506060610c7382600181518110610ab257fe5b90507f8c5261668696ce22758910d05bab8f186d6eb247ceac2af2e82c7dc17669b03660001b610ca98260008151811061095657fe5b14610cfb576040805162461bcd60e51b815260206004820152601d60248201527f526f6f7454756e6e656c3a20494e56414c49445f5349474e4154555245000000604482015290519081900360640190fd5b6060610d0d8360028151811061097657fe5b90506060818060200190516020811015610d2657600080fd5b8101908080516040519392919084640100000000821115610d4657600080fd5b908301906020820185811115610d5b57600080fd5b8251640100000000811182820188101715610d7557600080fd5b82525081516020918201929091019080838360005b83811015610da2578181015183820152602001610d8a565b50505050905090810190601f168015610dcf5780820380516001836020036101000a031916815260200191505b5060405250919c9b505050505050505050505050565b50565b60006105db836001600160a01b038416611834565b60006105db836001600160a01b03841661187e565b81546000908210610e545760405162461bcd60e51b8152600401808060200182810382526022815260200180611fcf6022913960400191505060405180910390fd5b826000018281548110610e6357fe5b9060005260206000200154905092915050565b60009081526001919091016020526040902054151590565b5490565b610e9a611fb4565b6000825111610ef0576040805162461bcd60e51b815260206004820152601f60248201527f524c505265616465723a20494e56414c49445f42595445535f4c454e47544800604482015290519081900360640190fd5b506040805180820190915281518152602082810190820152919050565b6060610f1882611944565b610f69576040805162461bcd60e51b815260206004820152601860248201527f524c505265616465723a204954454d5f4e4f545f4c4953540000000000000000604482015290519081900360640190fd5b6000610f7483611970565b905060608167ffffffffffffffff81118015610f8f57600080fd5b50604051908082528060200260200182016040528015610fc957816020015b610fb6611fb4565b815260200190600190039081610fae5790505b5090506000610fdb85602001516119fc565b8551909150811461101d5760405162461bcd60e51b815260040180806020018281038252602781526020018061212f6027913960400191505060405180910390fd5b600061102c8660200151611a95565b60208701510190506000805b8581101561108357611049836119fc565b915060405180604001604052808381526020018481525085828151811061106c57fe5b602090810291909101015291810191600101611038565b50929695505050505050565b600061109a82611944565b156110ec576040805162461bcd60e51b815260206004820181905260248201527f524c505265616465723a204445434f44494e475f4c4953545f41535f55494e54604482015290519081900360640190fd5b815160211015611143576040805162461bcd60e51b815260206004820152601e60248201527f524c505265616465723a20494e56414c49445f55494e545f4c454e4754480000604482015290519081900360640190fd5b600061115283602001516119fc565b835190915081146111945760405162461bcd60e51b81526004018080602001828103825260278152602001806121b36027913960400191505060405180910390fd5b60006111a38460200151611a95565b845160208087015183018051939450918490039291908310156111cd57826020036101000a820491505b5095945050505050565b606060006111e883602001516119fc565b8351909150811461122a5760405162461bcd60e51b81526004018080602001828103825260288152602001806120456028913960400191505060405180910390fd5b60006112398460200151611a95565b845190915081900360608167ffffffffffffffff8111801561125a57600080fd5b506040519080825280601f01601f191660200182016040528015611285576020820181803683370190505b50905060008160200190506111cd848860200151018285611af8565b604080516020810190915260008152815160609190156105de576000806112c9600086611b43565b60f81c905060018114806112e057508060ff166003145b1561136f57600185516002020367ffffffffffffffff8111801561130357600080fd5b506040519080825280601f01601f19166020018201604052801561132e576020820181803683370190505b509250600061133e600187611b43565b9050808460008151811061134e57fe5b60200101906001600160f81b031916908160001a90535060019250506113c0565b600285516002020367ffffffffffffffff8111801561138d57600080fd5b506040519080825280601f01601f1916602001820160405280156113b8576020820181803683370190505b509250600091505b60ff82165b835181101561140b576113e08360ff16820360020187611b43565b8482815181106113ec57fe5b60200101906001600160f81b031916908160001a9053506001016113c5565b50505092915050565b600061141f82611944565b1561145b5760405162461bcd60e51b81526004018080602001828103825260238152602001806120c96023913960400191505060405180910390fd5b815160151461149b5760405162461bcd60e51b81526004018080602001828103825260218152602001806121da6021913960400191505060405180910390fd5b6105de8261108f565b60006114ae611fb4565b6114b784610e92565b905060606114c482610f0d565b9050606080856000826114d68b6112a1565b90508051600014156114f25760009750505050505050506116e3565b60005b86518110156116da578151831115611518576000985050505050505050506116e3565b61153487828151811061152757fe5b6020026020010151611ba0565b955085805190602001208414611555576000985050505050505050506116e3565b611564878281518110610ab257fe5b94508451601114156116215781518314156115c0578c805190602001206115918660108151811061097657fe5b8051906020012014156115af576001985050505050505050506116e3565b6000985050505050505050506116e3565b60008284815181106115ce57fe5b016020015160f81c905060108111156115f357600099505050505050505050506116e3565b611612868260ff168151811061160557fe5b6020026020010151611c07565b945050600192909201916116d2565b8451600214156115af5760006116476116408760008151811061097657fe5b8486611ca6565b90508251818501141561169d578d8051906020012061166c8760018151811061097657fe5b80519060200120141561168b57600199505050505050505050506116e3565b600099505050505050505050506116e3565b806116b457600099505050505050505050506116e3565b80840193506116c98660018151811061160557fe5b94506116d29050565b6001016114f5565b50505050505050505b949350505050565b600354604080516320a9cea560e11b81526004810185905290516000928392839283926001600160a01b0316916341539d4a9160248083019260a0929190829003018186803b15801561173d57600080fd5b505afa158015611751573d6000803e3d6000fd5b505050506040513d60a081101561176757600080fd5b508051602082015160609092015190945090925090506117d66117908b8463ffffffff611d8516565b6040805160208082018f90528183018e9052606082018d905260808083018d90528351808403909101815260a0909201909252805191012090858863ffffffff611dc716565b611827576040805162461bcd60e51b815260206004820152601a60248201527f526f6f7454756e6e656c3a20494e56414c49445f484541444552000000000000604482015290519081900360640190fd5b9998505050505050505050565b60006118408383610e76565b611876575081546001818101845560008481526020808220909301849055845484825282860190935260409020919091556105de565b5060006105de565b6000818152600183016020526040812054801561193a57835460001980830191908101906000908790839081106118b157fe5b90600052602060002001549050808760000184815481106118ce57fe5b6000918252602080832090910192909255828152600189810190925260409020908401905586548790806118fe57fe5b600190038181906000526020600020016000905590558660010160008781526020019081526020016000206000905560019450505050506105de565b60009150506105de565b6020810151805160009190821a9060c0821015611966576000925050506103f5565b5060019392505050565b6000806000905060006119868460200151611a95565b602085015185519181019250015b808210156119f3576119a5826119fc565b82019150808211156119e85760405162461bcd60e51b815260040180806020018281038252602c81526020018061209d602c913960400191505060405180910390fd5b600190920191611994565b50909392505050565b80516000908190811a6080811015611a175760019150611a8e565b60b8811015611a2c57607e1981019150611a8e565b60c0811015611a595760b78103600185019450806020036101000a85510460018201810193505050611a8e565b60f8811015611a6e5760be1981019150611a8e565b60f78103600185019450806020036101000a855104600182018101935050505b5092915050565b8051600090811a6080811015611aaf5760009150506103f5565b60b8811080611aca575060c08110801590611aca575060f881105b15611ad95760019150506103f5565b60c0811015611aed5760b5190190506103f5565b60f5190190506103f5565b80611b0257611b3e565b5b60208110611b22578251825260209283019290910190601f1901611b03565b8251825160208390036101000a60001901801990921691161782525b505050565b60006002830615611b74576010826002850481518110611b5f57fe5b016020015160f81c81611b6e57fe5b06611b96565b6010826002850481518110611b8557fe5b016020015160f81c81611b9457fe5b045b60f81b9392505050565b606080826000015167ffffffffffffffff81118015611bbe57600080fd5b506040519080825280601f01601f191660200182016040528015611be9576020820181803683370190505b5090506000816020019050611a8e8460200151828660000151611af8565b600080611c1783602001516119fc565b83519091508114611c595760405162461bcd60e51b815260040180806020018281038252602e815260200180612156602e913960400191505060405180910390fd5b8251602114611c995760405162461bcd60e51b8152600401808060200182810382526025815260200180611ff16025913960400191505060405180910390fd5b5050602001516001015190565b6000806060611cb4866112a1565b90506060815167ffffffffffffffff81118015611cd057600080fd5b506040519080825280601f01601f191660200182016040528015611cfb576020820181803683370190505b509050845b82518601811015611d55576000878281518110611d1957fe5b602001015160f81c60f81b9050808388840381518110611d3557fe5b60200101906001600160f81b031916908160001a90535050600101611d00565b50808051906020012082805190602001201415611d755781519250611d7a565b600092505b509095945050505050565b60006105db83836040518060400160405280601e81526020017f536166654d6174683a207375627472616374696f6e206f766572666c6f770000815250611f1d565b60006020825181611dd457fe5b0615611e1e576040805162461bcd60e51b8152602060048201526014602482015273092dcecc2d8d2c840e0e4dedecc40d8cadccee8d60631b604482015290519081900360640190fd5b60006020835181611e2b57fe5b0490508060020a8510611e7d576040805162461bcd60e51b81526020600482015260156024820152744c65616620696e64657820697320746f6f2062696760581b604482015290519081900360640190fd5b60008660205b85518111611f0f5785810151925060028806611ecf5781836040516020018083815260200182815260200192505050604051602081830303815290604052805190602001209150611f01565b828260405160200180838152602001828152602001925050506040516020818303038152906040528051906020012091505b600288049750602001611e83565b509094149695505050505050565b60008184841115611fac5760405162461bcd60e51b81526004018080602001828103825283818151815260200191508051906020019080838360005b83811015611f71578181015183820152602001611f59565b50505050905090810190601f168015611f9e5780820380516001836020036101000a031916815260200191505b509250505060405180910390fd5b505050900390565b60405180604001604052806000815260200160008152509056fe456e756d657261626c655365743a20696e646578206f7574206f6620626f756e6473524c505265616465723a20494e56414c49445f55494e545f5354524943545f4c454e475448416363657373436f6e74726f6c3a2073656e646572206d75737420626520616e2061646d696e20746f206772616e74524c505265616465723a2042595445535f4445434f4445445f4c454e4754485f4d49534d41544348416363657373436f6e74726f6c3a2073656e646572206d75737420626520616e2061646d696e20746f207265766f6b65524c505265616465723a204e554d5f4954454d535f4445434f4445445f4c454e4754485f4d49534d41544348524c505265616465723a204445434f44494e475f4c4953545f41535f41444452455353526f6f7454756e6e656c3a20455849545f414c52454144595f50524f434553534544526f6f7454756e6e656c3a20494e56414c49445f524543454950545f50524f4f46524c505265616465723a204c4953545f4445434f4445445f4c454e4754485f4d49534d41544348524c505265616465723a2055494e545f5354524943545f4445434f4445445f4c454e4754485f4d49534d41544348416363657373436f6e74726f6c3a2063616e206f6e6c792072656e6f756e636520726f6c657320666f722073656c66524c505265616465723a2055494e545f4445434f4445445f4c454e4754485f4d49534d41544348524c505265616465723a20494e56414c49445f414444524553535f4c454e475448526f6f7454756e6e656c3a20494e56414c49445f4348494c445f54554e4e454c5f41444452455353a2646970667358221220472eb02b21ab0228eeaa1a393939aac26cec7e8c115c94cf08fb00b4fd6bc49a64736f6c63430006060033",
  "immutableReferences": {},
  "source": "pragma solidity ^0.6.6;\n\nimport {BaseRootTunnel} from \"./BaseRootTunnel.sol\";\n\n\ncontract RootTunnel is BaseRootTunnel {\n    function _processMessageFromChild(bytes memory message) internal override {\n      // implement your core logic here\n    }\n}\n",
  "sourcePath": "/Users/abhimanyushekhawat/projects/matic-contracts/contracts/tunnel/RootTunnel.sol",
  "compiler": {
    "name": "solc",
    "version": "0.6.6+commit.6c089d02.Emscripten.clang"
  },
  "schemaVersion": "3.3.4",
  "updatedAt": "2021-03-01T19:59:54.851Z",
  "devdoc": {
    "methods": {
      "getRoleAdmin(bytes32)": {
        "details": "Returns the admin role that controls `role`. See {grantRole} and {revokeRole}.     * To change a role's admin, use {_setRoleAdmin}."
      },
      "getRoleMember(bytes32,uint256)": {
        "details": "Returns one of the accounts that have `role`. `index` must be a value between 0 and {getRoleMemberCount}, non-inclusive.     * Role bearers are not sorted in any particular way, and their ordering may change at any point.     * WARNING: When using {getRoleMember} and {getRoleMemberCount}, make sure you perform all queries on the same block. See the following https://forum.openzeppelin.com/t/iterating-over-elements-on-enumerableset-in-openzeppelin-contracts/2296[forum post] for more information."
      },
      "getRoleMemberCount(bytes32)": {
        "details": "Returns the number of accounts that have `role`. Can be used together with {getRoleMember} to enumerate all bearers of a role."
      },
      "grantRole(bytes32,address)": {
        "details": "Grants `role` to `account`.     * If `account` had not been already granted `role`, emits a {RoleGranted} event.     * Requirements:     * - the caller must have ``role``'s admin role."
      },
      "hasRole(bytes32,address)": {
        "details": "Returns `true` if `account` has been granted `role`."
      },
      "receiveMessage(bytes)": {
        "details": "This function verifies if the transaction actually happened on child chain",
        "params": {
          "inputData": "RLP encoded data of the reference tx containing following list of fields 0 - headerNumber - Checkpoint header block number containing the reference tx 1 - blockProof - Proof that the block header (in the child chain) is a leaf in the submitted merkle root 2 - blockNumber - Block number containing the reference tx on child chain 3 - blockTime - Reference tx block time 4 - txRoot - Transactions root of block 5 - receiptRoot - Receipts root of block 6 - receipt - Receipt of the reference transaction 7 - receiptProof - Merkle proof of the reference receipt 8 - branchMask - 32 bits denoting the path of receipt in merkle tree 9 - receiptLogIndex - Log Index to read from the receipt"
        }
      },
      "renounceRole(bytes32,address)": {
        "details": "Revokes `role` from the calling account.     * Roles are often managed via {grantRole} and {revokeRole}: this function's purpose is to provide a mechanism for accounts to lose their privileges if they are compromised (such as when a trusted device is misplaced).     * If the calling account had been granted `role`, emits a {RoleRevoked} event.     * Requirements:     * - the caller must be `account`."
      },
      "revokeRole(bytes32,address)": {
        "details": "Revokes `role` from `account`.     * If `account` had been granted `role`, emits a {RoleRevoked} event.     * Requirements:     * - the caller must have ``role``'s admin role."
      },
      "setCheckpointManager(address)": {
        "details": "This should be the plasma contract responsible for keeping track of checkpoints",
        "params": {
          "newCheckpointManager": "address of checkpoint manager contract"
        }
      },
      "setChildTunnel(address)": {
        "details": "This should be the contract responsible to receive data bytes on child chain",
        "params": {
          "newChildTunnel": "address of child tunnel contract"
        }
      },
      "setStateSender(address)": {
        "details": "This should be the state sender from plasma contracts It is used to send bytes from root to child chain",
        "params": {
          "newStateSender": "address of state sender contract"
        }
      }
    }
  },
  "userdoc": {
    "methods": {
      "receiveMessage(bytes)": {
        "notice": "receive message from  L2 to L1, validated by proof"
      },
      "setCheckpointManager(address)": {
        "notice": "Set the checkpoint manager, callable only by admins"
      },
      "setChildTunnel(address)": {
        "notice": "Set the child chain tunnel, callable only by admins"
      },
      "setStateSender(address)": {
        "notice": "Set the state sender, callable only by admins"
      }
    }
  }
}