{
  "contractName": "TestRootTunnel",
  "abi": [
    {
      "anonymous": false,
      "inputs": [
        {
          "indexed": false,
          "internalType": "uint256",
          "name": "",
          "type": "uint256"
        }
      ],
      "name": "MessageReceivedFromChild",
      "type": "event"
    },
    {
      "anonymous": false,
      "inputs": [
        {
          "indexed": true,
          "internalType": "bytes32",
          "name": "role",
          "type": "bytes32"
        },
        {
          "indexed": true,
          "internalType": "bytes32",
          "name": "previousAdminRole",
          "type": "bytes32"
        },
        {
          "indexed": true,
          "internalType": "bytes32",
          "name": "newAdminRole",
          "type": "bytes32"
        }
      ],
      "name": "RoleAdminChanged",
      "type": "event"
    },
    {
      "anonymous": false,
      "inputs": [
        {
          "indexed": true,
          "internalType": "bytes32",
          "name": "role",
          "type": "bytes32"
        },
        {
          "indexed": true,
          "internalType": "address",
          "name": "account",
          "type": "address"
        },
        {
          "indexed": true,
          "internalType": "address",
          "name": "sender",
          "type": "address"
        }
      ],
      "name": "RoleGranted",
      "type": "event"
    },
    {
      "anonymous": false,
      "inputs": [
        {
          "indexed": true,
          "internalType": "bytes32",
          "name": "role",
          "type": "bytes32"
        },
        {
          "indexed": true,
          "internalType": "address",
          "name": "account",
          "type": "address"
        },
        {
          "indexed": true,
          "internalType": "address",
          "name": "sender",
          "type": "address"
        }
      ],
      "name": "RoleRevoked",
      "type": "event"
    },
    {
      "inputs": [],
      "name": "DEFAULT_ADMIN_ROLE",
      "outputs": [
        {
          "internalType": "bytes32",
          "name": "",
          "type": "bytes32"
        }
      ],
      "stateMutability": "view",
      "type": "function"
    },
    {
      "inputs": [],
      "name": "SEND_MESSAGE_EVENT_SIG",
      "outputs": [
        {
          "internalType": "bytes32",
          "name": "",
          "type": "bytes32"
        }
      ],
      "stateMutability": "view",
      "type": "function"
    },
    {
      "inputs": [],
      "name": "checkpointManager",
      "outputs": [
        {
          "internalType": "contract ICheckpointManager",
          "name": "",
          "type": "address"
        }
      ],
      "stateMutability": "view",
      "type": "function"
    },
    {
      "inputs": [],
      "name": "childTunnel",
      "outputs": [
        {
          "internalType": "address",
          "name": "",
          "type": "address"
        }
      ],
      "stateMutability": "view",
      "type": "function"
    },
    {
      "inputs": [
        {
          "internalType": "bytes32",
          "name": "role",
          "type": "bytes32"
        }
      ],
      "name": "getRoleAdmin",
      "outputs": [
        {
          "internalType": "bytes32",
          "name": "",
          "type": "bytes32"
        }
      ],
      "stateMutability": "view",
      "type": "function"
    },
    {
      "inputs": [
        {
          "internalType": "bytes32",
          "name": "role",
          "type": "bytes32"
        },
        {
          "internalType": "uint256",
          "name": "index",
          "type": "uint256"
        }
      ],
      "name": "getRoleMember",
      "outputs": [
        {
          "internalType": "address",
          "name": "",
          "type": "address"
        }
      ],
      "stateMutability": "view",
      "type": "function"
    },
    {
      "inputs": [
        {
          "internalType": "bytes32",
          "name": "role",
          "type": "bytes32"
        }
      ],
      "name": "getRoleMemberCount",
      "outputs": [
        {
          "internalType": "uint256",
          "name": "",
          "type": "uint256"
        }
      ],
      "stateMutability": "view",
      "type": "function"
    },
    {
      "inputs": [
        {
          "internalType": "bytes32",
          "name": "role",
          "type": "bytes32"
        },
        {
          "internalType": "address",
          "name": "account",
          "type": "address"
        }
      ],
      "name": "grantRole",
      "outputs": [],
      "stateMutability": "nonpayable",
      "type": "function"
    },
    {
      "inputs": [
        {
          "internalType": "bytes32",
          "name": "role",
          "type": "bytes32"
        },
        {
          "internalType": "address",
          "name": "account",
          "type": "address"
        }
      ],
      "name": "hasRole",
      "outputs": [
        {
          "internalType": "bool",
          "name": "",
          "type": "bool"
        }
      ],
      "stateMutability": "view",
      "type": "function"
    },
    {
      "inputs": [
        {
          "internalType": "bytes32",
          "name": "",
          "type": "bytes32"
        }
      ],
      "name": "processedExits",
      "outputs": [
        {
          "internalType": "bool",
          "name": "",
          "type": "bool"
        }
      ],
      "stateMutability": "view",
      "type": "function"
    },
    {
      "inputs": [
        {
          "internalType": "bytes",
          "name": "inputData",
          "type": "bytes"
        }
      ],
      "name": "receiveMessage",
      "outputs": [],
      "stateMutability": "nonpayable",
      "type": "function"
    },
    {
      "inputs": [],
      "name": "receivedNumber",
      "outputs": [
        {
          "internalType": "uint256",
          "name": "",
          "type": "uint256"
        }
      ],
      "stateMutability": "view",
      "type": "function"
    },
    {
      "inputs": [
        {
          "internalType": "bytes32",
          "name": "role",
          "type": "bytes32"
        },
        {
          "internalType": "address",
          "name": "account",
          "type": "address"
        }
      ],
      "name": "renounceRole",
      "outputs": [],
      "stateMutability": "nonpayable",
      "type": "function"
    },
    {
      "inputs": [
        {
          "internalType": "bytes32",
          "name": "role",
          "type": "bytes32"
        },
        {
          "internalType": "address",
          "name": "account",
          "type": "address"
        }
      ],
      "name": "revokeRole",
      "outputs": [],
      "stateMutability": "nonpayable",
      "type": "function"
    },
    {
      "inputs": [
        {
          "internalType": "address",
          "name": "newCheckpointManager",
          "type": "address"
        }
      ],
      "name": "setCheckpointManager",
      "outputs": [],
      "stateMutability": "nonpayable",
      "type": "function"
    },
    {
      "inputs": [
        {
          "internalType": "address",
          "name": "newChildTunnel",
          "type": "address"
        }
      ],
      "name": "setChildTunnel",
      "outputs": [],
      "stateMutability": "nonpayable",
      "type": "function"
    },
    {
      "inputs": [
        {
          "internalType": "address",
          "name": "newStateSender",
          "type": "address"
        }
      ],
      "name": "setStateSender",
      "outputs": [],
      "stateMutability": "nonpayable",
      "type": "function"
    },
    {
      "inputs": [],
      "name": "stateSender",
      "outputs": [
        {
          "internalType": "contract IStateSender",
          "name": "",
          "type": "address"
        }
      ],
      "stateMutability": "view",
      "type": "function"
    }
  ],
  "bytecode": "0x60806040526200001a6000336001600160e01b036200005516565b60408051808201909152600a815269149bdbdd151d5b9b995b60b21b60208201526200004f906001600160e01b036200006e16565b620002d2565b6200006a82826001600160e01b036200011016565b5050565b806040516020018082805190602001908083835b60208310620000a35780518252601f19909201916020918201910162000082565b51815160209384036101000a60001901801990921691161790527f3a20494e53554646494349454e545f5045524d495353494f4e530000000000009190930190815260408051808303600519018152601a909201905280516200006a955060019450920191905062000230565b6000828152602081815260409091206200013591839062000e5462000192821b17901c565b156200006a576200014e6001600160e01b03620001bb16565b6001600160a01b0316816001600160a01b0316837f2f8788117e7eff1d82e926ec794901d17c78024a50270940304540a733656f0d60405160405180910390a45050565b6000620001b2836001600160a01b0384166001600160e01b03620001c016565b90505b92915050565b335b90565b6000620001d783836001600160e01b036200021816565b6200020f57508154600181810184556000848152602080822090930184905584548482528286019093526040902091909155620001b5565b506000620001b5565b60009081526001919091016020526040902054151590565b828054600181600116156101000203166002900490600052602060002090601f016020900481019282601f106200027357805160ff1916838001178555620002a3565b82800160010185558215620002a3579182015b82811115620002a357825182559160200191906001019062000286565b50620002b1929150620002b5565b5090565b620001bd91905b80821115620002b15760008155600101620002bc565b6122c480620002e26000396000f3fe608060405234801561001057600080fd5b50600436106101165760003560e01c8063a217fddf116100a2578063ca02b26711610071578063ca02b267146102b4578063ca15c873146102da578063cb10f94c146102f7578063d547741f146102ff578063f953cec71461032b57610116565b8063a217fddf14610276578063bc08452b1461027e578063c0857ba0146102a4578063c9f703a9146102ac57610116565b8063607f2d42116100e9578063607f2d42146101ac5780636cb136b0146101dd5780636d6aa34d146102035780639010d07c1461022757806391d148541461024a57610116565b80630e387de61461011b578063248a9ca3146101355780632f2ff15d1461015257806336568abe14610180575b600080fd5b6101236103d1565b60408051918252519081900360200190f35b6101236004803603602081101561014b57600080fd5b50356103f5565b61017e6004803603604081101561016857600080fd5b50803590602001356001600160a01b031661040d565b005b61017e6004803603604081101561019657600080fd5b50803590602001356001600160a01b0316610479565b6101c9600480360360208110156101c257600080fd5b50356104da565b604080519115158252519081900360200190f35b61017e600480360360208110156101f357600080fd5b50356001600160a01b03166104ef565b61020b6105c1565b604080516001600160a01b039092168252519081900360200190f35b61020b6004803603604081101561023d57600080fd5b50803590602001356105d0565b6101c96004803603604081101561026057600080fd5b50803590602001356001600160a01b03166105f7565b610123610615565b61017e6004803603602081101561029457600080fd5b50356001600160a01b031661061a565b61020b6106b2565b6101236106c1565b61017e600480360360208110156102ca57600080fd5b50356001600160a01b03166106c7565b610123600480360360208110156102f057600080fd5b50356107a4565b61020b6107bb565b61017e6004803603604081101561031557600080fd5b50803590602001356001600160a01b03166107ca565b61017e6004803603602081101561034157600080fd5b81019060208101813564010000000081111561035c57600080fd5b82018360208201111561036e57600080fd5b8035906020019184600183028401116401000000008311171561039057600080fd5b91908080601f016020809104026020016040519081016040528093929190818152602001838380828437600092019190915250929550610823945050505050565b7f8c5261668696ce22758910d05bab8f186d6eb247ceac2af2e82c7dc17669b03681565b6000818152602081905260409020600201545b919050565b6000828152602081905260409020600201546104309061042b610839565b6105f7565b61046b5760405162461bcd60e51b815260040180806020018281038252602f815260200180612082602f913960400191505060405180910390fd5b610475828261083d565b5050565b610481610839565b6001600160a01b0316816001600160a01b0316146104d05760405162461bcd60e51b815260040180806020018281038252602f8152602001806121f0602f913960400191505060405180910390fd5b61047582826108ac565b60056020526000908152604090205460ff1681565b60006104fd8161042b610839565b60019061059d5760405162461bcd60e51b815260206004820190815282546002600019610100600184161502019091160460248301819052909182916044909101908490801561058e5780601f106105635761010080835404028352916020019161058e565b820191906000526020600020905b81548152906001019060200180831161057157829003601f168201915b50509250505060405180910390fd5b5050600280546001600160a01b0319166001600160a01b0392909216919091179055565b6004546001600160a01b031681565b60008281526020819052604081206105ee908363ffffffff61091b16565b90505b92915050565b60008281526020819052604081206105ee908363ffffffff61092716565b600081565b60006106288161042b610839565b60019061068e5760405162461bcd60e51b815260206004820190815282546002600019610100600184161502019091160460248301819052909182916044909101908490801561058e5780601f106105635761010080835404028352916020019161058e565b5050600380546001600160a01b0319166001600160a01b0392909216919091179055565b6003546001600160a01b031681565b60065481565b60006106d58161042b610839565b60019061073b5760405162461bcd60e51b815260206004820190815282546002600019610100600184161502019091160460248301819052909182916044909101908490801561058e5780601f106105635761010080835404028352916020019161058e565b506001600160a01b0382166107815760405162461bcd60e51b81526004018080602001828103825260288152602001806122676028913960400191505060405180910390fd5b50600480546001600160a01b0319166001600160a01b0392909216919091179055565b60008181526020819052604081206105f19061093c565b6002546001600160a01b031681565b6000828152602081905260409020600201546107e89061042b610839565b6104d05760405162461bcd60e51b81526004018080602001828103825260308152602001806120d96030913960400191505060405180910390fd5b606061082e82610947565b905061047581610dfe565b3390565b600082815260208190526040902061085b908263ffffffff610e5416565b1561047557610868610839565b6001600160a01b0316816001600160a01b0316837f2f8788117e7eff1d82e926ec794901d17c78024a50270940304540a733656f0d60405160405180910390a45050565b60008281526020819052604090206108ca908263ffffffff610e6916565b15610475576108d7610839565b6001600160a01b0316816001600160a01b0316837ff6391f5c32d9c69d2a47ea670b442974b53935d1edc7fd64eb21e047a839171b60405160405180910390a45050565b60006105ee8383610e7e565b60006105ee836001600160a01b038416610ee2565b60006105f182610efa565b60608061095b61095684610efe565b610f79565b9050600061097c8260028151811061096f57fe5b60200260200101516110fb565b6109a161099c8460088151811061098f57fe5b6020026020010151611243565b61130d565b6109b18460098151811061096f57fe5b6040516020018084815260200183805190602001908083835b602083106109e95780518252601f1990920191602091820191016109ca565b51815160209384036101000a6000190180199092169116179052920193845250604080518085038152938201815283519382019390932060008181526005909252929020549194505060ff16159150610a7590505760405162461bcd60e51b81526004018080602001828103825260228152602001806121586022913960400191505060405180910390fd5b6000818152600560205260409020805460ff191660011790558151606090610ab19061095690610aac908690600690811061098f57fe5b610efe565b9050610abb612020565b610ad882600381518110610acb57fe5b6020026020010151610f79565b610ae88560098151811061096f57fe5b81518110610af257fe5b602002602001015190506060610b0782610f79565b9050610b2681600081518110610b1957fe5b6020026020010151611480565b6004546001600160a01b03908116911614610b88576040805162461bcd60e51b815260206004820181905260248201527f526f6f7454756e6e656c3a20494e56414c49445f4348494c445f54554e4e454c604482015290519081900360640190fd5b610bd0610b9b8660068151811061098f57fe5b610bab8760088151811061098f57fe5b610bbb8860078151811061098f57fe5b610bcb8960058151811061096f57fe5b611510565b610c0b5760405162461bcd60e51b815260040180806020018281038252602181526020018061217a6021913960400191505060405180910390fd5b610c79610c1e8660028151811061096f57fe5b610c2e8760038151811061096f57fe5b610c3e8860048151811061096f57fe5b60001b610c518960058151811061096f57fe5b60001b610c648a60008151811061096f57fe5b610c748b60018151811061098f57fe5b611757565b506060610c8c82600181518110610acb57fe5b90507f8c5261668696ce22758910d05bab8f186d6eb247ceac2af2e82c7dc17669b03660001b610cc28260008151811061096f57fe5b14610d14576040805162461bcd60e51b815260206004820152601d60248201527f526f6f7454756e6e656c3a20494e56414c49445f5349474e4154555245000000604482015290519081900360640190fd5b6060610d268360028151811061098f57fe5b90506060818060200190516020811015610d3f57600080fd5b8101908080516040519392919084640100000000821115610d5f57600080fd5b908301906020820185811115610d7457600080fd5b8251640100000000811182820188101715610d8e57600080fd5b82525081516020918201929091019080838360005b83811015610dbb578181015183820152602001610da3565b50505050905090810190601f168015610de85780820380516001836020036101000a031916815260200191505b5060405250919c9b505050505050505050505050565b6000818060200190516020811015610e1557600080fd5b50516040805182815290519192507f898be1981b8ae7b9d60bff0dda850b61e6ea5be09fab181db7ecbaa6dcac6fba919081900360200190a160065550565b60006105ee836001600160a01b0384166118a0565b60006105ee836001600160a01b0384166118ea565b81546000908210610ec05760405162461bcd60e51b815260040180806020018281038252602281526020018061203b6022913960400191505060405180910390fd5b826000018281548110610ecf57fe5b9060005260206000200154905092915050565b60009081526001919091016020526040902054151590565b5490565b610f06612020565b6000825111610f5c576040805162461bcd60e51b815260206004820152601f60248201527f524c505265616465723a20494e56414c49445f42595445535f4c454e47544800604482015290519081900360640190fd5b506040805180820190915281518152602082810190820152919050565b6060610f84826119b0565b610fd5576040805162461bcd60e51b815260206004820152601860248201527f524c505265616465723a204954454d5f4e4f545f4c4953540000000000000000604482015290519081900360640190fd5b6000610fe0836119dc565b905060608167ffffffffffffffff81118015610ffb57600080fd5b5060405190808252806020026020018201604052801561103557816020015b611022612020565b81526020019060019003908161101a5790505b50905060006110478560200151611a68565b855190915081146110895760405162461bcd60e51b815260040180806020018281038252602781526020018061219b6027913960400191505060405180910390fd5b60006110988660200151611b01565b60208701510190506000805b858110156110ef576110b583611a68565b91506040518060400160405280838152602001848152508582815181106110d857fe5b6020908102919091010152918101916001016110a4565b50929695505050505050565b6000611106826119b0565b15611158576040805162461bcd60e51b815260206004820181905260248201527f524c505265616465723a204445434f44494e475f4c4953545f41535f55494e54604482015290519081900360640190fd5b8151602110156111af576040805162461bcd60e51b815260206004820152601e60248201527f524c505265616465723a20494e56414c49445f55494e545f4c454e4754480000604482015290519081900360640190fd5b60006111be8360200151611a68565b835190915081146112005760405162461bcd60e51b815260040180806020018281038252602781526020018061221f6027913960400191505060405180910390fd5b600061120f8460200151611b01565b8451602080870151830180519394509184900392919083101561123957826020036101000a820491505b5095945050505050565b606060006112548360200151611a68565b835190915081146112965760405162461bcd60e51b81526004018080602001828103825260288152602001806120b16028913960400191505060405180910390fd5b60006112a58460200151611b01565b845190915081900360608167ffffffffffffffff811180156112c657600080fd5b506040519080825280601f01601f1916602001820160405280156112f1576020820181803683370190505b5090506000816020019050611239848860200151018285611b64565b604080516020810190915260008152815160609190156105f157600080611335600086611baf565b60f81c9050600181148061134c57508060ff166003145b156113db57600185516002020367ffffffffffffffff8111801561136f57600080fd5b506040519080825280601f01601f19166020018201604052801561139a576020820181803683370190505b50925060006113aa600187611baf565b905080846000815181106113ba57fe5b60200101906001600160f81b031916908160001a905350600192505061142c565b600285516002020367ffffffffffffffff811180156113f957600080fd5b506040519080825280601f01601f191660200182016040528015611424576020820181803683370190505b509250600091505b60ff82165b83518110156114775761144c8360ff16820360020187611baf565b84828151811061145857fe5b60200101906001600160f81b031916908160001a905350600101611431565b50505092915050565b600061148b826119b0565b156114c75760405162461bcd60e51b81526004018080602001828103825260238152602001806121356023913960400191505060405180910390fd5b81516015146115075760405162461bcd60e51b81526004018080602001828103825260218152602001806122466021913960400191505060405180910390fd5b6105f1826110fb565b600061151a612020565b61152384610efe565b9050606061153082610f79565b9050606080856000826115428b61130d565b905080516000141561155e57600097505050505050505061174f565b60005b86518110156117465781518311156115845760009850505050505050505061174f565b6115a087828151811061159357fe5b6020026020010151611c0c565b9550858051906020012084146115c15760009850505050505050505061174f565b6115d0878281518110610acb57fe5b945084516011141561168d57815183141561162c578c805190602001206115fd8660108151811061098f57fe5b80519060200120141561161b5760019850505050505050505061174f565b60009850505050505050505061174f565b600082848151811061163a57fe5b016020015160f81c9050601081111561165f576000995050505050505050505061174f565b61167e868260ff168151811061167157fe5b6020026020010151611c73565b9450506001929092019161173e565b84516002141561161b5760006116b36116ac8760008151811061098f57fe5b8486611d12565b905082518185011415611709578d805190602001206116d88760018151811061098f57fe5b8051906020012014156116f7576001995050505050505050505061174f565b6000995050505050505050505061174f565b80611720576000995050505050505050505061174f565b80840193506117358660018151811061167157fe5b945061173e9050565b600101611561565b50505050505050505b949350505050565b600354604080516320a9cea560e11b81526004810185905290516000928392839283926001600160a01b0316916341539d4a9160248083019260a0929190829003018186803b1580156117a957600080fd5b505afa1580156117bd573d6000803e3d6000fd5b505050506040513d60a08110156117d357600080fd5b508051602082015160609092015190945090925090506118426117fc8b8463ffffffff611df116565b6040805160208082018f90528183018e9052606082018d905260808083018d90528351808403909101815260a0909201909252805191012090858863ffffffff611e3316565b611893576040805162461bcd60e51b815260206004820152601a60248201527f526f6f7454756e6e656c3a20494e56414c49445f484541444552000000000000604482015290519081900360640190fd5b9998505050505050505050565b60006118ac8383610ee2565b6118e2575081546001818101845560008481526020808220909301849055845484825282860190935260409020919091556105f1565b5060006105f1565b600081815260018301602052604081205480156119a6578354600019808301919081019060009087908390811061191d57fe5b906000526020600020015490508087600001848154811061193a57fe5b60009182526020808320909101929092558281526001898101909252604090209084019055865487908061196a57fe5b600190038181906000526020600020016000905590558660010160008781526020019081526020016000206000905560019450505050506105f1565b60009150506105f1565b6020810151805160009190821a9060c08210156119d257600092505050610408565b5060019392505050565b6000806000905060006119f28460200151611b01565b602085015185519181019250015b80821015611a5f57611a1182611a68565b8201915080821115611a545760405162461bcd60e51b815260040180806020018281038252602c815260200180612109602c913960400191505060405180910390fd5b600190920191611a00565b50909392505050565b80516000908190811a6080811015611a835760019150611afa565b60b8811015611a9857607e1981019150611afa565b60c0811015611ac55760b78103600185019450806020036101000a85510460018201810193505050611afa565b60f8811015611ada5760be1981019150611afa565b60f78103600185019450806020036101000a855104600182018101935050505b5092915050565b8051600090811a6080811015611b1b576000915050610408565b60b8811080611b36575060c08110801590611b36575060f881105b15611b45576001915050610408565b60c0811015611b595760b519019050610408565b60f519019050610408565b80611b6e57611baa565b5b60208110611b8e578251825260209283019290910190601f1901611b6f565b8251825160208390036101000a60001901801990921691161782525b505050565b60006002830615611be0576010826002850481518110611bcb57fe5b016020015160f81c81611bda57fe5b06611c02565b6010826002850481518110611bf157fe5b016020015160f81c81611c0057fe5b045b60f81b9392505050565b606080826000015167ffffffffffffffff81118015611c2a57600080fd5b506040519080825280601f01601f191660200182016040528015611c55576020820181803683370190505b5090506000816020019050611afa8460200151828660000151611b64565b600080611c838360200151611a68565b83519091508114611cc55760405162461bcd60e51b815260040180806020018281038252602e8152602001806121c2602e913960400191505060405180910390fd5b8251602114611d055760405162461bcd60e51b815260040180806020018281038252602581526020018061205d6025913960400191505060405180910390fd5b5050602001516001015190565b6000806060611d208661130d565b90506060815167ffffffffffffffff81118015611d3c57600080fd5b506040519080825280601f01601f191660200182016040528015611d67576020820181803683370190505b509050845b82518601811015611dc1576000878281518110611d8557fe5b602001015160f81c60f81b9050808388840381518110611da157fe5b60200101906001600160f81b031916908160001a90535050600101611d6c565b50808051906020012082805190602001201415611de15781519250611de6565b600092505b509095945050505050565b60006105ee83836040518060400160405280601e81526020017f536166654d6174683a207375627472616374696f6e206f766572666c6f770000815250611f89565b60006020825181611e4057fe5b0615611e8a576040805162461bcd60e51b8152602060048201526014602482015273092dcecc2d8d2c840e0e4dedecc40d8cadccee8d60631b604482015290519081900360640190fd5b60006020835181611e9757fe5b0490508060020a8510611ee9576040805162461bcd60e51b81526020600482015260156024820152744c65616620696e64657820697320746f6f2062696760581b604482015290519081900360640190fd5b60008660205b85518111611f7b5785810151925060028806611f3b5781836040516020018083815260200182815260200192505050604051602081830303815290604052805190602001209150611f6d565b828260405160200180838152602001828152602001925050506040516020818303038152906040528051906020012091505b600288049750602001611eef565b509094149695505050505050565b600081848411156120185760405162461bcd60e51b81526004018080602001828103825283818151815260200191508051906020019080838360005b83811015611fdd578181015183820152602001611fc5565b50505050905090810190601f16801561200a5780820380516001836020036101000a031916815260200191505b509250505060405180910390fd5b505050900390565b60405180604001604052806000815260200160008152509056fe456e756d657261626c655365743a20696e646578206f7574206f6620626f756e6473524c505265616465723a20494e56414c49445f55494e545f5354524943545f4c454e475448416363657373436f6e74726f6c3a2073656e646572206d75737420626520616e2061646d696e20746f206772616e74524c505265616465723a2042595445535f4445434f4445445f4c454e4754485f4d49534d41544348416363657373436f6e74726f6c3a2073656e646572206d75737420626520616e2061646d696e20746f207265766f6b65524c505265616465723a204e554d5f4954454d535f4445434f4445445f4c454e4754485f4d49534d41544348524c505265616465723a204445434f44494e475f4c4953545f41535f41444452455353526f6f7454756e6e656c3a20455849545f414c52454144595f50524f434553534544526f6f7454756e6e656c3a20494e56414c49445f524543454950545f50524f4f46524c505265616465723a204c4953545f4445434f4445445f4c454e4754485f4d49534d41544348524c505265616465723a2055494e545f5354524943545f4445434f4445445f4c454e4754485f4d49534d41544348416363657373436f6e74726f6c3a2063616e206f6e6c792072656e6f756e636520726f6c657320666f722073656c66524c505265616465723a2055494e545f4445434f4445445f4c454e4754485f4d49534d41544348524c505265616465723a20494e56414c49445f414444524553535f4c454e475448526f6f7454756e6e656c3a20494e56414c49445f4348494c445f54554e4e454c5f41444452455353a264697066735822122050304b5d6cf08843da2b3c3f8b0825bbd07b70bb5926f83fa58ea80fecb9d89764736f6c63430006060033",
  "immutableReferences": {},
  "source": "pragma solidity 0.6.6;\n\nimport {BaseRootTunnel} from \"../tunnel/BaseRootTunnel.sol\";\n\ncontract TestRootTunnel is BaseRootTunnel {\n    uint256 public receivedNumber;\n\n    event MessageReceivedFromChild(uint256);\n\n    function _processMessageFromChild(bytes memory message) internal override {\n        (uint256 n) = abi.decode(message, (uint256));\n        emit MessageReceivedFromChild(n);\n        receivedNumber = n;\n    }\n}\n",
  "sourcePath": "/Users/abhimanyushekhawat/projects/matic-contracts/contracts/test/TestRootTunnel.sol",
  "compiler": {
    "name": "solc",
    "version": "0.6.6+commit.6c089d02.Emscripten.clang"
  },
  "schemaVersion": "3.3.4",
  "updatedAt": "2021-03-01T19:59:54.845Z",
  "devdoc": {
    "methods": {
      "getRoleAdmin(bytes32)": {
        "details": "Returns the admin role that controls `role`. See {grantRole} and {revokeRole}.     * To change a role's admin, use {_setRoleAdmin}."
      },
      "getRoleMember(bytes32,uint256)": {
        "details": "Returns one of the accounts that have `role`. `index` must be a value between 0 and {getRoleMemberCount}, non-inclusive.     * Role bearers are not sorted in any particular way, and their ordering may change at any point.     * WARNING: When using {getRoleMember} and {getRoleMemberCount}, make sure you perform all queries on the same block. See the following https://forum.openzeppelin.com/t/iterating-over-elements-on-enumerableset-in-openzeppelin-contracts/2296[forum post] for more information."
      },
      "getRoleMemberCount(bytes32)": {
        "details": "Returns the number of accounts that have `role`. Can be used together with {getRoleMember} to enumerate all bearers of a role."
      },
      "grantRole(bytes32,address)": {
        "details": "Grants `role` to `account`.     * If `account` had not been already granted `role`, emits a {RoleGranted} event.     * Requirements:     * - the caller must have ``role``'s admin role."
      },
      "hasRole(bytes32,address)": {
        "details": "Returns `true` if `account` has been granted `role`."
      },
      "receiveMessage(bytes)": {
        "details": "This function verifies if the transaction actually happened on child chain",
        "params": {
          "inputData": "RLP encoded data of the reference tx containing following list of fields 0 - headerNumber - Checkpoint header block number containing the reference tx 1 - blockProof - Proof that the block header (in the child chain) is a leaf in the submitted merkle root 2 - blockNumber - Block number containing the reference tx on child chain 3 - blockTime - Reference tx block time 4 - txRoot - Transactions root of block 5 - receiptRoot - Receipts root of block 6 - receipt - Receipt of the reference transaction 7 - receiptProof - Merkle proof of the reference receipt 8 - branchMask - 32 bits denoting the path of receipt in merkle tree 9 - receiptLogIndex - Log Index to read from the receipt"
        }
      },
      "renounceRole(bytes32,address)": {
        "details": "Revokes `role` from the calling account.     * Roles are often managed via {grantRole} and {revokeRole}: this function's purpose is to provide a mechanism for accounts to lose their privileges if they are compromised (such as when a trusted device is misplaced).     * If the calling account had been granted `role`, emits a {RoleRevoked} event.     * Requirements:     * - the caller must be `account`."
      },
      "revokeRole(bytes32,address)": {
        "details": "Revokes `role` from `account`.     * If `account` had been granted `role`, emits a {RoleRevoked} event.     * Requirements:     * - the caller must have ``role``'s admin role."
      },
      "setCheckpointManager(address)": {
        "details": "This should be the plasma contract responsible for keeping track of checkpoints",
        "params": {
          "newCheckpointManager": "address of checkpoint manager contract"
        }
      },
      "setChildTunnel(address)": {
        "details": "This should be the contract responsible to receive data bytes on child chain",
        "params": {
          "newChildTunnel": "address of child tunnel contract"
        }
      },
      "setStateSender(address)": {
        "details": "This should be the state sender from plasma contracts It is used to send bytes from root to child chain",
        "params": {
          "newStateSender": "address of state sender contract"
        }
      }
    }
  },
  "userdoc": {
    "methods": {
      "receiveMessage(bytes)": {
        "notice": "receive message from  L2 to L1, validated by proof"
      },
      "setCheckpointManager(address)": {
        "notice": "Set the checkpoint manager, callable only by admins"
      },
      "setChildTunnel(address)": {
        "notice": "Set the child chain tunnel, callable only by admins"
      },
      "setStateSender(address)": {
        "notice": "Set the state sender, callable only by admins"
      }
    }
  }
}