{
  "contractName": "UChildERC20",
  "abi": [
    {
      "inputs": [],
      "stateMutability": "nonpayable",
      "type": "constructor"
    },
    {
      "anonymous": false,
      "inputs": [
        {
          "indexed": true,
          "internalType": "address",
          "name": "owner",
          "type": "address"
        },
        {
          "indexed": true,
          "internalType": "address",
          "name": "spender",
          "type": "address"
        },
        {
          "indexed": false,
          "internalType": "uint256",
          "name": "value",
          "type": "uint256"
        }
      ],
      "name": "Approval",
      "type": "event"
    },
    {
      "anonymous": false,
      "inputs": [
        {
          "indexed": false,
          "internalType": "address",
          "name": "userAddress",
          "type": "address"
        },
        {
          "indexed": false,
          "internalType": "address payable",
          "name": "relayerAddress",
          "type": "address"
        },
        {
          "indexed": false,
          "internalType": "bytes",
          "name": "functionSignature",
          "type": "bytes"
        }
      ],
      "name": "MetaTransactionExecuted",
      "type": "event"
    },
    {
      "anonymous": false,
      "inputs": [
        {
          "indexed": true,
          "internalType": "bytes32",
          "name": "role",
          "type": "bytes32"
        },
        {
          "indexed": true,
          "internalType": "bytes32",
          "name": "previousAdminRole",
          "type": "bytes32"
        },
        {
          "indexed": true,
          "internalType": "bytes32",
          "name": "newAdminRole",
          "type": "bytes32"
        }
      ],
      "name": "RoleAdminChanged",
      "type": "event"
    },
    {
      "anonymous": false,
      "inputs": [
        {
          "indexed": true,
          "internalType": "bytes32",
          "name": "role",
          "type": "bytes32"
        },
        {
          "indexed": true,
          "internalType": "address",
          "name": "account",
          "type": "address"
        },
        {
          "indexed": true,
          "internalType": "address",
          "name": "sender",
          "type": "address"
        }
      ],
      "name": "RoleGranted",
      "type": "event"
    },
    {
      "anonymous": false,
      "inputs": [
        {
          "indexed": true,
          "internalType": "bytes32",
          "name": "role",
          "type": "bytes32"
        },
        {
          "indexed": true,
          "internalType": "address",
          "name": "account",
          "type": "address"
        },
        {
          "indexed": true,
          "internalType": "address",
          "name": "sender",
          "type": "address"
        }
      ],
      "name": "RoleRevoked",
      "type": "event"
    },
    {
      "anonymous": false,
      "inputs": [
        {
          "indexed": true,
          "internalType": "address",
          "name": "from",
          "type": "address"
        },
        {
          "indexed": true,
          "internalType": "address",
          "name": "to",
          "type": "address"
        },
        {
          "indexed": false,
          "internalType": "uint256",
          "name": "value",
          "type": "uint256"
        }
      ],
      "name": "Transfer",
      "type": "event"
    },
    {
      "inputs": [],
      "name": "DEFAULT_ADMIN_ROLE",
      "outputs": [
        {
          "internalType": "bytes32",
          "name": "",
          "type": "bytes32"
        }
      ],
      "stateMutability": "view",
      "type": "function"
    },
    {
      "inputs": [],
      "name": "DEPOSITOR_ROLE",
      "outputs": [
        {
          "internalType": "bytes32",
          "name": "",
          "type": "bytes32"
        }
      ],
      "stateMutability": "view",
      "type": "function"
    },
    {
      "inputs": [],
      "name": "ERC712_VERSION",
      "outputs": [
        {
          "internalType": "string",
          "name": "",
          "type": "string"
        }
      ],
      "stateMutability": "view",
      "type": "function"
    },
    {
      "inputs": [
        {
          "internalType": "address",
          "name": "owner",
          "type": "address"
        },
        {
          "internalType": "address",
          "name": "spender",
          "type": "address"
        }
      ],
      "name": "allowance",
      "outputs": [
        {
          "internalType": "uint256",
          "name": "",
          "type": "uint256"
        }
      ],
      "stateMutability": "view",
      "type": "function"
    },
    {
      "inputs": [
        {
          "internalType": "address",
          "name": "spender",
          "type": "address"
        },
        {
          "internalType": "uint256",
          "name": "amount",
          "type": "uint256"
        }
      ],
      "name": "approve",
      "outputs": [
        {
          "internalType": "bool",
          "name": "",
          "type": "bool"
        }
      ],
      "stateMutability": "nonpayable",
      "type": "function"
    },
    {
      "inputs": [
        {
          "internalType": "address",
          "name": "account",
          "type": "address"
        }
      ],
      "name": "balanceOf",
      "outputs": [
        {
          "internalType": "uint256",
          "name": "",
          "type": "uint256"
        }
      ],
      "stateMutability": "view",
      "type": "function"
    },
    {
      "inputs": [],
      "name": "decimals",
      "outputs": [
        {
          "internalType": "uint8",
          "name": "",
          "type": "uint8"
        }
      ],
      "stateMutability": "view",
      "type": "function"
    },
    {
      "inputs": [
        {
          "internalType": "address",
          "name": "spender",
          "type": "address"
        },
        {
          "internalType": "uint256",
          "name": "subtractedValue",
          "type": "uint256"
        }
      ],
      "name": "decreaseAllowance",
      "outputs": [
        {
          "internalType": "bool",
          "name": "",
          "type": "bool"
        }
      ],
      "stateMutability": "nonpayable",
      "type": "function"
    },
    {
      "inputs": [
        {
          "internalType": "address",
          "name": "userAddress",
          "type": "address"
        },
        {
          "internalType": "bytes",
          "name": "functionSignature",
          "type": "bytes"
        },
        {
          "internalType": "bytes32",
          "name": "sigR",
          "type": "bytes32"
        },
        {
          "internalType": "bytes32",
          "name": "sigS",
          "type": "bytes32"
        },
        {
          "internalType": "uint8",
          "name": "sigV",
          "type": "uint8"
        }
      ],
      "name": "executeMetaTransaction",
      "outputs": [
        {
          "internalType": "bytes",
          "name": "",
          "type": "bytes"
        }
      ],
      "stateMutability": "payable",
      "type": "function"
    },
    {
      "inputs": [],
      "name": "getChainId",
      "outputs": [
        {
          "internalType": "uint256",
          "name": "",
          "type": "uint256"
        }
      ],
      "stateMutability": "pure",
      "type": "function"
    },
    {
      "inputs": [],
      "name": "getDomainSeperator",
      "outputs": [
        {
          "internalType": "bytes32",
          "name": "",
          "type": "bytes32"
        }
      ],
      "stateMutability": "view",
      "type": "function"
    },
    {
      "inputs": [
        {
          "internalType": "address",
          "name": "user",
          "type": "address"
        }
      ],
      "name": "getNonce",
      "outputs": [
        {
          "internalType": "uint256",
          "name": "nonce",
          "type": "uint256"
        }
      ],
      "stateMutability": "view",
      "type": "function"
    },
    {
      "inputs": [
        {
          "internalType": "bytes32",
          "name": "role",
          "type": "bytes32"
        }
      ],
      "name": "getRoleAdmin",
      "outputs": [
        {
          "internalType": "bytes32",
          "name": "",
          "type": "bytes32"
        }
      ],
      "stateMutability": "view",
      "type": "function"
    },
    {
      "inputs": [
        {
          "internalType": "bytes32",
          "name": "role",
          "type": "bytes32"
        },
        {
          "internalType": "uint256",
          "name": "index",
          "type": "uint256"
        }
      ],
      "name": "getRoleMember",
      "outputs": [
        {
          "internalType": "address",
          "name": "",
          "type": "address"
        }
      ],
      "stateMutability": "view",
      "type": "function"
    },
    {
      "inputs": [
        {
          "internalType": "bytes32",
          "name": "role",
          "type": "bytes32"
        }
      ],
      "name": "getRoleMemberCount",
      "outputs": [
        {
          "internalType": "uint256",
          "name": "",
          "type": "uint256"
        }
      ],
      "stateMutability": "view",
      "type": "function"
    },
    {
      "inputs": [
        {
          "internalType": "bytes32",
          "name": "role",
          "type": "bytes32"
        },
        {
          "internalType": "address",
          "name": "account",
          "type": "address"
        }
      ],
      "name": "grantRole",
      "outputs": [],
      "stateMutability": "nonpayable",
      "type": "function"
    },
    {
      "inputs": [
        {
          "internalType": "bytes32",
          "name": "role",
          "type": "bytes32"
        },
        {
          "internalType": "address",
          "name": "account",
          "type": "address"
        }
      ],
      "name": "hasRole",
      "outputs": [
        {
          "internalType": "bool",
          "name": "",
          "type": "bool"
        }
      ],
      "stateMutability": "view",
      "type": "function"
    },
    {
      "inputs": [
        {
          "internalType": "address",
          "name": "spender",
          "type": "address"
        },
        {
          "internalType": "uint256",
          "name": "addedValue",
          "type": "uint256"
        }
      ],
      "name": "increaseAllowance",
      "outputs": [
        {
          "internalType": "bool",
          "name": "",
          "type": "bool"
        }
      ],
      "stateMutability": "nonpayable",
      "type": "function"
    },
    {
      "inputs": [],
      "name": "name",
      "outputs": [
        {
          "internalType": "string",
          "name": "",
          "type": "string"
        }
      ],
      "stateMutability": "view",
      "type": "function"
    },
    {
      "inputs": [
        {
          "internalType": "bytes32",
          "name": "role",
          "type": "bytes32"
        },
        {
          "internalType": "address",
          "name": "account",
          "type": "address"
        }
      ],
      "name": "renounceRole",
      "outputs": [],
      "stateMutability": "nonpayable",
      "type": "function"
    },
    {
      "inputs": [
        {
          "internalType": "bytes32",
          "name": "role",
          "type": "bytes32"
        },
        {
          "internalType": "address",
          "name": "account",
          "type": "address"
        }
      ],
      "name": "revokeRole",
      "outputs": [],
      "stateMutability": "nonpayable",
      "type": "function"
    },
    {
      "inputs": [],
      "name": "symbol",
      "outputs": [
        {
          "internalType": "string",
          "name": "",
          "type": "string"
        }
      ],
      "stateMutability": "view",
      "type": "function"
    },
    {
      "inputs": [],
      "name": "totalSupply",
      "outputs": [
        {
          "internalType": "uint256",
          "name": "",
          "type": "uint256"
        }
      ],
      "stateMutability": "view",
      "type": "function"
    },
    {
      "inputs": [
        {
          "internalType": "address",
          "name": "recipient",
          "type": "address"
        },
        {
          "internalType": "uint256",
          "name": "amount",
          "type": "uint256"
        }
      ],
      "name": "transfer",
      "outputs": [
        {
          "internalType": "bool",
          "name": "",
          "type": "bool"
        }
      ],
      "stateMutability": "nonpayable",
      "type": "function"
    },
    {
      "inputs": [
        {
          "internalType": "address",
          "name": "sender",
          "type": "address"
        },
        {
          "internalType": "address",
          "name": "recipient",
          "type": "address"
        },
        {
          "internalType": "uint256",
          "name": "amount",
          "type": "uint256"
        }
      ],
      "name": "transferFrom",
      "outputs": [
        {
          "internalType": "bool",
          "name": "",
          "type": "bool"
        }
      ],
      "stateMutability": "nonpayable",
      "type": "function"
    },
    {
      "inputs": [
        {
          "internalType": "string",
          "name": "name_",
          "type": "string"
        },
        {
          "internalType": "string",
          "name": "symbol_",
          "type": "string"
        },
        {
          "internalType": "uint8",
          "name": "decimals_",
          "type": "uint8"
        },
        {
          "internalType": "address",
          "name": "childChainManager",
          "type": "address"
        }
      ],
      "name": "initialize",
      "outputs": [],
      "stateMutability": "nonpayable",
      "type": "function"
    },
    {
      "inputs": [
        {
          "internalType": "string",
          "name": "name_",
          "type": "string"
        }
      ],
      "name": "changeName",
      "outputs": [],
      "stateMutability": "nonpayable",
      "type": "function"
    },
    {
      "inputs": [
        {
          "internalType": "address",
          "name": "user",
          "type": "address"
        },
        {
          "internalType": "bytes",
          "name": "depositData",
          "type": "bytes"
        }
      ],
      "name": "deposit",
      "outputs": [],
      "stateMutability": "nonpayable",
      "type": "function"
    },
    {
      "inputs": [
        {
          "internalType": "uint256",
          "name": "amount",
          "type": "uint256"
        }
      ],
      "name": "withdraw",
      "outputs": [],
      "stateMutability": "nonpayable",
      "type": "function"
    }
  ],
  "bytecode": "0x60806040526008805460ff191690553480156200001b57600080fd5b50604080516020808201808452600080845284519283019094529281528151919290916200004c9160039162000078565b5080516200006290600490602084019062000078565b50506005805460ff19166012179055506200011d565b828054600181600116156101000203166002900490600052602060002090601f016020900481019282601f10620000bb57805160ff1916838001178555620000eb565b82800160010185558215620000eb579182015b82811115620000eb578251825591602001919060010190620000ce565b50620000f9929150620000fd565b5090565b6200011a91905b80821115620000f9576000815560010162000104565b90565b6124f7806200012d6000396000f3fe6080604052600436106101c25760003560e01c806339509351116100f7578063a3b0b5a311610095578063cf2c52cb11610064578063cf2c52cb14610776578063d547741f14610801578063dd62ed3e1461083a578063de7ea79d14610875576101c2565b8063a3b0b5a3146106c5578063a457c2d7146106da578063a9059cbb14610713578063ca15c8731461074c576101c2565b80639010d07c116100d15780639010d07c1461061657806391d148541461066257806395d89b411461069b578063a217fddf146106b0576101c2565b8063395093511461052f5780635353a2d81461056857806370a08231146105e3576101c2565b8063248a9ca3116101645780632f2ff15d1161013e5780632f2ff15d1461047d578063313ce567146104b65780633408e470146104e157806336568abe146104f6576101c2565b8063248a9ca3146103f45780632d0335ab1461041e5780632e1a7d4d14610451576101c2565b80630f7e5970116101a05780630f7e59701461036057806318160ddd1461037557806320379ee51461039c57806323b872dd146103b1576101c2565b806306fdde03146101c7578063095ea7b3146102515780630c53c51c1461029e575b600080fd5b3480156101d357600080fd5b506101dc610952565b6040805160208082528351818301528351919283929083019185019080838360005b838110156102165781810151838201526020016101fe565b50505050905090810190601f1680156102435780820380516001836020036101000a031916815260200191505b509250505060405180910390f35b34801561025d57600080fd5b5061028a6004803603604081101561027457600080fd5b506001600160a01b0381351690602001356109e9565b604080519115158252519081900360200190f35b6101dc600480360360a08110156102b457600080fd5b6001600160a01b038235169190810190604081016020820135600160201b8111156102de57600080fd5b8201836020820111156102f057600080fd5b803590602001918460018302840111600160201b8311171561031157600080fd5b91908080601f016020809104026020016040519081016040528093929190818152602001838380828437600092019190915250929550508235935050506020810135906040013560ff16610a07565b34801561036c57600080fd5b506101dc610d0a565b34801561038157600080fd5b5061038a610d27565b60408051918252519081900360200190f35b3480156103a857600080fd5b5061038a610d2d565b3480156103bd57600080fd5b5061028a600480360360608110156103d457600080fd5b506001600160a01b03813581169160208101359091169060400135610d33565b34801561040057600080fd5b5061038a6004803603602081101561041757600080fd5b5035610dc0565b34801561042a57600080fd5b5061038a6004803603602081101561044157600080fd5b50356001600160a01b0316610dd5565b34801561045d57600080fd5b5061047b6004803603602081101561047457600080fd5b5035610df0565b005b34801561048957600080fd5b5061047b600480360360408110156104a057600080fd5b50803590602001356001600160a01b0316610e04565b3480156104c257600080fd5b506104cb610e70565b6040805160ff9092168252519081900360200190f35b3480156104ed57600080fd5b5061038a610e79565b34801561050257600080fd5b5061047b6004803603604081101561051957600080fd5b50803590602001356001600160a01b0316610e7d565b34801561053b57600080fd5b5061028a6004803603604081101561055257600080fd5b506001600160a01b038135169060200135610ede565b34801561057457600080fd5b5061047b6004803603602081101561058b57600080fd5b810190602081018135600160201b8111156105a557600080fd5b8201836020820111156105b757600080fd5b803590602001918460018302840111600160201b831117156105d857600080fd5b509092509050610f32565b3480156105ef57600080fd5b5061038a6004803603602081101561060657600080fd5b50356001600160a01b0316611064565b34801561062257600080fd5b506106466004803603604081101561063957600080fd5b508035906020013561107f565b604080516001600160a01b039092168252519081900360200190f35b34801561066e57600080fd5b5061028a6004803603604081101561068557600080fd5b50803590602001356001600160a01b03166110a4565b3480156106a757600080fd5b506101dc6110c2565b3480156106bc57600080fd5b5061038a611123565b3480156106d157600080fd5b5061038a611128565b3480156106e657600080fd5b5061028a600480360360408110156106fd57600080fd5b506001600160a01b03813516906020013561114e565b34801561071f57600080fd5b5061028a6004803603604081101561073657600080fd5b506001600160a01b0381351690602001356111bc565b34801561075857600080fd5b5061038a6004803603602081101561076f57600080fd5b50356111d0565b34801561078257600080fd5b5061047b6004803603604081101561079957600080fd5b6001600160a01b038235169190810190604081016020820135600160201b8111156107c357600080fd5b8201836020820111156107d557600080fd5b803590602001918460018302840111600160201b831117156107f657600080fd5b5090925090506111e7565b34801561080d57600080fd5b5061047b6004803603604081101561082457600080fd5b50803590602001356001600160a01b03166112a4565b34801561084657600080fd5b5061038a6004803603604081101561085d57600080fd5b506001600160a01b03813581169160200135166112fd565b34801561088157600080fd5b5061047b6004803603608081101561089857600080fd5b810190602081018135600160201b8111156108b257600080fd5b8201836020820111156108c457600080fd5b803590602001918460018302840111600160201b831117156108e557600080fd5b919390929091602081019035600160201b81111561090257600080fd5b82018360208201111561091457600080fd5b803590602001918460018302840111600160201b8311171561093557600080fd5b9193509150803560ff1690602001356001600160a01b0316611328565b60038054604080516020601f60026000196101006001881615020190951694909404938401819004810282018101909252828152606093909290918301828280156109de5780601f106109b3576101008083540402835291602001916109de565b820191906000526020600020905b8154815290600101906020018083116109c157829003601f168201915b505050505090505b90565b60006109fd6109f66114cc565b84846114db565b5060015b92915050565b6060610a11612133565b50604080516060810182526001600160a01b0388166000818152600a602090815290849020548352820152908101869052610a4f87828787876115c7565b610a8a5760405162461bcd60e51b81526004018080602001828103825260218152602001806123e36021913960400191505060405180910390fd5b6001600160a01b0387166000908152600a6020526040902054610ab490600163ffffffff6116a416565b6001600160a01b0388166000818152600a602090815260408083209490945583519283523383820181905260609484018581528b51958501959095528a517f5845892132946850460bff5a0083f71031bc5bf9aadcd40f1de79423eac9b10b958d9592948d94919260808501928601918190849084905b83811015610b43578181015183820152602001610b2b565b50505050905090810190601f168015610b705780820380516001836020036101000a031916815260200191505b5094505050505060405180910390a160006060306001600160a01b0316888a6040516020018083805190602001908083835b60208310610bc15780518252601f199092019160209182019101610ba2565b6001836020036101000a038019825116818451168082178552505050505050905001826001600160a01b03166001600160a01b031660601b8152601401925050506040516020818303038152906040526040518082805190602001908083835b60208310610c405780518252601f199092019160209182019101610c21565b6001836020036101000a0380198251168184511680821785525050505050509050019150506000604051808303816000865af19150503d8060008114610ca2576040519150601f19603f3d011682016040523d82523d6000602084013e610ca7565b606091505b509150915081610cfe576040805162461bcd60e51b815260206004820152601c60248201527f46756e6374696f6e2063616c6c206e6f74207375636365737366756c00000000604482015290519081900360640190fd5b98975050505050505050565b604051806040016040528060018152602001603160f81b81525081565b60025490565b60095490565b6000610d408484846116fe565b610db684610d4c6114cc565b610db1856040518060600160405280602881526020016123bb602891396001600160a01b038a16600090815260016020526040812090610d8a6114cc565b6001600160a01b03168152602081019190915260400160002054919063ffffffff61186516565b6114db565b5060019392505050565b60009081526006602052604090206002015490565b6001600160a01b03166000908152600a602052604090205490565b610e01610dfb6114cc565b826118fc565b50565b600082815260066020526040902060020154610e2790610e226114cc565b6110a4565b610e625760405162461bcd60e51b815260040180806020018281038252602f81526020018061223b602f913960400191505060405180910390fd5b610e6c8282611a04565b5050565b60055460ff1690565b4690565b610e856114cc565b6001600160a01b0316816001600160a01b031614610ed45760405162461bcd60e51b815260040180806020018281038252602f815260200180612493602f913960400191505060405180910390fd5b610e6c8282611a73565b60006109fd610eeb6114cc565b84610db18560016000610efc6114cc565b6001600160a01b03908116825260208083019390935260409182016000908120918c16815292529020549063ffffffff6116a416565b6000610f4081610e226114cc565b600790610fe05760405162461bcd60e51b8152602060048201908152825460026000196101006001841615020190911604602483018190529091829160449091019084908015610fd15780601f10610fa657610100808354040283529160200191610fd1565b820191906000526020600020905b815481529060010190602001808311610fb457829003601f168201915b50509250505060405180910390fd5b5061102083838080601f016020809104026020016040519081016040528093929190818152602001838380828437600092019190915250611ae292505050565b61105f83838080601f016020809104026020016040519081016040528093929190818152602001838380828437600092019190915250611af592505050565b505050565b6001600160a01b031660009081526020819052604090205490565b600082815260066020526040812061109d908363ffffffff611bb116565b9392505050565b600082815260066020526040812061109d908363ffffffff611bbd16565b60048054604080516020601f60026000196101006001881615020190951694909404938401819004810282018101909252828152606093909290918301828280156109de5780601f106109b3576101008083540402835291602001916109de565b600081565b604080516d4445504f5349544f525f524f4c4560901b8152905190819003600e01902081565b60006109fd61115b6114cc565b84610db18560405180606001604052806025815260200161246e60259139600160006111856114cc565b6001600160a01b03908116825260208083019390935260409182016000908120918d1681529252902054919063ffffffff61186516565b60006109fd6111c96114cc565b84846116fe565b6000818152600660205260408120610a0190611bd2565b604080516d4445504f5349544f525f524f4c4560901b8152905190819003600e01902061121681610e226114cc565b60079061127c5760405162461bcd60e51b8152602060048201908152825460026000196101006001841615020190911604602483018190529091829160449091019084908015610fd15780601f10610fa657610100808354040283529160200191610fd1565b5060008383602081101561128f57600080fd5b5035905061129d8582611bdd565b5050505050565b6000828152600660205260409020600201546112c290610e226114cc565b610ed45760405162461bcd60e51b81526004018080602001828103825260308152602001806123666030913960400191505060405180910390fd5b6001600160a01b03918216600090815260016020908152604080832093909416825291909152205490565b60085460ff1615611371576040805162461bcd60e51b815260206004820152600e60248201526d185b1c9958591e481a5b9a5d195960921b604482015290519081900360640190fd5b6113b086868080601f016020809104026020016040519081016040528093929190818152602001838380828437600092019190915250611ae292505050565b6113ef84848080601f016020809104026020016040519081016040528093929190818152602001838380828437600092019190915250611cd992505050565b6113f882611cec565b611439848460405160200180806410da1a5b1960da1b8152506005018383808284378083019250505092505050604051602081830303815290604052611d02565b61144b60006114466114cc565b610e62565b604080516d4445504f5349544f525f524f4c4560901b8152905190819003600e0190206114789082610e62565b6114b786868080601f016020809104026020016040519081016040528093929190818152602001838380828437600092019190915250611da092505050565b50506008805460ff1916600117905550505050565b60006114d6611e02565b905090565b6001600160a01b0383166115205760405162461bcd60e51b815260040180806020018281038252602481526020018061244a6024913960400191505060405180910390fd5b6001600160a01b0382166115655760405162461bcd60e51b81526004018080602001828103825260228152602001806122cf6022913960400191505060405180910390fd5b6001600160a01b03808416600081815260016020908152604080832094871680845294825291829020859055815185815291517f8c5be1e5ebec7d5bd14f71427d1e84f3dd0314c0f7b2291e5b200ac8c7c3b9259281900390910190a3505050565b60006001600160a01b03861661160e5760405162461bcd60e51b81526004018080602001828103825260258152602001806123966025913960400191505060405180910390fd5b600161162161161c87611e5f565b611eeb565b83868660405160008152602001604052604051808581526020018460ff1660ff1681526020018381526020018281526020019450505050506020604051602081039080840390855afa15801561167b573d6000803e3d6000fd5b505050602060405103516001600160a01b0316866001600160a01b031614905095945050505050565b60008282018381101561109d576040805162461bcd60e51b815260206004820152601b60248201527f536166654d6174683a206164646974696f6e206f766572666c6f770000000000604482015290519081900360640190fd5b6001600160a01b0383166117435760405162461bcd60e51b81526004018080602001828103825260258152602001806124256025913960400191505060405180910390fd5b6001600160a01b0382166117885760405162461bcd60e51b81526004018080602001828103825260238152602001806122186023913960400191505060405180910390fd5b61179383838361105f565b6117d681604051806060016040528060268152602001612340602691396001600160a01b038616600090815260208190526040902054919063ffffffff61186516565b6001600160a01b03808516600090815260208190526040808220939093559084168152205461180b908263ffffffff6116a416565b6001600160a01b038084166000818152602081815260409182902094909455805185815290519193928716927fddf252ad1be2c89b69c2b068fc378daa952ba7f163c4a11628f55a4df523b3ef92918290030190a3505050565b600081848411156118f45760405162461bcd60e51b81526004018080602001828103825283818151815260200191508051906020019080838360005b838110156118b95781810151838201526020016118a1565b50505050905090810190601f1680156118e65780820380516001836020036101000a031916815260200191505b509250505060405180910390fd5b505050900390565b6001600160a01b0382166119415760405162461bcd60e51b81526004018080602001828103825260218152602001806124046021913960400191505060405180910390fd5b61194d8260008361105f565b6119908160405180606001604052806022815260200161226a602291396001600160a01b038516600090815260208190526040902054919063ffffffff61186516565b6001600160a01b0383166000908152602081905260409020556002546119bc908263ffffffff611f3716565b6002556040805182815290516000916001600160a01b038516917fddf252ad1be2c89b69c2b068fc378daa952ba7f163c4a11628f55a4df523b3ef9181900360200190a35050565b6000828152600660205260409020611a22908263ffffffff611f7916565b15610e6c57611a2f6114cc565b6001600160a01b0316816001600160a01b0316837f2f8788117e7eff1d82e926ec794901d17c78024a50270940304540a733656f0d60405160405180910390a45050565b6000828152600660205260409020611a91908263ffffffff611f8e16565b15610e6c57611a9e6114cc565b6001600160a01b0316816001600160a01b0316837ff6391f5c32d9c69d2a47ea670b442974b53935d1edc7fd64eb21e047a839171b60405160405180910390a45050565b8051610e6c90600390602084019061215d565b6040518060800160405280604f81526020016122f1604f913980516020918201208251838301206040805180820190915260018152603160f81b930192909252907fc89efdaa54c0f20c7adf612882df0950f5a951637e0307cdcb4c672f298b8bc630611b60610e79565b604080516020808201979097528082019590955260608501939093526001600160a01b03909116608084015260a0808401919091528151808403909101815260c09092019052805191012060095550565b600061109d8383611fa3565b600061109d836001600160a01b038416612007565b6000610a018261201f565b6001600160a01b038216611c38576040805162461bcd60e51b815260206004820152601f60248201527f45524332303a206d696e7420746f20746865207a65726f206164647265737300604482015290519081900360640190fd5b611c446000838361105f565b600254611c57908263ffffffff6116a416565b6002556001600160a01b038216600090815260208190526040902054611c83908263ffffffff6116a416565b6001600160a01b0383166000818152602081815260408083209490945583518581529351929391927fddf252ad1be2c89b69c2b068fc378daa952ba7f163c4a11628f55a4df523b3ef9281900390910190a35050565b8051610e6c90600490602084019061215d565b6005805460ff191660ff92909216919091179055565b806040516020018082805190602001908083835b60208310611d355780518252601f199092019160209182019101611d16565b51815160209384036101000a60001901801990921691161790527f3a20494e53554646494349454e545f5045524d495353494f4e530000000000009190930190815260408051808303600519018152601a90920190528051610e6c955060079450920191905061215d565b60085460ff1615611de9576040805162461bcd60e51b815260206004820152600e60248201526d185b1c9958591e481a5b9a5d195960921b604482015290519081900360640190fd5b611df281611af5565b506008805460ff19166001179055565b600033301415611e5a5760606000368080601f0160208091040260200160405190810160405280939291908181526020018383808284376000920191909152505050503601516001600160a01b031691506109e69050565b503390565b600060405180608001604052806043815260200161228c60439139805190602001208260000151836020015184604001518051906020012060405160200180858152602001848152602001836001600160a01b03166001600160a01b03168152602001828152602001945050505050604051602081830303815290604052805190602001209050919050565b6000611ef5610d2d565b82604051602001808061190160f01b81525060020183815260200182815260200192505050604051602081830303815290604052805190602001209050919050565b600061109d83836040518060400160405280601e81526020017f536166654d6174683a207375627472616374696f6e206f766572666c6f770000815250611865565b600061109d836001600160a01b038416612023565b600061109d836001600160a01b03841661206d565b81546000908210611fe55760405162461bcd60e51b81526004018080602001828103825260228152602001806121f66022913960400191505060405180910390fd5b826000018281548110611ff457fe5b9060005260206000200154905092915050565b60009081526001919091016020526040902054151590565b5490565b600061202f8383612007565b61206557508154600181810184556000848152602080822090930184905584548482528286019093526040902091909155610a01565b506000610a01565b6000818152600183016020526040812054801561212957835460001980830191908101906000908790839081106120a057fe5b90600052602060002001549050808760000184815481106120bd57fe5b6000918252602080832090910192909255828152600189810190925260409020908401905586548790806120ed57fe5b60019003818190600052602060002001600090559055866001016000878152602001908152602001600020600090556001945050505050610a01565b6000915050610a01565b60405180606001604052806000815260200160006001600160a01b03168152602001606081525090565b828054600181600116156101000203166002900490600052602060002090601f016020900481019282601f1061219e57805160ff19168380011785556121cb565b828001600101855582156121cb579182015b828111156121cb5782518255916020019190600101906121b0565b506121d79291506121db565b5090565b6109e691905b808211156121d757600081556001016121e156fe456e756d657261626c655365743a20696e646578206f7574206f6620626f756e647345524332303a207472616e7366657220746f20746865207a65726f2061646472657373416363657373436f6e74726f6c3a2073656e646572206d75737420626520616e2061646d696e20746f206772616e7445524332303a206275726e20616d6f756e7420657863656564732062616c616e63654d6574615472616e73616374696f6e2875696e74323536206e6f6e63652c616464726573732066726f6d2c62797465732066756e6374696f6e5369676e61747572652945524332303a20617070726f766520746f20746865207a65726f2061646472657373454950373132446f6d61696e28737472696e67206e616d652c737472696e672076657273696f6e2c6164647265737320766572696679696e67436f6e74726163742c627974657333322073616c742945524332303a207472616e7366657220616d6f756e7420657863656564732062616c616e6365416363657373436f6e74726f6c3a2073656e646572206d75737420626520616e2061646d696e20746f207265766f6b654e61746976654d6574615472616e73616374696f6e3a20494e56414c49445f5349474e455245524332303a207472616e7366657220616d6f756e74206578636565647320616c6c6f77616e63655369676e657220616e64207369676e617475726520646f206e6f74206d6174636845524332303a206275726e2066726f6d20746865207a65726f206164647265737345524332303a207472616e736665722066726f6d20746865207a65726f206164647265737345524332303a20617070726f76652066726f6d20746865207a65726f206164647265737345524332303a2064656372656173656420616c6c6f77616e63652062656c6f77207a65726f416363657373436f6e74726f6c3a2063616e206f6e6c792072656e6f756e636520726f6c657320666f722073656c66a2646970667358221220d6ad6f2339397bdbf4e03b8f7673a880f82edd8a81b7bdf7530ba16003cc794064736f6c63430006060033",
  "immutableReferences": {},
  "source": "pragma solidity 0.6.6;\n\nimport {ERC20} from \"./ERC20.sol\";\nimport {AccessControlMixin} from \"../../../common/AccessControlMixin.sol\";\nimport {IChildToken} from \"../IChildToken.sol\";\nimport {NativeMetaTransaction} from \"../../../common/NativeMetaTransaction.sol\";\nimport {ContextMixin} from \"../../../common/ContextMixin.sol\";\n\n\ncontract UChildERC20 is\n    ERC20,\n    IChildToken,\n    AccessControlMixin,\n    NativeMetaTransaction,\n    ContextMixin\n{\n    bytes32 public constant DEPOSITOR_ROLE = keccak256(\"DEPOSITOR_ROLE\");\n\n    constructor() public ERC20(\"\", \"\") {}\n\n    /**\n     * @notice Initialize the contract after it has been proxified\n     * @dev meant to be called once immediately after deployment\n     */\n    function initialize(\n        string calldata name_,\n        string calldata symbol_,\n        uint8 decimals_,\n        address childChainManager\n    )\n        external\n        initializer\n    {\n        setName(name_);\n        setSymbol(symbol_);\n        setDecimals(decimals_);\n        _setupContractId(string(abi.encodePacked(\"Child\", symbol_)));\n        _setupRole(DEFAULT_ADMIN_ROLE, _msgSender());\n        _setupRole(DEPOSITOR_ROLE, childChainManager);\n        _initializeEIP712(name_);\n    }\n\n    // This is to support Native meta transactions\n    // never use msg.sender directly, use _msgSender() instead\n    function _msgSender()\n        internal\n        override\n        view\n        returns (address payable sender)\n    {\n        return ContextMixin.msgSender();\n    }\n\n    function changeName(string calldata name_) external only(DEFAULT_ADMIN_ROLE) {\n        setName(name_);\n        _setDomainSeperator(name_);\n    }\n\n    /**\n     * @notice called when token is deposited on root chain\n     * @dev Should be callable only by ChildChainManager\n     * Should handle deposit by minting the required amount for user\n     * Make sure minting is done only by this function\n     * @param user user address for whom deposit is being done\n     * @param depositData abi encoded amount\n     */\n    function deposit(address user, bytes calldata depositData)\n        external\n        override\n        only(DEPOSITOR_ROLE)\n    {\n        uint256 amount = abi.decode(depositData, (uint256));\n        _mint(user, amount);\n    }\n\n    /**\n     * @notice called when user wants to withdraw tokens back to root chain\n     * @dev Should burn user's tokens. This transaction will be verified when exiting on root chain\n     * @param amount amount of tokens to withdraw\n     */\n    function withdraw(uint256 amount) external {\n        _burn(_msgSender(), amount);\n    }\n}\n",
  "sourcePath": "/Users/abhimanyushekhawat/projects/matic-contracts/contracts/child/ChildToken/UpgradeableChildERC20/UChildERC20.sol",
  "compiler": {
    "name": "solc",
    "version": "0.6.6+commit.6c089d02.Emscripten.clang"
  },
  "schemaVersion": "3.3.4",
  "updatedAt": "2021-03-01T19:59:54.772Z",
  "devdoc": {
    "methods": {
      "allowance(address,address)": {
        "details": "See {IERC20-allowance}."
      },
      "approve(address,uint256)": {
        "details": "See {IERC20-approve}.     * Requirements:     * - `spender` cannot be the zero address."
      },
      "balanceOf(address)": {
        "details": "See {IERC20-balanceOf}."
      },
      "decimals()": {
        "details": "Returns the number of decimals used to get its user representation. For example, if `decimals` equals `2`, a balance of `505` tokens should be displayed to a user as `5,05` (`505 / 10 ** 2`).     * Tokens usually opt for a value of 18, imitating the relationship between Ether and Wei. This is the value {ERC20} uses, unless {_setupDecimals} is called.     * NOTE: This information is only used for _display_ purposes: it in no way affects any of the arithmetic of the contract, including {IERC20-balanceOf} and {IERC20-transfer}."
      },
      "decreaseAllowance(address,uint256)": {
        "details": "Atomically decreases the allowance granted to `spender` by the caller.     * This is an alternative to {approve} that can be used as a mitigation for problems described in {IERC20-approve}.     * Emits an {Approval} event indicating the updated allowance.     * Requirements:     * - `spender` cannot be the zero address. - `spender` must have allowance for the caller of at least `subtractedValue`."
      },
      "deposit(address,bytes)": {
        "details": "Should be callable only by ChildChainManager Should handle deposit by minting the required amount for user Make sure minting is done only by this function",
        "params": {
          "depositData": "abi encoded amount",
          "user": "user address for whom deposit is being done"
        }
      },
      "getRoleAdmin(bytes32)": {
        "details": "Returns the admin role that controls `role`. See {grantRole} and {revokeRole}.     * To change a role's admin, use {_setRoleAdmin}."
      },
      "getRoleMember(bytes32,uint256)": {
        "details": "Returns one of the accounts that have `role`. `index` must be a value between 0 and {getRoleMemberCount}, non-inclusive.     * Role bearers are not sorted in any particular way, and their ordering may change at any point.     * WARNING: When using {getRoleMember} and {getRoleMemberCount}, make sure you perform all queries on the same block. See the following https://forum.openzeppelin.com/t/iterating-over-elements-on-enumerableset-in-openzeppelin-contracts/2296[forum post] for more information."
      },
      "getRoleMemberCount(bytes32)": {
        "details": "Returns the number of accounts that have `role`. Can be used together with {getRoleMember} to enumerate all bearers of a role."
      },
      "grantRole(bytes32,address)": {
        "details": "Grants `role` to `account`.     * If `account` had not been already granted `role`, emits a {RoleGranted} event.     * Requirements:     * - the caller must have ``role``'s admin role."
      },
      "hasRole(bytes32,address)": {
        "details": "Returns `true` if `account` has been granted `role`."
      },
      "increaseAllowance(address,uint256)": {
        "details": "Atomically increases the allowance granted to `spender` by the caller.     * This is an alternative to {approve} that can be used as a mitigation for problems described in {IERC20-approve}.     * Emits an {Approval} event indicating the updated allowance.     * Requirements:     * - `spender` cannot be the zero address."
      },
      "initialize(string,string,uint8,address)": {
        "details": "meant to be called once immediately after deployment"
      },
      "name()": {
        "details": "Returns the name of the token."
      },
      "renounceRole(bytes32,address)": {
        "details": "Revokes `role` from the calling account.     * Roles are often managed via {grantRole} and {revokeRole}: this function's purpose is to provide a mechanism for accounts to lose their privileges if they are compromised (such as when a trusted device is misplaced).     * If the calling account had been granted `role`, emits a {RoleRevoked} event.     * Requirements:     * - the caller must be `account`."
      },
      "revokeRole(bytes32,address)": {
        "details": "Revokes `role` from `account`.     * If `account` had been granted `role`, emits a {RoleRevoked} event.     * Requirements:     * - the caller must have ``role``'s admin role."
      },
      "symbol()": {
        "details": "Returns the symbol of the token, usually a shorter version of the name."
      },
      "totalSupply()": {
        "details": "See {IERC20-totalSupply}."
      },
      "transfer(address,uint256)": {
        "details": "See {IERC20-transfer}.     * Requirements:     * - `recipient` cannot be the zero address. - the caller must have a balance of at least `amount`."
      },
      "transferFrom(address,address,uint256)": {
        "details": "See {IERC20-transferFrom}.     * Emits an {Approval} event indicating the updated allowance. This is not required by the EIP. See the note at the beginning of {ERC20};     * Requirements: - `sender` and `recipient` cannot be the zero address. - `sender` must have a balance of at least `amount`. - the caller must have allowance for ``sender``'s tokens of at least `amount`."
      },
      "withdraw(uint256)": {
        "details": "Should burn user's tokens. This transaction will be verified when exiting on root chain",
        "params": {
          "amount": "amount of tokens to withdraw"
        }
      }
    }
  },
  "userdoc": {
    "methods": {
      "deposit(address,bytes)": {
        "notice": "called when token is deposited on root chain"
      },
      "initialize(string,string,uint8,address)": {
        "notice": "Initialize the contract after it has been proxified"
      },
      "withdraw(uint256)": {
        "notice": "called when user wants to withdraw tokens back to root chain"
      }
    }
  }
}